03300000        2023566251000133011710130046627     007651732           RASTREADORES PROTEGE LTDA ME  BANCO SANTANDER (BRASIL) S/A            230042018      000550040                                                                         T
03397251T01  040 2023566251000133007651732           011710130046627     RASTREADORES PROTEGE LTDA ME                                                                                  0000055030042018                                         
0339725300001T 17011710130046627        00000002074031               3004201800000000001239034140790                         002000000000000000                                        01300466270000000000007260400000000                      
0339725300002U 170000000000000000000000000000000000000000000000000000000000000000000000123900000000000123900000000000000000000000000000003004201802052018000000000000000000000000000                              000                           
0339725300003T 17011710130046627        00000002079931               3004201800000000001300003335831                         002000000000000000                                        01300466270000000000007260300000000                      
0339725300004U 170000000000000000000000000000000000000000000000000000000000000000000000130000000000000130000000000000000000000000000000003004201802052018000000000000000000000000000                              000                           
0339725300005T 06011710130046627        00000002082302EVK1387004     3004201800000000000650023701070                         001000068145454891ADEMIR PORTELLA DE BIASO                01300466270000000000000000400000000                      
0339725300006U 060000000000000000000000000000000000000000000000000000000000000000000000065000000000000065000000000000000000000000000000003004201802052018000000000000000000000000000                              000                           
0339725300007T 06011710130046627        000000020872822PLACAS006     3004201800000000001300023703280                         001000006272909810AGNALDO DE LIMA                         01300466270000000000000000400000000                      
0339725300008U 060000000000000000000000000000000000000000000000000000000000000000000000130000000000000130000000000000000000000000000000003004201802052018000000000000000000000000000                              000                           
0339725300009T 06011710130046627        00000002096862EWT2877004     3004201800000000000650034163110                         001000022408383889ALEX SANDRO NUNES GOMES                 01300466270000000000000000400000000                      
0339725300010U 060000000000000000000000000000000000000000000000000000000000000000000000065000000000000065000000000000000000000000000000003004201802052018000000000000000000000000000                              000                           
0339725300011T 06011710130046627        00000002098052BXF1294004     3004201800000000000650023706010                         001000032583626884ALEX SANTOS DOS ANJOS                   01300466270000000000000000400000000                      
0339725300012U 060000000000000000000000000000000000000000000000000000000000000000000000065000000000000065000000000000000000000000000000003004201802052018000000000000000000000000000                              000                           
0339725300013T 06011710130046627        00000002100482CPG1655004     3004201800000000000650023707120                         001000024934277854ALEXANDRE MANOEL                        01300466270000000000000000400000000                      
0339725300014U 060000000000000000000000000000000000000000000000000000000000000000000000065000000000000065000000000000000000000000000000003004201802052018000000000000000000000000000                              000                           
0339725300015T 06011710130046627        00000002102852ALT9987014     3004201800000000000650034184640                         001000028890028882ALVARO HENRIQUES DE SIQUEIRA            01300466270000000000000000400000000                      
0339725300016U 060000000000000000000000000000000000000000000000000000000000000000000000065000000000000065000000000000000000000000000000003004201802052018000000000000000000000000000                              000                           
0339725300017T 17011710130046627        00000002108891               3004201800000000001300034180460                         002000000000000000                                        01300466270000000000007260400000000                      
0339725300018U 170000000000000000000000000000000000000000000000000000000000000000000000130000000000000130000000000000000000000000000000003004201802052018000000000000000000000000000                              000                           
0339725300019T 06011710130046627        00000002110012GXH8106004     3004201800000000001300023725610                         001000033345514826ANDERSON APARECIDO DE SOUZA             01300466270000000000000000400000000                      
0339725300020U 060000000000000000000000000000000000000000000000000000000000000000000000130000000000000130000000000000000000000000000000003004201802052018000000000000000000000000000                              000                           
0339725300021T 06011710130046627        00000002111252FJF4466004     3004201800000000000650023719550                         001000036789112855ANDERSON BARBOSA PAREJA                 01300466270000000000000000400000000                      
0339725300022U 060000000000000000000000000000000000000000000000000000000000000000000000065000000000000065000000000000000000000000000000003004201802052018000000000000000000000000000                              000                           
0339725300023T 06011710130046627        000000021196625 PLACAS004    3004201800000000003000023705270                         002002969607000100ANDRE & MACEDO AUTO SOCORRO LTDA-ME     01300466270000000000000000400000000                      
0339725300024U 060000000000000000000000000000000000000000000000000000000000000000000000300000000000000300000000000000000000000000000000003004201802052018000000000000000000000000000                              000                           
0339725300025T 06011710130046627        00000002121302BUT8669014     3004201800000000000650010405760                         001000008805071870ANTONIO APARECIDO MORAES                01300466270000000000000000400000000                      
0339725300026U 060000000000000000000000000000000000000000000000000000000000000000000000065000000000000065000000000000000000000000000000003004201802052018000000000000000000000000000                              000                           
0339725300027T 06011710130046627        00000002123772FQG3386014     3004201800000000000650034100370                         001000027286816861ANTONIO SERGIO DE OLIVEIRA DE PAULA     01300466270000000000000000400000000                      
0339725300028U 060000000000000000000000000000000000000000000000000000000000000000000000065000000000000065000000000000000000000000000000003004201802052018000000000000000000000000000                              000                           
0339725300029T 06011710130046627        00000002129702BXF1877004     3004201800000000000650003344334                         002066562596000121ARTUR GRANA NETO - ME                   01300466270000000000000000300000000                      
0339725300030U 060000000000000000000000000000000000000000000000000000000000000000000000065000000000000065000000000000000000000000000000003004201802052018000000000000000000000000000                              000                           
0339725300031T 06011710130046627        000000021309822 PLACAS028    3004201800000000002600023779440                         002000638481000165AUGUSTINO DE FATIMA DOS SANTOS M.E      01300466270000000000000000400000000                      
0339725300032U 060000000000000000000000000000000000000000000000000000000000000000000000260000000000000260000000000000000000000000000000003004201802052018000000000000000000000000000                              000                           
0339725300033T 06011710130046627        00000002133302EJY4700014     3004201800000000001300023701540                         001000009198376705BARBARA APARECIDA MARQIES SUMMA         01300466270000000000000000400000000                      
0339725300034U 060000000000000000000000000000000000000000000000000000000000000000000000130000000000000130000000000000000000000000000000003004201802052018000000000000000000000000000                              000                           
0339725300035T 06011710130046627        00000002134542CQH2021005     3004201800000000000650000104560                         002005850997000192BBR TRANSPORTES LTDA - ME               01300466270000000000000000400000000                      
0339725300036U 060000000000000000000000000000000000000000000000000000000000000000000000065000000000000065000000000000000000000000000000003004201802052018000000000000000000000000000                              000                           
0339725300037T 06011710130046627        00000002135782GPC0602004     3004201800000000000650010401810                         001000083452583600BENEDITO FERREIRA LIMA JUNIOR           01300466270000000000000000400000000                      
0339725300038U 060000000000000000000000000000000000000000000000000000000000000000000000065000000000000065000000000000000000000000000000003004201802052018000000000000000000000000000                              000                           
0339725300039T 06011710130046627        000000021489224 PLACAS016    3004201800000000004550023723910                         002021263799000189CARLOS CESAR COELHO JUNIOR - ME         01300466270000000000000000400000000                      
0339725300040U 060000000000000000000000000000000000000000000000000000000000000000000000455000000000000455000000000000000000000000000000003004201802052018000000000000000000000000000                              000                           
0339725300041T 06011710130046627        00000002152522DVS2638004     3004201800000000001300023702140                         001000012924012813CELSO FERREIRA ALVES                    01300466270000000000000000400000000                      
0339725300042U 060000000000000000000000000000000000000000000000000000000000000000000000130000000000000130000000000000000000000000000000003004201802052018000000000000000000000000000                              000                           
0339725300043T 06011710130046627        00000002155112MMB5500015     3004201800000000001300000147700                         002009318444000144ANDRADE E ABREU TRANSPORTES LTDA - ME   01300466270000000000000000400000000                      
0339725300044U 060000000000000000000000000000000000000000000000000000000000000000000000130000000000000130000000000000000000000000000000003004201802052018000000000000000000000000000                              000                           
0339725300045T 06011710130046627        00000002156432BYH9885005     3004201800000000000650000147700                         002009318444000144ANDRADE E ABREU TRANSPORTES LTDA - ME   01300466270000000000000000400000000                      
0339725300046U 060000000000000000000000000000000000000000000000000000000000000000000000065000000000000065000000000000000000000000000000003004201802052018000000000000000000000000000                              000                           
0339725300047T 06011710130046627        00000002157672BWQ6008014     3004201800000000001300010428840                         001000005729037821CLAUDEMIR CREPALDI                      01300466270000000000000000400000000                      
0339725300048U 060000000000000000000000000000000000000000000000000000000000000000000000130000000000000130000000000000000000000000000000003004201802052018000000000000000000000000000                              000                           
0339725300049T 06011710130046627        00000002161272FWC1850004     3004201800000000001300034101600                         001000008648854822CLAUDIO DA FONSECA CASTILHO             01300466270000000000000000400000000                      
0339725300050U 060000000000000000000000000000000000000000000000000000000000000000000000130000000000000130000000000000000000000000000000003004201802052018000000000000000000000000000                              000                           
0339725300051T 06011710130046627        00000002163642DJB0903014     3004201800000000000650023702770                         001000036843350453CLEDINALDO  BORGES LIMEIRA              01300466270000000000000000400000000                      
0339725300052U 060000000000000000000000000000000000000000000000000000000000000000000000065000000000000065000000000000000000000000000000003004201802052018000000000000000000000000000                              000                           
0339725300053T 06011710130046627        000000021648822 PLACAS       3004201800000000001300000168660                         001000024949639153CLOVIS ANTONIO PACHECO DE MORAES        01300466270000000000000000400000000                      
0339725300054U 060000000000000000000000000000000000000000000000000000000000000000000000130000000000000130000000000000000000000000000000003004201802052018000000000000000000000000000                              000                           
0339725300055T 06011710130046627        00000002169682AHG / KFI004   3004201800000000001300023701460                         002024858015000153D&A TRANSPORTES RODOVIARIOS             01300466270000000000000000400000000                      
0339725300056U 060000000000000000000000000000000000000000000000000000000000000000000000130000000000000130000000000000000000000000000000003004201802052018000000000000000000000000000                              000                           
0339725300057T 06011710130046627        00000002175652EGK6228004     3004201800000000001300023720040                         001000001833738802DANIEL MARTINS DE FREITAS               01300466270000000000000000400000000                      
0339725300058U 060000000000000000000000000000000000000000000000000000000000000000000000130000000000000130000000000000000000000000000000003004201802052018000000000000000000000000000                              000                           
0339725300059T 06011710130046627        00000002176892FIH9130004     3004201800000000000650003337176                         001000008773869864DANIEL REBELLO FIGUEIREDO               01300466270000000000000000300000000                      
0339725300060U 060000000000000000000000000000000000000000000000000000000000000000000000065000000000000065000000000000000000000000000000003004201802052018000000000000000000000000000                              000                           
0339725300061T 06011710130046627        00000002180492CWJ5835004     3004201800000000000650003315709                         001000010284546860DOUGLAS ROGERIO SANTANA                 01300466270000000000000000300000000                      
0339725300062U 060000000000000000000000000000000000000000000000000000000000000000000000065000000000000065000000000000000000000000000000003004201802052018000000000000000000000000000                              000                           
0339725300063T 06011710130046627        00000002181622BTR7331004     3004201800000000000650023728390                         001000012879399882EBERSON LAZARO DA SILVEIRA              01300466270000000000000000400000000                      
0339725300064U 060000000000000000000000000000000000000000000000000000000000000000000000065000000000000065000000000000000000000000000000003004201802052018000000000000000000000000000                              000                           
0339725300065T 06011710130046627        00000002190022JSV8589004     3004201800000000000650023720190                         001000027409523840EDNEI DE CAMPOS CAMARGO                 01300466270000000000000000400000000                      
0339725300066U 060000000000000000000000000000000000000000000000000000000000000000000000065000000000000065000000000000000000000000000000003004201802052018000000000000000000000000000                              000                           
0339725300067T 06011710130046627        00000002203292BTR5809014     3004201800000000000650023717950                         001000037749650806ELIO CARVALHO DOS SANTOS                01300466270000000000000000400000000                      
0339725300068U 060000000000000000000000000000000000000000000000000000000000000000000000065000000000000065000000000000000000000000000000003004201802052018000000000000000000000000000                              000                           
0339725300069T 06011710130046627        00000002205662NTM2707004     3004201800000000000650034166900                         001000080953441849EPIFANIO MEDEIROS CAVALCANTE            01300466270000000000000000400000000                      
0339725300070U 060000000000000000000000000000000000000000000000000000000000000000000000065000000000000065000000000000000000000000000000003004201802052018000000000000000000000000000                              000                           
0339725300071T 06011710130046627        00000002206802DPF0047004     3004201800000000000650003301783                         002025328087000151ERIESTER DOMINGOS                       01300466270000000000000000300000000                      
0339725300072U 060000000000000000000000000000000000000000000000000000000000000000000000065000000000000065000000000000000000000000000000003004201802052018000000000000000000000000000                              000                           
0339725300073T 06011710130046627        00000002217672JYZ0978004     3004201800000000000650003321679                         001000006723612485FABIO SIBELLI PEIXOTO                   01300466270000000000000000300000000                      
0339725300074U 060000000000000000000000000000000000000000000000000000000000000000000000065000000000000065000000000000000000000000000000003004201802052018000000000000000000000000000                              000                           
0339725300075T 06011710130046627        00000002220032ABI8280004     3004201800000000000650010417780                         001000028440808801FERNANDO CAPARROS                       01300466270000000000000000400000000                      
0339725300076U 060000000000000000000000000000000000000000000000000000000000000000000000065000000000000065000000000000000000000000000000003004201802052018000000000000000000000000000                              000                           
0339725300077T 06011710130046627        00000002222402CSQ5845004     3004201800000000000650000106630                         001000028448839900FERNANDO ZUMBA DA COSTA                 01300466270000000000000000400000000                      
0339725300078U 060000000000000000000000000000000000000000000000000000000000000000000000065000000000000065000000000000000000000000000000003004201802052018000000000000000000000000000                              000                           
0339725300079T 06011710130046627        00000002223642BXI3774004     3004201800000000000650003301570                         001000043678190510FIDELSINO PEREIRA DO SANTOS             01300466270000000000000000300000000                      
0339725300080U 060000000000000000000000000000000000000000000000000000000000000000000000065000000000000065000000000000000000000000000000003004201802052018000000000000000000000000000                              000                           
0339725300081T 06011710130046627        00000002227202CYA8744014     3004201800000000000650010413510                         001000007193627848FRANCISCA  MARIA DA CONCEICAO           01300466270000000000000000400000000                      
0339725300082U 060000000000000000000000000000000000000000000000000000000000000000000000065000000000000065000000000000000000000000000000003004201802052018000000000000000000000000000                              000                           
0339725300083T 06011710130046627        00000002236892AMV / AMR004   3004201800000000001300034112920                         002026518440000129GIZELE REGINA DA ROSA TRANSPORTES - ME  01300466270000000000000000400000000                      
0339725300084U 060000000000000000000000000000000000000000000000000000000000000000000000130000000000000130000000000000000000000000000000003004201802052018000000000000000000000000000                              000                           
0339725300085T 06011710130046627        00000002242862BWZ2205014     3004201800000000000650010445710                         001000009468418880HELIO LEITE DAS CHAGAS                  01300466270000000000000000400000000                      
0339725300086U 060000000000000000000000000000000000000000000000000000000000000000000000065000000000000065000000000000000000000000000000003004201802052018000000000000000000000000000                              000                           
0339725300087T 06011710130046627        00000002244052CUC4211004     3004201800000000001300034115660                         001000012105410847HENRIQUE SPINOSA MOSSINI                01300466270000000000000000400000000                      
0339725300088U 060000000000000000000000000000000000000000000000000000000000000000000000130000000000000130000000000000000000000000000000003004201802052018000000000000000000000000000                              000                           
0339725300089T 06011710130046627        000000022512626 PLACAS004    3004201800000000004550034181620                         002010525486000135JC DOS SANTOS SALTO ME                  01300466270000000000000000400000000                      
0339725300090U 060000000000000000000000000000000000000000000000000000000000000000000000455000000000000455000000000000000000000000000000003004201802052018000000000000000000000000000                              000                           
0339725300091T 06011710130046627        00000002252402NLI3238004     3004201800000000001300023724970                         001000015681196828JEFERSON APARECIDO RAMOS                01300466270000000000000000400000000                      
0339725300092U 060000000000000000000000000000000000000000000000000000000000000000000000130000000000000130000000000000000000000000000000003004201802052018000000000000000000000000000                              000                           
0339725300093T 06011710130046627        00000002253632DJB6485004     3004201800000000000650023701550                         001000029518535809JESER BATISTA FERNANDES                 01300466270000000000000000400000000                      
0339725300094U 060000000000000000000000000000000000000000000000000000000000000000000000065000000000000065000000000000000000000000000000003004201802052018000000000000000000000000000                              000                           
0339725300095T 06011710130046627        00000002257202MCV4762004     3004201800000000000650010406420                         001000026180250839JOAO FRANCISCO RAMOS                    01300466270000000000000000400000000                      
0339725300096U 060000000000000000000000000000000000000000000000000000000000000000000000065000000000000065000000000000000000000000000000003004201802052018000000000000000000000000000                              000                           
0339725300097T 06011710130046627        00000002262032HEH7404004     3004201800000000001300003316322                         001000000372055958JOCELI FERNANDES                        01300466270000000000000000300000000                      
0339725300098U 060000000000000000000000000000000000000000000000000000000000000000000000130000000000000130000000000000000000000000000000003004201802052018000000000000000000000000000                              000                           
0339725300099T 06011710130046627        00000002265642DVT3791004     3004201800000000001300003300876                         001000015645108833JORGE EDUARDO DA SILVA                  01300466270000000000000000300000000                      
0339725300100U 060000000000000000000000000000000000000000000000000000000000000000000000130000000000000130000000000000000000000000000000003004201802052018000000000000000000000000000                              000                           
0339725300101T 06011710130046627        00000002271612MSK3754004     3004201800000000000650034148680                         001000008951094847JOSE AUGUSTO MARTINS DE ALENCAR         01300466270000000000000000400000000                      
0339725300102U 060000000000000000000000000000000000000000000000000000000000000000000000065000000000000065000000000000000000000000000000003004201802052018000000000000000000000000000                              000                           
0339725300103T 06011710130046627        00000002274042NTG7316004     3004201800000000001300010402730                         001000009034151867JOSE CARLOS DE FARIAS                   01300466270000000000000000400000000                      
0339725300104U 060000000000000000000000000000000000000000000000000000000000000000000000130000000000000130000000000000000000000000000000003004201802052018000000000000000000000000000                              000                           
0339725300105T 06011710130046627        00000002275282KVV4027004     3004201800000000001300010405590                         001000009034151867JOSE CARLOS DE FARIAS                   01300466270000000000000000400000000                      
0339725300106U 060000000000000000000000000000000000000000000000000000000000000000000000130000000000000130000000000000000000000000000000003004201802052018000000000000000000000000000                              000                           
0339725300107T 06011710130046627        000000022764123 PLACAS050    3004201800000000001950075632060                         002009411473000156JOSE CLAUDIO TAZINAFO - ME              01300466270000000000000000400000000                      
0339725300108U 060000000000000000000000000000000000000000000000000000000000000000000000195000000000000195000000000000000000000000000000003004201802052018000000000000000000000000000                              000                           
0339725300109T 06011710130046627        00000002296282GDT2998004     3004201800000000001300010449510                         002008114153000171JUVENAL M. DE JESUS - ME                01300466270000000000000000400000000                      
0339725300110U 060000000000000000000000000000000000000000000000000000000000000000000000130000000000000130000000000000000000000000000000003004201802052018000000000000000000000000000                              000                           
0339725300111T 06011710130046627        00000002305022BWG3848004     3004201800000000000650034100140                         001000032933386828LUIS FERNANDO BATONI GERBI JUNIOR       01300466270000000000000000400000000                      
0339725300112U 060000000000000000000000000000000000000000000000000000000000000000000000065000000000000065000000000000000000000000000000003004201802052018000000000000000000000000000                              000                           
0339725300113T 06011710130046627        000000023110025 PLACAS016    3004201800000000006500010409620                         002021977215000137M BRAGA TRANSPORTES LTDA ME             01300466270000000000000000400000000                      
0339725300114U 060000000000000000000000000000000000000000000000000000000000000000000000650000000000000650000000000000000000000000000000003004201802052018000000000000000000000000000                              000                           
0339725300115T 06011710130046627        00000002317032ADL1839004     3004201800000000000650010417780                         001000025141726835MARCELO FURGERI BELENT                  01300466270000000000000000400000000                      
0339725300116U 060000000000000000000000000000000000000000000000000000000000000000000000065000000000000065000000000000000000000000000000003004201802052018000000000000000000000000000                              000                           
0339725300117T 06011710130046627        00000002319402AQP6180004     3004201800000000000650010446350                         001000031240671857MARCELO PINHEIRO DELLAMURA              01300466270000000000000000400000000                      
0339725300118U 060000000000000000000000000000000000000000000000000000000000000000000000065000000000000065000000000000000000000000000000003004201802052018000000000000000000000000000                              000                           
0339725300119T 06011710130046627        00000002321812AGT8539014     3004201800000000000650003308109                         001000081928700900MARCIA RIBEIRO TERLUK                   01300466270000000000000000300000000                      
0339725300120U 060000000000000000000000000000000000000000000000000000000000000000000000065000000000000065000000000000000000000000000000003004201802052018000000000000000000000000000                              000                           
0339725300121T 06011710130046627        00000002330212GWD6821004     3004201800000000000650034190520                         001000030915526832MARCIO RICARDO DE OLIVEIRA              01300466270000000000000000400000000                      
0339725300122U 060000000000000000000000000000000000000000000000000000000000000000000000065000000000000065000000000000000000000000000000003004201802052018000000000000000000000000000                              000                           
0339725300123T 17011710130046627        00000002335281               3004201800000000000722023706360                         002000000000000000                                        01300466270000000000007260400000000                      
0339725300124U 170000000000000000000000000000000000000000000000000000000000000000000000072200000000000072200000000000000000000000000000003004201802052018000000000000000000000000000                              000                           
0339725300125T 06011710130046627        00000002338972BFE9024004     3004201800000000000650010442110                         001000003334906817MARINA EMILIA PEREIRA                   01300466270000000000000000400000000                      
0339725300126U 060000000000000000000000000000000000000000000000000000000000000000000000065000000000000065000000000000000000000000000000003004201802052018000000000000000000000000000                              000                           
0339725300127T 06011710130046627        00000002342572KDF6264004     3004201800000000001300003333359                         001000005758898961MARK DIEISON LOPES CHAVES               01300466270000000000000000300000000                      
0339725300128U 060000000000000000000000000000000000000000000000000000000000000000000000130000000000000130000000000000000000000000000000003004201802052018000000000000000000000000000                              000                           
0339725300129T 06011710130046627        00000002346132KDL5652016     3004201800000000000650023729480                         001000063361647053MAURO LUIS NASCIMENTO RODRIGUES         01300466270000000000000000400000000                      
0339725300130U 060000000000000000000000000000000000000000000000000000000000000000000000065000000000000065000000000000000000000000000000003004201802052018000000000000000000000000000                              000                           
0339725300131T 06011710130046627        00000002347372DJB7259004     3004201800000000001300003346329                         002022635906000115MAX A. S. BOMFIM TRANSPORTES            01300466270000000000000000300000000                      
0339725300132U 060000000000000000000000000000000000000000000000000000000000000000000000130000000000000130000000000000000000000000000000003004201802052018000000000000000000000000000                              000                           
0339725300133T 06011710130046627        00000002350912LPV1436004     3004201800000000000650023723660                         001000036646098832MICHEL WESLEY BEZERRA DA SILVA          01300466270000000000000000400000000                      
0339725300134U 060000000000000000000000000000000000000000000000000000000000000000000000065000000000000065000000000000000000000000000000003004201802052018000000000000000000000000000                              000                           
0339725300135T 06011710130046627        00000002354662CLH9160006     3004201800000000001300000174010                         001000005796151894MILTON CAPRIOLI POLETINI                01300466270000000000000000400000000                      
0339725300136U 060000000000000000000000000000000000000000000000000000000000000000000000130000000000000130000000000000000000000000000000003004201802052018000000000000000000000000000                              000                           
0339725300137T 06011710130046627        00000002357092MWO2993004     3004201800000000001300034105400                         001000007668587748MONICA SOARES DO NASCIMENTO COUTO       01300466270000000000000000400000000                      
0339725300138U 060000000000000000000000000000000000000000000000000000000000000000000000130000000000000130000000000000000000000000000000003004201802052018000000000000000000000000000                              000                           
0339725300139T 06011710130046627        00000002359112EFO1717004     3004201800000000001300023724180                         001000040170031845NEIDE APARECIDA DIAS                    01300466270000000000000000400000000                      
0339725300140U 060000000000000000000000000000000000000000000000000000000000000000000000130000000000000130000000000000000000000000000000003004201802052018000000000000000000000000000                              000                           
0339725300141T 06011710130046627        00000002363902HLX2280004     3004201800000000001950034196770                         002011417306000164NUNES ASSESSORIA                        01300466270000000000000000400000000                      
0339725300142U 060000000000000000000000000000000000000000000000000000000000000000000000195000000000000195000000000000000000000000000000003004201802052018000000000000000000000000000                              000                           
0339725300143T 06011710130046627        00000002365192GVP7647004     3004201800000000001300023701990                         002002864732000155OASIS AUTO PECAS FUNILARIA              01300466270000000000000000400000000                      
0339725300144U 060000000000000000000000000000000000000000000000000000000000000000000000130000000000000130000000000000000000000000000000003004201802052018000000000000000000000000000                              000                           
0339725300145T 06011710130046627        00000002366322DSD3759004     3004201800000000000650003305037                         002013247224000144OLIVEIRA GUINCHO E SERVICOS DE TRANSPORT01300466270000000000000000300000000                      
0339725300146U 060000000000000000000000000000000000000000000000000000000000000000000000065000000000000065000000000000000000000000000000003004201802052018000000000000000000000000000                              000                           
0339725300147T 06011710130046627        00000002368702HRN1556014     3004201800000000001300023727320                         001000006110729809OSMAR CANDIDO DA SILVA                  01300466270000000000000000400000000                      
0339725300148U 060000000000000000000000000000000000000000000000000000000000000000000000130000000000000130000000000000000000000000000000003004201802052018000000000000000000000000000                              000                           
0339725300149T 06011710130046627        00000002374772BTS6926004     3004201800000000000650034166810                         001000017317591858PAULO HENRIQUE MANGUE LOUREIRO          01300466270000000000000000400000000                      
0339725300150U 060000000000000000000000000000000000000000000000000000000000000000000000065000000000000065000000000000000000000000000000003004201802052018000000000000000000000000000                              000                           
0339725300151T 06011710130046627        00000002400952GHR7789005     2005201800000000000500003345608                         001000068302061891PAULO HIROSHI AOYAMA                    01300466270000000000000000300000000                      
0339725300152U 060000000000000000000000000000000000000000000000000000000000000000000000050000000000000050000000000000000000000000000000003004201802052018000000000000000000000000000                              000                           
0339725300153T 06011710130046627        00000002439732ETO7088003     3004201800000000001139010432780                         001000029584126873WILLIAN TOVANI MARQUES                  01300466270000000000000000400000000                      
0339725300154U 060000000000000000000000000000000000000000000000000000000000000000000000113900000000000113900000000000000000000000000000003004201802052018000000000000000000000000000                              000                           
0339725300155T 06011710130046627        00000002450032DTC1592028     3004201800000000001300023728600                         001000026674438880ELOI RIBEIRO DA SILVA JUNIOR            01300466270000000000000000400000000                      
0339725300156U 060000000000000000000000000000000000000000000000000000000000000000000000130000000000000130000000000000000000000000000000003004201802052018000000000000000000000000000                              000                           
0339725300157T 06011710130046627        00000002451272HNU3255014     3004201800000000001139003338091                         001000012785154886MARCELO SCHIAVELLI                      01300466270000000000000000300000000                      
0339725300158U 060000000000000000000000000000000000000000000000000000000000000000000000113900000000000113900000000000000000000000000000003004201802052018000000000000000000000000000                              000                           
0339725300159T 06011710130046627        00000002454962PYF4589002     3004201800000000001139003331372                         001000001593538154DANIELLE FERNANDES BRITO                01300466270000000000000000300000000                      
0339725300160U 060000000000000000000000000000000000000000000000000000000000000000000000113900000000000113900000000000000000000000000000003004201802052018000000000000000000000000000                              000                           
0339725300161T 06011710130046627        00000002458522HIS6655002     3004201800000000001139000116830                         001000025849129880FABRIZIO CEREDA                         01300466270000000000000000400000000                      
0339725300162U 060000000000000000000000000000000000000000000000000000000000000000000000113900000000000113900000000000000000000000000000003004201802052018000000000000000000000000000                              000                           
0339725300163T 17011710130046627        00000002468401               3004201800000000001139010429290                         002000000000000000                                        01300466270000000000007260400000000                      
0339725300164U 170000000000000000000000000000000000000000000000000000000000000000000000113900000000000113900000000000000000000000000000003004201802052018000000000000000000000000000                              000                           
0339725300165T 06011710130046627        00000002469642EBF4985008     3004201800000000001388023723030                         001000005271448860EDNA ANALIA DE OLIVEIRA RAPUCCI         01300466270000000000000000400000000                      
0339725300166U 060000000000000000000000000000000000000000000000000000000000000000000000138800000000000138800000000000000000000000000000003004201802052018000000000000000000000000000                              000                           
0339725300167T 06011710130046627        00000002474722NWC5266004     3004201800000000001300010432690                         001000001782808957PAULO ROBERTO PEREIRA                   01300466270000000000000000400000000                      
0339725300168U 060000000000000000000000000000000000000000000000000000000000000000000000130000000000000130000000000000000000000000000000003004201802052018000000000000000000000000000                              000                           
0339725300169T 06011710130046627        00000002475962ELW9115004     3004201800000000000650023731140                         001000011592026800PAULO SERGIO TAKETSUMA                  01300466270000000000000000400000000                      
0339725300170U 060000000000000000000000000000000000000000000000000000000000000000000000065000000000000065000000000000000000000000000000003004201802052018000000000000000000000000000                              000                           
0339725300171T 06011710130046627        00000002484362DPB4546004     3004201800000000000650003337346                         001000029308375864RAFAEL GARBES FEITOSA                   01300466270000000000000000300000000                      
0339725300172U 060000000000000000000000000000000000000000000000000000000000000000000000065000000000000065000000000000000000000000000000003004201802052018000000000000000000000000000                              000                           
0339725300173T 06011710130046627        00000002487972BFW4160014     3004201800000000000650023704320                         001000034841271805REGINALDO CARDENAS MORETTO              01300466270000000000000000400000000                      
0339725300174U 060000000000000000000000000000000000000000000000000000000000000000000000065000000000000065000000000000000000000000000000003004201802052018000000000000000000000000000                              000                           
0339725300175T 17011710130046627        00000002490331               3004201800000000001950010423350                         002000000000000000                                        01300466270000000000007260400000000                      
0339725300176U 170000000000000000000000000000000000000000000000000000000000000000000000195000000000000195000000000000000000000000000000003004201802052018000000000000000000000000000                              000                           
0339725300177T 06011710130046627        00000002493942CZK2129004     3004201800000000000650034127310                         002011264745000184RISTHEA LOGISTICA E TRANSPORTE LTDA - EP01300466270000000000000000400000000                      
0339725300178U 060000000000000000000000000000000000000000000000000000000000000000000000065000000000000065000000000000000000000000000000003004201802052018000000000000000000000000000                              000                           
0339725300179T 06011710130046627        00000002495132EFV2250014     3004201800000000000650000129960                         001000008441520801ROBERTO CARLOS RODRIGUES                01300466270000000000000000400000000                      
0339725300180U 060000000000000000000000000000000000000000000000000000000000000000000000065000000000000065000000000000000000000000000000003004201802052018000000000000000000000000000                              000                           
0339725300181T 06011710130046627        00000002498822HOM4354014     3004201800000000000650010408990                         001000004886539912ROGERIO DO NASCIMENTO AMARAL            01300466270000000000000000400000000                      
0339725300182U 060000000000000000000000000000000000000000000000000000000000000000000000065000000000000065000000000000000000000000000000003004201802052018000000000000000000000000000                              000                           
0339725300183T 06011710130046627        00000002513212GGM2124004     3004201800000000000650000116490                         001000078446678853TERCILIA COVRE FERREIRA                 01300466270000000000000000400000000                      
0339725300184U 060000000000000000000000000000000000000000000000000000000000000000000000065000000000000065000000000000000000000000000000003004201802052018000000000000000000000000000                              000                           
0339725300185T 06011710130046627        00000002515692FFN5125004     3004201800000000000650034108380                         002007642208000153TIBIS EIRELI EPP                        01300466270000000000000000400000000                      
0339725300186U 060000000000000000000000000000000000000000000000000000000000000000000000065000000000000065000000000000000000000000000000003004201802052018000000000000000000000000000                              000                           
0339725300187T 06011710130046627        000000025168222PLACAS030     3004201800000000001950023703790                         002012695336000103TRANSPORTADORA 3R BEBEDOURO LTDA - ME   01300466270000000000000000400000000                      
0339725300188U 060000000000000000000000000000000000000000000000000000000000000000000000195000000000000195000000000000000000000000000000003004201802052018000000000000000000000000000                              000                           
0339725300189T 06011710130046627        00000002537232HVU3759006     3004201800000000000650023702140                         001000046928529172VANDERLEI MARQUES DE OLIVEIRA           01300466270000000000000000400000000                      
0339725300190U 060000000000000000000000000000000000000000000000000000000000000000000000065000000000000065000000000000000000000000000000003004201802052018000000000000000000000000000                              000                           
0339725300191T 06011710130046627        00000002540882FEJ8861004     3004201800000000000650010431280                         002014536532000152VELOZTER TRANPORTES                     01300466270000000000000000400000000                      
0339725300192U 060000000000000000000000000000000000000000000000000000000000000000000000065000000000000065000000000000000000000000000000003004201802052018000000000000000000000000000                              000                           
0339725300193T 06011710130046627        00000002543202ISV1243004     3004201800000000000650034169330                         001000060840013000WAGNER TOLETO VIEIRA DAS CHAGAS         01300466270000000000000000400000000                      
0339725300194U 060000000000000000000000000000000000000000000000000000000000000000000000065000000000000065000000000000000000000000000000003004201802052018000000000000000000000000000                              000                           
0339725300195T 06011710130046627        00000002551652BVX1753004     3004201800000000000650010444990                         001000004290060803WILSON ARRUDA                           01300466270000000000000000400000000                      
0339725300196U 060000000000000000000000000000000000000000000000000000000000000000000000065000000000000065000000000000000000000000000000003004201802052018000000000000000000000000000                              000                           
0339725300197T 06011710130046627        00000002552892EGK2167004     3004201800000000001300003337990                         001000002710715830WILSON FERNANDES GONCALVES              01300466270000000000000000300000000                      
0339725300198U 060000000000000000000000000000000000000000000000000000000000000000000000130000000000000130000000000000000000000000000000003004201802052018000000000000000000000000000                              000                           
0339725300199T 06011710130046627        00000002557692EJW8110004     3004201800000000000650034100240                         001000026673701803EDSON MESSIAS MARCELINO                 01300466270000000000000000400000000                      
0339725300200U 060000000000000000000000000000000000000000000000000000000000000000000000065000000000000065000000000000000000000000000000003004201802052018000000000000000000000000000                              000                           
0339725300201T 06011710130046627        00000002562692DTD8631024     3004201800000000001239023705590                         001000015323098805RICARDO DINIZ DA SILVA                  01300466270000000000000000400000000                      
0339725300202U 060000000000000000000000000000000000000000000000000000000000000000000000123900000000000123900000000000000000000000000000003004201802052018000000000000000000000000000                              000                           
0339725300203T 06011710130046627        00000002568702GHJ5444004     3004201800000000000700023779380                         001000063422891820HIROMI KURATA                           01300466270000000000000000400000000                      
0339725300204U 060000000000000000000000000000000000000000000000000000000000000000000000070000000000000070000000000000000000000000000000003004201802052018000000000000000000000000000                              000                           
0339725300205T 06011710130046627        00000002574782FEH4501004     3004201800000000001139010402530                         001000028254613850ADAILTON DOS SANTOS                     01300466270000000000000000400000000                      
0339725300206U 060000000000000000000000000000000000000000000000000000000000000000000000113900000000000113900000000000000000000000000000003004201802052018000000000000000000000000000                              000                           
0339725300207T 06011710130046627        00000002586792DEZ9059014     3004201800000000001239010447880                         001000015075109500ALOISIO CHAGAS SOUZA                    01300466270000000000000000400000000                      
0339725300208U 060000000000000000000000000000000000000000000000000000000000000000000000123900000000000123900000000000000000000000000000003004201802052018000000000000000000000000000                              000                           
0339725300209T 06011710130046627        00000002587922MKC6636007     3004201800000000001139010403750                         001000058668675915ALVARO LUIZ SANDRI                      01300466270000000000000000400000000                      
0339725300210U 060000000000000000000000000000000000000000000000000000000000000000000000113900000000000113900000000000000000000000000000003004201802052018000000000000000000000000000                              000                           
0339725300211T 06011710130046627        00000002595272EXU8909014     3004201800000000001239034192740                         001000040342984802AMERICO CREMM CONTATORI                 01300466270000000000000000400000000                      
0339725300212U 060000000000000000000000000000000000000000000000000000000000000000000000123900000000000123900000000000000000000000000000003004201802052018000000000000000000000000000                              000                           
0339725300213T 06011710130046627        00000002600022FFN9313004     3004201800000000001139010419060                         001000029151105810ANACIR BARBOSA DOS SANTOS               01300466270000000000000000400000000                      
0339725300214U 060000000000000000000000000000000000000000000000000000000000000000000000113900000000000113900000000000000000000000000000003004201802052018000000000000000000000000000                              000                           
0339725300215T 06011710130046627        00000002602402CQH4232014     3004201800000000001489023714640                         001000022423750838ANDERSON FERNANDES DA SILVA             01300466270000000000000000400000000                      
0339725300216U 060000000000000000000000000000000000000000000000000000000000000000000000148900000000000148900000000000000000000000000000003004201802052018000000000000000000000000000                              000                           
0339725300217T 06011710130046627        00000002603632AZL0011004     3004201800000000001139023714640                         001000022423750838ANDERSON FERNANDES DA SILVA             01300466270000000000000000400000000                      
0339725300218U 060000000000000000000000000000000000000000000000000000000000000000000000113900000000000113900000000000000000000000000000003004201802052018000000000000000000000000000                              000                           
0339725300219T 06011710130046627        00000002607202BYH7417004     3004201800000000001149000147700                         002009318444000144ANDRADE E ABREU TRANSPORTES LTDA - ME   01300466270000000000000000400000000                      
0339725300220U 060000000000000000000000000000000000000000000000000000000000000000000000114900000000000114900000000000000000000000000000003004201802052018000000000000000000000000000                              000                           
0339725300221T 06011710130046627        00000002608432BWA5179014     3004201800000000001480023705270                         002002969607000100ANDRE & MACEDO AUTO SOCORRO LTDA-ME     01300466270000000000000000400000000                      
0339725300222U 060000000000000000000000000000000000000000000000000000000000000000000000148000000000000148000000000000000000000000000000003004201802052018000000000000000000000000000                              000                           
0339725300223T 06011710130046627        00000002609672HIO0389014     3004201800000000001239034100180                         001000024649964830ANDRE ANGELO DE FREITAS                 01300466270000000000000000400000000                      
0339725300224U 060000000000000000000000000000000000000000000000000000000000000000000000123900000000000123900000000000000000000000000000003004201802052018000000000000000000000000000                              000                           
0339725300225T 06011710130046627        00000002610842NXM2176004     3004201800000000002038034100180                         001000024649964830ANDRE ANGELO DE FREITAS                 01300466270000000000000000400000000                      
0339725300226U 060000000000000000000000000000000000000000000000000000000000000000000000203800000000000203800000000000000000000000000000003004201802052018000000000000000000000000000                              000                           
0339725300227T 06011710130046627        00000002614402AMG5818014     3004201800000000001070034137060                         001000006925683952ANTONIO COELHO NETO                     01300466270000000000000000400000000                      
0339725300228U 060000000000000000000000000000000000000000000000000000000000000000000000107000000000000107000000000000000000000000000000003004201802052018000000000000000000000000000                              000                           
0339725300229T 06011710130046627        00000002616882CVK4922014     3004201800000000001139010410860                         001000013293063845ANTONIO INACIO DA SILVA                 01300466270000000000000000400000000                      
0339725300230U 060000000000000000000000000000000000000000000000000000000000000000000000113900000000000113900000000000000000000000000000003004201802052018000000000000000000000000000                              000                           
0339725300231T 06011710130046627        00000002620482EKR4402004     3004201800000000001239034100370                         001000027286816861ANTONIO SERGIO DE OLIVEIRA DE PAULA     01300466270000000000000000400000000                      
0339725300232U 060000000000000000000000000000000000000000000000000000000000000000000000123900000000000123900000000000000000000000000000003004201802052018000000000000000000000000000                              000                           
0339725300233T 06011710130046627        00000002622852EYI3008004     3004201800000000001139003302062                         001000007802896843ARMANDO PEREIRA DA SILVA                01300466270000000000000000300000000                      
0339725300234U 060000000000000000000000000000000000000000000000000000000000000000000000113900000000000113900000000000000000000000000000003004201802052018000000000000000000000000000                              000                           
0339725300235T 06011710130046627        00000002627572BUK0802014     3004201800000000001149023711950                         001000009521860987ARTUR GRANA NETO                        01300466270000000000000000400000000                      
0339725300236U 060000000000000000000000000000000000000000000000000000000000000000000000114900000000000114900000000000000000000000000000003004201802052018000000000000000000000000000                              000                           
0339725300237T 06011710130046627        00000002629942LLG6780022     3004201800000000001239034156550                         001000063537273720AVELINO LEITE MOREIRA                   01300466270000000000000000400000000                      
0339725300238U 060000000000000000000000000000000000000000000000000000000000000000000000123900000000000123900000000000000000000000000000003004201802052018000000000000000000000000000                              000                           
0339725300239T 06011710130046627        00000002637102EZD5186004     3004201800000000001139034187580                         001000039317415830BRUNO DE ALMEIDA                        01300466270000000000000000400000000                      
0339725300240U 060000000000000000000000000000000000000000000000000000000000000000000000113900000000000113900000000000000000000000000000003004201802052018000000000000000000000000000                              000                           
0339725300241T 06011710130046627        00000002639582FMC1106006     3004201800000000001139034107550                         001000038688422842CAIO CESAR NASCIMENTO                   01300466270000000000000000400000000                      
0339725300242U 060000000000000000000000000000000000000000000000000000000000000000000000113900000000000113900000000000000000000000000000003004201802052018000000000000000000000000000                              000                           
0339725300243T 06011710130046627        00000002640752JYU1106014     3004201800000000001480003305517                         001000027184636864CARLA ROCCI ARAUJO                      01300466270000000000000000300000000                      
0339725300244U 060000000000000000000000000000000000000000000000000000000000000000000000148000000000000148000000000000000000000000000000003004201802052018000000000000000000000000000                              000                           
0339725300245T 06011710130046627        00000002644312EUD1155004     3004201800000000002129010412170                         001000029459679870CARLOS JOSE AIROLDE                     01300466270000000000000000400000000                      
0339725300246U 060000000000000000000000000000000000000000000000000000000000000000000000212900000000000212900000000000000000000000000000003004201802052018000000000000000000000000000                              000                           
0339725300247T 06011710130046627        00000002647922EZN4027004     3004201800000000001139000128150                         001000006356017880CARLOS ULISSES DO NASCIMENTO            01300466270000000000000000400000000                      
0339725300248U 060000000000000000000000000000000000000000000000000000000000000000000000113900000000000113900000000000000000000000000000003004201802052018000000000000000000000000000                              000                           
0339725300249T 06011710130046627        00000002649112DUJ6683004     3004201800000000001139034100170                         001000010043806821CATARINA BEZERRA DA COSTA               01300466270000000000000000400000000                      
0339725300250U 060000000000000000000000000000000000000000000000000000000000000000000000113900000000000113900000000000000000000000000000003004201802052018000000000000000000000000000                              000                           
0339725300251T 06011710130046627        00000002652762FAD2987004     3004201800000000001489023728460                         001000040986959871CESAR SANIOTO SARAPKA                   01300466270000000000000000400000000                      
0339725300252U 060000000000000000000000000000000000000000000000000000000000000000000000148900000000000148900000000000000000000000000000003004201802052018000000000000000000000000000                              000                           
0339725300253T 06011710130046627        00000002658702OQI4129024     3004201800000000001139010421590                         001000022223558852CLAUDINE ROSA SOUZA                     01300466270000000000000000400000000                      
0339725300254U 060000000000000000000000000000000000000000000000000000000000000000000000113900000000000113900000000000000000000000000000003004201802052018000000000000000000000000000                              000                           
0339725300255T 06011710130046627        00000002661162AYM2767015     3004201800000000001139010435090                         001000013930184915CLAUDIO BICHELS                         01300466270000000000000000400000000                      
0339725300256U 060000000000000000000000000000000000000000000000000000000000000000000000113900000000000113900000000000000000000000000000003004201802052018000000000000000000000000000                              000                           
0339725300257T 06011710130046627        00000002662302FGB4584004     3004201800000000001489034104660                         001000004758837805CLAUDIO CAETANO DA SILVA                01300466270000000000000000400000000                      
0339725300258U 060000000000000000000000000000000000000000000000000000000000000000000000148900000000000148900000000000000000000000000000003004201802052018000000000000000000000000000                              000                           
0339725300259T 06011710130046627        00000002667102PQQ0596004     3004201800000000001789010412860                         001000056733143968CLEIDE MARA THOMAZ YASSAKA              01300466270000000000000000400000000                      
0339725300260U 060000000000000000000000000000000000000000000000000000000000000000000000178900000000000178900000000000000000000000000000003004201802052018000000000000000000000000000                              000                           
0339725300261T 06011710130046627        00000002669572EUQ8656004     3004201800000000001139010430210                         001000034591806847CRISTIAN CARLOS SBARDELOTTO SILVESTRE   01300466270000000000000000400000000                      
0339725300262U 060000000000000000000000000000000000000000000000000000000000000000000000113900000000000113900000000000000000000000000000003004201802052018000000000000000000000000000                              000                           
0339725300263T 06011710130046627        00000002671982LNE7454014     3004201800000000001239000169390                         001000012964246858CRISTIANO DE OLIVEIRA ROSA              01300466270000000000000000400000000                      
0339725300264U 060000000000000000000000000000000000000000000000000000000000000000000000123900000000000123900000000000000000000000000000003004201802052018000000000000000000000000000                              000                           
0339725300265T 06011710130046627        00000002673172TT6252004      3004201800000000001239003347740                         001000099005247800CUSTODIO DE CARVALHO                    01300466270000000000000000300000000                      
0339725300266U 060000000000000000000000000000000000000000000000000000000000000000000000123900000000000123900000000000000000000000000000003004201802052018000000000000000000000000000                              000                           
0339725300267T 06011710130046627        00000002676782LQG9422004     3004201800000000002038023720040                         001000001833738802DANIEL MARTINS DE FREITAS               01300466270000000000000000400000000                      
0339725300268U 060000000000000000000000000000000000000000000000000000000000000000000000203800000000000203800000000000000000000000000000003004201802052018000000000000000000000000000                              000                           
0339725300269T 06011710130046627        00000002684102CYZ1525010     3004201800000000001239010406370                         001000003158386801DAVI PEGORARO                           01300466270000000000000000400000000                      
0339725300270U 060000000000000000000000000000000000000000000000000000000000000000000000123900000000000123900000000000000000000000000000003004201802052018000000000000000000000000000                              000                           
0339725300271T 06011710130046627        00000002691312DVL1691024     3004201800000000001139023712200                         001000037919599806DIEGO  DE ANDRADE  BANDEIRA             01300466270000000000000000400000000                      
0339725300272U 060000000000000000000000000000000000000000000000000000000000000000000000113900000000000113900000000000000000000000000000003004201802052018000000000000000000000000000                              000                           
0339725300273T 06011710130046627        00000002694922DMZ1224014     3004201800000000001139000127000                         001000036689720870DOUGLAS LISBOA DONZELLI                 01300466270000000000000000400000000                      
0339725300274U 060000000000000000000000000000000000000000000000000000000000000000000000113900000000000113900000000000000000000000000000003004201802052018000000000000000000000000000                              000                           
0339725300275T 06011710130046627        00000002701052BKO5857014     3004201800000000001149023722470                         002096160957000174EDINA SANTANA DE SOUZA HORTIFRUTI GRANJE01300466270000000000000000400000000                      
0339725300276U 060000000000000000000000000000000000000000000000000000000000000000000000114900000000000114900000000000000000000000000000003004201802052018000000000000000000000000000                              000                           
0339725300277T 17011710130046627        00000002707091               3004201800000000001388000168320                         002000000000000000                                        01300466270000000000007260400000000                      
0339725300278U 170000000000000000000000000000000000000000000000000000000000000000000000138800000000000138800000000000000000000000000000003004201802052018000000000000000000000000000                              000                           
0339725300279T 06011710130046627        00000002708222FDN7658004     3004201800000000001139034181270                         001000009228752866EDSON RODRUIGUES LOURENCO               01300466270000000000000000400000000                      
0339725300280U 060000000000000000000000000000000000000000000000000000000000000000000000113900000000000113900000000000000000000000000000003004201802052018000000000000000000000000000                              000                           
0339725300281T 06011710130046627        00000002709462FKO9424004     3004201800000000001139034181270                         001000009228752866EDSON RODRUIGUES LOURENCO               01300466270000000000000000400000000                      
0339725300282U 060000000000000000000000000000000000000000000000000000000000000000000000113900000000000113900000000000000000000000000000003004201802052018000000000000000000000000000                              000                           
0339725300283T 06011710130046627        00000002715432DLP1787004     3004201800000000001139034187580                         001000032163796809EDUARDO DE SANTANA PEGORARO             01300466270000000000000000400000000                      
0339725300284U 060000000000000000000000000000000000000000000000000000000000000000000000113900000000000113900000000000000000000000000000003004201802052018000000000000000000000000000                              000                           
0339725300285T 06011710130046627        00000002719002MPH1133009     3004201800000000001239003312580                         001000006267897966EDYGAR HEMRIQUE KREMER                  01300466270000000000000000300000000                      
0339725300286U 060000000000000000000000000000000000000000000000000000000000000000000000123900000000000123900000000000000000000000000000003004201802052018000000000000000000000000000                              000                           
0339725300287T 17011710130046627        00000002719691               3004201800000000001239003312580                         002000000000000000                                        01300466270000000000007260300000000                      
0339725300288U 170000000000000000000000000000000000000000000000000000000000000000000000123900000000000123900000000000000000000000000000003004201802052018000000000000000000000000000                              000                           
0339725300289T 06011710130046627        00000002723882BIF3512014     3004201800000000001149010408990                         001000032346418897ELIZEU DA CRUZ LIRA                     01300466270000000000000000400000000                      
0339725300290U 060000000000000000000000000000000000000000000000000000000000000000000000114900000000000114900000000000000000000000000000003004201802052018000000000000000000000000000                              000                           
0339725300291T 06011710130046627        00000002727442GMT8700014     3004201800000000001149010408990                         001000011610858824EMERSON EDUARDO PEREIRA TANGERINO       01300466270000000000000000400000000                      
0339725300292U 060000000000000000000000000000000000000000000000000000000000000000000000114900000000000114900000000000000000000000000000003004201802052018000000000000000000000000000                              000                           
0339725300293T 06011710130046627        00000002728682KVZ6195004     3004201800000000001139003307285                         001000030229370837EMERSON FLORES DOS SANTOS               01300466270000000000000000300000000                      
0339725300294U 060000000000000000000000000000000000000000000000000000000000000000000000113900000000000113900000000000000000000000000000003004201802052018000000000000000000000000000                              000                           
0339725300295T 06011710130046627        00000002729812FND7374004     3004201800000000001139003307285                         001000030229370837EMERSON FLORES DOS SANTOS               01300466270000000000000000300000000                      
0339725300296U 060000000000000000000000000000000000000000000000000000000000000000000000113900000000000113900000000000000000000000000000003004201802052018000000000000000000000000000                              000                           
0339725300297T 06011710130046627        00000002734652ATW5295004     3004201800000000001789034129290                         001000005238157940FABIO ALMEIDA PAVONI                    01300466270000000000000000400000000                      
0339725300298U 060000000000000000000000000000000000000000000000000000000000000000000000178900000000000178900000000000000000000000000000003004201802052018000000000000000000000000000                              000                           
0339725300299T 06011710130046627        00000002737082ENQ6002004     3004201800000000001738023724580                         001000038861373844FERNANDO BRITO BARBOSA                  01300466270000000000000000400000000                      
0339725300300U 060000000000000000000000000000000000000000000000000000000000000000000000173800000000000173800000000000000000000000000000003004201802052018000000000000000000000000000                              000                           
0339725300301T 06011710130046627        00000002740622BSG0820024     3004201800000000001480003339870                         002003649492000139FIEL METAIS LTDA-ME                     01300466270000000000000000300000000                      
0339725300302U 060000000000000000000000000000000000000000000000000000000000000000000000148000000000000148000000000000000000000000000000003004201802052018000000000000000000000000000                              000                           
0339725300303T 06011710130046627        00000002741862KMJ6404014     3004201800000000001149023704030                         002022166343000163FIQUEIREDO E SOUZA MATERIAIS PARA CONSTR01300466270000000000000000400000000                      
0339725300304U 060000000000000000000000000000000000000000000000000000000000000000000000114900000000000114900000000000000000000000000000003004201802052018000000000000000000000000000                              000                           
0339725300305T 06011710130046627        00000002743052FAD1298004     3004201800000000002038034107400                         001000026011011802FLAVIO BARBOSA ANACLETO                 01300466270000000000000000400000000                      
0339725300306U 060000000000000000000000000000000000000000000000000000000000000000000000203800000000000203800000000000000000000000000000003004201802052018000000000000000000000000000                              000                           
0339725300307T 06011710130046627        00000002744292EUD2538004     3004201800000000001139034101490                         001000027578837800FLAVIO VICENTE DA SILVA                 01300466270000000000000000400000000                      
0339725300308U 060000000000000000000000000000000000000000000000000000000000000000000000113900000000000113900000000000000000000000000000003004201802052018000000000000000000000000000                              000                           
0339725300309T 06011710130046627        00000002747802EDA1616004     3004201800000000001139023718230                         001000004877273395FRANCISCO GILIARD DA SILVA              01300466270000000000000000400000000                      
0339725300310U 060000000000000000000000000000000000000000000000000000000000000000000000113900000000000113900000000000000000000000000000003004201802052018000000000000000000000000000                              000                           
0339725300311T 17011710130046627        00000002752631               3004201800000000001139010429950                         002000000000000000                                        01300466270000000000007260400000000                      
0339725300312U 170000000000000000000000000000000000000000000000000000000000000000000000113900000000000113900000000000000000000000000000003004201802052018000000000000000000000000000                              000                           
0339725300313T 06011710130046627        00000002758672EQI4403004     3004201800000000001139000142260                         001000072714174787GILBERTO DAMIAO DE ALEMIDA              01300466270000000000000000400000000                      
0339725300314U 060000000000000000000000000000000000000000000000000000000000000000000000113900000000000113900000000000000000000000000000003004201802052018000000000000000000000000000                              000                           
0339725300315T 06011710130046627        000000027694424PLACAS028     3004201800000000005200000129260                         002026456615000110J.A. FORTCAMP TRANSPORTES EIRELI - EPP  01300466270000000000000000400000000                      
0339725300316U 060000000000000000000000000000000000000000000000000000000000000000000000520000000000000520000000000000000000000000000000003004201802052018000000000000000000000000000                              000                           
0339725300317T 06011710130046627        00000002771002AMT0812022     3004201800000000001239034127750                         001000035537795949ANTONIO LIVONZIR DA SILVA               01300466270000000000000000400000000                      
0339725300318U 060000000000000000000000000000000000000000000000000000000000000000000000123900000000000123900000000000000000000000000000003004201802052018000000000000000000000000000                              000                           
0339725300319T 06011710130046627        00000002772312EIH7988002     3004201800000000001139023725110                         001000029667772810ROSE MERENDA MACEDO                     01300466270000000000000000400000000                      
0339725300320U 060000000000000000000000000000000000000000000000000000000000000000000000113900000000000113900000000000000000000000000000003004201802052018000000000000000000000000000                              000                           
0339725300321T 17011710130046627        00000002778511               3004201800000000001070023705310                         002000000000000000                                        01300466270000000000007260400000000                      
0339725300322U 170000000000000000000000000000000000000000000000000000000000000000000000107000000000000107000000000000000000000000000000003004201802052018000000000000000000000000000                              000                           
0339725300323T 06011710130046627        00000002779752CSY9424014     3004201800000000001239010439940                         001000005237984665JOAO PAULO FERREIRA DA SILVA            01300466270000000000000000400000000                      
0339725300324U 060000000000000000000000000000000000000000000000000000000000000000000000123900000000000123900000000000000000000000000000003004201802052018000000000000000000000000000                              000                           
0339725300325T 06011710130046627        00000002784592CJS8730004     3004201800000000001139023701650                         001000014077321883JOEL ALVERS DOS SANTOS FILHO            01300466270000000000000000400000000                      
0339725300326U 060000000000000000000000000000000000000000000000000000000000000000000000113900000000000113900000000000000000000000000000003004201802052018000000000000000000000000000                              000                           
0339725300327T 06011710130046627        00000002788152AXG5636004     3004201800000000001070034175010                         001000007596799914JONATHAN BRUNO FERREIRA DE SOUZA        01300466270000000000000000400000000                      
0339725300328U 060000000000000000000000000000000000000000000000000000000000000000000000107000000000000107000000000000000000000000000000003004201802052018000000000000000000000000000                              000                           
0339725300329T 06011710130046627        00000002798032EZL5598036     3004201800000000001139034196630                         001000080670628891HILARIO BENVENUTO DE SOUZA              01300466270000000000000000400000000                      
0339725300330U 060000000000000000000000000000000000000000000000000000000000000000000000113900000000000113900000000000000000000000000000003004201802052018000000000000000000000000000                              000                           
0339725300331T 06011710130046627        00000002802912EJS1736004     3004201800000000001139034179680                         001000057053995291JOSE FRANCISCO SOARES                   01300466270000000000000000400000000                      
0339725300332U 060000000000000000000000000000000000000000000000000000000000000000000000113900000000000113900000000000000000000000000000003004201802052018000000000000000000000000000                              000                           
0339725300333T 06011710130046627        00000002804102DAJ7782004     3004201800000000001139010414840                         001000019478784846ILSON LOURENCO DA SILVA                 01300466270000000000000000400000000                      
0339725300334U 060000000000000000000000000000000000000000000000000000000000000000000000113900000000000113900000000000000000000000000000003004201802052018000000000000000000000000000                              000                           
0339725300335T 06011710130046627        00000002806662DMH8482004     3004201800000000001139023727230                         001000001317526856JOSE GERALDO CAITANO LOIOLA             01300466270000000000000000400000000                      
0339725300336U 060000000000000000000000000000000000000000000000000000000000000000000000113900000000000113900000000000000000000000000000003004201802052018000000000000000000000000000                              000                           
0339725300337T 06011710130046627        00000002810342AWS4917004     3004201800000000001139010409980                         001000049117246415JOSE LEVI GOMES DO EGITO                01300466270000000000000000400000000                      
0339725300338U 060000000000000000000000000000000000000000000000000000000000000000000000113900000000000113900000000000000000000000000000003004201802052018000000000000000000000000000                              000                           
0339725300339T 06011710130046627        00000002812712AWE1053004     3004201800000000001139003342951                         001000005420383900IVO VAZ BATISTA                         01300466270000000000000000300000000                      
0339725300340U 060000000000000000000000000000000000000000000000000000000000000000000000113900000000000113900000000000000000000000000000003004201802052018000000000000000000000000000                              000                           
0339725300341T 06011710130046627        00000002815142NMT3574014     3004201800000000001139034105610                         001000013132330809JOSE SOARES DOS SANTOS                  01300466270000000000000000400000000                      
0339725300342U 060000000000000000000000000000000000000000000000000000000000000000000000113900000000000113900000000000000000000000000000003004201802052018000000000000000000000000000                              000                           
0339725300343T 06011710130046627        00000002817512OGZ2871004     3004201800000000002038034181620                         002010525486000135JC DOS SANTOS SALTO ME                  01300466270000000000000000400000000                      
0339725300344U 060000000000000000000000000000000000000000000000000000000000000000000000203800000000000203800000000000000000000000000000003004201802052018000000000000000000000000000                              000                           
0339725300345T 06011710130046627        00000002819992GAI2229009     3004201800000000001139023728740                         001000037643861854JACIARA NOGUEIRA DA SILVA               01300466270000000000000000400000000                      
0339725300346U 060000000000000000000000000000000000000000000000000000000000000000000000113900000000000113900000000000000000000000000000003004201802052018000000000000000000000000000                              000                           
0339725300347T 06011710130046627        00000002821112FKE5420004     3004201800000000001139003306629                         001000006134832359JOSICARLOS VASCONCELOS LEMOS            01300466270000000000000000300000000                      
0339725300348U 060000000000000000000000000000000000000000000000000000000000000000000000113900000000000113900000000000000000000000000000003004201802052018000000000000000000000000000                              000                           
0339725300349T 06011710130046627        00000002822352DOT4769004     3004201800000000001139023712200                         001000019452215852JACKSON RODRIGUES MATOSINHOS            01300466270000000000000000400000000                      
0339725300350U 060000000000000000000000000000000000000000000000000000000000000000000000113900000000000113900000000000000000000000000000003004201802052018000000000000000000000000000                              000                           
0339725300351T 06011710130046627        00000002829522OZV5976004     3004201800000000001139010403710                         001000004487158990JEFERSON RODRIGUES MOTA                 01300466270000000000000000400000000                      
0339725300352U 060000000000000000000000000000000000000000000000000000000000000000000000113900000000000113900000000000000000000000000000003004201802052018000000000000000000000000000                              000                           
0339725300353T 06011710130046627        00000002830702EZK1885014     3004201800000000001070010402520                         001000034173376820JULIANA WAITMANN                        01300466270000000000000000400000000                      
0339725300354U 060000000000000000000000000000000000000000000000000000000000000000000000107000000000000107000000000000000000000000000000003004201802052018000000000000000000000000000                              000                           
0339725300355T 06011710130046627        00000002831932JHW1012014     3004201800000000001239023765680                         001000031878275860JULIANO FREIRE DE ASSIS                 01300466270000000000000000400000000                      
0339725300356U 060000000000000000000000000000000000000000000000000000000000000000000000123900000000000123900000000000000000000000000000003004201802052018000000000000000000000000000                              000                           
0339725300357T 06011710130046627        00000002836652MJE7941004     3004201800000000002098023710780                         001000000475638930JEOVANA RAMOS SERAFINI                  01300466270000000000000000400000000                      
0339725300358U 060000000000000000000000000000000000000000000000000000000000000000000000209800000000000209800000000000000000000000000000003004201802052018000000000000000000000000000                              000                           
0339725300359T 06011710130046627        00000002840332DYA4522014     3004201800000000001070034107090                         001000014763618865KARLA BUSTAMANTE DE OLIVEIRA GRANADA    01300466270000000000000000400000000                      
0339725300360U 060000000000000000000000000000000000000000000000000000000000000000000000107000000000000107000000000000000000000000000000003004201802052018000000000000000000000000000                              000                           
0339725300361T 06011710130046627        00000002841572EIP9148004     3004201800000000001139034138070                         001000040478218885EDERSON OLIVEIRA MEDEIROS               01300466270000000000000000400000000                      
0339725300362U 060000000000000000000000000000000000000000000000000000000000000000000000113900000000000113900000000000000000000000000000003004201802052018000000000000000000000000000                              000                           
0339725300363T 06011710130046627        00000002847502BJT0340014     3004201800000000001239034196270                         001000009413288801LENILSO SCARAMEL                        01300466270000000000000000400000000                      
0339725300364U 060000000000000000000000000000000000000000000000000000000000000000000000123900000000000123900000000000000000000000000000003004201802052018000000000000000000000000000                              000                           
0339725300365T 17011710130046627        00000002855361               3004201800000000001288003303310                         002000000000000000                                        01300466270000000000007260300000000                      
0339725300366U 170000000000000000000000000000000000000000000000000000000000000000000000128800000000000128800000000000000000000000000000003004201802052018000000000000000000000000000                              000                           
0339725300367T 06011710130046627        00000002864272FLQ5266004     3004201800000000001139023702970                         001000031580187803RENAN FERREIRA DOS SANTOS               01300466270000000000000000400000000                      
0339725300368U 060000000000000000000000000000000000000000000000000000000000000000000000113900000000000113900000000000000000000000000000003004201802052018000000000000000000000000000                              000                           
0339725300369T 06011710130046627        00000002865402FOY5921004     3004201800000000001489034105700                         001000062116100178RENATO ANTONIO DE MORAES                01300466270000000000000000400000000                      
0339725300370U 060000000000000000000000000000000000000000000000000000000000000000000000148900000000000148900000000000000000000000000000003004201802052018000000000000000000000000000                              000                           
0339725300371T 17011710130046627        00000002866641               3004201800000000001139010423350                         002000000000000000                                        01300466270000000000007260400000000                      
0339725300372U 170000000000000000000000000000000000000000000000000000000000000000000000113900000000000113900000000000000000000000000000003004201802052018000000000000000000000000000                              000                           
0339725300373T 06011710130046627        00000002870242FGQ1793004     3004201800000000001139023702930                         001000021972980890LILIAN VIEIRA DE FIGUEIREDO             01300466270000000000000000400000000                      
0339725300374U 060000000000000000000000000000000000000000000000000000000000000000000000113900000000000113900000000000000000000000000000003004201802052018000000000000000000000000000                              000                           
0339725300375T 06011710130046627        00000002871482HFG9494014     3004201800000000001139010420940                         001000019105829801RICARDO JOSE BARBOZA                    01300466270000000000000000400000000                      
0339725300376U 060000000000000000000000000000000000000000000000000000000000000000000000113900000000000113900000000000000000000000000000003004201802052018000000000000000000000000000                              000                           
0339725300377T 06011710130046627        00000002873002DZV3601004     3004201800000000001139010403770                         001000069660344953RICARDO NESPOLI RIBEIRO                 01300466270000000000000000400000000                      
0339725300378U 060000000000000000000000000000000000000000000000000000000000000000000000113900000000000113900000000000000000000000000000003004201802052018000000000000000000000000000                              000                           
0339725300379T 06011710130046627        00000002876602DUB3335004     3004201800000000001139023730570                         001000029474387877RIVANIA DE MELO SILVA SOUSA             01300466270000000000000000400000000                      
0339725300380U 060000000000000000000000000000000000000000000000000000000000000000000000113900000000000113900000000000000000000000000000003004201802052018000000000000000000000000000                              000                           
0339725300381T 17011710130046627        00000002884971               3004201800000000001789034169330                         002000000000000000                                        01300466270000000000007260400000000                      
0339725300382U 170000000000000000000000000000000000000000000000000000000000000000000000178900000000000178900000000000000000000000000000003004201802052018000000000000000000000000000                              000                           
0339725300383T 06011710130046627        00000002908822DQQ6197004     3004201800000000001139023739370                         001000010333532805LUCIANO MENDES DOS SANTOS               01300466270000000000000000400000000                      
0339725300384U 060000000000000000000000000000000000000000000000000000000000000000000000113900000000000113900000000000000000000000000000003004201802052018000000000000000000000000000                              000                           
0339725300385T 06011710130046627        00000002910052MMD8280004     3004201800000000001139010404310                         001000005596034959NEUZA BORGES                            01300466270000000000000000400000000                      
0339725300386U 060000000000000000000000000000000000000000000000000000000000000000000000113900000000000113900000000000000000000000000000003004201802052018000000000000000000000000000                              000                           
0339725300387T 06011710130046627        00000002914802DPR2828014     3004201800000000001139034102630                         001000008643220892RONALDO BARREIROS                       01300466270000000000000000400000000                      
0339725300388U 060000000000000000000000000000000000000000000000000000000000000000000000113900000000000113900000000000000000000000000000003004201802052018000000000000000000000000000                              000                           
0339725300389T 06011710130046627        00000002916092ELC5776004     3004201800000000001139034102630                         001000008643220892RONALDO BARREIROS                       01300466270000000000000000400000000                      
0339725300390U 060000000000000000000000000000000000000000000000000000000000000000000000113900000000000113900000000000000000000000000000003004201802052018000000000000000000000000000                              000                           
0339725300391T 06011710130046627        00000002919602DUL9162004     3004201800000000001139010412170                         001000004214092821ROSELI APARECIDA SOARES OKAZAKI MENINELL01300466270000000000000000400000000                      
0339725300392U 060000000000000000000000000000000000000000000000000000000000000000000000113900000000000113900000000000000000000000000000003004201802052018000000000000000000000000000                              000                           
0339725300393T 06011710130046627        00000002920872GEN6410004     3004201800000000001139034105610                         001000030093505892ROSENICE JOAQUINA DE SOUZA              01300466270000000000000000400000000                      
0339725300394U 060000000000000000000000000000000000000000000000000000000000000000000000113900000000000113900000000000000000000000000000003004201802052018000000000000000000000000000                              000                           
0339725300395T 06011710130046627        00000002922062EUG7188004     3004201800000000001139010431280                         001000038798512803LUIS HENRIQUE GOMES REAL                01300466270000000000000000400000000                      
0339725300396U 060000000000000000000000000000000000000000000000000000000000000000000000113900000000000113900000000000000000000000000000003004201802052018000000000000000000000000000                              000                           
0339725300397T 06011710130046627        00000002923202EDP7149014     3004201800000000001239034103550                         001000010177157852LUIZ ANGELO VESSONI                     01300466270000000000000000400000000                      
0339725300398U 060000000000000000000000000000000000000000000000000000000000000000000000123900000000000123900000000000000000000000000000003004201802052018000000000000000000000000000                              000                           
0339725300399T 06011710130046627        00000002924432EZP5708007     3004201800000000001239023719110                         001000015600308876LUIZ CARLOS ANTELO                      01300466270000000000000000400000000                      
0339725300400U 060000000000000000000000000000000000000000000000000000000000000000000000123900000000000123900000000000000000000000000000003004201802052018000000000000000000000000000                              000                           
0339725300401T 06011710130046627        00000002925672EZP5708019     3004201800000000001239023713770                         001000055118240034LUIZ CARLOS DE SOUZA                    01300466270000000000000000400000000                      
0339725300402U 060000000000000000000000000000000000000000000000000000000000000000000000123900000000000123900000000000000000000000000000003004201802052018000000000000000000000000000                              000                           
0339725300403T 06011710130046627        00000002926802IKV4208014     3004201800000000001070023702680                         001000068893590034LUIZ FELIPE VACCARO                     01300466270000000000000000400000000                      
0339725300404U 060000000000000000000000000000000000000000000000000000000000000000000000107000000000000107000000000000000000000000000000003004201802052018000000000000000000000000000                              000                           
0339725300405T 06011710130046627        00000002929312AWS6315016     3004201800000000001239023717050                         001000001004729901LUIZ FERNANDO CARVALHO DE LIMA          01300466270000000000000000400000000                      
0339725300406U 060000000000000000000000000000000000000000000000000000000000000000000000123900000000000123900000000000000000000000000000003004201802052018000000000000000000000000000                              000                           
0339725300407T 17011710130046627        00000002934151               3004201800000000001139000178310                         002000000000000000                                        01300466270000000000007260400000000                      
0339725300408U 170000000000000000000000000000000000000000000000000000000000000000000000113900000000000113900000000000000000000000000000003004201802052018000000000000000000000000000                              000                           
0339725300409T 06011710130046627        00000002935392NMF7757004     3004201800000000001139010429290                         001000038858327802MARCELO DE MELO DOS SANTOS              01300466270000000000000000400000000                      
0339725300410U 060000000000000000000000000000000000000000000000000000000000000000000000113900000000000113900000000000000000000000000000003004201802052018000000000000000000000000000                              000                           
0339725300411T 06011710130046627        00000002937762EPK6351014     3004201800000000001139023728560                         001000018547754806MARCIA DE FATIMA SOBRAL FERNANDES DA SIL01300466270000000000000000400000000                      
0339725300412U 060000000000000000000000000000000000000000000000000000000000000000000000113900000000000113900000000000000000000000000000003004201802052018000000000000000000000000000                              000                           
