03300000        2023566251000133011710130046627     007651732           RASTREADORES PROTEGE LTDA ME  BANCO SANTANDER (BRASIL) S/A            225062018      000588040                                                                         T
03311721T01  040 2023566251000133007651732           011710130046627     RASTREADORES PROTEGE LTDA ME                                                                                  0000058825062018                                         
0331172300001T 17011710130046627        00000002113891               2506201800000000000650023727990                         002000000000000000                                        01300466270000000000010000400000000                      
0331172300002U 170000000000000000000000000000000000000000000000000000000000000000000000065000000000000065000000000000000000000000000000002506201826062018000000000000000000000000000                              000                           
0331172300003T 17011710130046627        00000002127501               2506201800000000000650023704530                         002000000000000000                                        01300466270000000000010000400000000                      
0331172300004U 170000000000000000000000000000000000000000000000000000000000000000000000065000000000000065000000000000000000000000000000002506201826062018000000000000000000000000000                              000                           
0331172300005T 17011710130046627        00000002165001               2506201800000000000650010442110                         002000000000000000                                        01300466270000000000010000400000000                      
0331172300006U 170000000000000000000000000000000000000000000000000000000000000000000000065000000000000065000000000000000000000000000000002506201826062018000000000000000000000000000                              000                           
0331172300007T 17011710130046627        00000002185531               2506201800000000000650003313196                         002000000000000000                                        01300466270000000000010000300000000                      
0331172300008U 170000000000000000000000000000000000000000000000000000000000000000000000065000000000000065000000000000000000000000000000002506201826062018000000000000000000000000000                              000                           
0331172300009T 17011710130046627        00000002243081               2506201800000000000650010445710                         002000000000000000                                        01300466270000000000010000400000000                      
0331172300010U 170000000000000000000000000000000000000000000000000000000000000000000000065000000000000065000000000000000000000000000000002506201826062018000000000000000000000000000                              000                           
0331172300011T 17011710130046627        00000002255091               2506201800000000000650034100410                         002000000000000000                                        01300466270000000000010000400000000                      
0331172300012U 170000000000000000000000000000000000000000000000000000000000000000000000065000000000000065000000000000000000000000000000002506201826062018000000000000000000000000000                              000                           
0331172300013T 17011710130046627        00000002264671               2506201800000000000650034100550                         002000000000000000                                        01300466270000000000010000400000000                      
0331172300014U 170000000000000000000000000000000000000000000000000000000000000000000000065000000000000065000000000000000000000000000000002506201826062018000000000000000000000000000                              000                           
0331172300015T 17011710130046627        00000002265801               2506201800000000001300003300876                         002000000000000000                                        01300466270000000000010000300000000                      
0331172300016U 170000000000000000000000000000000000000000000000000000000000000000000000130000000000000130000000000000000000000000000000002506201826062018000000000000000000000000000                              000                           
0331172300017T 17011710130046627        00000002330481               2506201800000000000650034190520                         002000000000000000                                        01300466270000000000010000400000000                      
0331172300018U 170000000000000000000000000000000000000000000000000000000000000000000000065000000000000065000000000000000000000000000000002506201826062018000000000000000000000000000                              000                           
0331172300019T 17011710130046627        00000002422841               2506201800000000000650010430500                         002000000000000000                                        01300466270000000000010000400000000                      
0331172300020U 170000000000000000000000000000000000000000000000000000000000000000000000065000000000000065000000000000000000000000000000002506201826062018000000000000000000000000000                              000                           
0331172300021T 17011710130046627        00000002448561               2506201800000000000490010433250                         002000000000000000                                        01300466270000000000010000400000000                      
0331172300022U 170000000000000000000000000000000000000000000000000000000000000000000000049000000000000049000000000000000000000000000000002506201826062018000000000000000000000000000                              000                           
0331172300023T 17011710130046627        00000002468671               2506201800000000001139010429290                         002000000000000000                                        01300466270000000000010000400000000                      
0331172300024U 170000000000000000000000000000000000000000000000000000000000000000000000113900000000000113900000000000000000000000000000002506201826062018000000000000000000000000000                              000                           
0331172300025T 06011710130046627        000000025192522PLACAS042     3004201800000000002600023733060                         002096170048000117TRANSPORTADORA LITA LTDA                01300466270000000000002810400000000                      
0331172300026U 060000000000014030000000000000000000000000000000000000000000000000000000274030000000000274030000000000000000000000000000002506201826062018000000000000000000000000000                              000                           
0331172300027T 17011710130046627        00000002544601               2506201800000000000650010403470                         002000000000000000                                        01300466270000000000010000400000000                      
0331172300028U 170000000000000000000000000000000000000000000000000000000000000000000000065000000000000065000000000000000000000000000000002506201826062018000000000000000000000000000                              000                           
0331172300029T 17011710130046627        00000002579741               2506201800000000001139010403710                         002000000000000000                                        01300466270000000000010000400000000                      
0331172300030U 170000000000000000000000000000000000000000000000000000000000000000000000113900000000000113900000000000000000000000000000002506201826062018000000000000000000000000000                              000                           
0331172300031T 17011710130046627        00000002595431               2506201800000000001239034192740                         002000000000000000                                        01300466270000000000010000400000000                      
0331172300032U 170000000000000000000000000000000000000000000000000000000000000000000000123900000000000123900000000000000000000000000000002506201826062018000000000000000000000000000                              000                           
0331172300033T 06011710130046627        00000002613272HWU2166024     3004201800000000001239000141200                         001000014588030906ANTONIO BIERNASKI                       01300466270000000000002810400000000                      
0331172300034U 060000000000016670000000000000000000000000000000000000000000000000000000140570000000000140570000000000000000000000000000002506201826062018000000000000000000000000000                              000                           
0331172300035T 17011710130046627        00000002613351               2506201800000000001333700141200                         002000000000000000                                        01300466270000000000010000400000000                      
0331172300036U 170000000000000000000000000000000000000000000000000000000000000000000000133370000000000133370000000000000000000000000000002506201826062018000000000000000000000000000                              000                           
0331172300037T 17011710130046627        00000002727601               2506201800000000001149010408990                         002000000000000000                                        01300466270000000000010000400000000                      
0331172300038U 170000000000000000000000000000000000000000000000000000000000000000000000114900000000000114900000000000000000000000000000002506201826062018000000000000000000000000000                              000                           
0331172300039T 17011710130046627        00000002744451               2506201800000000001139034148680                         002000000000000000                                        01300466270000000000010000400000000                      
0331172300040U 170000000000000000000000000000000000000000000000000000000000000000000000113900000000000113900000000000000000000000000000002506201826062018000000000000000000000000000                              000                           
0331172300041T 17011710130046627        00000002799511               2506201800000000001489034116840                         002000000000000000                                        01300466270000000000010000400000000                      
0331172300042U 170000000000000000000000000000000000000000000000000000000000000000000000148900000000000148900000000000000000000000000000002506201826062018000000000000000000000000000                              000                           
0331172300043T 17011710130046627        00000002842891               2506201800000000001299034155860                         002000000000000000                                        01300466270000000000010000400000000                      
0331172300044U 170000000000000000000000000000000000000000000000000000000000000000000000129900000000000129900000000000000000000000000000002506201826062018000000000000000000000000000                              000                           
0331172300045T 17011710130046627        00000002893531               2506201800000000001149010436210                         002000000000000000                                        01300466270000000000010000400000000                      
0331172300046U 170000000000000000000000000000000000000000000000000000000000000000000000114900000000000114900000000000000000000000000000002506201826062018000000000000000000000000000                              000                           
0331172300047T 17011710130046627        00000002894771               2506201800000000001149010436210                         002000000000000000                                        01300466270000000000010000400000000                      
0331172300048U 170000000000000000000000000000000000000000000000000000000000000000000000114900000000000114900000000000000000000000000000002506201826062018000000000000000000000000000                              000                           
0331172300049T 17011710130046627        00000003002761               2506201800000000002600034142950                         002000000000000000                                        01300466270000000000010000400000000                      
0331172300050U 170000000000000000000000000000000000000000000000000000000000000000000000260000000000000260000000000000000000000000000000002506201826062018000000000000000000000000000                              000                           
0331172300051T 17011710130046627        00000003035181               2506201800000000001139003336293                         002000000000000000                                        01300466270000000000010000300000000                      
0331172300052U 170000000000000000000000000000000000000000000000000000000000000000000000113900000000000113900000000000000000000000000000002506201826062018000000000000000000000000000                              000                           
0331172300053T 17011710130046627        00000003059951               2506201800000000001139034116620                         002000000000000000                                        01300466270000000000010000400000000                      
0331172300054U 170000000000000000000000000000000000000000000000000000000000000000000000113900000000000113900000000000000000000000000000002506201826062018000000000000000000000000000                              000                           
0331172300055T 17011710130046627        00000003139551               2506201800000000001257534137030                         002000000000000000                                        01300466270000000000010000400000000                      
0331172300056U 170000000000000000000000000000000000000000000000000000000000000000000000125750000000000125750000000000000000000000000000002506201826062018000000000000000000000000000                              000                           
0331172300057T 17011710130046627        00000003266901               2506201800000000001239023722720                         002000000000000000                                        01300466270000000000010000400000000                      
0331172300058U 170000000000000000000000000000000000000000000000000000000000000000000000123900000000000123900000000000000000000000000000002506201826062018000000000000000000000000000                              000                           
0331172300059T 17011710130046627        00000003316351               2506201800000000001300000183910                         002000000000000000                                        01300466270000000000010000400000000                      
0331172300060U 170000000000000000000000000000000000000000000000000000000000000000000000130000000000000130000000000000000000000000000000002506201826062018000000000000000000000000000                              000                           
03311725         0000600000160000000000028974500000000000000000000000000000000000000000000000000000000000000000000000000563                                                                                                                     
03311729         000001000064                                                                                                                                                                                                                   
