03300000        2023566251000133011710130046627     007651732           RASTREADORES PROTEGE LTDA ME  BANCO SANTANDER (BRASIL) S/A            202032018      000510040                                                                         T
03307051T01  040 2023566251000133007651732           011710130046627     RASTREADORES PROTEGE LTDA ME                                                                                  0000051002032018                                         
0330705300001T 06011710130046627        000000021367523 PLACAS024    2802201800000000001950023722290                         001000069082774887BENEDITO FRANCISCO FILHO                01300466270000000000000000400000000                      
0330705300002U 060000000000000760000000000000000000000000000000000000000000000000000000195760000000000195760000000000000000000000000000000203201805032018000000000000000000000000000                              000                           
0330705300003T 06011710130046627        00000002159882DUR6477002     2802201800000000000650034164210                         001000018229742839CLAUDINEI FRANCISCO DO NASCIMENTO       01300466270000000000000000400000000                      
0330705300004U 060000000000000260000000000000000000000000000000000000000000000000000000065260000000000065260000000000000000000000000000000203201805032018000000000000000000000000000                              000                           
0330705300005T 06011710130046627        00000002200602EPW1272002     2802201800000000000650010438590                         001000028730169810ELENILTON DE NOVAES VIEIRA              01300466270000000000000000400000000                      
0330705300006U 060000000000000260000000000000000000000000000000000000000000000000000000065260000000000065260000000000000000000000000000000203201805032018000000000000000000000000000                              000                           
0330705300007T 17011710130046627        00000002235491               0203201800000000000654810415730                         002000000000000000                                        01300466270000000000006600400000000                      
0330705300008U 170000000000000000000000000000000000000000000000000000000000000000000000065480000000000065480000000000000000000000000000000203201805032018000000000000000000000000000                              000                           
0330705300009T 06011710130046627        00000002242602BWZ2205012     2802201800000000000650003307668                         001000009468418880HELIO LEITE DAS CHAGAS                  01300466270000000000000000300000000                      
0330705300010U 060000000000000260000000000000000000000000000000000000000000000000000000065260000000000065260000000000000000000000000000000203201805032018000000000000000000000000000                              000                           
0330705300011T 06011710130046627        00000002294822DTA0231012     2802201800000000001300034140520                         001000039031020249JURANDIR MIRANDA DA SILVA               01300466270000000000000000400000000                      
0330705300012U 060000000000000520000000000000000000000000000000000000000000000000000000130520000000000130520000000000000000000000000000000203201805032018000000000000000000000000000                              000                           
0330705300013T 06011710130046627        00000002457122GEX1194        2802201800000000002098003346116                         001000032133948821RENILSON OLIVEIRA LEANDRO               01300466270000000000000000300000000                      
0330705300014U 060000000000000810000000000000000000000000000000000000000000000000000000210610000000000210610000000000000000000000000000000203201805032018000000000000000000000000000                              000                           
0330705300015T 06011710130046627        00000002482902EDR3422012     2802201800000000001300010427410                         001000034277133851RAFAEL DOMINGOS VITORIO                 01300466270000000000000000400000000                      
0330705300016U 060000000000000520000000000000000000000000000000000000000000000000000000130520000000000130520000000000000000000000000000000203201805032018000000000000000000000000000                              000                           
0330705300017T 06011710130046627        000000024901723PLACAS005     2802201800000000001950023766320                         001000009171068732RENATO HARO RAMILO                      01300466270000000000000000400000000                      
0330705300018U 060000000000000760000000000000000000000000000000000000000000000000000000195760000000000195760000000000000000000000000000000203201805032018000000000000000000000000000                              000                           
0330705300019T 06011710130046627        00000002569782AOW6313032     2802201800000000001239074873340                         002008607226000167A.A.D DIAS E CIA LTDA-ME                01300466270000000000000000400000000                      
0330705300020U 060000000000000470000000000000000000000000000000000000000000000000000000124370000000000124370000000000000000000000000000000203201805032018000000000000000000000000000                              000                           
0330705300021T 06011710130046627        00000002570952ARG0231019     2802201800000000001239074873340                         002008607226000167A.A.D DIAS E CIA LTDA-ME                01300466270000000000000000400000000                      
0330705300022U 060000000000000470000000000000000000000000000000000000000000000000000000124370000000000124370000000000000000000000000000000203201805032018000000000000000000000000000                              000                           
0330705300023T 06011710130046627        00000002602232CQH4232012     2802201800000000001489003310367                         001000022423750838ANDERSON FERNANDES DA SILVA             01300466270000000000000000300000000                      
0330705300024U 060000000000000570000000000000000000000000000000000000000000000000000000149470000000000149470000000000000000000000000000000203201805032018000000000000000000000000000                              000                           
0330705300025T 06011710130046627        00000002603472AZL0011002     2802201800000000001139003310367                         001000022423750838ANDERSON FERNANDES DA SILVA             01300466270000000000000000300000000                      
0330705300026U 060000000000000430000000000000000000000000000000000000000000000000000000114330000000000114330000000000000000000000000000000203201805032018000000000000000000000000000                              000                           
0330705300027T 06011710130046627        00000002664502INX6765004     2802201800000000001139003312580                         001000005654191969CLEBERSON RIBEIRO DOS SANTOS            01300466270000000000000000300000000                      
0330705300028U 060000000000000430000000000000000000000000000000000000000000000000000000114330000000000114330000000000000000000000000000000203201805032018000000000000000000000000000                              000                           
0330705300029T 06011710130046627        00000002682752EEO8273002     2802201800000000001139003304367                         001000031058276840DANILO TAVARES FUSTINO                  01300466270000000000000000300000000                      
0330705300030U 060000000000000430000000000000000000000000000000000000000000000000000000114330000000000114330000000000000000000000000000000203201805032018000000000000000000000000000                              000                           
0330705300031T 06011710130046627        00000002702022FAJ3852002     2802201800000000001738003302445                         001000071477624449EDINALDO ERASMO                         01300466270000000000000000300000000                      
0330705300032U 060000000000000680000000000000000000000000000000000000000000000000000000174480000000000174480000000000000000000000000000000203201805032018000000000000000000000000000                              000                           
0330705300033T 06011710130046627        00000002712842EQX1666012     2802201800000000001139034101490                         001000034896360826EDUARDO CORREIA DA SILVA                01300466270000000000000000400000000                      
0330705300034U 060000000000000430000000000000000000000000000000000000000000000000000000114330000000000114330000000000000000000000000000000203201805032018000000000000000000000000000                              000                           
0330705300035T 06011710130046627        00000002753602BAY9210002     2802201800000000001139034168680                         001000085633739949GENESIA DA SILVA VIEIRA                 01300466270000000000000000400000000                      
0330705300036U 060000000000000430000000000000000000000000000000000000000000000000000000114330000000000114330000000000000000000000000000000203201805032018000000000000000000000000000                              000                           
0330705300037T 06011710130046627        00000002949502EBZ5454012     2802201800000000001139003344270                         001000014671736810MARCOS LOPES                            01300466270000000000000000300000000                      
0330705300038U 060000000000000430000000000000000000000000000000000000000000000000000000114330000000000114330000000000000000000000000000000203201805032018000000000000000000000000000                              000                           
0330705300039T 06011710130046627        00000002984332MGV2081002     2802201800000000001139000143140                         001000010335643973PATRICIA DO NASCIMENTO RIXADELLI        01300466270000000000000000400000000                      
0330705300040U 060000000000000430000000000000000000000000000000000000000000000000000000114330000000000114330000000000000000000000000000000203201805032018000000000000000000000000000                              000                           
0330705300041T 06011710130046627        00000003122822EAM2843        2802201800000000000650003307951                         001000031644053837JOAO DAVI DE OLIVEIRA ZEFERINO          01300466270000000000000000300000000                      
0330705300042U 060000000000000260000000000000000000000000000000000000000000000000000000065260000000000065260000000000000000000000000000000203201805032018000000000000000000000000000                              000                           
0330705300043T 06011710130046627        00000003130502ETC9016        2802201800000000000650010402410                         001000004402620465ROBENILSON PAULO DA SILVA               01300466270000000000000000400000000                      
0330705300044U 060000000000000260000000000000000000000000000000000000000000000000000000065260000000000065260000000000000000000000000000000203201805032018000000000000000000000000000                              000                           
03307055         0000440002080000000000256993900000000000000000000000000000000000000000000000000000000000000000000000000506                                                                                                                     
03307059         000001000048                                                                                                                                                                                                                   
