03300000        2023566251000133011710130046627     007651732           RASTREADORES PROTEGE LTDA ME  BANCO SANTANDER (BRASIL) S/A            203052018      000552040                                                                         T
03392661T01  040 2023566251000133007651732           011710130046627     RASTREADORES PROTEGE LTDA ME                                                                                  0000055203052018                                         
0339266300001T 06011710130046627        00000002107652FEH8981004     3004201800000000001300003345365                         002017194056000127AMORIM E RODRIGUES FERRAMENTARIA LTDA - 01300466270000000000000000300000000                      
0339266300002U 060000000000000780000000000000000000000000000000000000000000000000000000130780000000000130780000000000000000000000000000000305201804052018000000000000000000000000000                              000                           
0339266300003T 17011710130046627        00000002303831               0305201800000000007800000132660                         002000000000000000                                        01300466270000000000007260400000000                      
0339266300004U 170000000000000000000000000000000000000000000000000000000000000000000000780000000000000780000000000000000000000000000000000305201804052018000000000000000000000000000                              000                           
0339266300005T 06011710130046627        00000002312232NRZ0026004     3004201800000000001300010422970                         001000021863879803MAGNO BISPO DO NASCIMENTO               01300466270000000000000000400000000                      
0339266300006U 060000000000000500000000000000000000000000000000000000000000000000000000130500000000000130500000000000000000000000000000000305201804052018000000000000000000000000000                              000                           
0339266300007T 06011710130046627        00000002467272FFX5115004     3004201800000000001889074813010                         001000093762690049EDER BELLO                              01300466270000000000000000400000000                      
0339266300008U 060000000000001110000000000000000000000000000000000000000000000000000000190010000000000190010000000000000000000000000000000305201804052018000000000000000000000000000                              000                           
0339266300009T 06011710130046627        00000002550412FRC4299004     3004201800000000001300010403610                         001000027672321889WILLIAN PAPILE                          01300466270000000000000000400000000                      
0339266300010U 060000000000000500000000000000000000000000000000000000000000000000000000130500000000000130500000000000000000000000000000000305201804052018000000000000000000000000000                              000                           
0339266300011T 06011710130046627        00000002621612JJK4695004     3004201800000000001270034101490                         001000030884289850ANYA CAROL MARQUES DE LIMA BAGATIN      01300466270000000000000000400000000                      
0339266300012U 060000000000001000000000000000000000000000000000000000000000000000000000128000000000000128000000000000000000000000000000000305201804052018000000000000000000000000000                              000                           
0339266300013T 06011710130046627        00000002656322KPU6374004     3004201800000000001139003346116                         001000030305084801CINTIA REGINA OLIVEIRA CARILLO          01300466270000000000000000300000000                      
0339266300014U 060000000000000650000000000000000000000000000000000000000000000000000000114550000000000114550000000000000000000000000000000305201804052018000000000000000000000000000                              000                           
0339266300015T 06011710130046627        00000002679102PXW9309004     3004201800000000001789034193570                         001000019529307829DANIELA GUERREIRO                       01300466270000000000000000400000000                      
0339266300016U 060000000000001050000000000000000000000000000000000000000000000000000000179950000000000179950000000000000000000000000000000305201804052018000000000000000000000000000                              000                           
0339266300017T 06011710130046627        00000002685342AFT0025004     3004201800000000001139023717440                         001000034292469890DEBORA BEZERRA VILAS BOAS               01300466270000000000000000400000000                      
0339266300018U 060000000000000100000000000000000000000000000000000000000000000000000000114000000000000114000000000000000000000000000000000305201804052018000000000000000000000000000                              000                           
0339266300019T 06011710130046627        00000002753872BAY9210004     3004201800000000001139034168680                         001000085633739949GENESIA DA SILVA VIEIRA                 01300466270000000000000000400000000                      
0339266300020U 060000000000000500000000000000000000000000000000000000000000000000000000114400000000000114400000000000000000000000000000000305201804052018000000000000000000000000000                              000                           
0339266300021T 06011710130046627        00000002790562AQS-0417004    3004201800000000001139003312580                         001000053030575934JOSE APARECIDO DE JESUS FERNANDES       01300466270000000000000000300000000                      
0339266300022U 060000000000000650000000000000000000000000000000000000000000000000000000114550000000000114550000000000000000000000000000000305201804052018000000000000000000000000000                              000                           
0339266300023T 06011710130046627        00000002907692IVC3582004     3004201800000000001139010434470                         001000052604004020ROGERIO LOPES BRAUN                     01300466270000000000000000400000000                      
0339266300024U 060000000000000100000000000000000000000000000000000000000000000000000000114000000000000114000000000000000000000000000000000305201804052018000000000000000000000000000                              000                           
0339266300025T 17011710130046627        00000002933001               0305201800000000001489000157120                         002000000000000000                                        01300466270000000000007260400000000                      
0339266300026U 170000000000000000000000000000000000000000000000000000000000000000000000148900000000000148900000000000000000000000000000000305201804052018000000000000000000000000000                              000                           
0339266300027T 06011710130046627        00000002944972CLU1949014     3004201800000000001640023727100                         002010231667000159MARCOS CALICCHIO                        01300466270000000000000000400000000                      
0339266300028U 060000000000000000000000000000000000000000000000000000000000000000000000164000000000000164000000000000000000000000000000000305201804052018000000000000000000000000000                              000                           
0339266300029T 06011710130046627        00000002946162CXE2729014     3004201800000000001640023727100                         002010231667000159MARCOS CALICCHIO                        01300466270000000000000000400000000                      
0339266300030U 060000000000000000000000000000000000000000000000000000000000000000000000164000000000000164000000000000000000000000000000000305201804052018000000000000000000000000000                              000                           
0339266300031T 06011710130046627        00000002948532IRW0350004     3004201800000000001070010416320                         001000020485873800MARCOS LEANDRO GRACY                    01300466270000000000000000400000000                      
0339266300032U 060000000000001000000000000000000000000000000000000000000000000000000000108000000000000108000000000000000000000000000000000305201804052018000000000000000000000000000                              000                           
0339266300033T 17011710130046627        00000002967671               0305201800000000001220610430050                         002000000000000000                                        01300466270000000000007260400000000                      
0339266300034U 170000000000000000000000000000000000000000000000000000000000000000000000122060000000000122060000000000000000000000000000000305201804052018000000000000000000000000000                              000                           
0339266300035T 06011710130046627        00000002994132FMQ2375004     3004201800000000001139034181330                         001000041575581892PEDRO HENRIQUE VIANA GRIZZO             01300466270000000000000000400000000                      
0339266300036U 060000000000000100000000000000000000000000000000000000000000000000000000114000000000000114000000000000000000000000000000000305201804052018000000000000000000000000000                              000                           
0339266300037T 06011710130046627        00000003069672CUC9831014     0105201800000000001239023701540                         001000091311330887GERALDO DA SILVA                        01300466270000000000000000400000000                      
0339266300038U 060000000000000000000000000000000000000000000000000000000000000000000000123900000000000123900000000000000000000000000000000305201804052018000000000000000000000000000                              000                           
0339266300039T 06011710130046627        00000003077852NJK2240004     3004201800000000001300023710410                         002026542310000121CONSTRUTORA RANGEL LTDA - ME            01300466270000000000000000400000000                      
0339266300040U 060000000000000480000000000000000000000000000000000000000000000000000000130480000000000130480000000000000000000000000000000305201804052018000000000000000000000000000                              000                           
0339266300041T 06011710130046627        00000003097612ASV2474002     3004201800000000001139010405860                         001000003406710921MARCIO PADILHA DE FRANCA                01300466270000000000000000400000000                      
0339266300042U 060000000000000100000000000000000000000000000000000000000000000000000000114000000000000114000000000000000000000000000000000305201804052018000000000000000000000000000                              000                           
0339266300043T 06011710130046627        00000003130762ETC9016012     3004201800000000000650010402410                         001000004402620465ROBENILSON PAULO DA SILVA               01300466270000000000000000400000000                      
0339266300044U 060000000000001000000000000000000000000000000000000000000000000000000000066000000000000066000000000000000000000000000000000305201804052018000000000000000000000000000                              000                           
0339266300045T 17011710130046627        00000003285881               0305201800000000001376223726760                         002000000000000000                                        01300466270000000000007260400000000                      
0339266300046U 170000000000000000000000000000000000000000000000000000000000000000000000137620000000000137620000000000000000000000000000000305201804052018000000000000000000000000000                              000                           
0339266300047T 17011710130046627        00000003285961               0305201800000000001379223726760                         002000000000000000                                        01300466270000000000007260400000000                      
0339266300048U 170000000000000000000000000000000000000000000000000000000000000000000000137920000000000137920000000000000000000000000000000305201804052018000000000000000000000000000                              000                           
03392665         0000480003090000000000339561100000000000000000000000000000000000000000000000000000000000000000000000000536                                                                                                                     
03392669         000001000052                                                                                                                                                                                                                   
