03300000        2023566251000133011710130046627     007651732           RASTREADORES PROTEGE LTDA ME  BANCO SANTANDER (BRASIL) S/A            217052018      000562040                                                                         T
03348321T01  040 2023566251000133007651732           011710130046627     RASTREADORES PROTEGE LTDA ME                                                                                  0000056217052018                                         
0334832300001T 17011710130046627        00000002509701               1705201800000000000650034188190                         002000000000000000                                        01300466270000000000010000400000000                      
0334832300002U 170000000000000000000000000000000000000000000000000000000000000000000000065000000000000065000000000000000000000000000000001705201818052018000000000000000000000000000                              000                           
0334832300003T 06011710130046627        00000002542072EZL8062014     3004201800000000001300023727640                         001000028058098825WAGNER DE BASTOS SILVA                  01300466270000000000002810400000000                      
0334832300004U 060000000000004420000000000000000000000000000000000000000000000000000000134420000000000134420000000000000000000000000000001705201818052018000000000000000000000000000                              000                           
0334832300005T 17011710130046627        00000002655271               1705201800000000001139023760260                         002000000000000000                                        01300466270000000000010000400000000                      
0334832300006U 170000000000000000000000000000000000000000000000000000000000000000000000113900000000000113900000000000000000000000000000001705201818052018000000000000000000000000000                              000                           
0334832300007T 17011710130046627        00000002717991               1705201800000000001789023704510                         002000000000000000                                        01300466270000000000010000400000000                      
0334832300008U 170000000000000000000000000000000000000000000000000000000000000000000000178900000000000178900000000000000000000000000000001705201818052018000000000000000000000000000                              000                           
0334832300009T 17011710130046627        00000002907771               1705201800000000001139010434470                         002000000000000000                                        01300466270000000000010000400000000                      
0334832300010U 170000000000000000000000000000000000000000000000000000000000000000000000113900000000000113900000000000000000000000000000001705201818052018000000000000000000000000000                              000                           
0334832300011T 06011710130046627        00000003239262BTS9836        3004201800000000001429900101820                         001000001797242903ARMANDO MARCOS PEREIRA                  01300466270000000000002810400000000                      
0334832300012U 060000000000004750000000000000000000000000000000000000000000000000000000147740000000000147740000000000000000000000000000001705201818052018000000000000000000000000000                              000                           
0334832300013T 17011710130046627        00000003313331               1705201800000000001396334187060                         002000000000000000                                        01300466270000000000010000400000000                      
0334832300014U 170000000000000000000000000000000000000000000000000000000000000000000000139630000000000139630000000000000000000000000000001705201818052018000000000000000000000000000                              000                           
03348325         0000140002310000000000261737700000000000000000000000000000000000000000000000000000000000000000000000000545                                                                                                                     
03348329         000001000018                                                                                                                                                                                                                   
