03300000        2023566251000133011710130046627     007651732           RASTREADORES PROTEGE LTDA ME  BANCO SANTANDER (BRASIL) S/A            210052018      000557040                                                                         T
03342231T01  040 2023566251000133007651732           011710130046627     RASTREADORES PROTEGE LTDA ME                                                                                  0000055710052018                                         
0334223300001T 17011710130046627        00000001869701               1005201800000000001009510411030                         002000000000000000                                        01300466270000000000010000400000000                      
0334223300002U 170000000000000000000000000000000000000000000000000000000000000000000000100950000000000100950000000000000000000000000000001005201811052018000000000000000000000000000                              000                           
0334223300003T 17011710130046627        00000002204501               1005201800000000000650003339616                         002000000000000000                                        01300466270000000000010000300000000                      
0334223300004U 170000000000000000000000000000000000000000000000000000000000000000000000065000000000000065000000000000000000000000000000001005201811052018000000000000000000000000000                              000                           
0334223300005T 17011710130046627        00000002291131               1005201800000000000650003303522                         002000000000000000                                        01300466270000000000010000300000000                      
0334223300006U 170000000000013130000000000000000000000000000000000000000000000000000000078130000000000078130000000000000000000000000000001005201811052018000000000000000000000000000                              000                           
0334223300007T 17011710130046627        00000002291211               1005201800000000000650003303522                         002000000000000000                                        01300466270000000000010000300000000                      
0334223300008U 170000000000009360000000000000000000000000000000000000000000000000000000074360000000000074360000000000000000000000000000001005201811052018000000000000000000000000000                              000                           
0334223300009T 17011710130046627        00000002291301               1005201800000000000650003303522                         002000000000000000                                        01300466270000000000010000300000000                      
0334223300010U 170000000000005330000000000000000000000000000000000000000000000000000000070330000000000070330000000000000000000000000000001005201811052018000000000000000000000000000                              000                           
0334223300011T 06011710130046627        00000002291482KKM9093004     3004201800000000000650003303522                         001000004127133490JOSE SILVA MARTINS                      01300466270000000000002810300000000                      
0334223300012U 060000000000001300000000000000000000000000000000000000000000000000000000066300000000000066300000000000000000000000000000001005201811052018000000000000000000000000000                              000                           
0334223300013T 06011710130046627        00000002386602KNG2913009     1005201800000000000650074852600                         002010847525000110BOITUPOSTE MATERIAIS ELETRICOS ME       01300466270000000000002810400000000                      
0334223300014U 060000000000000000000000000000000000000000000000000000000000000000000000065000000000000065000000000000000000000000000000001005201811052018000000000000000000000000000                              000                           
0334223300015T 06011710130046627        00000002395182MDH9076008     1005201800000000001300034192620                         001000000669595861ELISEU DONIZETTE GRILLO                 01300466270000000000002810400000000                      
0334223300016U 060000000000000000000000000000000000000000000000000000000000000000000000130000000000000130000000000000000000000000000000001005201811052018000000000000000000000000000                              000                           
0334223300017T 17011710130046627        00000002397551               1005201800000000000590023719690                         002000000000000000                                        01300466270000000000010000400000000                      
0334223300018U 170000000000000000000000000000000000000000000000000000000000000000000000059000000000000059000000000000000000000000000000001005201811052018000000000000000000000000000                              000                           
0334223300019T 17011710130046627        00000002398791               1005201800000000000990023719690                         002000000000000000                                        01300466270000000000010000400000000                      
0334223300020U 170000000000000000000000000000000000000000000000000000000000000000000000099000000000000099000000000000000000000000000000001005201811052018000000000000000000000000000                              000                           
0334223300021T 06011710130046627        000000023997623 PLACAS063    1005201800000000002887134163300                         002010722506000168RAVIN IMPORTADORA E DISTRIB. DE BEBIDAS 01300466270000000000002810400000000                      
0334223300022U 060000000000000000000000000000000000000000000000000000000000000000000000288710000000000288710000000000000000000000000000001005201811052018000000000000000000000000000                              000                           
0334223300023T 06011710130046627        00000002403382AZG6095005     1005201800000000000490000132730                         001000054056411891LUIZ SIMEAO DA COSTA                    01300466270000000000002810400000000                      
0334223300024U 060000000000000000000000000000000000000000000000000000000000000000000000049000000000000049000000000000000000000000000000001005201811052018000000000000000000000000000                              000                           
0334223300025T 06011710130046627        00000002404512BUP9717008     1005201800000000000650034131460                         001000000415478880LUIZ TOSHIAKI IKEOKA                    01300466270000000000002810400000000                      
0334223300026U 060000000000000000000000000000000000000000000000000000000000000000000000065000000000000065000000000000000000000000000000001005201811052018000000000000000000000000000                              000                           
0334223300027T 06011710130046627        00000002409312IOU5416008     1005201800000000000650034196590                         001000081565313020WALDOMIRO TOLEDO VIEIRA DAS CHAGAS      01300466270000000000002810400000000                      
0334223300028U 060000000000000000000000000000000000000000000000000000000000000000000000065000000000000065000000000000000000000000000000001005201811052018000000000000000000000000000                              000                           
0334223300029T 06011710130046627        000000024203923 PLACAS075    1005201800000000001950003315385                         002009666100000126SAPG CONVITES E CARTOES LTDA            01300466270000000000002810300000000                      
0334223300030U 060000000000000000000000000000000000000000000000000000000000000000000000195000000000000195000000000000000000000000000000001005201811052018000000000000000000000000000                              000                           
0334223300031T 06011710130046627        00000002423902EJX4884017     1005201800000000000650010412060                         002000138629000100POSTO SERV. REQUINTE COM COMBUSTIVEIS LT01300466270000000000002810400000000                      
0334223300032U 060000000000000000000000000000000000000000000000000000000000000000000000065000000000000065000000000000000000000000000000001005201811052018000000000000000000000000000                              000                           
0334223300033T 06011710130046627        00000002425192EVH3085007     1005201800000000000590010431980                         001000028477316872JOAO MARTINS                            01300466270000000000002810400000000                      
0334223300034U 060000000000000000000000000000000000000000000000000000000000000000000000059000000000000059000000000000000000000000000000001005201811052018000000000000000000000000000                              000                           
0334223300035T 06011710130046627        00000002429932ARH7006007     1005201800000000000650010412820                         001000040233944915JOAO CARLOS JATCZAK                     01300466270000000000002810400000000                      
0334223300036U 060000000000000000000000000000000000000000000000000000000000000000000000065000000000000065000000000000000000000000000000001005201811052018000000000000000000000000000                              000                           
0334223300037T 06011710130046627        00000002510892CBI7615014     3004201800000000000650000169970                         001000077920112834SEVERINO DE LIMA NETO                   01300466270000000000002810400000000                      
0334223300038U 060000000000001300000000000000000000000000000000000000000000000000000000066300000000000066300000000000000000000000000000001005201811052018000000000000000000000000000                              000                           
0334223300039T 06011710130046627        00000002632302HUS2499014     3004201800000000001149010411030                         001000014520685850BENEDITO APARECIDO DE MORAES            01300466270000000000002810400000000                      
0334223300040U 060000000000002300000000000000000000000000000000000000000000000000000000117200000000000117200000000000000000000000000000001005201811052018000000000000000000000000000                              000                           
0334223300041T 06011710130046627        00000002739452BTF7593004     3004201800000000001139034184250                         001000001034388908FERNANDO TOMAZ KORMANN                  01300466270000000000002810400000000                      
0334223300042U 060000000000002190000000000000000000000000000000000000000000000000000000116090000000000116090000000000000000000000000000001005201811052018000000000000000000000000000                              000                           
0334223300043T 17011710130046627        00000003118551               1005201800000000000490010412820                         002000000000000000                                        01300466270000000000010000400000000                      
0334223300044U 170000000000000000000000000000000000000000000000000000000000000000000000049000000000000049000000000000000000000000000000001005201811052018000000000000000000000000000                              000                           
0334223300045T 17011710130046627        00000003139801               1005201800000000001139034137030                         002000000000000000                                        01300466270000000000010000400000000                      
0334223300046U 170000000000000000000000000000000000000000000000000000000000000000000000113900000000000113900000000000000000000000000000001005201811052018000000000000000000000000000                              000                           
0334223300047T 06011710130046627        00000003141962GSH6266003     1005201800000000000650034185380                         002006001276000170RONEW TRANSPORTES LTDA                  01300466270000000000002810400000000                      
0334223300048U 060000000000000000000000000000000000000000000000000000000000000000000000065000000000000065000000000000000000000000000000001005201811052018000000000000000000000000000                              000                           
0334223300049T 17011710130046627        00000003142931               1005201800000000000650034185380                         002000000000000000                                        01300466270000000000010000400000000                      
0334223300050U 170000000000000000000000000000000000000000000000000000000000000000000000065000000000000065000000000000000000000000000000001005201811052018000000000000000000000000000                              000                           
0334223300051T 06011710130046627        00000003143902CAF0030003     1005201800000000000650034185380                         002006001276000170RONEW TRANSPORTES LTDA                  01300466270000000000002810400000000                      
0334223300052U 060000000000000000000000000000000000000000000000000000000000000000000000065000000000000065000000000000000000000000000000001005201811052018000000000000000000000000000                              000                           
0334223300053T 06011710130046627        00000003144982BTR0808003     1005201800000000000650034185380                         002006001276000170RONEW TRANSPORTES LTDA                  01300466270000000000002810400000000                      
0334223300054U 060000000000000000000000000000000000000000000000000000000000000000000000065000000000000065000000000000000000000000000000001005201811052018000000000000000000000000000                              000                           
0334223300055T 06011710130046627        00000003146332BKJ5181003     1005201800000000000650034185380                         001000022836250844ROBERTO RETAMERO                        01300466270000000000002810400000000                      
0334223300056U 060000000000000000000000000000000000000000000000000000000000000000000000065000000000000065000000000000000000000000000000001005201811052018000000000000000000000000000                              000                           
0334223300057T 06011710130046627        00000003251202DBB9053        3004201800000000000496834155860                         001000021903802865VAGNER PESSOA DOS SANTOS BATISTA        01300466270000000000002810400000000                      
0334223300058U 060000000000001000000000000000000000000000000000000000000000000000000000050680000000000050680000000000000000000000000000001005201811052018000000000000000000000000000                              000                           
03342235         0000580002440000000000276077400000000000000000000000000000000000000000000000000000000000000000000000000541                                                                                                                     
03342239         000001000062                                                                                                                                                                                                                   
