03300000        2023566251000133011710130046627     007651732           RASTREADORES PROTEGE LTDA ME  BANCO SANTANDER (BRASIL) S/A            208052018      000555040                                                                         T
03398721T01  040 2023566251000133007651732           011710130046627     RASTREADORES PROTEGE LTDA ME                                                                                  0000055508052018                                         
0339872300001T 06011710130046627        00000002411722BXJ3134008     1005201800000000000650010443530                         001000004970994897JOSE APARECIDO FRANCISCO                01300466270000000000002810400000000                      
0339872300002U 060000000000000000000000000000000000000000000000000000000000000000000000065000000000000065000000000000000000000000000000000805201809052018000000000000000000000000000                              000                           
0339872300003T 06011710130046627        00000002412962CMP0570008     1005201800000000000650010443530                         001000004970994897JOSE APARECIDO FRANCISCO                01300466270000000000002810400000000                      
0339872300004U 060000000000000000000000000000000000000000000000000000000000000000000000065000000000000065000000000000000000000000000000000805201809052018000000000000000000000000000                              000                           
0339872300005T 06011710130046627        00000002546812AOA1645004     3004201800000000000650000168160                         001000035504823889WANDERSON BARBOSA DE SOUZA              01300466270000000000002810400000000                      
0339872300006U 060000000000002000000000000000000000000000000000000000000000000000000000067000000000000067000000000000000000000000000000000805201809052018000000000000000000000000000                              000                           
0339872300007T 17011710130046627        00000002628891               0805201800000000001139034164220                         002000000000000000                                        01300466270000000000010000400000000                      
0339872300008U 170000000000000000000000000000000000000000000000000000000000000000000000113900000000000113900000000000000000000000000000000805201809052018000000000000000000000000000                              000                           
0339872300009T 06011710130046627        00000002713062EQX1666014     3004201800000000001139034101490                         001000034896360826EDUARDO CORREIA DA SILVA                01300466270000000000002810400000000                      
0339872300010U 060000000000000600000000000000000000000000000000000000000000000000000000114500000000000114500000000000000000000000000000000805201809052018000000000000000000000000000                              000                           
0339872300011T 06011710130046627        00000002725072LMC2826004     3004201800000000001849003309156                         001000022563103886ELVIS MIRANDA SILVEIRA                  01300466270000000000002810300000000                      
0339872300012U 060000000000002870000000000000000000000000000000000000000000000000000000187770000000000187770000000000000000000000000000000805201809052018000000000000000000000000000                              000                           
0339872300013T 06011710130046627        00000002726202EPD2372004     3004201800000000001139023700950                         001000013213866806EMERSON DE SOUZA SILVA                  01300466270000000000002810400000000                      
0339872300014U 060000000000001750000000000000000000000000000000000000000000000000000000115650000000000115650000000000000000000000000000000805201809052018000000000000000000000000000                              000                           
0339872300015T 17011710130046627        00000002949851               0805201800000000001139023702980                         002000000000000000                                        01300466270000000000010000400000000                      
0339872300016U 170000000000000000000000000000000000000000000000000000000000000000000000113900000000000113900000000000000000000000000000000805201809052018000000000000000000000000000                              000                           
0339872300017T 17011710130046627        00000002975001               0805201800000000001239034138940                         002000000000000000                                        01300466270000000000010000400000000                      
0339872300018U 170000000000000000000000000000000000000000000000000000000000000000000000123900000000000123900000000000000000000000000000000805201809052018000000000000000000000000000                              000                           
0339872300019T 06011710130046627        00000003043362GCF6318004     3004201800000000001490023714510                         001000037008415826VINICIUS CHIOMENTO                      01300466270000000000002810400000000                      
0339872300020U 060000000000002320000000000000000000000000000000000000000000000000000000151320000000000151320000000000000000000000000000000805201809052018000000000000000000000000000                              000                           
0339872300021T 06011710130046627        00000003155592MQV4018001     3004201800000000001300023703160                         001000035488804870EVANDRO MARCHESINI                      01300466270000000000002810400000000                      
0339872300022U 060000000000002080000000000000000000000000000000000000000000000000000000132080000000000132080000000000000000000000000000000805201809052018000000000000000000000000000                              000                           
0339872300023T 06011710130046627        00000003156642EJW8432002     3004201800000000001300003305665                         001000025444602881VALDENIR CORDEIRO DA SILVA              01300466270000000000002810300000000                      
0339872300024U 060000000000002080000000000000000000000000000000000000000000000000000000132080000000000132080000000000000000000000000000000805201809052018000000000000000000000000000                              000                           
0339872300025T 06011710130046627        00000003243102FLL5950002     2904201800000000001290003339659                         001000037318076884BRUNO CARDOSO DE OLIVEIRA               01300466270000000000002810300000000                      
0339872300026U 060000000000002240000000000000000000000000000000000000000000000000000000131240000000000131240000000000000000000000000000000805201809052018000000000000000000000000000                              000                           
0339872300027T 17011710130046627        00000003255381               0805201800000000001239000168150                         002000000000000000                                        01300466270000000000010000400000000                      
0339872300028U 170000000000000000000000000000000000000000000000000000000000000000000000123900000000000123900000000000000000000000000000000805201809052018000000000000000000000000000                              000                           
0339872300029T 17011710130046627        00000003300941               0805201800000000000650023766320                         002000000000000000                                        01300466270000000000010000400000000                      
0339872300030U 170000000000000000000000000000000000000000000000000000000000000000000000065000000000000065000000000000000000000000000000000805201809052018000000000000000000000000000                              000                           
0339872300031T 17011710130046627        00000003301831               0805201800000000000669234142780                         002000000000000000                                        01300466270000000000010000400000000                      
0339872300032U 170000000000000000000000000000000000000000000000000000000000000000000000066920000000000066920000000000000000000000000000000805201809052018000000000000000000000000000                              000                           
0339872300033T 17011710130046627        00000003301911               0805201800000000002762510439940                         002000000000000000                                        01300466270000000000010000400000000                      
0339872300034U 170000000000000000000000000000000000000000000000000000000000000000000000276250000000000276250000000000000000000000000000000805201809052018000000000000000000000000000                              000                           
0339872300035T 17011710130046627        00000003302301               0805201800000000001158223712200                         002000000000000000                                        01300466270000000000010000400000000                      
0339872300036U 170000000000000000000000000000000000000000000000000000000000000000000000115820000000000115820000000000000000000000000000000805201809052018000000000000000000000000000                              000                           
03398725         0000360002730000000000302765100000000000000000000000000000000000000000000000000000000000000000000000000539                                                                                                                     
03398729         000001000040                                                                                                                                                                                                                   
