03300000        2023566251000133011710130046627     007651732           RASTREADORES PROTEGE LTDA ME  BANCO SANTANDER (BRASIL) S/A            209052018      000556040                                                                         T
03394161T01  040 2023566251000133007651732           011710130046627     RASTREADORES PROTEGE LTDA ME                                                                                  0000055609052018                                         
0339416300001T 06011710130046627        00000002081162EVJ7634004     3004201800000000000650023700940                         001000009893056861ADEMILSON PEREIRA DE SOUZA              01300466270000000000002810400000000                      
0339416300002U 060000000000001170000000000000000000000000000000000000000000000000000000066170000000000066170000000000000000000000000000000905201810052018000000000000000000000000000                              000                           
0339416300003T 06011710130046627        00000002106412MDQ1913004     3004201800000000000650000132760                         001000026323158833AMILCAR DE JESUS AZEVEDO JUNIOR         01300466270000000000002810400000000                      
0339416300004U 060000000000002700000000000000000000000000000000000000000000000000000000067700000000000067700000000000000000000000000000000905201810052018000000000000000000000000000                              000                           
0339416300005T 06011710130046627        00000002209222LXI7229004     3004201800000000000650023703680                         001000035488804870EVANDRO MARCHESINI                      01300466270000000000002810400000000                      
0339416300006U 060000000000001170000000000000000000000000000000000000000000000000000000066170000000000066170000000000000000000000000000000905201810052018000000000000000000000000000                              000                           
0339416300007T 06011710130046627        000000023326922 PLACAS076    3004201800000000001300000167280                         001000022604564807MARCO ANTONIO DA SILVA VALE             01300466270000000000002810400000000                      
0339416300008U 060000000000003300000000000000000000000000000000000000000000000000000000133300000000000133300000000000000000000000000000000905201810052018000000000000000000000000000                              000                           
0339416300009T 17011710130046627        00000002376041               0905201800000000001300034102110                         002000000000000000                                        01300466270000000000010000400000000                      
0339416300010U 170000000000000000000000000000000000000000000000000000000000000000000000130000000000000130000000000000000000000000000000000905201810052018000000000000000000000000000                              000                           
0339416300011T 06011710130046627        00000002431162BAF4270007     1005201800000000000490034192820                         001000001786849100KIKUO ENDO                              01300466270000000000002810400000000                      
0339416300012U 060000000000000000000000000000000000000000000000000000000000000000000000049000000000000049000000000000000000000000000000000905201810052018000000000000000000000000000                              000                           
0339416300013T 17011710130046627        00000002539521               0905201800000000001393610432790                         002000000000000000                                        01300466270000000000010000400000000                      
0339416300014U 170000000000000000000000000000000000000000000000000000000000000000000000139360000000000139360000000000000000000000000000000905201810052018000000000000000000000000000                              000                           
0339416300015T 17011710130046627        00000002791881               0905201800000000001139010415710                         002000000000000000                                        01300466270000000000010000400000000                      
0339416300016U 170000000000000000000000000000000000000000000000000000000000000000000000113900000000000113900000000000000000000000000000000905201810052018000000000000000000000000000                              000                           
0339416300017T 06011710130046627        00000002813952MHO0300004     3004201800000000001489003308087                         001000027490513987IVONETE RIBEIRO DIAS                    01300466270000000000002810300000000                      
0339416300018U 060000000000002600000000000000000000000000000000000000000000000000000000151500000000000151500000000000000000000000000000000905201810052018000000000000000000000000000                              000                           
0339416300019T 06011710130046627        00000002835412EBN2336004     3004201800000000001489003301082                         001000037601249840JEFFERSON LUIZ ANDRADE DA SILVEIRA      01300466270000000000002810300000000                      
0339416300020U 060000000000002600000000000000000000000000000000000000000000000000000000151500000000000151500000000000000000000000000000000905201810052018000000000000000000000000000                              000                           
0339416300021T 17011710130046627        00000002850051               0905201800000000001139023730510                         002000000000000000                                        01300466270000000000010000400000000                      
0339416300022U 170000000000000000000000000000000000000000000000000000000000000000000000113900000000000113900000000000000000000000000000000905201810052018000000000000000000000000000                              000                           
0339416300023T 17011710130046627        00000003049211               0905201800000000001272100167280                         002000000000000000                                        01300466270000000000010000400000000                      
0339416300024U 170000000000000000000000000000000000000000000000000000000000000000000000127210000000000127210000000000000000000000000000000905201810052018000000000000000000000000000                              000                           
0339416300025T 06011710130046627        00000003049302EBF7768006     3004201800000000001139000167280                         001000052022048849WALTER VALE                             01300466270000000000002810400000000                      
0339416300026U 060000000000001100000000000000000000000000000000000000000000000000000000115000000000000115000000000000000000000000000000000905201810052018000000000000000000000000000                              000                           
0339416300027T 17011710130046627        00000003063471               0905201800000000001139034100570                         002000000000000000                                        01300466270000000000010000400000000                      
0339416300028U 170000000000000000000000000000000000000000000000000000000000000000000000113900000000000113900000000000000000000000000000000905201810052018000000000000000000000000000                              000                           
0339416300029T 17011710130046627        00000003123041               0905201800000000000675003307951                         002000000000000000                                        01300466270000000000010000300000000                      
0339416300030U 170000000000000000000000000000000000000000000000000000000000000000000000067500000000000067500000000000000000000000000000000905201810052018000000000000000000000000000                              000                           
0339416300031T 06011710130046627        00000003170472DQS8424ACORD0030905201800000000001083310449890                         001000014804020870ARNALDO JOSE MACHADO FILHO              01300466270000000000002810400000000                      
0339416300032U 060000000000000000000000000000000000000000000000000000000000000000000000108330000000000108330000000000000000000000000000000905201810052018000000000000000000000000000                              000                           
0339416300033T 17011710130046627        00000003191801               0905201800000000000650034103680                         002000000000000000                                        01300466270000000000010000400000000                      
0339416300034U 170000000000000000000000000000000000000000000000000000000000000000000000065000000000000065000000000000000000000000000000000905201810052018000000000000000000000000000                              000                           
0339416300035T 06011710130046627        00000003265182AUN5129        3004201800000000000595534168760                         001000038667295884RENAN NEVES DE MENESES                  01300466270000000000002810400000000                      
0339416300036U 060000000000000450000000000000000000000000000000000000000000000000000000060000000000000060000000000000000000000000000000000905201810052018000000000000000000000000000                              000                           
0339416300037T 17011710130046627        00000003289441               0905201800000000000673000167280                         002000000000000000                                        01300466270000000000010000400000000                      
0339416300038U 170000000000000000000000000000000000000000000000000000000000000000000000067300000000000067300000000000000000000000000000000905201810052018000000000000000000000000000                              000                           
03394165         0000380002630000000000293229300000000000000000000000000000000000000000000000000000000000000000000000000540                                                                                                                     
03394169         000001000042                                                                                                                                                                                                                   
