03300000        2023566251000133011710130046627     007651732           RASTREADORES PROTEGE LTDA ME  BANCO SANTANDER (BRASIL) S/A            215052018      000560040                                                                         T
03310061T01  040 2023566251000133007651732           011710130046627     RASTREADORES PROTEGE LTDA ME                                                                                  0000056015052018                                         
0331006300001T 17011710130046627        00000002085901               1505201800000000000650003335017                         002000000000000000                                        01300466270000000000010000300000000                      
0331006300002U 170000000000000000000000000000000000000000000000000000000000000000000000065000000000000065000000000000000000000000000000001505201816052018000000000000000000000000000                              000                           
0331006300003T 17011710130046627        00000002093331               1505201800000000000650010405760                         002000000000000000                                        01300466270000000000010000400000000                      
0331006300004U 170000000000000000000000000000000000000000000000000000000000000000000000065000000000000065000000000000000000000000000000001505201816052018000000000000000000000000000                              000                           
0331006300005T 17011710130046627        00000002135861               1505201800000000000650010441620                         002000000000000000                                        01300466270000000000010000400000000                      
0331006300006U 170000000000000000000000000000000000000000000000000000000000000000000000065000000000000065000000000000000000000000000000001505201816052018000000000000000000000000000                              000                           
0331006300007T 17011710130046627        00000002145401               1505201800000000000650023765360                         002000000000000000                                        01300466270000000000010000400000000                      
0331006300008U 170000000000000000000000000000000000000000000000000000000000000000000000065000000000000065000000000000000000000000000000001505201816052018000000000000000000000000000                              000                           
0331006300009T 17011710130046627        00000002214141               1505201800000000000600023777480                         002000000000000000                                        01300466270000000000010000400000000                      
0331006300010U 170000000000000000000000000000000000000000000000000000000000000000000000060000000000000060000000000000000000000000000000001505201816052018000000000000000000000000000                              000                           
0331006300011T 17011710130046627        00000002228521               1505201800000000001300034191070                         002000000000000000                                        01300466270000000000010000400000000                      
0331006300012U 170000000000000000000000000000000000000000000000000000000000000000000000130000000000000130000000000000000000000000000000001505201816052018000000000000000000000000000                              000                           
0331006300013T 06011710130046627        00000002335362LRJ7275004     3004201800000000000650023706360                         001000048234513842MARCO TOMAZ MOREIRA DIAS                01300466270000000000002810400000000                      
0331006300014U 060000000000002500000000000000000000000000000000000000000000000000000000067500000000000067500000000000000000000000000000001505201816052018000000000000000000000000000                              000                           
0331006300015T 06011710130046627        00000002379902JNW9780004     2805201800000000000650034185510                         001000045550885816ADRIANO KELVIN MOREIRA GOMES            01300466270000000000002810400000000                      
0331006300016U 060000000000000000000000000000000000000000000000000000000000000000000000065000000000000065000000000000000000000000000000001505201816052018000000000000000000000000000                              000                           
0331006300017T 06011710130046627        00000002445972DAK2243004     3004201800000000001388003333715                         001000066291828804DIRCEU FERREIRA BUENO                   01300466270000000000002810300000000                      
0331006300018U 060000000000004050000000000000000000000000000000000000000000000000000000142850000000000142850000000000000000000000000000001505201816052018000000000000000000000000000                              000                           
0331006300019T 17011710130046627        00000002504901               1505201800000000000650034178530                         002000000000000000                                        01300466270000000000010000400000000                      
0331006300020U 170000000000000000000000000000000000000000000000000000000000000000000000065000000000000065000000000000000000000000000000001505201816052018000000000000000000000000000                              000                           
0331006300021T 06011710130046627        00000002525222CLK6423004     3004201800000000000650023703950                         001000094808597691UILIAM ROSA COUTINHO                    01300466270000000000002810400000000                      
0331006300022U 060000000000003600000000000000000000000000000000000000000000000000000000068600000000000068600000000000000000000000000000001505201816052018000000000000000000000000000                              000                           
0331006300023T 17011710130046627        00000002530141               1505201800000000001300003304642                         002000000000000000                                        01300466270000000000010000300000000                      
0331006300024U 170000000000000000000000000000000000000000000000000000000000000000000000130000000000000130000000000000000000000000000000001505201816052018000000000000000000000000000                              000                           
0331006300025T 17011710130046627        00000003121931               1505201800000000001139034107700                         002000000000000000                                        01300466270000000000010000400000000                      
0331006300026U 170000000000000000000000000000000000000000000000000000000000000000000000113900000000000113900000000000000000000000000000001505201816052018000000000000000000000000000                              000                           
0331006300027T 17011710130046627        00000003186201               1505201800000000001139010403770                         002000000000000000                                        01300466270000000000010000400000000                      
0331006300028U 170000000000000000000000000000000000000000000000000000000000000000000000113900000000000113900000000000000000000000000000001505201816052018000000000000000000000000000                              000                           
0331006300029T 17011710130046627        00000003195111               1505201800000000001139010433870                         002000000000000000                                        01300466270000000000010000400000000                      
0331006300030U 170000000000000000000000000000000000000000000000000000000000000000000000113900000000000113900000000000000000000000000000001505201816052018000000000000000000000000000                              000                           
0331006300031T 06011710130046627        00000003234542EEH5345001     3004201800000000001139023724150                         001000044526165859FELIPE EXPEDITO SOUZA                   01300466270000000000002810400000000                      
0331006300032U 060000000000003600000000000000000000000000000000000000000000000000000000117500000000000117500000000000000000000000000000001505201816052018000000000000000000000000000                              000                           
0331006300033T 06011710130046627        00000003254222DVL3304009     3004201800000000001139034107700                         001000002208459806MARTA BERNARDO CORCINO                  01300466270000000000002810400000000                      
0331006300034U 060000000000003290000000000000000000000000000000000000000000000000000000117190000000000117190000000000000000000000000000001505201816052018000000000000000000000000000                              000                           
0331006300035T 17011710130046627        00000003312101               1505201800000000001000003345055                         002000000000000000                                        01300466270000000000010000300000000                      
0331006300036U 170000000000000000000000000000000000000000000000000000000000000000000000100000000000000100000000000000000000000000000000001505201816052018000000000000000000000000000                              000                           
03310065         0000360002350000000000266845600000000000000000000000000000000000000000000000000000000000000000000000000543                                                                                                                     
03310069         000001000040                                                                                                                                                                                                                   
