03300000        2023566251000133011710130046627     007651732           RASTREADORES PROTEGE LTDA ME  BANCO SANTANDER (BRASIL) S/A            207052018      000554040                                                                         T
03363231T01  040 2023566251000133007651732           011710130046627     RASTREADORES PROTEGE LTDA ME                                                                                  0000055407052018                                         
0336323300001T 17011710130046627        00000002248711               0705201800000000000650003344296                         002000000000000000                                        01300466270000000000010000300000000                      
0336323300002U 170000000000004810000000000000000000000000000000000000000000000000000000069810000000000069810000000000000000000000000000000705201808052018000000000000000000000000000                              000                           
0336323300003T 06011710130046627        00000002248802CKF8635004     3004201800000000000650003344296                         001000014714769871ITALO RODES PEREIRA                     01300466270000000000002810300000000                      
0336323300004U 060000000000000910000000000000000000000000000000000000000000000000000000065910000000000065910000000000000000000000000000000705201808052018000000000000000000000000000                              000                           
0336323300005T 06011710130046627        00000002295042DTA0231014     3004201800000000001300034140520                         001000039031020249JURANDIR MIRANDA DA SILVA               01300466270000000000002810400000000                      
0336323300006U 060000000000001700000000000000000000000000000000000000000000000000000000131700000000000131700000000000000000000000000000000705201808052018000000000000000000000000000                              000                           
0336323300007T 17011710130046627        00000002334201               0705201800000000000650034105510                         002000000000000000                                        01300466270000000000010000400000000                      
0336323300008U 170000000000000000000000000000000000000000000000000000000000000000000000065000000000000065000000000000000000000000000000000705201808052018000000000000000000000000000                              000                           
0336323300009T 06011710130046627        00000002406992EPU6797008     1005201800000000000590003302682                         001000021439596808SAID KLALED ZAYTOUN                     01300466270000000000002810300000000                      
0336323300010U 060000000000000000000000000000000000000000000000000000000000000000000000059000000000000059000000000000000000000000000000000705201808052018000000000000000000000000000                              000                           
0336323300011T 06011710130046627        00000002410402EKH9034008     2804201800000000000550003307684                         001000000030632919JOSE DA SILVA PEREIRA                   01300466270000000000002810300000000                      
0336323300012U 060000000000000990000000000000000000000000000000000000000000000000000000055990000000000055990000000000000000000000000000000705201808052018000000000000000000000000000                              000                           
0336323300013T 06011710130046627        00000002414152FFQ4614008     1005201800000000000590003300299                         002012125395000138RENOVE AMBIENTAL LTDA ME                01300466270000000000002810300000000                      
0336323300014U 060000000000000000000000000000000000000000000000000000000000000000000000059000000000000059000000000000000000000000000000000705201808052018000000000000000000000000000                              000                           
0336323300015T 06011710130046627        00000002421522JPP3505007     0605201800000000000490034162320                         001000041416842870CAMILA LOPES DA SILVA                   01300466270000000000002810400000000                      
0336323300016U 060000000000000000000000000000000000000000000000000000000000000000000000049000000000000049000000000000000000000000000000000705201808052018000000000000000000000000000                              000                           
0336323300017T 06011710130046627        00000002433532TR13005005     1005201800000000000650000108000                         001000060220473668ALINE DIAS DE ARAUJO                    01300466270000000000002810400000000                      
0336323300018U 060000000000000000000000000000000000000000000000000000000000000000000000065000000000000065000000000000000000000000000000000705201808052018000000000000000000000000000                              000                           
0336323300019T 17011710130046627        00000002486811               0705201800000000001950023703160                         002000000000000000                                        01300466270000000000010000400000000                      
0336323300020U 170000000000000000000000000000000000000000000000000000000000000000000000195000000000000195000000000000000000000000000000000705201808052018000000000000000000000000000                              000                           
0336323300021T 17011710130046627        00000002508561               0705201800000000001300023705180                         002000000000000000                                        01300466270000000000010000400000000                      
0336323300022U 170000000000000000000000000000000000000000000000000000000000000000000000130000000000000130000000000000000000000000000000000705201808052018000000000000000000000000000                              000                           
0336323300023T 17011710130046627        00000002578421               0705201800000000001239034174350                         002000000000000000                                        01300466270000000000010000400000000                      
0336323300024U 170000000000000000000000000000000000000000000000000000000000000000000000123900000000000123900000000000000000000000000000000705201808052018000000000000000000000000000                              000                           
0336323300025T 17011710130046627        00000002751581               0705201800000000001139034174570                         002000000000000000                                        01300466270000000000010000400000000                      
0336323300026U 170000000000000000000000000000000000000000000000000000000000000000000000113900000000000113900000000000000000000000000000000705201808052018000000000000000000000000000                              000                           
0336323300027T 06011710130046627        00000002842702EBF4825014     3004201800000000001239034101410                         001000025420973804LAECIO FERREIRA LIMA DE SANTANA         01300466270000000000002810400000000                      
0336323300028U 060000000000001670000000000000000000000000000000000000000000000000000000125570000000000125570000000000000000000000000000000705201808052018000000000000000000000000000                              000                           
0336323300029T 06011710130046627        00000002912422MFT7896014     3004201800000000001139034174510                         001000040850802881LUIS CARLOS DA SILVA                    01300466270000000000002810400000000                      
0336323300030U 060000000000001680000000000000000000000000000000000000000000000000000000115580000000000115580000000000000000000000000000000705201808052018000000000000000000000000000                              000                           
0336323300031T 17011710130046627        00000002955821               0705201800000000001139034181050                         002000000000000000                                        01300466270000000000010000400000000                      
0336323300032U 170000000000000000000000000000000000000000000000000000000000000000000000113900000000000113900000000000000000000000000000000705201808052018000000000000000000000000000                              000                           
0336323300033T 17011710130046627        00000002972401               0705201800000000002120034137240                         002000000000000000                                        01300466270000000000010000400000000                      
0336323300034U 170000000000000000000000000000000000000000000000000000000000000000000000212000000000000212000000000000000000000000000000000705201808052018000000000000000000000000000                              000                           
0336323300035T 17011710130046627        00000003039841               0705201800000000001139010410010                         002000000000000000                                        01300466270000000000010000400000000                      
0336323300036U 170000000000000000000000000000000000000000000000000000000000000000000000113900000000000113900000000000000000000000000000000705201808052018000000000000000000000000000                              000                           
0336323300037T 17011710130046627        00000003177991               0705201800000000001309600170280                         002000000000000000                                        01300466270000000000010000400000000                      
0336323300038U 170000000000000000000000000000000000000000000000000000000000000000000000130960000000000130960000000000000000000000000000000705201808052018000000000000000000000000000                              000                           
0336323300039T 17011710130046627        00000003188171               0705201800000000001316810441040                         002000000000000000                                        01300466270000000000010000400000000                      
0336323300040U 170000000000000000000000000000000000000000000000000000000000000000000000131680000000000131680000000000000000000000000000000705201808052018000000000000000000000000000                              000                           
0336323300041T 06011710130046627        00000003190662JLR6524002     3004201800000000000650003330317                         001000014913798715DAVID DOS SANTOS PINHEIRO               01300466270000000000002810300000000                      
0336323300042U 060000000000000910000000000000000000000000000000000000000000000000000000065910000000000065910000000000000000000000000000000705201808052018000000000000000000000000000                              000                           
0336323300043T 17011710130046627        00000003296061               0705201800000000000689523727700                         002000000000000000                                        01300466270000000000010000400000000                      
0336323300044U 170000000000000000000000000000000000000000000000000000000000000000000000068950000000000068950000000000000000000000000000000705201808052018000000000000000000000000000                              000                           
03363235         0000440002830000000000314222100000000000000000000000000000000000000000000000000000000000000000000000000538                                                                                                                     
03363239         000001000048                                                                                                                                                                                                                   
