03300000        2023566251000133011710130046627     007651732           RASTREADORES PROTEGE LTDA ME  BANCO SANTANDER (BRASIL) S/A            216052018      000561040                                                                         T
03358231T01  040 2023566251000133007651732           011710130046627     RASTREADORES PROTEGE LTDA ME                                                                                  0000056116052018                                         
0335823300001T 17011710130046627        00000002702371               1605201800000000001738034171540                         002000000000000000                                        01300466270000000000010000400000000                      
0335823300002U 170000000000000000000000000000000000000000000000000000000000000000000000173800000000000173800000000000000000000000000000001605201817052018000000000000000000000000000                              000                           
0335823300003T 06011710130046627        00000002867882CVA9086014     3004201800000000001239000129960                         001000017581837807RICARDO ALEXANDRE ALVES E SILVA         01300466270000000000002810400000000                      
0335823300004U 060000000000003830000000000000000000000000000000000000000000000000000000127730000000000127730000000000000000000000000000001605201817052018000000000000000000000000000                              000                           
0335823300005T 06011710130046627        00000003032592FPO5388004     3004201800000000001139034101490                         001000026666699807VALERIA PEREIRA SANTANA                 01300466270000000000002810400000000                      
0335823300006U 060000000000003510000000000000000000000000000000000000000000000000000000117410000000000117410000000000000000000000000000001605201817052018000000000000000000000000000                              000                           
0335823300007T 17011710130046627        00000003080301               1605201800000000000650023715450                         002000000000000000                                        01300466270000000000010000400000000                      
0335823300008U 170000000000000000000000000000000000000000000000000000000000000000000000065000000000000065000000000000000000000000000000001605201817052018000000000000000000000000000                              000                           
0335823300009T 17011710130046627        00000003112351               1605201800000000001139010402620                         002000000000000000                                        01300466270000000000010000400000000                      
0335823300010U 170000000000000000000000000000000000000000000000000000000000000000000000113900000000000113900000000000000000000000000000001605201817052018000000000000000000000000000                              000                           
0335823300011T 17011710130046627        00000003112431               1605201800000000001139010402620                         002000000000000000                                        01300466270000000000010000400000000                      
0335823300012U 170000000000000000000000000000000000000000000000000000000000000000000000113900000000000113900000000000000000000000000000001605201817052018000000000000000000000000000                              000                           
0335823300013T 17011710130046627        00000003313251               1605201800000000002990010429010                         002000000000000000                                        01300466270000000000010000400000000                      
0335823300014U 170000000000000000000000000000000000000000000000000000000000000000000000299000000000000299000000000000000000000000000000001605201817052018000000000000000000000000000                              000                           
03358235         0000140002330000000000264467600000000000000000000000000000000000000000000000000000000000000000000000000544                                                                                                                     
03358239         000001000018                                                                                                                                                                                                                   
