03300000        2023566251000133011710130046627     007651732           RASTREADORES PROTEGE LTDA ME  BANCO SANTANDER (BRASIL) S/A            204052018      000553040                                                                         T
03302561T01  040 2023566251000133007651732           011710130046627     RASTREADORES PROTEGE LTDA ME                                                                                  0000055304052018                                         
0330256300001T 06011710130046627        00000002187662DDS0937004     3004201800000000000650034116530                         001000041378333896EDISON ROBERTO VENANCIO JUNIOR          01300466270000000000000000400000000                      
0330256300002U 060000000000000520000000000000000000000000000000000000000000000000000000065520000000000065520000000000000000000000000000000405201807052018000000000000000000000000000                              000                           
0330256300003T 06011710130046627        000000022260724 PLACAS040    3004201800000000002550023763250                         002003683344000130FORT TRANS TRANSPORTADORA               01300466270000000000000000400000000                      
0330256300004U 060000000000001990000000000000000000000000000000000000000000000000000000256990000000000256990000000000000000000000000000000405201807052018000000000000000000000000000                              000                           
0330256300005T 06011710130046627        00000002315842MFQ6302004     3004201800000000000650003344296                         001000012056909804MARCELO FERREIRA RAMOS                  01300466270000000000000000300000000                      
0330256300006U 060000000000000520000000000000000000000000000000000000000000000000000000065520000000000065520000000000000000000000000000000405201807052018000000000000000000000000000                              000                           
0330256300007T 06011710130046627        00000002381472EBY6911009     1005201800000000000650034101800                         002044524312000170A.M. COFRES E MOVEIS PARA ESCRITORIO    01300466270000000000000000400000000                      
0330256300008U 060000000000000000000000000000000000000000000000000000000000000000000000065000000000000065000000000000000000000000000000000405201807052018000000000000000000000000000                              000                           
0330256300009T 06011710130046627        00000002390382DTE0136009     1005201800000000001300003309199                         001000005576817826CLAUDINEI BONASSA                       01300466270000000000000000300000000                      
0330256300010U 060000000000000000000000000000000000000000000000000000000000000000000000130000000000000130000000000000000000000000000000000405201807052018000000000000000000000000000                              000                           
0330256300011T 06011710130046627        00000002435902ERH8339005     1005201800000000000590010405760                         001000089104757815VITOR AMADO DE JESUS                    01300466270000000000000000400000000                      
0330256300012U 060000000000000000000000000000000000000000000000000000000000000000000000059000000000000059000000000000000000000000000000000405201807052018000000000000000000000000000                              000                           
0330256300013T 06011710130046627        00000002472272NSM3733004     3004201800000000000550003303409                         001000031880107880LEANDRO SIMOES DA SILVA                 01300466270000000000000000300000000                      
0330256300014U 060000000000000440000000000000000000000000000000000000000000000000000000055440000000000055440000000000000000000000000000000405201807052018000000000000000000000000000                              000                           
0330256300015T 06011710130046627        00000002601262ERU9835004     3004201800000000001139023708150                         001000042440801801ANANDA ARAUJO TERZI DE SOUZA            01300466270000000000000000400000000                      
0330256300016U 060000000000000100000000000000000000000000000000000000000000000000000000114000000000000114000000000000000000000000000000000405201807052018000000000000000000000000000                              000                           
0330256300017T 06011710130046627        00000002646792FEA2905004     3004201800000000001139010412170                         001000022021605825CARLOS ROBERTO PEDRO DA SILVA           01300466270000000000000000400000000                      
0330256300018U 060000000000000870000000000000000000000000000000000000000000000000000000114770000000000114770000000000000000000000000000000405201807052018000000000000000000000000000                              000                           
0330256300019T 06011710130046627        00000002664772INX6765006     3004201800000000001139003312580                         001000005654191969CLEBERSON RIBEIRO DOS SANTOS            01300466270000000000000000300000000                      
0330256300020U 060000000000000870000000000000000000000000000000000000000000000000000000114770000000000114770000000000000000000000000000000405201807052018000000000000000000000000000                              000                           
0330256300021T 06011710130046627        00000002665902EFX4566017     3004201800000000001239023776460                         001000011376840898CLEIDE APARECIDA DOS SANTOS PEREIRA     01300466270000000000000000400000000                      
0330256300022U 060000000000000950000000000000000000000000000000000000000000000000000000124850000000000124850000000000000000000000000000000405201807052018000000000000000000000000000                              000                           
0330256300023T 17011710130046627        00000002675461               0405201800000000001320034182130                         002000000000000000                                        01300466270000000000007260400000000                      
0330256300024U 170000000000000000000000000000000000000000000000000000000000000000000000132000000000000132000000000000000000000000000000000405201807052018000000000000000000000000000                              000                           
0330256300025T 06011710130046627        00000002675542DAJ9656014     3004201800000000001239034182130                         001000035796072862DANIEL GOMES DE OLIVEIRA JUNIOR         01300466270000000000000000400000000                      
0330256300026U 060000000000000100000000000000000000000000000000000000000000000000000000124000000000000124000000000000000000000000000000000405201807052018000000000000000000000000000                              000                           
0330256300027T 17011710130046627        00000002688951               0405201800000000001140034168310                         002000000000000000                                        01300466270000000000007260400000000                      
0330256300028U 170000000000000000000000000000000000000000000000000000000000000000000000114000000000000114000000000000000000000000000000000405201807052018000000000000000000000000000                              000                           
0330256300029T 06011710130046627        00000002732282DYF6408004     3004201800000000001139010446320                         001000035631979896ERICKSON INOUE MELO                     01300466270000000000000000400000000                      
0330256300030U 060000000000000870000000000000000000000000000000000000000000000000000000114770000000000114770000000000000000000000000000000405201807052018000000000000000000000000000                              000                           
0330256300031T 17011710130046627        00000002783271               0405201800000000001149010416530                         002000000000000000                                        01300466270000000000007260400000000                      
0330256300032U 170000000000000000000000000000000000000000000000000000000000000000000000114900000000000114900000000000000000000000000000000405201807052018000000000000000000000000000                              000                           
0330256300033T 06011710130046627        00000002834362DDP3933014     3004201800000000001139023714510                         001000091403235872JURANDIR MATILDE DE SOUZA               01300466270000000000000000400000000                      
0330256300034U 060000000000000100000000000000000000000000000000000000000000000000000000114000000000000114000000000000000000000000000000000405201807052018000000000000000000000000000                              000                           
0330256300035T 06011710130046627        00000002845132DUM5851004     3004201800000000001239010432790                         001000032543286802LEANDRO PEREIRA DOS SANTOS              01300466270000000000000000400000000                      
0330256300036U 060000000000001000000000000000000000000000000000000000000000000000000000124900000000000124900000000000000000000000000000000405201807052018000000000000000000000000000                              000                           
0330256300037T 06011710130046627        00000002906452QDT6742004     3004201800000000001139010404420                         001000052604004020ROGERIO LOPES BRAUN                     01300466270000000000000000400000000                      
0330256300038U 060000000000000870000000000000000000000000000000000000000000000000000000114770000000000114770000000000000000000000000000000405201807052018000000000000000000000000000                              000                           
0330256300039T 17011710130046627        00000003069671CUC9831014     0105201800000000001239023701540                         001000091311330887GERALDO DA SILVA                        01300466270000000000007260400000000                      
0330256300040U 170000000000000000000000000000000000000000000000000000000000000000000000123900000000000123900000000000000000000000000000000405201807052018000000000000000000000000000                              000                           
0330256300041T 17011710130046627        00000003126301               0405201800000000000660034181840                         002000000000000000                                        01300466270000000000007260400000000                      
0330256300042U 170000000000000000000000000000000000000000000000000000000000000000000000066000000000000066000000000000000000000000000000000405201807052018000000000000000000000000000                              000                           
0330256300043T 17011710130046627        00000003179931               0405201800000000001309623702760                         002000000000000000                                        01300466270000000000007260400000000                      
0330256300044U 170000000000000000000000000000000000000000000000000000000000000000000000130960000000000130960000000000000000000000000000000405201807052018000000000000000000000000000                              000                           
0330256300045T 17011710130046627        00000003184001               0405201800000000000650023708530                         002000000000000000                                        01300466270000000000007260400000000                      
0330256300046U 170000000000000000000000000000000000000000000000000000000000000000000000065000000000000065000000000000000000000000000000000405201807052018000000000000000000000000000                              000                           
0330256300047T 17011710130046627        00000003291001               0405201800000000000500023700550                         002000000000000000                                        01300466270000000000007260400000000                      
0330256300048U 170000000000000000000000000000000000000000000000000000000000000000000000050000000000000050000000000000000000000000000000000405201807052018000000000000000000000000000                              000                           
0330256300049T 17011710130046627        00000003295921               0405201800000000001849023700840                         002000000000000000                                        01300466270000000000007260400000000                      
0330256300050U 170000000000000000000000000000000000000000000000000000000000000000000000184900000000000184900000000000000000000000000000000405201807052018000000000000000000000000000                              000                           
03302565         0000500002930000000000322070100000000000000000000000000000000000000000000000000000000000000000000000000537                                                                                                                     
03302569         000001000054                                                                                                                                                                                                                   
