03300000        2023566251000133011710130046627     007651732           RASTREADORES PROTEGE LTDA ME  BANCO SANTANDER (BRASIL) S/A            211052018      000558040                                                                         T
03366511T01  040 2023566251000133007651732           011710130046627     RASTREADORES PROTEGE LTDA ME                                                                                  0000055811052018                                         
0336651300001T 17011710130046627        00000002113701               1105201800000000000650023727990                         002000000000000000                                        01300466270000000000010000400000000                      
0336651300002U 170000000000000000000000000000000000000000000000000000000000000000000000065000000000000065000000000000000000000000000000001105201814052018000000000000000000000000000                              000                           
0336651300003T 06011710130046627        00000002428702LCK0315005     1005201800000000001300010421980                         001000007345754839TARCISO FERREIRA                        01300466270000000000002810400000000                      
0336651300004U 060000000000000260000000000000000000000000000000000000000000000000000000130260000000000130260000000000000000000000000000001105201814052018000000000000000000000000000                              000                           
0336651300005T 17011710130046627        00000002513131               1105201800000000000780700116490                         002000000000000000                                        01300466270000000000010000400000000                      
0336651300006U 170000000000000000000000000000000000000000000000000000000000000000000000078070000000000078070000000000000000000000000000001105201814052018000000000000000000000000000                              000                           
0336651300007T 17011710130046627        00000002726391               1105201800000000001139003336340                         002000000000000000                                        01300466270000000000010000300000000                      
0336651300008U 170000000000000000000000000000000000000000000000000000000000000000000000113900000000000113900000000000000000000000000000001105201814052018000000000000000000000000000                              000                           
0336651300009T 06011710130046627        00000003214432PAN0557013     3004201800000000001489034171530                         001000028064090806JEFFERSON ANTONIO DIAS                  01300466270000000000002810400000000                      
0336651300010U 060000000000000600000000000000000000000000000000000000000000000000000000149500000000000149500000000000000000000000000000001105201814052018000000000000000000000000000                              000                           
0336651300011T 06011710130046627        00000003226102IOZ5633        3004201800000000000826834171530                         001000028064090806JEFFERSON ANTONIO DIAS                  01300466270000000000002810400000000                      
0336651300012U 060000000000001320000000000000000000000000000000000000000000000000000000084000000000000084000000000000000000000000000000001105201814052018000000000000000000000000000                              000                           
03366515         0000120002410000000000272461600000000000000000000000000000000000000000000000000000000000000000000000000542                                                                                                                     
03366519         000001000016                                                                                                                                                                                                                   
