03300010        2036726851000163221900003801004                          HGM PROTECAO E RECUPERACAO DE               BANCO SANTANDER          124112020      000001040                                                                          
03300011R01  030 2036726851000163                    221900003801004      HGM PROTECAO E RECUPERACAO DE                                                                                0000000124112020                                         
0330001300001P 012219501300310040000000000  0000020000022511  0000000000000020911202000000000000790000000 04N091120203000000000000000000000002091120200000000000000000000000000000000000000000000000000000000000000020000022300300000           
0330001300002Q 009000000000000000Nilton Joao de Almeida                  Rua Itajuibe 540                        Itaim Paulista 08120470Sao Paulo000000SP0000000000000000                                        000  0000001                   
0330001300003P 012219501300310040000000000  0000030000017511  0000000000000030911202000000000000690000000 04N091120203000000000000000000000002091120200000000000000000000000000000000000000000000000000000000000000030000017300300000           
0330001300004Q 009000000000000000Marcio Leite                            Rua Itajuibe 540                        Itaim Paulista 08120470Sao Paulo000000SP0000000000000000                                        000  0000001                   
0330001300005P 012219501300310040000000000  0000380000032511  0000000000000380911202000000000000690000000 04N091120203000000000000000000000002091120200000000000000000000000000000000000000000000000000000000000000380000032300300000           
0330001300006Q 009000000000000000Marcelo Geraldo B Leite                 Avenida Joao XXIII                      Vila Formosa   03361000Sao Paulo000000SP0000000000000000                                        000  0000001                   
03300015         000009                                                                                                                                                                                                                         
03399999         000003000010                                                                                                                                                                                                                   