03300000        2023566251000133011710130046627     007651732           RASTREADORES PROTEGE LTDA ME  BANCO SANTANDER (BRASIL) S/A            227072017      000363040                                                                         T
03388271T01  040 2023566251000133007651732           011710130046627     RASTREADORES PROTEGE LTDA ME                                                                                  0000036327072017                                         
0338827300001T 06011710130046627        00000001308852FLT2579014     3007201700000000001090010402600                         001000025643400839ELIAS ROBERTO  COSTA                    01300466270000000000000000400000000                      
0338827300002U 060000000000000000000000000000000000000000000000000000000000000000000000109000000000000109000000000000000000000000000000002707201728072017000000000000000000000000000                              000                           
0338827300003T 06011710130046627        00000001564932EBP0846        3007201700000000001090010403460                         001000029477777862VITOR LUIS MOTA ROQUE                   01300466270000000000000000400000000                      
0338827300004U 060000000000000000000000000000000000000000000000000000000000000000000000109000000000000109000000000000000000000000000000002707201728072017000000000000000000000000000                              000                           
0338827300005T 06011710130046627        00000001565312DDQ2892        3007201700000000000990000122000                         001000025123284818ALEXANDRE DONIZETE DE MIRANDA           01300466270000000000000000400000000                      
0338827300006U 060000000000000000000000000000000000000000000000000000000000000000000000099000000000000099000000000000000000000000000000002707201728072017000000000000000000000000000                              000                           
0338827300007T 06011710130046627        00000001571982JJK4695        3007201700000000001270034101490                         001000030884289850ANYA CAROL MARQUES DE LIMA BAGATIN      01300466270000000000000000400000000                      
0338827300008U 060000000000000000000000000000000000000000000000000000000000000000000000127000000000000127000000000000000000000000000000002707201728072017000000000000000000000000000                              000                           
0338827300009T 06011710130046627        00000001573252OKC1010        3007201700000000000650010418080                         001000026287274808LUZINETE OLIVEIRA DA SILVA              01300466270000000000000000400000000                      
0338827300010U 060000000000000000000000000000000000000000000000000000000000000000000000065000000000000065000000000000000000000000000000002707201728072017000000000000000000000000000                              000                           
0338827300011T 06011710130046627        00000001576602BWZ2205        3007201700000000000650010445710                         001000009468418880HELIO LEITE DAS CHAGAS                  01300466270000000000000000400000000                      
0338827300012U 060000000000000000000000000000000000000000000000000000000000000000000000065000000000000065000000000000000000000000000000002707201728072017000000000000000000000000000                              000                           
0338827300013T 06011710130046627        00000001578482ENQ6002        3007201700000000001738010445310                         001000038861373844FERNANDO BRITO BARBOSA                  01300466270000000000000000400000000                      
0338827300014U 060000000000000000000000000000000000000000000000000000000000000000000000173800000000000173800000000000000000000000000000002707201728072017000000000000000000000000000                              000                           
0338827300015T 06011710130046627        00000001591232BXN3361        3007201700000000000650010432690                         001000088942147887JOSE CANDIDO                            01300466270000000000000000400000000                      
0338827300016U 060000000000000000000000000000000000000000000000000000000000000000000000065000000000000065000000000000000000000000000000002707201728072017000000000000000000000000000                              000                           
0338827300017T 06011710130046627        00000001602102IWD6315        3007201700000000001090023711940                         001000017731020010ACELIO CARVALHO                         01300466270000000000000000400000000                      
0338827300018U 060000000000000000000000000000000000000000000000000000000000000000000000109000000000000109000000000000000000000000000000002707201728072017000000000000000000000000000                              000                           
0338827300019T 06011710130046627        00000001610122EQL0032        3007201700000000001239023762710                         001000021623150841DANIEL KENNETH HIROSE                   01300466270000000000000000400000000                      
0338827300020U 060000000000000000000000000000000000000000000000000000000000000000000000123900000000000123900000000000000000000000000000002707201728072017000000000000000000000000000                              000                           
0338827300021T 06011710130046627        00000001612412FJJ1956        3007201700000000001139063400190                         001000004413331680MARCO  AURELIO SILVA ANDRADE            01300466270000000000000000400000000                      
0338827300022U 060000000000000000000000000000000000000000000000000000000000000000000000113900000000000113900000000000000000000000000000002707201728072017000000000000000000000000000                              000                           
0338827300023T 06011710130046627        00000001614032FLD4085        3007201700000000001139010439940                         001000012811587802MARLON SANDRO ALEXANDRE                 01300466270000000000000000400000000                      
0338827300024U 060000000000000000000000000000000000000000000000000000000000000000000000113900000000000113900000000000000000000000000000002707201728072017000000000000000000000000000                              000                           
0338827300025T 06011710130046627        00000001620602ETF7638        3007201700000000001139000135670                         001000010784292191SEBASTIAO MARTINS BARBOSA FILHO         01300466270000000000000000400000000                      
0338827300026U 060000000000000000000000000000000000000000000000000000000000000000000000113900000000000113900000000000000000000000000000002707201728072017000000000000000000000000000                              000                           
0338827300027T 06011710130046627        00000001623612FAJ38752       3007201700000000001738023718800                         001000071477624449EDINALDO ERASMO                         01300466270000000000000000400000000                      
0338827300028U 060000000000000000000000000000000000000000000000000000000000000000000000173800000000000173800000000000000000000000000000002707201728072017000000000000000000000000000                              000                           
0338827300029T 06011710130046627        00000001623962KAI2469        3007201700000000001239074851320                         001000005757483890VALDEMIR DE BONNA                       01300466270000000000000000400000000                      
0338827300030U 060000000000000000000000000000000000000000000000000000000000000000000000123900000000000123900000000000000000000000000000002707201728072017000000000000000000000000000                              000                           
0338827300031T 06011710130046627        00000001624852DKO1551        3007201700000000001090010402620                         001000003326824807VANDERLICIO MARQUES CORDEIRO            01300466270000000000000000400000000                      
0338827300032U 060000000000000000000000000000000000000000000000000000000000000000000000109000000000000109000000000000000000000000000000002707201728072017000000000000000000000000000                              000                           
0338827300033T 06011710130046627        00000001626392DUI152         3007201700000000000949110445310                         001000039339556453JOSE FERNANDES BARBOSA                  01300466270000000000000000400000000                      
0338827300034U 060000000000000000000000000000000000000000000000000000000000000000000000094910000000000094910000000000000000000000000000002707201728072017000000000000000000000000000                              000                           
0338827300035T 06011710130046627        00000001632872FSS2412        3007201700000000001090000159550                         001000038852795847JAILSON FRANCISCO DA SILVA              01300466270000000000000000400000000                      
0338827300036U 060000000000000000000000000000000000000000000000000000000000000000000000109000000000000109000000000000000000000000000000002707201728072017000000000000000000000000000                              000                           
0338827300037T 06011710130046627        00000001634062DMR1044        3007201700000000001090023714150                         001000002141552850JOAQUIM DE SOUZA ALVEZ                  01300466270000000000000000400000000                      
0338827300038U 060000000000000000000000000000000000000000000000000000000000000000000000109000000000000109000000000000000000000000000000002707201728072017000000000000000000000000000                              000                           
0338827300039T 06011710130046627        00000001637402ERF6188        3007201700000000001328510440110                         001000096268026500ANTONIO SANTOS SANTANA                  01300466270000000000000000400000000                      
0338827300040U 060000000000000000000000000000000000000000000000000000000000000000000000132850000000000132850000000000000000000000000000002707201728072017000000000000000000000000000                              000                           
0338827300041T 06011710130046627        00000001641272GXU8537        3007201700000000001239010402780                         001000039322335572EDVALDO DOS SANTOS NUNES                01300466270000000000000000400000000                      
0338827300042U 060000000000000000000000000000000000000000000000000000000000000000000000123900000000000123900000000000000000000000000000002707201728072017000000000000000000000000000                              000                           
0338827300043T 06011710130046627        00000001644452LXM5758        3007201700000000000324934156440                         001000025937607880WILLIAM DE LAPAZ PAIVA                  01300466270000000000000000400000000                      
0338827300044U 060000000000000000000000000000000000000000000000000000000000000000000000032490000000000032490000000000000000000000000000002707201728072017000000000000000000000000000                              000                           
0338827300045T 06011710130046627        00000001651072FAZ 0604       3007201700000000000416934184930                         001000041341753808DANILO BUENO LEITE                      01300466270000000000000000400000000                      
0338827300046U 060000000000000000000000000000000000000000000000000000000000000000000000041690000000000041690000000000000000000000000000002707201728072017000000000000000000000000000                              000                           
0338827300047T 06011710130046627        00000001659052EMR8947        2707201700000000001240923709040                         001000007630358741SUELI SANTOS SANTANA                    01300466270000000000000000400000000                      
0338827300048U 060000000000000000000000000000000000000000000000000000000000000000000000124090000000000124090000000000000000000000000000002707201728072017000000000000000000000000000                              000                           
0338827300049T 02011710130046627        00000001659642HWU2166MES4    2807201700000000001489703301171                         001000014588030906ANTONIO BIERNASKI                       01300466270000000000004310000000000                      
0338827300050U 020000000000000000000000000000000000000000000000000000000000000000000000000000000000000000000000000000000000000000000000002707201727072017000000000000000000000000000                              000                           
0338827300051T 02011710130046627        00000001659722HWU2166MES5    2807201700000000001417703301171                         001000014588030906ANTONIO BIERNASKI                       01300466270000000000004310000000000                      
0338827300052U 020000000000000000000000000000000000000000000000000000000000000000000000000000000000000000000000000000000000000000000000002707201727072017000000000000000000000000000                              000                           
0338827300053T 02011710130046627        00000001659992HWU2166MES6    2807201700000000001343303301171                         001000014588030906ANTONIO BIERNASKI                       01300466270000000000004310000000000                      
0338827300054U 020000000000000000000000000000000000000000000000000000000000000000000000000000000000000000000000000000000000000000000000002707201727072017000000000000000000000000000                              000                           
0338827300055T 02011710130046627        00000001663082EFP0148        3007201700000000001090003301171                         001000025071162857FRANCISCO TALARICO                      01300466270000000000004310000000000                      
0338827300056U 020000000000000000000000000000000000000000000000000000000000000000000000000000000000000000000000000000000000000000000000002707201727072017000000000000000000000000000                              000                           
0338827300057T 06011710130046627        00000001594416CLH6155        3007201700000000001300074851320                         001000005757483890VALDEMIR DE BONNA                       02900242620000000000000000400000000                      
0338827300058U 060000000000000000000000000000000000000000000000000000000000000000000000130000000000000130000000000000000000000000000000002707201731072017000000000000000000000000000                              000                           
0338827300059T 06011710130046627        00000001568336BFE9024        3007201700000000000650010442110                         001000003334906817MARINA EMILIA PEREIRA                   02900242620000000000000000400000000                      
0338827300060U 060000000000000000000000000000000000000000000000000000000000000000000000065000000000000065000000000000000000000000000000002707201731072017000000000000000000000000000                              000                           
03388275         0000600005140000000000588498200000000000000000000000000033000000000002185480000000000000000000000000000360                                                                                                                     
03388279         000001000064                                                                                                                                                                                                                   
