03300000        2023566251000133011710130046627     007651732           RASTREADORES PROTEGE LTDA ME  BANCO SANTANDER (BRASIL) S/A            224042018      000546040                                                                          
03356701T01  040 2023566251000133007651732           011710130046627     RASTREADORES PROTEGE LTDA ME                                                                                  0000054624042018                                         
0335670300001T 02011710130046627        00000001730452GVK2754MES08   2404201800000000000356003301171                         001000010561264856ORLANDO JOSE DE SANT ANNA               01300466270000000000004730000000000                      
0335670300002U 020000000000000000000000000000000000000000000000000000000000000000000000000000000000000000000000000000000000000000000000002404201824042018000000000000000000000000000                              000                           
0335670300003T 02011710130046627        00000001908372FLA1033006     3004201800000000001789003301171                         002007642208000153TIBIS EIRELI EPP                        01300466270000000000004730000000000                      
0335670300004U 020000000000000000000000000000000000000000000000000000000000000000000000000000000000000000000000000000000000000000000000002404201824042018000000000000000000000000000                              000                           
0335670300005T 02011710130046627        00000001991922CUD9827ACORD0062704201800000000001170003301171                         002064867062000188G.R. PRADO REPRESENTACOES LTDA-ME       01300466270000000000004730000000000                      
0335670300006U 020000000000000000000000000000000000000000000000000000000000000000000000000000000000000000000000000000000000000000000000002404201824042018000000000000000000000000000                              000                           
0335670300007T 03011710130046627        000000020799322 PLACAS004    3004201800000000001300003301171                         001000000000000000ADAO VALDECIR MUNIZ                     01300466270000000000000004646000000                      
0335670300008U 030000000000000000000000000000000000000000000000000000000000000000000000000000000000000000000000000000000000000000000000002404201824042018000000000000000000000000000                              000                           
0335670300009T 02011710130046627        00000002081162EVJ7634004     3004201800000000000650003301171                         001000009893056861ADEMILSON PEREIRA DE SOUZA              01300466270000000000004730000000000                      
0335670300010U 020000000000000000000000000000000000000000000000000000000000000000000000000000000000000000000000000000000000000000000000002404201824042018000000000000000000000000000                              000                           
0335670300011T 02011710130046627        00000002082302EVK1387004     3004201800000000000650003301171                         001000068145454891ADEMIR PORTELLA DE BIASO                01300466270000000000004730000000000                      
0335670300012U 020000000000000000000000000000000000000000000000000000000000000000000000000000000000000000000000000000000000000000000000002404201824042018000000000000000000000000000                              000                           
0335670300013T 02011710130046627        000000020872822PLACAS006     3004201800000000001300003301171                         001000006272909810AGNALDO DE LIMA                         01300466270000000000004730000000000                      
0335670300014U 020000000000000000000000000000000000000000000000000000000000000000000000000000000000000000000000000000000000000000000000002404201824042018000000000000000000000000000                              000                           
0335670300015T 02011710130046627        00000002092012HQG5341024     3004201800000000000650003301171                         001000018222807889ALESSANDRO ANTUNES GRANDE               01300466270000000000004730000000000                      
0335670300016U 020000000000000000000000000000000000000000000000000000000000000000000000000000000000000000000000000000000000000000000000002404201824042018000000000000000000000000000                              000                           
0335670300017T 02011710130046627        00000002093252DJC2123004     3004201800000000000650003301171                         001000027475075800ALESSANDRO DA SILVA MATOS               01300466270000000000004730000000000                      
0335670300018U 020000000000000000000000000000000000000000000000000000000000000000000000000000000000000000000000000000000000000000000000002404201824042018000000000000000000000000000                              000                           
0335670300019T 02011710130046627        00000002094492EEV9755014     3004201800000000000650003301171                         001000026715286809ALESSANDRO LAMBERTI BANZATO             01300466270000000000004730000000000                      
0335670300020U 020000000000000000000000000000000000000000000000000000000000000000000000000000000000000000000000000000000000000000000000002404201824042018000000000000000000000000000                              000                           
0335670300021T 02011710130046627        00000002096862EWT2877004     3004201800000000000650003301171                         001000022408383889ALEX SANDRO NUNES GOMES                 01300466270000000000004730000000000                      
0335670300022U 020000000000000000000000000000000000000000000000000000000000000000000000000000000000000000000000000000000000000000000000002404201824042018000000000000000000000000000                              000                           
0335670300023T 02011710130046627        00000002098052BXF1294004     3004201800000000000650003301171                         001000032583626884ALEX SANTOS DOS ANJOS                   01300466270000000000004730000000000                      
0335670300024U 020000000000000000000000000000000000000000000000000000000000000000000000000000000000000000000000000000000000000000000000002404201824042018000000000000000000000000000                              000                           
0335670300025T 02011710130046627        00000002100482CPG1655004     3004201800000000000650003301171                         001000024934277854ALEXANDRE MANOEL                        01300466270000000000004730000000000                      
0335670300026U 020000000000000000000000000000000000000000000000000000000000000000000000000000000000000000000000000000000000000000000000002404201824042018000000000000000000000000000                              000                           
0335670300027T 02011710130046627        00000002101612BUD7976006     3004201800000000001300003301171                         001000077786661891ALVARO GOULART DE SOUZA                 01300466270000000000004730000000000                      
0335670300028U 020000000000000000000000000000000000000000000000000000000000000000000000000000000000000000000000000000000000000000000000002404201824042018000000000000000000000000000                              000                           
0335670300029T 02011710130046627        00000002102852ALT9987014     3004201800000000000650003301171                         001000028890028882ALVARO HENRIQUES DE SIQUEIRA            01300466270000000000004730000000000                      
0335670300030U 020000000000000000000000000000000000000000000000000000000000000000000000000000000000000000000000000000000000000000000000002404201824042018000000000000000000000000000                              000                           
0335670300031T 02011710130046627        00000002104042EWJ0838004     3004201800000000001300003301171                         001000053681487804ALVINO DA SILVA                         01300466270000000000004730000000000                      
0335670300032U 020000000000000000000000000000000000000000000000000000000000000000000000000000000000000000000000000000000000000000000000002404201824042018000000000000000000000000000                              000                           
0335670300033T 02011710130046627        000000021052824PLACAS004     3004201800000000004550003301171                         002017830632000185AMERICA MARITIMES SERVICES LTDA - EPP   01300466270000000000004730000000000                      
0335670300034U 020000000000000000000000000000000000000000000000000000000000000000000000000000000000000000000000000000000000000000000000002404201824042018000000000000000000000000000                              000                           
0335670300035T 02011710130046627        00000002106412MDQ1913004     3004201800000000000650003301171                         001000026323158833AMILCAR DE JESUS AZEVEDO JUNIOR         01300466270000000000004730000000000                      
0335670300036U 020000000000000000000000000000000000000000000000000000000000000000000000000000000000000000000000000000000000000000000000002404201824042018000000000000000000000000000                              000                           
0335670300037T 02011710130046627        00000002107652FEH8981004     3004201800000000001300003301171                         002017194056000127AMORIM E RODRIGUES FERRAMENTARIA LTDA - 01300466270000000000004730000000000                      
0335670300038U 020000000000000000000000000000000000000000000000000000000000000000000000000000000000000000000000000000000000000000000000002404201824042018000000000000000000000000000                              000                           
0335670300039T 02011710130046627        00000002110012GXH8106004     3004201800000000001300003301171                         001000033345514826ANDERSON APARECIDO DE SOUZA             01300466270000000000004730000000000                      
0335670300040U 020000000000000000000000000000000000000000000000000000000000000000000000000000000000000000000000000000000000000000000000002404201824042018000000000000000000000000000                              000                           
0335670300041T 02011710130046627        00000002111252FJF4466004     3004201800000000000650003301171                         001000036789112855ANDERSON BARBOSA PAREJA                 01300466270000000000004730000000000                      
0335670300042U 020000000000000000000000000000000000000000000000000000000000000000000000000000000000000000000000000000000000000000000000002404201824042018000000000000000000000000000                              000                           
0335670300043T 02011710130046627        000000021196625 PLACAS004    3004201800000000003000003301171                         002002969607000100ANDRE & MACEDO AUTO SOCORRO LTDA-ME     01300466270000000000004730000000000                      
0335670300044U 020000000000000000000000000000000000000000000000000000000000000000000000000000000000000000000000000000000000000000000000002404201824042018000000000000000000000000000                              000                           
0335670300045T 02011710130046627        00000002121302BUT8669014     3004201800000000000650003301171                         001000008805071870ANTONIO APARECIDO MORAES                01300466270000000000004730000000000                      
0335670300046U 020000000000000000000000000000000000000000000000000000000000000000000000000000000000000000000000000000000000000000000000002404201824042018000000000000000000000000000                              000                           
0335670300047T 02011710130046627        00000002122532DPC8774004     3004201800000000000650003301171                         001000011143855817ANTONIO CARLOS BATISTA                  01300466270000000000004730000000000                      
0335670300048U 020000000000000000000000000000000000000000000000000000000000000000000000000000000000000000000000000000000000000000000000002404201824042018000000000000000000000000000                              000                           
0335670300049T 02011710130046627        00000002123772FQG3386014     3004201800000000000650003301171                         001000027286816861ANTONIO SERGIO DE OLIVEIRA DE PAULA     01300466270000000000004730000000000                      
0335670300050U 020000000000000000000000000000000000000000000000000000000000000000000000000000000000000000000000000000000000000000000000002404201824042018000000000000000000000000000                              000                           
0335670300051T 02011710130046627        00000002124902MZM6473004     3004201800000000000650003301171                         001000065282841568AIRON VITOR VILELA SILVA                01300466270000000000004730000000000                      
0335670300052U 020000000000000000000000000000000000000000000000000000000000000000000000000000000000000000000000000000000000000000000000002404201824042018000000000000000000000000000                              000                           
0335670300053T 02011710130046627        00000002127332CXG3841004     3004201800000000000650003301171                         001000004076549848ARLINDO APARECIDO MONTINI               01300466270000000000004730000000000                      
0335670300054U 020000000000000000000000000000000000000000000000000000000000000000000000000000000000000000000000000000000000000000000000002404201824042018000000000000000000000000000                              000                           
0335670300055T 02011710130046627        00000002129702BXF1877004     3004201800000000000650003301171                         002066562596000121ARTUR GRANA NETO - ME                   01300466270000000000004730000000000                      
0335670300056U 020000000000000000000000000000000000000000000000000000000000000000000000000000000000000000000000000000000000000000000000002404201824042018000000000000000000000000000                              000                           
0335670300057T 02011710130046627        000000021309822 PLACAS028    3004201800000000002600003301171                         002000638481000165AUGUSTINO DE FATIMA DOS SANTOS M.E      01300466270000000000004730000000000                      
0335670300058U 020000000000000000000000000000000000000000000000000000000000000000000000000000000000000000000000000000000000000000000000002404201824042018000000000000000000000000000                              000                           
0335670300059T 02011710130046627        00000002133302EJY4700014     3004201800000000001300003301171                         001000009198376705BARBARA APARECIDA MARQIES SUMMA         01300466270000000000004730000000000                      
0335670300060U 020000000000000000000000000000000000000000000000000000000000000000000000000000000000000000000000000000000000000000000000002404201824042018000000000000000000000000000                              000                           
0335670300061T 02011710130046627        00000002134542CQH2021005     3004201800000000000650003301171                         002005850997000192BBR TRANSPORTES LTDA - ME               01300466270000000000004730000000000                      
0335670300062U 020000000000000000000000000000000000000000000000000000000000000000000000000000000000000000000000000000000000000000000000002404201824042018000000000000000000000000000                              000                           
0335670300063T 02011710130046627        00000002135782GPC0602004     3004201800000000000650003301171                         001000083452583600BENEDITO FERREIRA LIMA JUNIOR           01300466270000000000004730000000000                      
0335670300064U 020000000000000000000000000000000000000000000000000000000000000000000000000000000000000000000000000000000000000000000000002404201824042018000000000000000000000000000                              000                           
0335670300065T 02011710130046627        000000021369123 PLACAS026    3004201800000000001950003301171                         001000069082774887BENEDITO FRANCISCO FILHO                01300466270000000000004730000000000                      
0335670300066U 020000000000000000000000000000000000000000000000000000000000000000000000000000000000000000000000000000000000000000000000002404201824042018000000000000000000000000000                              000                           
0335670300067T 02011710130046627        00000002138102EFV3938004     3004201800000000001300003301171                         002024940698000193BGM LOGISTICA E TRANSPORTE LTDA - ME    01300466270000000000004730000000000                      
0335670300068U 020000000000000000000000000000000000000000000000000000000000000000000000000000000000000000000000000000000000000000000000002404201824042018000000000000000000000000000                              000                           
0335670300069T 02011710130046627        00000002139342HJZ4418004     3004201800000000001950003301171                         002011027527000126BORGES IND E COM DE MATERIAIS PARA CONST01300466270000000000004730000000000                      
0335670300070U 020000000000000000000000000000000000000000000000000000000000000000000000000000000000000000000000000000000000000000000000002404201824042018000000000000000000000000000                              000                           
0335670300071T 02011710130046627        00000002140512BWM6200004     3004201800000000000650003301171                         001000036797104882BRUNO ARAGAO CAMARGO                    01300466270000000000004730000000000                      
0335670300072U 020000000000000000000000000000000000000000000000000000000000000000000000000000000000000000000000000000000000000000000000002404201824042018000000000000000000000000000                              000                           
0335670300073T 02011710130046627        00000002141752BWQ0562004     3004201800000000000650003301171                         001000032466507803BRUNO GUSTAVO DONZELLA                  01300466270000000000004730000000000                      
0335670300074U 020000000000000000000000000000000000000000000000000000000000000000000000000000000000000000000000000000000000000000000000002404201824042018000000000000000000000000000                              000                           
0335670300075T 02011710130046627        00000002142992HYO8702004     3004201800000000000650003301171                         001000042685819878CAIO CESAR SALES                        01300466270000000000004730000000000                      
0335670300076U 020000000000000000000000000000000000000000000000000000000000000000000000000000000000000000000000000000000000000000000000002404201824042018000000000000000000000000000                              000                           
0335670300077T 02011710130046627        000000021489224 PLACAS016    3004201800000000004550003301171                         002021263799000189CARLOS CESAR COELHO JUNIOR - ME         01300466270000000000004730000000000                      
0335670300078U 020000000000000000000000000000000000000000000000000000000000000000000000000000000000000000000000000000000000000000000000002404201824042018000000000000000000000000000                              000                           
0335670300079T 02011710130046627        00000002150152BYH9253004     3004201800000000000650003301171                         001000065535340804CARLOS ROBERTO DA SILVA                 01300466270000000000004730000000000                      
0335670300080U 020000000000000000000000000000000000000000000000000000000000000000000000000000000000000000000000000000000000000000000000002404201824042018000000000000000000000000000                              000                           
0335670300081T 02011710130046627        00000002152522DVS2638004     3004201800000000001300003301171                         001000012924012813CELSO FERREIRA ALVES                    01300466270000000000004730000000000                      
0335670300082U 020000000000000000000000000000000000000000000000000000000000000000000000000000000000000000000000000000000000000000000000002404201824042018000000000000000000000000000                              000                           
0335670300083T 02011710130046627        00000002155112MMB5500015     3004201800000000001300003301171                         002009318444000144ANDRADE E ABREU TRANSPORTES LTDA - ME   01300466270000000000004730000000000                      
0335670300084U 020000000000000000000000000000000000000000000000000000000000000000000000000000000000000000000000000000000000000000000000002404201824042018000000000000000000000000000                              000                           
0335670300085T 02011710130046627        00000002156432BYH9885005     3004201800000000000650003301171                         002009318444000144ANDRADE E ABREU TRANSPORTES LTDA - ME   01300466270000000000004730000000000                      
0335670300086U 020000000000000000000000000000000000000000000000000000000000000000000000000000000000000000000000000000000000000000000000002404201824042018000000000000000000000000000                              000                           
0335670300087T 02011710130046627        00000002157672BWQ6008014     3004201800000000001300003301171                         001000005729037821CLAUDEMIR CREPALDI                      01300466270000000000004730000000000                      
0335670300088U 020000000000000000000000000000000000000000000000000000000000000000000000000000000000000000000000000000000000000000000000002404201824042018000000000000000000000000000                              000                           
0335670300089T 02011710130046627        00000002158802ETQ6942004     3004201800000000001300003301171                         001000014188476826CLAUDEMIR SOARES DE ALMEIDA             01300466270000000000004730000000000                      
0335670300090U 020000000000000000000000000000000000000000000000000000000000000000000000000000000000000000000000000000000000000000000000002404201824042018000000000000000000000000000                              000                           
0335670300091T 02011710130046627        00000002160032DUR6477004     3004201800000000000650003301171                         001000018229742839CLAUDINEI FRANCISCO DO NASCIMENTO       01300466270000000000004730000000000                      
0335670300092U 020000000000000000000000000000000000000000000000000000000000000000000000000000000000000000000000000000000000000000000000002404201824042018000000000000000000000000000                              000                           
0335670300093T 02011710130046627        00000002161272FWC1850004     3004201800000000001300003301171                         001000008648854822CLAUDIO DA FONSECA CASTILHO             01300466270000000000004730000000000                      
0335670300094U 020000000000000000000000000000000000000000000000000000000000000000000000000000000000000000000000000000000000000000000000002404201824042018000000000000000000000000000                              000                           
0335670300095T 02011710130046627        00000002162402CLU3180004     3004201800000000001950003301171                         001000021872467873CLEBER JACKSON TAVARES                  01300466270000000000004730000000000                      
0335670300096U 020000000000000000000000000000000000000000000000000000000000000000000000000000000000000000000000000000000000000000000000002404201824042018000000000000000000000000000                              000                           
0335670300097T 02011710130046627        00000002163642DJB0903014     3004201800000000000650003301171                         001000036843350453CLEDINALDO  BORGES LIMEIRA              01300466270000000000004730000000000                      
0335670300098U 020000000000000000000000000000000000000000000000000000000000000000000000000000000000000000000000000000000000000000000000002404201824042018000000000000000000000000000                              000                           
0335670300099T 02011710130046627        000000021648822 PLACAS       3004201800000000001300003301171                         001000024949639153CLOVIS ANTONIO PACHECO DE MORAES        01300466270000000000004730000000000                      
0335670300100U 020000000000000000000000000000000000000000000000000000000000000000000000000000000000000000000000000000000000000000000000002404201824042018000000000000000000000000000                              000                           
0335670300101T 02011710130046627        00000002166072FMU / CPI004   3004201800000000001300003301171                         002022576068000156COMERCIAL 3 IRMAOS                      01300466270000000000004730000000000                      
0335670300102U 020000000000000000000000000000000000000000000000000000000000000000000000000000000000000000000000000000000000000000000000002404201824042018000000000000000000000000000                              000                           
0335670300103T 02011710130046627        00000002167202HIL7447014     3004201800000000001300003301171                         002019036708000120COMERCIAL BOA SAFRA ITABERA LTDA - ME   01300466270000000000004730000000000                      
0335670300104U 020000000000000000000000000000000000000000000000000000000000000000000000000000000000000000000000000000000000000000000000002404201824042018000000000000000000000000000                              000                           
0335670300105T 02011710130046627        00000002168442EMU0937004     3004201800000000001300003301171                         002020083702000193CT DE SOUSA SANTOS - ME                 01300466270000000000004730000000000                      
0335670300106U 020000000000000000000000000000000000000000000000000000000000000000000000000000000000000000000000000000000000000000000000002404201824042018000000000000000000000000000                              000                           
0335670300107T 02011710130046627        00000002169682AHG / KFI004   3004201800000000001300003301171                         002024858015000153D&A TRANSPORTES RODOVIARIOS             01300466270000000000004730000000000                      
0335670300108U 020000000000000000000000000000000000000000000000000000000000000000000000000000000000000000000000000000000000000000000000002404201824042018000000000000000000000000000                              000                           
0335670300109T 02011710130046627        00000002172042KLY / KKP004   3004201800000000002600003301171                         001000001004931492DALVISSON GADELHA DA COSTA SOBRINHO     01300466270000000000004730000000000                      
0335670300110U 020000000000000000000000000000000000000000000000000000000000000000000000000000000000000000000000000000000000000000000000002404201824042018000000000000000000000000000                              000                           
0335670300111T 02011710130046627        00000002173282JMV5031004     3004201800000000000650003301171                         001000025667317800DANIEL IZAR KOHLE                       01300466270000000000004730000000000                      
0335670300112U 020000000000000000000000000000000000000000000000000000000000000000000000000000000000000000000000000000000000000000000000002404201824042018000000000000000000000000000                              000                           
0335670300113T 02011710130046627        00000002174412CXU5297014     3004201800000000000650003301171                         001000033973775877DANIEL LUCAS NAVAS                      01300466270000000000004730000000000                      
0335670300114U 020000000000000000000000000000000000000000000000000000000000000000000000000000000000000000000000000000000000000000000000002404201824042018000000000000000000000000000                              000                           
0335670300115T 02011710130046627        00000002175652EGK6228004     3004201800000000001300003301171                         001000001833738802DANIEL MARTINS DE FREITAS               01300466270000000000004730000000000                      
0335670300116U 020000000000000000000000000000000000000000000000000000000000000000000000000000000000000000000000000000000000000000000000002404201824042018000000000000000000000000000                              000                           
0335670300117T 02011710130046627        00000002176892FIH9130004     3004201800000000000650003301171                         001000008773869864DANIEL REBELLO FIGUEIREDO               01300466270000000000004730000000000                      
0335670300118U 020000000000000000000000000000000000000000000000000000000000000000000000000000000000000000000000000000000000000000000000002404201824042018000000000000000000000000000                              000                           
0335670300119T 02011710130046627        00000002178082GVI6003004     3004201800000000001300003301171                         001000030813975883DAVID PEREIRA VIEIRA CARDOSO FILHO      01300466270000000000004730000000000                      
0335670300120U 020000000000000000000000000000000000000000000000000000000000000000000000000000000000000000000000000000000000000000000000002404201824042018000000000000000000000000000                              000                           
0335670300121T 02011710130046627        00000002180492CWJ5835004     3004201800000000000650003301171                         001000010284546860DOUGLAS ROGERIO SANTANA                 01300466270000000000004730000000000                      
0335670300122U 020000000000000000000000000000000000000000000000000000000000000000000000000000000000000000000000000000000000000000000000002404201824042018000000000000000000000000000                              000                           
0335670300123T 02011710130046627        00000002181622BTR7331004     3004201800000000000650003301171                         001000012879399882EBERSON LAZARO DA SILVEIRA              01300466270000000000004730000000000                      
0335670300124U 020000000000000000000000000000000000000000000000000000000000000000000000000000000000000000000000000000000000000000000000002404201824042018000000000000000000000000000                              000                           
0335670300125T 02011710130046627        00000002182862FLB9524004     3004201800000000000650003301171                         001000012402798840ED CARLOS NERGER                        01300466270000000000004730000000000                      
0335670300126U 020000000000000000000000000000000000000000000000000000000000000000000000000000000000000000000000000000000000000000000000002404201824042018000000000000000000000000000                              000                           
0335670300127T 02011710130046627        00000002184052MJY2020004     3004201800000000000650003301171                         001000003692497989EDERSON HENRIQUE DE SOUZA               01300466270000000000004730000000000                      
0335670300128U 020000000000000000000000000000000000000000000000000000000000000000000000000000000000000000000000000000000000000000000000002404201824042018000000000000000000000000000                              000                           
0335670300129T 17011710130046627        00000002185101               2404201800000000000722003313196                         002000000000000000                                        01300466270000000000007260300000000                      
0335670300130U 170000000000000000000000000000000000000000000000000000000000000000000000072200000000000072200000000000000000000000000000002404201825042018000000000000000000000000000                              000                           
0335670300131T 02011710130046627        00000002185292CLH2785018     3004201800000000000650003301171                         001000028220470810EDGAR MACHADO DA SILVA                  01300466270000000000004730000000000                      
0335670300132U 020000000000000000000000000000000000000000000000000000000000000000000000000000000000000000000000000000000000000000000000002404201824042018000000000000000000000000000                              000                           
0335670300133T 06011710130046627        00000002185292CLH2785018     3004201800000000000650003313196                         001000028220470810EDGAR MACHADO DA SILVA                  01300466270000000000000000300000000                      
0335670300134U 060000000000000000000000000000000000000000000000000000000000000000000000065000000000000065000000000000000000000000000000002404201825042018000000000000000000000000000                              000                           
0335670300135T 02011710130046627        00000002186422DPB6327014     3004201800000000000650003301171                         001000017858815822EDILSON FAGUNDES PINTO                  01300466270000000000004730000000000                      
0335670300136U 020000000000000000000000000000000000000000000000000000000000000000000000000000000000000000000000000000000000000000000000002404201824042018000000000000000000000000000                              000                           
0335670300137T 02011710130046627        00000002187662DDS0937004     3004201800000000000650003301171                         001000041378333896EDISON ROBERTO VENANCIO JUNIOR          01300466270000000000004730000000000                      
0335670300138U 020000000000000000000000000000000000000000000000000000000000000000000000000000000000000000000000000000000000000000000000002404201824042018000000000000000000000000000                              000                           
0335670300139T 02011710130046627        00000002188802MGU5262004     3004201800000000000650003301171                         001000070921083904EDMILSON FRANCISCO DO NASCIMENTO        01300466270000000000004730000000000                      
0335670300140U 020000000000000000000000000000000000000000000000000000000000000000000000000000000000000000000000000000000000000000000000002404201824042018000000000000000000000000000                              000                           
0335670300141T 02011710130046627        00000002190022JSV8589004     3004201800000000000650003301171                         001000027409523840EDNEI DE CAMPOS CAMARGO                 01300466270000000000004730000000000                      
0335670300142U 020000000000000000000000000000000000000000000000000000000000000000000000000000000000000000000000000000000000000000000000002404201824042018000000000000000000000000000                              000                           
0335670300143T 02011710130046627        00000002191262AQP4163004     3004201800000000001300003301171                         001000025865933833EDNILSON APARECIDO BENEDITO             01300466270000000000004730000000000                      
0335670300144U 020000000000000000000000000000000000000000000000000000000000000000000000000000000000000000000000000000000000000000000000002404201824042018000000000000000000000000000                              000                           
0335670300145T 02011710130046627        00000002193632AUQ2814004     3004201800000000001300003301171                         001000032553721862EDUARDO CANANEA DE OLIVEIRA             01300466270000000000004730000000000                      
0335670300146U 020000000000000000000000000000000000000000000000000000000000000000000000000000000000000000000000000000000000000000000000002404201824042018000000000000000000000000000                              000                           
0335670300147T 02011710130046627        00000002194872DPF6675004     3004201800000000001300003301171                         001000014985695874REGINALDO DA VEIGA                      01300466270000000000004730000000000                      
0335670300148U 020000000000000000000000000000000000000000000000000000000000000000000000000000000000000000000000000000000000000000000000002404201824042018000000000000000000000000000                              000                           
0335670300149T 02011710130046627        00000002197202BHO / DJC004   3004201800000000001300003301171                         002004352154000101EDVALDO SOTHERO DE GODOY ME             01300466270000000000004730000000000                      
0335670300150U 020000000000000000000000000000000000000000000000000000000000000000000000000000000000000000000000000000000000000000000000002404201824042018000000000000000000000000000                              000                           
0335670300151T 02011710130046627        00000002198432AQC / AFS004   3004201800000000002600003301171                         001000031615950842ELAINE DE ALMEIDA SOUZA                 01300466270000000000004730000000000                      
0335670300152U 020000000000000000000000000000000000000000000000000000000000000000000000000000000000000000000000000000000000000000000000002404201824042018000000000000000000000000000                              000                           
0335670300153T 02011710130046627        00000002199672AQB6451004     3004201800000000001300003301171                         001000002103160398ELENILDO JOSE DA SILVA                  01300466270000000000004730000000000                      
0335670300154U 020000000000000000000000000000000000000000000000000000000000000000000000000000000000000000000000000000000000000000000000002404201824042018000000000000000000000000000                              000                           
0335670300155T 02011710130046627        00000002200862EPW1272004     3004201800000000000650003301171                         001000028730169810ELENILTON DE NOVAES VIEIRA              01300466270000000000004730000000000                      
0335670300156U 020000000000000000000000000000000000000000000000000000000000000000000000000000000000000000000000000000000000000000000000002404201824042018000000000000000000000000000                              000                           
0335670300157T 02011710130046627        00000002203292BTR5809014     3004201800000000000650003301171                         001000037749650806ELIO CARVALHO DOS SANTOS                01300466270000000000004730000000000                      
0335670300158U 020000000000000000000000000000000000000000000000000000000000000000000000000000000000000000000000000000000000000000000000002404201824042018000000000000000000000000000                              000                           
0335670300159T 02011710130046627        00000002205662NTM2707004     3004201800000000000650003301171                         001000080953441849EPIFANIO MEDEIROS CAVALCANTE            01300466270000000000004730000000000                      
0335670300160U 020000000000000000000000000000000000000000000000000000000000000000000000000000000000000000000000000000000000000000000000002404201824042018000000000000000000000000000                              000                           
0335670300161T 02011710130046627        00000002206802DPF0047004     3004201800000000000650003301171                         002025328087000151ERIESTER DOMINGOS                       01300466270000000000004730000000000                      
0335670300162U 020000000000000000000000000000000000000000000000000000000000000000000000000000000000000000000000000000000000000000000000002404201824042018000000000000000000000000000                              000                           
0335670300163T 02011710130046627        00000002208092BSF7926004     3004201800000000000650003301171                         001000035076891890ERNESTO CARLOS ESTEVES FILHO            01300466270000000000004730000000000                      
0335670300164U 020000000000000000000000000000000000000000000000000000000000000000000000000000000000000000000000000000000000000000000000002404201824042018000000000000000000000000000                              000                           
0335670300165T 02011710130046627        00000002209222LXI7229004     3004201800000000000650003301171                         001000035488804870EVANDRO MARCHESINI                      01300466270000000000004730000000000                      
0335670300166U 020000000000000000000000000000000000000000000000000000000000000000000000000000000000000000000000000000000000000000000000002404201824042018000000000000000000000000000                              000                           
0335670300167T 03011710130046627        000000022116324 PLACAS028    3004201800000000003250003301171                         001000000000000000FABIANO RAMIM                           01300466270000000000000004646000000                      
0335670300168U 030000000000000000000000000000000000000000000000000000000000000000000000000000000000000000000000000000000000000000000000002404201824042018000000000000000000000000000                              000                           
0335670300169T 02011710130046627        00000002216432CIK5297004     3004201800000000000650003301171                         001000030759318883FABIO ROSANTE                           01300466270000000000004730000000000                      
0335670300170U 020000000000000000000000000000000000000000000000000000000000000000000000000000000000000000000000000000000000000000000000002404201824042018000000000000000000000000000                              000                           
0335670300171T 02011710130046627        00000002217672JYZ0978004     3004201800000000000650003301171                         001000006723612485FABIO SIBELLI PEIXOTO                   01300466270000000000004730000000000                      
0335670300172U 020000000000000000000000000000000000000000000000000000000000000000000000000000000000000000000000000000000000000000000000002404201824042018000000000000000000000000000                              000                           
0335670300173T 02011710130046627        00000002220032ABI8280004     3004201800000000000650003301171                         001000028440808801FERNANDO CAPARROS                       01300466270000000000004730000000000                      
0335670300174U 020000000000000000000000000000000000000000000000000000000000000000000000000000000000000000000000000000000000000000000000002404201824042018000000000000000000000000000                              000                           
0335670300175T 02011710130046627        00000002221272DTA1797023     3004201800000000001300003301171                         001000013535802881FERNANDO PAULO PINHEIRO CAMBRAIA        01300466270000000000004730000000000                      
0335670300176U 020000000000000000000000000000000000000000000000000000000000000000000000000000000000000000000000000000000000000000000000002404201824042018000000000000000000000000000                              000                           
0335670300177T 02011710130046627        00000002222402CSQ5845004     3004201800000000000650003301171                         001000028448839900FERNANDO ZUMBA DA COSTA                 01300466270000000000004730000000000                      
0335670300178U 020000000000000000000000000000000000000000000000000000000000000000000000000000000000000000000000000000000000000000000000002404201824042018000000000000000000000000000                              000                           
0335670300179T 02011710130046627        00000002223642BXI3774004     3004201800000000000650003301171                         001000043678190510FIDELSINO PEREIRA DO SANTOS             01300466270000000000004730000000000                      
0335670300180U 020000000000000000000000000000000000000000000000000000000000000000000000000000000000000000000000000000000000000000000000002404201824042018000000000000000000000000000                              000                           
0335670300181T 02011710130046627        00000002224882AFY1450004     3004201800000000000650003301171                         001000003445285969FLAVIO DA SILVA MENDONCA                01300466270000000000004730000000000                      
0335670300182U 020000000000000000000000000000000000000000000000000000000000000000000000000000000000000000000000000000000000000000000000002404201824042018000000000000000000000000000                              000                           
0335670300183T 02011710130046627        000000022260724 PLACAS040    3004201800000000002550003301171                         002003683344000130FORT TRANS TRANSPORTADORA               01300466270000000000004730000000000                      
0335670300184U 020000000000000000000000000000000000000000000000000000000000000000000000000000000000000000000000000000000000000000000000002404201824042018000000000000000000000000000                              000                           
0335670300185T 02011710130046627        00000002227202CYA8744014     3004201800000000000650003301171                         001000007193627848FRANCISCA  MARIA DA CONCEICAO           01300466270000000000004730000000000                      
0335670300186U 020000000000000000000000000000000000000000000000000000000000000000000000000000000000000000000000000000000000000000000000002404201824042018000000000000000000000000000                              000                           
0335670300187T 02011710130046627        00000002230852BII9896004     3004201800000000000650003301171                         001000031674017880GEORGE LUIZ CASTRO                      01300466270000000000004730000000000                      
0335670300188U 020000000000000000000000000000000000000000000000000000000000000000000000000000000000000000000000000000000000000000000000002404201824042018000000000000000000000000000                              000                           
0335670300189T 02011710130046627        00000002232042DQL0010004     3004201800000000000650003301171                         001000021501916874GERALDO FERNANDES FILHO                 01300466270000000000004730000000000                      
0335670300190U 020000000000000000000000000000000000000000000000000000000000000000000000000000000000000000000000000000000000000000000000002404201824042018000000000000000000000000000                              000                           
0335670300191T 02011710130046627        00000002233282NLT2430004     3004201800000000000650003301171                         001000021501916874GERALDO FERNANDES FILHO                 01300466270000000000004730000000000                      
0335670300192U 020000000000000000000000000000000000000000000000000000000000000000000000000000000000000000000000000000000000000000000000002404201824042018000000000000000000000000000                              000                           
0335670300193T 02011710130046627        00000002235652NBC6745004     3004201800000000000650003301171                         001000013167281880GILSON BARADEL DA ROCHA                 01300466270000000000004730000000000                      
0335670300194U 020000000000000000000000000000000000000000000000000000000000000000000000000000000000000000000000000000000000000000000000002404201824042018000000000000000000000000000                              000                           
0335670300195T 02011710130046627        00000002236892AMV / AMR004   3004201800000000001300003301171                         002026518440000129GIZELE REGINA DA ROSA TRANSPORTES - ME  01300466270000000000004730000000000                      
0335670300196U 020000000000000000000000000000000000000000000000000000000000000000000000000000000000000000000000000000000000000000000000002404201824042018000000000000000000000000000                              000                           
0335670300197T 02011710130046627        00000002238082CUC7737004     3004201800000000001000003301171                         001000032569823872GONCALO ANTONIO GRANDE                  01300466270000000000004730000000000                      
0335670300198U 020000000000000000000000000000000000000000000000000000000000000000000000000000000000000000000000000000000000000000000000002404201824042018000000000000000000000000000                              000                           
0335670300199T 02011710130046627        00000002239212CXA7210004     3004201800000000000650003301171                         001000030362827850GUSTAVO HENRIQUE PECEGO                 01300466270000000000004730000000000                      
0335670300200U 020000000000000000000000000000000000000000000000000000000000000000000000000000000000000000000000000000000000000000000000002404201824042018000000000000000000000000000                              000                           
0335670300201T 02011710130046627        000000022404922 PLACAS040    3004201800000000001300003301171                         001000003031173970HEBER CARLOS NASCIMENTO                 01300466270000000000004730000000000                      
0335670300202U 020000000000000000000000000000000000000000000000000000000000000000000000000000000000000000000000000000000000000000000000002404201824042018000000000000000000000000000                              000                           
0335670300203T 02011710130046627        00000002241622EFU3951014     3004201800000000001300003301171                         002022477295000124HEITOR RODRIGUES PRATA LTDA             01300466270000000000004730000000000                      
0335670300204U 020000000000000000000000000000000000000000000000000000000000000000000000000000000000000000000000000000000000000000000000002404201824042018000000000000000000000000000                              000                           
0335670300205T 02011710130046627        00000002242862BWZ2205014     3004201800000000000650003301171                         001000009468418880HELIO LEITE DAS CHAGAS                  01300466270000000000004730000000000                      
0335670300206U 020000000000000000000000000000000000000000000000000000000000000000000000000000000000000000000000000000000000000000000000002404201824042018000000000000000000000000000                              000                           
0335670300207T 02011710130046627        00000002244052CUC4211004     3004201800000000001300003301171                         001000012105410847HENRIQUE SPINOSA MOSSINI                01300466270000000000004730000000000                      
0335670300208U 020000000000000000000000000000000000000000000000000000000000000000000000000000000000000000000000000000000000000000000000002404201824042018000000000000000000000000000                              000                           
0335670300209T 02011710130046627        00000002245292AJM9427004     3004201800000000000650003301171                         001000006730681888ILSON ANTONIO BASSETE                   01300466270000000000004730000000000                      
0335670300210U 020000000000000000000000000000000000000000000000000000000000000000000000000000000000000000000000000000000000000000000000002404201824042018000000000000000000000000000                              000                           
0335670300211T 02011710130046627        00000002246422EZH2434004     3004201800000000000650003301171                         001000013296179836IRENILDO SOARES DA SILVA                01300466270000000000004730000000000                      
0335670300212U 020000000000000000000000000000000000000000000000000000000000000000000000000000000000000000000000000000000000000000000000002404201824042018000000000000000000000000000                              000                           
0335670300213T 02011710130046627        00000002247662BTO1656014     3004201800000000001300003301171                         001000000939516802IRINEU DE GOIS MORAES                   01300466270000000000004730000000000                      
0335670300214U 020000000000000000000000000000000000000000000000000000000000000000000000000000000000000000000000000000000000000000000000002404201824042018000000000000000000000000000                              000                           
0335670300215T 02011710130046627        00000002248802CKF8635004     3004201800000000000650003301171                         001000014714769871ITALO RODES PEREIRA                     01300466270000000000004730000000000                      
0335670300216U 020000000000000000000000000000000000000000000000000000000000000000000000000000000000000000000000000000000000000000000000002404201824042018000000000000000000000000000                              000                           
0335670300217T 02011710130046627        000000022512626 PLACAS004    3004201800000000004550003301171                         002010525486000135JC DOS SANTOS SALTO ME                  01300466270000000000004730000000000                      
0335670300218U 020000000000000000000000000000000000000000000000000000000000000000000000000000000000000000000000000000000000000000000000002404201824042018000000000000000000000000000                              000                           
0335670300219T 02011710130046627        00000002252402NLI3238004     3004201800000000001300003301171                         001000015681196828JEFERSON APARECIDO RAMOS                01300466270000000000004730000000000                      
0335670300220U 020000000000000000000000000000000000000000000000000000000000000000000000000000000000000000000000000000000000000000000000002404201824042018000000000000000000000000000                              000                           
0335670300221T 02011710130046627        00000002253632DJB6485004     3004201800000000000650003301171                         001000029518535809JESER BATISTA FERNANDES                 01300466270000000000004730000000000                      
0335670300222U 020000000000000000000000000000000000000000000000000000000000000000000000000000000000000000000000000000000000000000000000002404201824042018000000000000000000000000000                              000                           
0335670300223T 02011710130046627        00000002254872BWC0008014     3004201800000000000650003301171                         001000071274375800JOAO BIANCHI                            01300466270000000000004730000000000                      
0335670300224U 020000000000000000000000000000000000000000000000000000000000000000000000000000000000000000000000000000000000000000000000002404201824042018000000000000000000000000000                              000                           
0335670300225T 02011710130046627        00000002257202MCV4762004     3004201800000000000650003301171                         001000026180250839JOAO FRANCISCO RAMOS                    01300466270000000000004730000000000                      
0335670300226U 020000000000000000000000000000000000000000000000000000000000000000000000000000000000000000000000000000000000000000000000002404201824042018000000000000000000000000000                              000                           
0335670300227T 17011710130046627        00000002258351               2404201800000000000688034182600                         002000000000000000                                        01300466270000000000007260400000000                      
0335670300228U 170000000000000000000000000000000000000000000000000000000000000000000000068800000000000068800000000000000000000000000000002404201825042018000000000000000000000000000                              000                           
0335670300229T 02011710130046627        00000002258432KGB7013014     3004201800000000000650003301171                         001000082597090400JOAO LORENCO DE LIRA                    01300466270000000000004730000000000                      
0335670300230U 020000000000000000000000000000000000000000000000000000000000000000000000000000000000000000000000000000000000000000000000002404201824042018000000000000000000000000000                              000                           
0335670300231T 02011710130046627        00000002259672FCB3935004     3004201800000000000650003301171                         001000012707158879JOAO VICENTE VACCARI                    01300466270000000000004730000000000                      
0335670300232U 020000000000000000000000000000000000000000000000000000000000000000000000000000000000000000000000000000000000000000000000002404201824042018000000000000000000000000000                              000                           
0335670300233T 02011710130046627        00000002260842CJH6478004     3004201800000000000650003301171                         001000036846210130JOAQUIM LOURENCO                        01300466270000000000004730000000000                      
0335670300234U 020000000000000000000000000000000000000000000000000000000000000000000000000000000000000000000000000000000000000000000000002404201824042018000000000000000000000000000                              000                           
0335670300235T 02011710130046627        00000002262032HEH7404004     3004201800000000001300003301171                         001000000372055958JOCELI FERNANDES                        01300466270000000000004730000000000                      
0335670300236U 020000000000000000000000000000000000000000000000000000000000000000000000000000000000000000000000000000000000000000000000002404201824042018000000000000000000000000000                              000                           
0335670300237T 02011710130046627        00000002263272KZN2808004     3004201800000000000650003301171                         001000030284873810JOEL DE FREITAS ROSA                    01300466270000000000004730000000000                      
0335670300238U 020000000000000000000000000000000000000000000000000000000000000000000000000000000000000000000000000000000000000000000000002404201824042018000000000000000000000000000                              000                           
0335670300239T 02011710130046627        00000002264402AMH3972004     3004201800000000000650003301171                         001000030589660837JOEL FRENHAN SANTANA                    01300466270000000000004730000000000                      
0335670300240U 020000000000000000000000000000000000000000000000000000000000000000000000000000000000000000000000000000000000000000000000002404201824042018000000000000000000000000000                              000                           
0335670300241T 06011710130046627        00000002264402AMH3972004     3004201800000000000650034184800                         001000030589660837JOEL FRENHAN SANTANA                    01300466270000000000000000400000000                      
0335670300242U 060000000000000000000000000000000000000000000000000000000000000000000000065000000000000065000000000000000000000000000000002404201825042018000000000000000000000000000                              000                           
0335670300243T 02011710130046627        00000002265642DVT3791004     3004201800000000001300003301171                         001000015645108833JORGE EDUARDO DA SILVA                  01300466270000000000004730000000000                      
0335670300244U 020000000000000000000000000000000000000000000000000000000000000000000000000000000000000000000000000000000000000000000000002404201824042018000000000000000000000000000                              000                           
0335670300245T 02011710130046627        00000002266882JUO1436004     3004201800000000001300003301171                         002019919248000189JORGE LEITE GONCALVES FILHO - ME        01300466270000000000004730000000000                      
0335670300246U 020000000000000000000000000000000000000000000000000000000000000000000000000000000000000000000000000000000000000000000000002404201824042018000000000000000000000000000                              000                           
0335670300247T 02011710130046627        00000002268072FJR6762004     3004201800000000000650003301171                         001000010338264809JOSE AMERICO DA SILVA                   01300466270000000000004730000000000                      
0335670300248U 020000000000000000000000000000000000000000000000000000000000000000000000000000000000000000000000000000000000000000000000002404201824042018000000000000000000000000000                              000                           
0335670300249T 02011710130046627        00000002269202AKE5194004     3004201800000000000650003301171                         001000010338264809JOSE AMERICO DA SILVA                   01300466270000000000004730000000000                      
0335670300250U 020000000000000000000000000000000000000000000000000000000000000000000000000000000000000000000000000000000000000000000000002404201824042018000000000000000000000000000                              000                           
0335670300251T 02011710130046627        00000002270482CYN8670004     3004201800000000000650003301171                         001000015530654843JOSE ANDRADE DE SOUZA JUNIOR            01300466270000000000004730000000000                      
0335670300252U 020000000000000000000000000000000000000000000000000000000000000000000000000000000000000000000000000000000000000000000000002404201824042018000000000000000000000000000                              000                           
0335670300253T 02011710130046627        00000002271612MSK3754004     3004201800000000000650003301171                         001000008951094847JOSE AUGUSTO MARTINS DE ALENCAR         01300466270000000000004730000000000                      
0335670300254U 020000000000000000000000000000000000000000000000000000000000000000000000000000000000000000000000000000000000000000000000002404201824042018000000000000000000000000000                              000                           
0335670300255T 02011710130046627        00000002274042NTG7316004     3004201800000000001300003301171                         001000009034151867JOSE CARLOS DE FARIAS                   01300466270000000000004730000000000                      
0335670300256U 020000000000000000000000000000000000000000000000000000000000000000000000000000000000000000000000000000000000000000000000002404201824042018000000000000000000000000000                              000                           
0335670300257T 02011710130046627        00000002275282KVV4027004     3004201800000000001300003301171                         001000009034151867JOSE CARLOS DE FARIAS                   01300466270000000000004730000000000                      
0335670300258U 020000000000000000000000000000000000000000000000000000000000000000000000000000000000000000000000000000000000000000000000002404201824042018000000000000000000000000000                              000                           
0335670300259T 02011710130046627        000000022764123 PLACAS050    3004201800000000001950003301171                         002009411473000156JOSE CLAUDIO TAZINAFO - ME              01300466270000000000004730000000000                      
0335670300260U 020000000000000000000000000000000000000000000000000000000000000000000000000000000000000000000000000000000000000000000000002404201824042018000000000000000000000000000                              000                           
0335670300261T 02011710130046627        00000002277652EQV1147004     3004201800000000000650003301171                         001000032164207874JOSE EDUARDO LAGO SUBERO                01300466270000000000004730000000000                      
0335670300262U 020000000000000000000000000000000000000000000000000000000000000000000000000000000000000000000000000000000000000000000000002404201824042018000000000000000000000000000                              000                           
0335670300263T 02011710130046627        00000002281252EZL7270004     3004201800000000000650003301171                         001000027273883816JOSE IVAN GOMES                         01300466270000000000004730000000000                      
0335670300264U 020000000000000000000000000000000000000000000000000000000000000000000000000000000000000000000000000000000000000000000000002404201824042018000000000000000000000000000                              000                           
0335670300265T 02011710130046627        00000002283622GFK0099004     3004201800000000000650003301171                         001000059205938815JOSE LUIZ VITORELLO                     01300466270000000000004730000000000                      
0335670300266U 020000000000000000000000000000000000000000000000000000000000000000000000000000000000000000000000000000000000000000000000002404201824042018000000000000000000000000000                              000                           
0335670300267T 02011710130046627        00000002284862MER3048004     3004201800000000001300003301171                         001000051117975568JOSE MAGNO DOS SANTOS SIMOES            01300466270000000000004730000000000                      
0335670300268U 020000000000000000000000000000000000000000000000000000000000000000000000000000000000000000000000000000000000000000000000002404201824042018000000000000000000000000000                              000                           
0335670300269T 02011710130046627        00000002286052CZC1853004     3004201800000000000650003301171                         001000073987735953JOSE MARIA ALVES COSTA                  01300466270000000000004730000000000                      
0335670300270U 020000000000000000000000000000000000000000000000000000000000000000000000000000000000000000000000000000000000000000000000002404201824042018000000000000000000000000000                              000                           
0335670300271T 02011710130046627        00000002289072CYI5364014     3004201800000000000650003301171                         001000002407315308JOSE RIBAMAR MONTELIS DA SILVA          01300466270000000000004730000000000                      
0335670300272U 020000000000000000000000000000000000000000000000000000000000000000000000000000000000000000000000000000000000000000000000002404201824042018000000000000000000000000000                              000                           
0335670300273T 02011710130046627        00000002291482KKM9093004     3004201800000000000650003301171                         001000004127133490JOSE SILVA MARTINS                      01300466270000000000004730000000000                      
0335670300274U 020000000000000000000000000000000000000000000000000000000000000000000000000000000000000000000000000000000000000000000000002404201824042018000000000000000000000000000                              000                           
0335670300275T 02011710130046627        00000002292612DTC2393004     3004201800000000000650003301171                         001000095789235549JOSEMAR EULALIO BARBOSA                 01300466270000000000004730000000000                      
0335670300276U 020000000000000000000000000000000000000000000000000000000000000000000000000000000000000000000000000000000000000000000000002404201824042018000000000000000000000000000                              000                           
0335670300277T 02011710130046627        00000002293852LNK7406004     3004201800000000000650003301171                         001000013003621890JULIO CESAR DA SILVA SOUZA              01300466270000000000004730000000000                      
0335670300278U 020000000000000000000000000000000000000000000000000000000000000000000000000000000000000000000000000000000000000000000000002404201824042018000000000000000000000000000                              000                           
0335670300279T 02011710130046627        00000002295042DTA0231014     3004201800000000001300003301171                         001000039031020249JURANDIR MIRANDA DA SILVA               01300466270000000000004730000000000                      
0335670300280U 020000000000000000000000000000000000000000000000000000000000000000000000000000000000000000000000000000000000000000000000002404201824042018000000000000000000000000000                              000                           
0335670300281T 02011710130046627        00000002296282GDT2998004     3004201800000000001300003301171                         002008114153000171JUVENAL M. DE JESUS - ME                01300466270000000000004730000000000                      
0335670300282U 020000000000000000000000000000000000000000000000000000000000000000000000000000000000000000000000000000000000000000000000002404201824042018000000000000000000000000000                              000                           
0335670300283T 02011710130046627        00000002297412OVA3374004     3004201800000000001300003301171                         001000037645052813KARINE APARECIDA PAMPOLIM               01300466270000000000004730000000000                      
0335670300284U 020000000000000000000000000000000000000000000000000000000000000000000000000000000000000000000000000000000000000000000000002404201824042018000000000000000000000000000                              000                           
0335670300285T 02011710130046627        00000002298652CGU1072004     3004201800000000000650003301171                         001000001590311841LAIR ANTONIO BARBOSA ARAUJO             01300466270000000000004730000000000                      
0335670300286U 020000000000000000000000000000000000000000000000000000000000000000000000000000000000000000000000000000000000000000000000002404201824042018000000000000000000000000000                              000                           
0335670300287T 02011710130046627        000000023026022 PLACAS052    3004201800000000001950003301171                         001000026403880888ALESSANDRO MARCHESINI                   01300466270000000000004730000000000                      
0335670300288U 020000000000000000000000000000000000000000000000000000000000000000000000000000000000000000000000000000000000000000000000002404201824042018000000000000000000000000000                              000                           
0335670300289T 06011710130046627        000000023026022 PLACAS052    3004201800000000001950023729510                         001000026403880888ALESSANDRO MARCHESINI                   01300466270000000000000000400000000                      
0335670300290U 060000000000000000000000000000000000000000000000000000000000000000000000195000000000000195000000000000000000000000000000002404201825042018000000000000000000000000000                              000                           
0335670300291T 03011710130046627        0000000230383210 PLACAS004   3004201800000000007800003301171                         001000000000000000LEONARDO BITTENCOURT DE ALMEIDA TRANSPOR01300466270000000000000004646000000                      
0335670300292U 030000000000000000000000000000000000000000000000000000000000000000000000000000000000000000000000000000000000000000000000002404201824042018000000000000000000000000000                              000                           
0335670300293T 02011710130046627        00000002305022BWG3848004     3004201800000000000650003301171                         001000032933386828LUIS FERNANDO BATONI GERBI JUNIOR       01300466270000000000004730000000000                      
0335670300294U 020000000000000000000000000000000000000000000000000000000000000000000000000000000000000000000000000000000000000000000000002404201824042018000000000000000000000000000                              000                           
0335670300295T 02011710130046627        00000002306262CDE7929004     3004201800000000000650003301171                         001000023215691825LUIZ DIAMANTINO CERSOSIMO NETO          01300466270000000000004730000000000                      
0335670300296U 020000000000000000000000000000000000000000000000000000000000000000000000000000000000000000000000000000000000000000000000002404201824042018000000000000000000000000000                              000                           
0335670300297T 02011710130046627        00000002307402KRA2521004     3004201800000000000650003301171                         001000001841269832LUPERCIO BATISTA DA ROSA                01300466270000000000004730000000000                      
0335670300298U 020000000000000000000000000000000000000000000000000000000000000000000000000000000000000000000000000000000000000000000000002404201824042018000000000000000000000000000                              000                           
0335670300299T 02011710130046627        000000023086324 PLACAS052    3004201800000000002600003301171                         002025080858000134LURIAN KAREN LEME DA SILVA - ME         01300466270000000000004730000000000                      
0335670300300U 020000000000000000000000000000000000000000000000000000000000000000000000000000000000000000000000000000000000000000000000002404201824042018000000000000000000000000000                              000                           
0335670300301T 02011710130046627        000000023110025 PLACAS016    3004201800000000006500003301171                         002021977215000137M BRAGA TRANSPORTES LTDA ME             01300466270000000000004730000000000                      
0335670300302U 020000000000000000000000000000000000000000000000000000000000000000000000000000000000000000000000000000000000000000000000002404201824042018000000000000000000000000000                              000                           
0335670300303T 02011710130046627        00000002312232NRZ0026004     3004201800000000001300003301171                         001000021863879803MAGNO BISPO DO NASCIMENTO               01300466270000000000004730000000000                      
0335670300304U 020000000000000000000000000000000000000000000000000000000000000000000000000000000000000000000000000000000000000000000000002404201824042018000000000000000000000000000                              000                           
