10400000         2235662510001330000000000000000000001655188211200000000RASTREADORES PROTEGE LTDA   MEC ECON FEDERAL                          23004201806545800009204000000                    RETORNO-PRODUCAO                  000            
10400011T0100030 20235662510001330000000000000000000001655188211200000000RASTREADORES PROTEGE LTDA   ME                                                                                00000092300420180000000000                          00   
1040001300001T 060000008821120000000   1400000000045970401               30042018000000000047000001033830                         090000000000000000                                                  000000000000590040102                     
1040001300002U 06000000000000000000000000000000000000000000000000000000000000000000000047000000000000047000000000000000000000000000000000300420180305201800000305201800000000000000000000000000000000000000000000000000000000000000000000       
1040001300003T 060000008821120000000   1400000004395042581BFE425/001     05052018000000000007240104042110BFE425/001               090000000000000000MARINA EMILIA PEREIRA                             000000000000590020102                     
1040001300004U 06000000000000000000000000000000000000000000000000000000000000000000000007240000000000007240000000000000000000000000000000300420180305201800000305201800000000000000000000000000000000000000000000000000000000000000000000       
1040001300005T 060000008821120000000   1400000002475042501CLH 425/001    05052018000000000014480001074010CLH 425/001              090000000000000000MILTON CAPRIOLI POLETINI                          000000000000590040102                     
1040001300006U 06000000000000000000000000000000000000000000000000000000000000000000000014480000000000014480000000000000000000000000000000300420180305201800000305201800000000000000000000000000000000000000000000000000000000000000000000       
1040001300007T 060000008821120000000   1400000003163042501CNI425/001     05052018000000000007240104008990CNI425/001               090000000000000000DIEGO MONEZZI MAGALHAES                           000000000000590020102                     
1040001300008U 06000000000000000000000000000000000000000000000000000000000000000000000007240000000000007240000000000000000000000000000000300420180305201800000305201800000000000000000000000000000000000000000000000000000000000000000000       
1040001300009T 060000008821120000000   1400000003579042521DTV425/001     05052018000000000014480033001680DTV425/001               090000000000000000ZAURI BOLSONI                                     000000000000590040102                     
1040001300010U 06000000000000000000000000000000000000000000000000000000000000000000000014480000000000014480000000000000000000000000000000300420180305201800000305201800000000000000000000000000000000000000000000000000000000000000000000       
1040001300011T 060000008821120000000   1400000004365042571FAR425/001     05052018000000000014480104016010FAR425/001               090000000000000000WALDIR CORREIA DA SILVA                           000000000000590020102                     
1040001300012U 06000000000000000000000000000000000000000000000000000000000000000000000014480000000000014480000000000000000000000000000000300420180305201800000305201800000000000000000000000000000000000000000000000000000000000000000000       
1040001300013T 060000008821120000000   1400000002551042571GVP425/001     05052018000000000021720237001990GVP425/001               090000000000000000OASIS AUTO PECAS FUNILARIA E PINTURA LTD          000000000000590040102                     
1040001300014U 06000000000000000000000000000000000000000000000000000000000000000000000021720000000000021720000000000000000000000000000000300420180305201800000305201800000000000000000000000000000000000000000000000000000000000000000000       
1040001300015T 020000008821120000000   1400000004379042591ABI425/001     05052018000000000014480000000000ABI425/001               091000028440808801FERNANDO CAPARROS                                 000000000000000                           
1040001300016U 02000000000000000000000000000000000000000000000000000000000000000000000000000000000000000000000000000000000000000000000000300420180000000000003004201800000000000000000000000000000000000000000000000000000000000000000000       
1040001300017T 020000008821120000000   1400000437900000581ABI8280/005    15052018000000000025690000000000ABI8280/005              091000028440808801FERNANDO CAPARROS                                 000000000000000                           
1040001300018U 02000000000000000000000000000000000000000000000000000000000000000000000000000000000000000000000000000000000000000000000000300420180000000000003004201800000000000000000000000000000000000000000000000000000000000000000000       
1040001300019T 020000008821120000000   1400000435200000551ABP2018/005    15052018000000000018299000000000ABP2018/005              091000002067152858AUGUSTO LOIOLA                                    000000000000000                           
1040001300020U 02000000000000000000000000000000000000000000000000000000000000000000000000000000000000000000000000000000000000000000000000300420180000000000003004201800000000000000000000000000000000000000000000000000000000000000000000       
1040001300021T 020000008821120000000   1400000452300000591ADL1839/005    15052018000000000020903000000000ADL1839/005              091000025141726835MARCELO FURGERI BELENTI                           000000000000000                           
1040001300022U 02000000000000000000000000000000000000000000000000000000000000000000000000000000000000000000000000000000000000000000000000300420180000000000003004201800000000000000000000000000000000000000000000000000000000000000000000       
1040001300023T 020000008821120000000   1400000004523042591ADL425/001     05052018000000000007240000000000ADL425/001               091000025141726835MARCELO FURGERI BELENTI                           000000000000000                           
1040001300024U 02000000000000000000000000000000000000000000000000000000000000000000000000000000000000000000000000000000000000000000000000300420180000000000003004201800000000000000000000000000000000000000000000000000000000000000000000       
1040001300025T 020000008821120000000   1400000004220042571AEC425/001     05052018000000000007240000000000AEC425/001               091000014739875802EMERSON SOARES SANTOS                             000000000000000                           
1040001300026U 02000000000000000000000000000000000000000000000000000000000000000000000000000000000000000000000000000000000000000000000000300420180000000000003004201800000000000000000000000000000000000000000000000000000000000000000000       
1040001300027T 020000008821120000000   1400000422000000561AEC5099/005    15052018000000000018954000000000AEC5099/005              091000014739875802EMERSON SOARES SANTOS                             000000000000000                           
1040001300028U 02000000000000000000000000000000000000000000000000000000000000000000000000000000000000000000000000000000000000000000000000300420180000000000003004201800000000000000000000000000000000000000000000000000000000000000000000       
1040001300029T 020000008821120000000   1400000004215042561AFS425/001     05052018000000000021720000000000AFS425/001               091000031615950842ELAINE DE ALMEIDA SOUZA                           000000000000000                           
1040001300030U 02000000000000000000000000000000000000000000000000000000000000000000000000000000000000000000000000000000000000000000000000300420180000000000003004201800000000000000000000000000000000000000000000000000000000000000000000       
1040001300031T 020000008821120000000   1400000421500000581AFS9033/005    15052018000000000040279000000000AFS9033/005              091000031615950842ELAINE DE ALMEIDA SOUZA                           000000000000000                           
1040001300032U 02000000000000000000000000000000000000000000000000000000000000000000000000000000000000000000000000000000000000000000000000300420180000000000003004201800000000000000000000000000000000000000000000000000000000000000000000       
1040001300033T 020000008821120000000   1400000464600000591AFY1450/005    15052018000000000023000000000000AFY1450/005              091000003445285969FLAVIO DA SILVA MENDONCA                          000000000000000                           
1040001300034U 02000000000000000000000000000000000000000000000000000000000000000000000000000000000000000000000000000000000000000000000000300420180000000000003004201800000000000000000000000000000000000000000000000000000000000000000000       
1040001300035T 020000008821120000000   1400000004646042521AFY425/001     05052018000000000014480000000000AFY425/001               091000003445285969FLAVIO DA SILVA MENDONCA                          000000000000000                           
1040001300036U 02000000000000000000000000000000000000000000000000000000000000000000000000000000000000000000000000000000000000000000000000300420180000000000003004201800000000000000000000000000000000000000000000000000000000000000000000       
1040001300037T 020000008821120000000   1400000003113042521AGY425/001     05052018000000000014480000000000AGY425/001               091000006274745866VANDIR VIERA ANTUNES                              000000000000000                           
1040001300038U 02000000000000000000000000000000000000000000000000000000000000000000000000000000000000000000000000000000000000000000000000300420180000000000003004201800000000000000000000000000000000000000000000000000000000000000000000       
1040001300039T 020000008821120000000   1400000311300000571AGY6147/005    15052018000000000035016000000000AGY6147/005              091000006274745866VANDIR VIERA ANTUNES                              000000000000000                           
1040001300040U 02000000000000000000000000000000000000000000000000000000000000000000000000000000000000000000000000000000000000000000000000300420180000000000003004201800000000000000000000000000000000000000000000000000000000000000000000       
1040001300041T 020000008821120000000   1400000462800000501AHG2619/005    15052018000000000032673000000000AHG2619/005              092024858015000153D&A TRANSPORTES RODOVIARIOS CATANDUVA LT          000000000000000                           
1040001300042U 02000000000000000000000000000000000000000000000000000000000000000000000000000000000000000000000000000000000000000000000000300420180000000000003004201800000000000000000000000000000000000000000000000000000000000000000000       
1040001300043T 020000008821120000000   1400000473100000511AHM3608/003    15052018000000000034400000000000AHM3608/003              091000056265662953EDSON KENGI OKUMA DE SOUZA                        000000000000000                           
1040001300044U 02000000000000000000000000000000000000000000000000000000000000000000000000000000000000000000000000000000000000000000000000300420180000000000003004201800000000000000000000000000000000000000000000000000000000000000000000       
1040001300045T 020000008821120000000   1400000000709042571AJM425/001     05052018000000000014480000000000AJM425/001               091000006730681888ILSON ANTONIO BASSETE                             000000000000000                           
1040001300046U 02000000000000000000000000000000000000000000000000000000000000000000000000000000000000000000000000000000000000000000000000300420180000000000003004201800000000000000000000000000000000000000000000000000000000000000000000       
1040001300047T 020000008821120000000   1400000070900000591AJM9427/005    15052018000000000027541000000000AJM9427/005              091000006730681888ILSON ANTONIO BASSETE                             000000000000000                           
1040001300048U 02000000000000000000000000000000000000000000000000000000000000000000000000000000000000000000000000000000000000000000000000300420180000000000003004201800000000000000000000000000000000000000000000000000000000000000000000       
1040001300049T 020000008821120000000   1400000436600080401AJWACOR/001    30042018000000000016574000000000AJWACOR/001              091000009268298821JOSELITO MAURICIO DE ALMEIDA                      000000000000000A4                         
1040001300050U 02000000000000000000000000000000000000000000000000000000000000000000000000000000000000000000000000000000000000000000000000300420180000000000003004201800000000000000000000000000000000000000000000000000000000000000000000       
1040001300051T 020000008821120000000   1400000436600000581AJW1121/005    15052018000000000011655000000000AJW1121/005              091000009268298821JOSELITO MAURICIO DE ALMEIDA                      000000000000000A4                         
1040001300052U 02000000000000000000000000000000000000000000000000000000000000000000000000000000000000000000000000000000000000000000000000300420180000000000003004201800000000000000000000000000000000000000000000000000000000000000000000       
1040001300053T 020000008821120000000   1400000004366042511AJW425/001     05052018000000000007240000000000AJW425/001               091000009268298821JOSELITO MAURICIO DE ALMEIDA                      000000000000000A4                         
1040001300054U 02000000000000000000000000000000000000000000000000000000000000000000000000000000000000000000000000000000000000000000000000300420180000000000003004201800000000000000000000000000000000000000000000000000000000000000000000       
1040001300055T 020000008821120000000   1400000455500000501AJY1876/005    15052018000000000054190000000000AJY1876/005              091000005758898961MARK DIEISON LOPES CHAVES                         000000000000000                           
1040001300056U 02000000000000000000000000000000000000000000000000000000000000000000000000000000000000000000000000000000000000000000000000300420180000000000003004201800000000000000000000000000000000000000000000000000000000000000000000       
1040001300057T 020000008821120000000   1400000004555042591AJY425/001     05052018000000000028960000000000AJY425/001               091000005758898961MARK DIEISON LOPES CHAVES                         000000000000000                           
1040001300058U 02000000000000000000000000000000000000000000000000000000000000000000000000000000000000000000000000000000000000000000000000300420180000000000003004201800000000000000000000000000000000000000000000000000000000000000000000       
1040001300059T 020000008821120000000   1400000004684042581AKE425/001     05052018000000000014480000000000AKE425/001               091000010338264809JOSE AMERICO DA SILVA                             000000000000000                           
1040001300060U 02000000000000000000000000000000000000000000000000000000000000000000000000000000000000000000000000000000000000000000000000300420180000000000003004201800000000000000000000000000000000000000000000000000000000000000000000       
1040001300061T 020000008821120000000   1400000468400000501AKE5194/005    15052018000000000027522000000000AKE5194/005              091000010338264809JOSE AMERICO DA SILVA                             000000000000000                           
1040001300062U 02000000000000000000000000000000000000000000000000000000000000000000000000000000000000000000000000000000000000000000000000300420180000000000003004201800000000000000000000000000000000000000000000000000000000000000000000       
1040001300063T 020000008821120000000   1400000442200000581AKK5209/002    15052018000000000032870000000000AKK5209/002              092026456615000110J A  FORTCAMP TRANSPORTES EIRELI   EPP            000000000000000                           
1040001300064U 02000000000000000000000000000000000000000000000000000000000000000000000000000000000000000000000000000000000000000000000000300420180000000000003004201800000000000000000000000000000000000000000000000000000000000000000000       
1040001300065T 020000008821120000000   1400000004396042521AKN425/001     05052018000000000014480000000000AKN425/001               091000041146271468SERGIO GONSALES BELUZZO                           000000000000000                           
1040001300066U 02000000000000000000000000000000000000000000000000000000000000000000000000000000000000000000000000000000000000000000000000300420180000000000003004201800000000000000000000000000000000000000000000000000000000000000000000       
1040001300067T 020000008821120000000   1400000439600000531AKN7299/005    15052018000000000022280000000000AKN7299/005              091000041146271468SERGIO GONSALES BELUZZO                           000000000000000                           
1040001300068U 02000000000000000000000000000000000000000000000000000000000000000000000000000000000000000000000000000000000000000000000000300420180000000000003004201800000000000000000000000000000000000000000000000000000000000000000000       
1040001300069T 020000008821120000000   1400003909000042231ALTRATE/002    30042018000000000016987000000000ALTRATE/002              091000028890028882ALVARO HENRIQUES DE SIQUEIRA                      000000000000000A4                         
1040001300070U 02000000000000000000000000000000000000000000000000000000000000000000000000000000000000000000000000000000000000000000000000300420180000000000003004201800000000000000000000000000000000000000000000000000000000000000000000       
1040001300071T 020000008821120000000   1400000390900000571ALT2018/005    15052018000000000028179000000000ALT2018/005              091000028890028882ALVARO HENRIQUES DE SIQUEIRA                      000000000000000A4                         
1040001300072U 02000000000000000000000000000000000000000000000000000000000000000000000000000000000000000000000000000000000000000000000000300420180000000000003004201800000000000000000000000000000000000000000000000000000000000000000000       
1040001300073T 020000008821120000000   1400000003909042581ALT425/001     05052018000000000014480000000000ALT425/001               091000028890028882ALVARO HENRIQUES DE SIQUEIRA                      000000000000000A4                         
1040001300074U 02000000000000000000000000000000000000000000000000000000000000000000000000000000000000000000000000000000000000000000000000300420180000000000003004201800000000000000000000000000000000000000000000000000000000000000000000       
1040001300075T 020000008821120000000   1400000369300000521AMH3972/005    15052018000000000028179000000000AMH3972/005              091000030589660837JOEL FRENHAN SANTANA                              000000000000000A4                         
1040001300076U 02000000000000000000000000000000000000000000000000000000000000000000000000000000000000000000000000000000000000000000000000300420180000000000003004201800000000000000000000000000000000000000000000000000000000000000000000       
1040001300077T 020000008821120000000   1400000003693042551AMH425/001     05052018000000000014480000000000AMH425/001               091000030589660837JOEL FRENHAN SANTANA                              000000000000000A4                         
1040001300078U 02000000000000000000000000000000000000000000000000000000000000000000000000000000000000000000000000000000000000000000000000300420180000000000003004201800000000000000000000000000000000000000000000000000000000000000000000       
1040001300079T 020000008821120000000   1400000454500000581AOA1645/003    15052018000000000024560000000000AOA1645/003              091000035504823889WANDERSON BARBOSA DE SOUZA                        000000000000000                           
1040001300080U 02000000000000000000000000000000000000000000000000000000000000000000000000000000000000000000000000000000000000000000000000300420180000000000003004201800000000000000000000000000000000000000000000000000000000000000000000       
1040001300081T 020000008821120000000   1400000004545042551AOA425/001     05052018000000000014480000000000AOA425/001               091000035504823889WANDERSON BARBOSA DE SOUZA                        000000000000000                           
1040001300082U 02000000000000000000000000000000000000000000000000000000000000000000000000000000000000000000000000000000000000000000000000300420180000000000003004201800000000000000000000000000000000000000000000000000000000000000000000       
1040001300083T 020000008821120000000   1400000004577042551AQP 425/001    05052018000000000014480000000000AQP 425/001              091000031240671857MARCELO PINHEIRO DELLAMURA                        000000000000000                           
1040001300084U 02000000000000000000000000000000000000000000000000000000000000000000000000000000000000000000000000000000000000000000000000300420180000000000003004201800000000000000000000000000000000000000000000000000000000000000000000       
1040001300085T 020000008821120000000   1400000458000000511AQP4163/003    15052018000000000028951000000000AQP4163/003              091000025865933833EDNILSON APARECIDO BENEDITO                       000000000000000                           
1040001300086U 02000000000000000000000000000000000000000000000000000000000000000000000000000000000000000000000000000000000000000000000000300420180000000000003004201800000000000000000000000000000000000000000000000000000000000000000000       
1040001300087T 020000008821120000000   1400000457700000591AQP6180/005    15052018000000000019352000000000AQP6180/005              091000031240671857MARCELO PINHEIRO DELLAMURA                        000000000000000                           
1040001300088U 02000000000000000000000000000000000000000000000000000000000000000000000000000000000000000000000000000000000000000000000000300420180000000000003004201800000000000000000000000000000000000000000000000000000000000000000000       
1040001300089T 020000008821120000000   1400000045310000501ASB1147/005    15052018000000000069880000000000ASB1147/005              092021977215000137M BRAGA TRANSPORTES LTDA ME                       000000000000000A4                         
1040001300090U 02000000000000000000000000000000000000000000000000000000000000000000000000000000000000000000000000000000000000000000000000300420180000000000003004201800000000000000000000000000000000000000000000000000000000000000000000       
1040001300091T 020000008821120000000   1400000004531042531ASB425/001     05052018000000000036200000000000ASB425/001               092021977215000137M BRAGA TRANSPORTES LTDA ME                       000000000000000A4                         
1040001300092U 02000000000000000000000000000000000000000000000000000000000000000000000000000000000000000000000000000000000000000000000000300420180000000000003004201800000000000000000000000000000000000000000000000000000000000000000000       
1040001300093T 020000008821120000000   1400000439800000591ATG2869/005    15052018000000000051090000000000ATG2869/005              092026456615000110J A  FORTCAMP TRANSPORTES EIRELI   EPP            000000000000000                           
1040001300094U 02000000000000000000000000000000000000000000000000000000000000000000000000000000000000000000000000000000000000000000000000300420180000000000003004201800000000000000000000000000000000000000000000000000000000000000000000       
1040001300095T 020000008821120000000   1400000000439842531ATG425/001     05052018000000000021720000000000ATG425/001               092026456615000110J A  FORTCAMP TRANSPORTES EIRELI   EPP            000000000000000                           
1040001300096U 02000000000000000000000000000000000000000000000000000000000000000000000000000000000000000000000000000000000000000000000000300420180000000000003004201800000000000000000000000000000000000000000000000000000000000000000000       
1040001300097T 020000008821120000000   1400000476400000551AUC3015/002    15052018000000000051676000000000AUC3015/002              091000025390812824ELVIS CLEBER DA SILVA                             000000000000000                           
1040001300098U 02000000000000000000000000000000000000000000000000000000000000000000000000000000000000000000000000000000000000000000000000300420180000000000003004201800000000000000000000000000000000000000000000000000000000000000000000       
1040001300099T 020000008821120000000   1400000454600000501AUQ2814/005    15052018000000000040480000000000AUQ2814/005              091000032553721862EDUARDO CANANEA DE OLIVEIRA                       000000000000000A4                         
1040001300100U 02000000000000000000000000000000000000000000000000000000000000000000000000000000000000000000000000000000000000000000000000300420180000000000003004201800000000000000000000000000000000000000000000000000000000000000000000       
1040001300101T 020000008821120000000   1400000004546042501AUQ425/001     05052018000000000021720000000000AUQ425/001               091000032553721862EDUARDO CANANEA DE OLIVEIRA                       000000000000000A4                         
1040001300102U 02000000000000000000000000000000000000000000000000000000000000000000000000000000000000000000000000000000000000000000000000300420180000000000003004201800000000000000000000000000000000000000000000000000000000000000000000       
1040001300103T 020000008821120000000   1400000453200000581AXD3890/005    15052018000000000080339000000000AXD3890/005              092021977215000137M BRAGA TRANSPORTES LTDA ME                       000000000000000A4                         
1040001300104U 02000000000000000000000000000000000000000000000000000000000000000000000000000000000000000000000000000000000000000000000000300420180000000000003004201800000000000000000000000000000000000000000000000000000000000000000000       
1040001300105T 020000008821120000000   1400000004532042581AXD425/001     05052018000000000036200000000000AXD425/001               092021977215000137M BRAGA TRANSPORTES LTDA ME                       000000000000000A4                         
1040001300106U 02000000000000000000000000000000000000000000000000000000000000000000000000000000000000000000000000000000000000000000000000300420180000000000003004201800000000000000000000000000000000000000000000000000000000000000000000       
1040001300107T 020000008821120000000   1400000004395042581BFE425/001     05052018000000000007240000000000BFE425/001               091000003334906817MARINA EMILIA PEREIRA                             000000000000000                           
1040001300108U 02000000000000000000000000000000000000000000000000000000000000000000000000000000000000000000000000000000000000000000000000300420180000000000003004201800000000000000000000000000000000000000000000000000000000000000000000       
1040001300109T 020000008821120000000   1400000439500000501BFE9024/005    15052018000000000020355000000000BFE9024/005              091000003334906817MARINA EMILIA PEREIRA                             000000000000000                           
1040001300110U 02000000000000000000000000000000000000000000000000000000000000000000000000000000000000000000000000000000000000000000000000300420180000000000003004201800000000000000000000000000000000000000000000000000000000000000000000       
1040001300111T 020000008821120000000   1400000375500000591BFW4160/005    15052018000000000017882000000000BFW4160/005              091000034841271805REGINALDO CARDENAS MORETTO                        000000000000000                           
1040001300112U 02000000000000000000000000000000000000000000000000000000000000000000000000000000000000000000000000000000000000000000000000300420180000000000003004201800000000000000000000000000000000000000000000000000000000000000000000       
1040001300113T 020000008821120000000   1400000003755042521BFW425/001     05052018000000000014480000000000BFW425/001               091000034841271805REGINALDO CARDENAS MORETTO                        000000000000000                           
1040001300114U 02000000000000000000000000000000000000000000000000000000000000000000000000000000000000000000000000000000000000000000000000300420180000000000003004201800000000000000000000000000000000000000000000000000000000000000000000       
1040001300115T 020000008821120000000   1400000003343042591BHA425/001     05052018000000000007240000000000BHA425/001               092003471805000101RAUL CARLOS DA SILVEIRA INDAIATUBA EPP            000000000000000                           
1040001300116U 02000000000000000000000000000000000000000000000000000000000000000000000000000000000000000000000000000000000000000000000000300420180000000000003004201800000000000000000000000000000000000000000000000000000000000000000000       
1040001300117T 020000008821120000000   1400000334300000591BHA6253/003    15052018000000000011115000000000BHA6253/003              092003471805000101RAUL CARLOS DA SILVEIRA INDAIATUBA EPP            000000000000000                           
1040001300118U 02000000000000000000000000000000000000000000000000000000000000000000000000000000000000000000000000000000000000000000000000300420180000000000003004201800000000000000000000000000000000000000000000000000000000000000000000       
1040001300119T 020000008821120000000   1400000076400000561BHO2282/005    15052018000000000020521000000000BHO2282/005              092004352154000101EDVALDO SOTHERO DE GODOY ME                       000000000000000                           
1040001300120U 02000000000000000000000000000000000000000000000000000000000000000000000000000000000000000000000000000000000000000000000000300420180000000000003004201800000000000000000000000000000000000000000000000000000000000000000000       
1040001300121T 020000008821120000000   1400000000764042561BHO425/001     05052018000000000014480000000000BHO425/001               092004352154000101EDVALDO SOTHERO DE GODOY ME                       000000000000000                           
1040001300122U 02000000000000000000000000000000000000000000000000000000000000000000000000000000000000000000000000000000000000000000000000300420180000000000003004201800000000000000000000000000000000000000000000000000000000000000000000       
1040001300123T 020000008821120000000   1400000405600000511BIF3247/005    15052018000000000022950000000000BIF3247/005              091000043709583772RUBEM NUNES DE SOUZA                              000000000000000                           
1040001300124U 02000000000000000000000000000000000000000000000000000000000000000000000000000000000000000000000000000000000000000000000000300420180000000000003004201800000000000000000000000000000000000000000000000000000000000000000000       
1040001300125T 020000008821120000000   1400000004056042501BIF425/001     05052018000000000014480000000000BIF425/001               091000043709583772RUBEM NUNES DE SOUZA                              000000000000000                           
1040001300126U 02000000000000000000000000000000000000000000000000000000000000000000000000000000000000000000000000000000000000000000000000300420180000000000003004201800000000000000000000000000000000000000000000000000000000000000000000       
1040001300127T 020000008821120000000   1400000004187042581BKD425/001     05052018000000000014480000000000BKD425/001               092009411473000156JOSE CLAUDIO TAZINAFO   ME                        000000000000000A4                         
1040001300128U 02000000000000000000000000000000000000000000000000000000000000000000000000000000000000000000000000000000000000000000000000300420180000000000003004201800000000000000000000000000000000000000000000000000000000000000000000       
1040001300129T 020000008821120000000   1400000418700000581BKD9095/005    15052018000000000022656000000000BKD9095/005              092009411473000156JOSE CLAUDIO TAZINAFO   ME                        000000000000000A4                         
1040001300130U 02000000000000000000000000000000000000000000000000000000000000000000000000000000000000000000000000000000000000000000000000300420180000000000003004201800000000000000000000000000000000000000000000000000000000000000000000       
1040001300131T 020000008821120000000   1400000003307042521BMF425/001     05052018000000000007240000000000BMF425/001               091000029027035890JOSE FERNANDES SILVA JUNIOR                       000000000000000                           
1040001300132U 02000000000000000000000000000000000000000000000000000000000000000000000000000000000000000000000000000000000000000000000000300420180000000000003004201800000000000000000000000000000000000000000000000000000000000000000000       
1040001300133T 020000008821120000000   1400000330700000521BMF9742/005    15052018000000000013500000000000BMF9742/005              091000029027035890JOSE FERNANDES SILVA JUNIOR                       000000000000000                           
1040001300134U 02000000000000000000000000000000000000000000000000000000000000000000000000000000000000000000000000000000000000000000000000300420180000000000003004201800000000000000000000000000000000000000000000000000000000000000000000       
1040001300135T 020000008821120000000   1400000000801042531BPG425/001     05052018000000000014480000000000BPG425/001               091000028946638893ISRAEL SANTOS LUCA                                000000000000000                           
1040001300136U 02000000000000000000000000000000000000000000000000000000000000000000000000000000000000000000000000000000000000000000000000300420180000000000003004201800000000000000000000000000000000000000000000000000000000000000000000       
1040001300137T 020000008821120000000   1400000080100000551BPG8747/005    15052018000000000021156000000000BPG8747/005              091000028946638893ISRAEL SANTOS LUCA                                000000000000000                           
1040001300138U 02000000000000000000000000000000000000000000000000000000000000000000000000000000000000000000000000000000000000000000000000300420180000000000003004201800000000000000000000000000000000000000000000000000000000000000000000       
1040001300139T 020000008821120000000   1400000209500000511BQP2379/005    15052018000000000009000000000000BQP2379/005              091000094482438804IVO MARCHESINE DA SILVA                           000000000000000                           
1040001300140U 02000000000000000000000000000000000000000000000000000000000000000000000000000000000000000000000000000000000000000000000000300420180000000000003004201800000000000000000000000000000000000000000000000000000000000000000000       
1040001300141T 020000008821120000000   1400000002095042561BQP425/001     05052018000000000007240000000000BQP425/001               091000094482438804IVO MARCHESINE DA SILVA                           000000000000000                           
1040001300142U 02000000000000000000000000000000000000000000000000000000000000000000000000000000000000000000000000000000000000000000000000300420180000000000003004201800000000000000000000000000000000000000000000000000000000000000000000       
1040001300143T 020000008821120000000   1400000004695042561BSF425/001     05052018000000000007240000000000BSF425/001               091000035076891890ERNESTO CARLOS ESTEVES FILHO                      000000000000000A4                         
1040001300144U 02000000000000000000000000000000000000000000000000000000000000000000000000000000000000000000000000000000000000000000000000300420180000000000003004201800000000000000000000000000000000000000000000000000000000000000000000       
1040001300145T 020000008821120000000   1400000469500000551BSF7926/005    15052018000000000018500000000000BSF7926/005              091000035076891890ERNESTO CARLOS ESTEVES FILHO                      000000000000000A4                         
1040001300146U 02000000000000000000000000000000000000000000000000000000000000000000000000000000000000000000000000000000000000000000000000300420180000000000003004201800000000000000000000000000000000000000000000000000000000000000000000       
1040001300147T 020000008821120000000   1400000002828042561BSG425/001     05052018000000000014480000000000BSG425/001               091000007956168805NELSON RICARDO MAIORINO                           000000000000000                           
1040001300148U 02000000000000000000000000000000000000000000000000000000000000000000000000000000000000000000000000000000000000000000000000300420180000000000003004201800000000000000000000000000000000000000000000000000000000000000000000       
1040001300149T 020000008821120000000   1400000282800000521BSG9501/005    15052018000000000017480000000000BSG9501/005              091000007956168805NELSON RICARDO MAIORINO                           000000000000000                           
1040001300150U 02000000000000000000000000000000000000000000000000000000000000000000000000000000000000000000000000000000000000000000000000300420180000000000003004201800000000000000000000000000000000000000000000000000000000000000000000       
1040001300151T 020000008821120000000   1400000044420000551BTA1501/005    15052018000000000025264000000000BTA1501/005              092008917750000134TRANSPORTADORA MAGNOLIA LTDA   ME                 000000000000000                           
1040001300152U 02000000000000000000000000000000000000000000000000000000000000000000000000000000000000000000000000000000000000000000000000300420180000000000003004201800000000000000000000000000000000000000000000000000000000000000000000       
1040001300153T 020000008821120000000   1400000418400000501BTB2018/005    15052018000000000029090000000000BTB2018/005              091000011548349801ADAO VALDECIR MUNIZ                               000000000000000                           
1040001300154U 02000000000000000000000000000000000000000000000000000000000000000000000000000000000000000000000000000000000000000000000000300420180000000000003004201800000000000000000000000000000000000000000000000000000000000000000000       
1040001300155T 020000008821120000000   1400000004184042541BTB425/001     05052018000000000014480000000000BTB425/001               091000011548349801ADAO VALDECIR MUNIZ                               000000000000000                           
1040001300156U 02000000000000000000000000000000000000000000000000000000000000000000000000000000000000000000000000000000000000000000000000300420180000000000003004201800000000000000000000000000000000000000000000000000000000000000000000       
1040001300157T 020000008821120000000   1400000001370042521BTR 425/001    05052018000000000007240000000000BTR 425/001              091000037749650806ELIO CARVALHO DOS SANTOS                          000000000000000                           
1040001300158U 02000000000000000000000000000000000000000000000000000000000000000000000000000000000000000000000000000000000000000000000000300420180000000000003004201800000000000000000000000000000000000000000000000000000000000000000000       
1040001300159T 020000008821120000000   1400000003103042591BTR425/001     05052018000000000014480000000000BTR425/001               091000012879399882EBERSON LAZARO DA SILVEIRA                        000000000000000A4                         
1040001300160U 02000000000000000000000000000000000000000000000000000000000000000000000000000000000000000000000000000000000000000000000000300420180000000000003004201800000000000000000000000000000000000000000000000000000000000000000000       
1040001300161T 020000008821120000000   1400000137000000511BTR5809/005    15052018000000000012000000000000BTR5809/005              091000037749650806ELIO CARVALHO DOS SANTOS                          000000000000000                           
1040001300162U 02000000000000000000000000000000000000000000000000000000000000000000000000000000000000000000000000000000000000000000000000300420180000000000003004201800000000000000000000000000000000000000000000000000000000000000000000       
1040001300163T 020000008821120000000   1400000310300000551BTR7331/005    15052018000000000024500000000000BTR7331/005              091000012879399882EBERSON LAZARO DA SILVEIRA                        000000000000000A4                         
1040001300164U 02000000000000000000000000000000000000000000000000000000000000000000000000000000000000000000000000000000000000000000000000300420180000000000003004201800000000000000000000000000000000000000000000000000000000000000000000       
1040001300165T 020000008821120000000   1400000004540042521BTS425/001     05052018000000000014480000000000BTS425/001               091000017317591858PAULO HENRIQUE MANGUE LOUREIRO                    000000000000000A4                         
1040001300166U 02000000000000000000000000000000000000000000000000000000000000000000000000000000000000000000000000000000000000000000000000300420180000000000003004201800000000000000000000000000000000000000000000000000000000000000000000       
1040001300167T 020000008821120000000   1400000454000000541BTS6926/005    15052018000000000022690000000000BTS6926/005              091000017317591858PAULO HENRIQUE MANGUE LOUREIRO                    000000000000000A4                         
1040001300168U 02000000000000000000000000000000000000000000000000000000000000000000000000000000000000000000000000000000000000000000000000300420180000000000003004201800000000000000000000000000000000000000000000000000000000000000000000       
1040001300169T 020000008821120000000   1400000475700000511BTS9836/002    15052018000000000039289000000000BTS9836/002              091000001797242903ARMANDO MARCOS PEREIRA                            000000000000000                           
1040001300170U 02000000000000000000000000000000000000000000000000000000000000000000000000000000000000000000000000000000000000000000000000300420180000000000003004201800000000000000000000000000000000000000000000000000000000000000000000       
1040001300171T 020000008821120000000   1400000465700000531BTT2018/002    15052018000000000031560000000000BTT2018/002              091000015148747846ROBINSON RICHARD MASSOLI                          000000000000000                           
1040001300172U 02000000000000000000000000000000000000000000000000000000000000000000000000000000000000000000000000000000000000000000000000300420180000000000003004201800000000000000000000000000000000000000000000000000000000000000000000       
1040001300173T 020000008821120000000   1400000004657042501BTT425/001     05052018000000000021720000000000BTT425/001               091000015148747846ROBINSON RICHARD MASSOLI                          000000000000000                           
1040001300174U 02000000000000000000000000000000000000000000000000000000000000000000000000000000000000000000000000000000000000000000000000300420180000000000003004201800000000000000000000000000000000000000000000000000000000000000000000       
1040001300175T 020000008821120000000   1400000002778042511BTU425/001     05052018000000000007240000000000BTU425/001               091000009420062830MAURO DACARO                                      000000000000000                           
1040001300176U 02000000000000000000000000000000000000000000000000000000000000000000000000000000000000000000000000000000000000000000000000300420180000000000003004201800000000000000000000000000000000000000000000000000000000000000000000       
1040001300177T 020000008821120000000   1400000277800000531BTU7625/005    15052018000000000012000000000000BTU7625/005              091000009420062830MAURO DACARO                                      000000000000000                           
1040001300178U 02000000000000000000000000000000000000000000000000000000000000000000000000000000000000000000000000000000000000000000000000300420180000000000003004201800000000000000000000000000000000000000000000000000000000000000000000       
1040001300179T 020000008821120000000   1400000431400000531BUD2018/005    15052018000000000044167000000000BUD2018/005              091000077786661891ALVARO GOULART DE SOUSA                           000000000000000                           
1040001300180U 02000000000000000000000000000000000000000000000000000000000000000000000000000000000000000000000000000000000000000000000000300420180000000000003004201800000000000000000000000000000000000000000000000000000000000000000000       
1040001300181T 020000008821120000000   1400000004314042541BUD425/001     05052018000000000021720000000000BUD425/001               091000077786661891ALVARO GOULART DE SOUSA                           000000000000000                           
1040001300182U 02000000000000000000000000000000000000000000000000000000000000000000000000000000000000000000000000000000000000000000000000300420180000000000003004201800000000000000000000000000000000000000000000000000000000000000000000       
1040001300183T 020000008821120000000   1400000002238042531BUP 425/001    05052018000000000007240000000000BUP 425/001              091000044393911849SEBASTIAO ERMINO DA FONSECA                       000000000000000                           
1040001300184U 02000000000000000000000000000000000000000000000000000000000000000000000000000000000000000000000000000000000000000000000000300420180000000000003004201800000000000000000000000000000000000000000000000000000000000000000000       
1040001300185T 020000008821120000000   1400000223800000551BUP6115/005    15052018000000000010007000000000BUP6115/005              091000044393911849SEBASTIAO ERMINO DA FONSECA                       000000000000000                           
1040001300186U 02000000000000000000000000000000000000000000000000000000000000000000000000000000000000000000000000000000000000000000000000300420180000000000003004201800000000000000000000000000000000000000000000000000000000000000000000       
1040001300187T 020000008821120000000   1400000463700000501BUP9717/005    15052018000000000020023000000000BUP9717/005              091000000415478880LUIZ TOSHIAKI IKEOKA                              000000000000000                           
1040001300188U 02000000000000000000000000000000000000000000000000000000000000000000000000000000000000000000000000000000000000000000000000300420180000000000003004201800000000000000000000000000000000000000000000000000000000000000000000       
1040001300189T 020000008821120000000   1400000176000000521BUS2018/005    15052018000000000015312000000000BUS2018/005              091000006272909810AGNALDO DE LIMA                                   000000000000000                           
1040001300190U 02000000000000000000000000000000000000000000000000000000000000000000000000000000000000000000000000000000000000000000000000300420180000000000003004201800000000000000000000000000000000000000000000000000000000000000000000       
1040001300191T 020000008821120000000   1400000001760042501BUS425/001     05052018000000000007240000000000BUS425/001               091000006272909810AGNALDO DE LIMA                                   000000000000000                           
1040001300192U 02000000000000000000000000000000000000000000000000000000000000000000000000000000000000000000000000000000000000000000000000300420180000000000003004201800000000000000000000000000000000000000000000000000000000000000000000       
1040001300193T 020000008821120000000   1400000473400000501BUS5830/003    15052018000000000035494000000000BUS5830/003              091000000835975738RENATO DA SILVA SIMOES                            000000000000000                           
1040001300194U 02000000000000000000000000000000000000000000000000000000000000000000000000000000000000000000000000000000000000000000000000300420180000000000003004201800000000000000000000000000000000000000000000000000000000000000000000       
1040001300195T 020000008821120000000   1400000003446042551BUT425/001     05052018000000000014480000000000BUT425/001               091000008805071870ANTONIO APARECIDO MORAES                          000000000000000                           
1040001300196U 02000000000000000000000000000000000000000000000000000000000000000000000000000000000000000000000000000000000000000000000000300420180000000000003004201800000000000000000000000000000000000000000000000000000000000000000000       
1040001300197T 020000008821120000000   1400000344600000551BUT8669/003    15052018000000000020521000000000BUT8669/003              091000008805071870ANTONIO APARECIDO MORAES                          000000000000000                           
1040001300198U 02000000000000000000000000000000000000000000000000000000000000000000000000000000000000000000000000000000000000000000000000300420180000000000003004201800000000000000000000000000000000000000000000000000000000000000000000       
1040001300199T 020000008821120000000   1400000357400000531BVX1753/005    15052018000000000015000000000000BVX1753/005              091000004290060803WILSON ARRUDA                                     000000000000000                           
1040001300200U 02000000000000000000000000000000000000000000000000000000000000000000000000000000000000000000000000000000000000000000000000300420180000000000003004201800000000000000000000000000000000000000000000000000000000000000000000       
1040001300201T 020000008821120000000   1400000003574042501BVX425/001     05052018000000000007240000000000BVX425/001               091000004290060803WILSON ARRUDA                                     000000000000000                           
1040001300202U 02000000000000000000000000000000000000000000000000000000000000000000000000000000000000000000000000000000000000000000000000300420180000000000003004201800000000000000000000000000000000000000000000000000000000000000000000       
1040001300203T 020000008821120000000   1400000002777042571BWC 425/001    10052018000000000014480000000000BWC 425/001              091000071274375800JOAO BIANCHI                                      000000000000000                           
1040001300204U 02000000000000000000000000000000000000000000000000000000000000000000000000000000000000000000000000000000000000000000000000300420180000000000003004201800000000000000000000000000000000000000000000000000000000000000000000       
1040001300205T 020000008821120000000   1400000277700000501BWC0008/005    15052018000000000023540000000000BWC0008/005              091000071274375800JOAO BIANCHI                                      000000000000000                           
1040001300206U 02000000000000000000000000000000000000000000000000000000000000000000000000000000000000000000000000000000000000000000000000300420180000000000003004201800000000000000000000000000000000000000000000000000000000000000000000       
1040001300207T 020000008821120000000   1400000316400000591BWC2018/005    15052018000000000018859000000000BWC2018/005              091000011548349801ADAO VALDECIR MUNIZ                               000000000000000                           
1040001300208U 02000000000000000000000000000000000000000000000000000000000000000000000000000000000000000000000000000000000000000000000000300420180000000000003004201800000000000000000000000000000000000000000000000000000000000000000000       
1040001300209T 020000008821120000000   1400000003164045221BWC425/001     05052018000000000014480000000000BWC425/001               091000011548349801ADAO VALDECIR MUNIZ                               000000000000000                           
1040001300210U 02000000000000000000000000000000000000000000000000000000000000000000000000000000000000000000000000000000000000000000000000300420180000000000003004201800000000000000000000000000000000000000000000000000000000000000000000       
1040001300211T 020000008821120000000   1400000462000000591BWD2695/005    15052018000000000021500000000000BWD2695/005              091000022627002813ROBSON NASCIMENTO DE MELO                         000000000000000A4                         
1040001300212U 02000000000000000000000000000000000000000000000000000000000000000000000000000000000000000000000000000000000000000000000000300420180000000000003004201800000000000000000000000000000000000000000000000000000000000000000000       
1040001300213T 020000008821120000000   1400000470800000551BWE1182/004    15052018000000000021427000000000BWE1182/004              091000032571471805ALEX FERNANDO DOS SANTOS MANO                     000000000000000                           
1040001300214U 02000000000000000000000000000000000000000000000000000000000000000000000000000000000000000000000000000000000000000000000000300420180000000000003004201800000000000000000000000000000000000000000000000000000000000000000000       
1040001300215T 020000008821120000000   1400000458900000561BWG3848/005    15052018000000000021500000000000BWG3848/005              091000032933386828LUIS FERNANDO BATONI GERBI JUNIOR                 000000000000000                           
1040001300216U 02000000000000000000000000000000000000000000000000000000000000000000000000000000000000000000000000000000000000000000000000300420180000000000003004201800000000000000000000000000000000000000000000000000000000000000000000       
1040001300217T 020000008821120000000   1400000004589042581BWG425/001     05052018000000000007240000000000BWG425/001               091000032933386828LUIS FERNANDO BATONI GERBI JUNIOR                 000000000000000                           
1040001300218U 02000000000000000000000000000000000000000000000000000000000000000000000000000000000000000000000000000000000000000000000000300420180000000000003004201800000000000000000000000000000000000000000000000000000000000000000000       
1040001300219T 020000008821120000000   1400000175900000551BWI2018/005    15052018000000000015000000000000BWI2018/005              091000006272909810AGNALDO DE LIMA                                   000000000000000                           
1040001300220U 02000000000000000000000000000000000000000000000000000000000000000000000000000000000000000000000000000000000000000000000000300420180000000000003004201800000000000000000000000000000000000000000000000000000000000000000000       
1040001300221T 020000008821120000000   1400000001759042571BWI425/001     05052018000000000007240000000000BWI425/001               091000006272909810AGNALDO DE LIMA                                   000000000000000                           
1040001300222U 02000000000000000000000000000000000000000000000000000000000000000000000000000000000000000000000000000000000000000000000000300420180000000000003004201800000000000000000000000000000000000000000000000000000000000000000000       
1040001300223T 020000008821120000000   1400000004204042581BWL425/001     05052018000000000007240000000000BWL425/001               092010525486000135J C DOS SANTOS SALTO   ME                         000000000000000                           
1040001300224U 02000000000000000000000000000000000000000000000000000000000000000000000000000000000000000000000000000000000000000000000000300420180000000000003004201800000000000000000000000000000000000000000000000000000000000000000000       
1040001300225T 020000008821120000000   1400000420400000531BWL9788/005    15052018000000000018412000000000BWL9788/005              092010525486000135J C DOS SANTOS SALTO   ME                         000000000000000                           
1040001300226U 02000000000000000000000000000000000000000000000000000000000000000000000000000000000000000000000000000000000000000000000000300420180000000000003004201800000000000000000000000000000000000000000000000000000000000000000000       
1040001300227T 020000008821120000000   1400000474400000511BWO8171/002    15052018000000000034432000000000BWO8171/002              092024858015000153D&A TRANSPORTES RODOVIARIOS CATANDUVA LT          000000000000000                           
1040001300228U 02000000000000000000000000000000000000000000000000000000000000000000000000000000000000000000000000000000000000000000000000300420180000000000003004201800000000000000000000000000000000000000000000000000000000000000000000       
1040001300229T 020000008821120000000   1400000455800000581BWP2018/005    15052018000000000021500000000000BWP2018/005              091000034586269804ALAN DAVID GARCIA                                 000000000000000                           
1040001300230U 02000000000000000000000000000000000000000000000000000000000000000000000000000000000000000000000000000000000000000000000000300420180000000000003004201800000000000000000000000000000000000000000000000000000000000000000000       
1040001300231T 020000008821120000000   1400000004558042521BWP425/001     05052018000000000007240000000000BWP425/001               091000034586269804ALAN DAVID GARCIA                                 000000000000000                           
1040001300232U 02000000000000000000000000000000000000000000000000000000000000000000000000000000000000000000000000000000000000000000000000300420180000000000003004201800000000000000000000000000000000000000000000000000000000000000000000       
1040001300233T 020000008821120000000   1400000002787042501BWQ 425/001    05052018000000000021720000000000BWQ 425/001              091000005729037821CLAUDEMIR CREPALDI                                000000000000000                           
1040001300234U 02000000000000000000000000000000000000000000000000000000000000000000000000000000000000000000000000000000000000000000000000300420180000000000003004201800000000000000000000000000000000000000000000000000000000000000000000       
1040001300235T 020000008821120000000   1400000468800000511BWQ2018/005    15052018000000000022247000000000BWQ2018/005              091000032466507803BRUNO GUSTAVO DONZELLA                            000000000000000                           
1040001300236U 02000000000000000000000000000000000000000000000000000000000000000000000000000000000000000000000000000000000000000000000000300420180000000000003004201800000000000000000000000000000000000000000000000000000000000000000000       
1040001300237T 020000008821120000000   1400000004688042561BWQ425/001     05052018000000000014480000000000BWQ425/001               091000032466507803BRUNO GUSTAVO DONZELLA                            000000000000000                           
1040001300238U 02000000000000000000000000000000000000000000000000000000000000000000000000000000000000000000000000000000000000000000000000300420180000000000003004201800000000000000000000000000000000000000000000000000000000000000000000       
1040001300239T 020000008821120000000   1400000474900000551BWS0824/002    15052018000000000018500000000000BWS0824/002              092010525486000135J C DOS SANTOS SALTO   ME                         000000000000000                           
1040001300240U 02000000000000000000000000000000000000000000000000000000000000000000000000000000000000000000000000000000000000000000000000300420180000000000003004201800000000000000000000000000000000000000000000000000000000000000000000       
1040001300241T 020000008821120000000   1400000002854042591BWT425/001     05052018000000000007240000000000BWT425/001               091000089151097834EDUARDO MARTINS DE OLIVEIRA                       000000000000000                           
1040001300242U 02000000000000000000000000000000000000000000000000000000000000000000000000000000000000000000000000000000000000000000000000300420180000000000003004201800000000000000000000000000000000000000000000000000000000000000000000       
1040001300243T 020000008821120000000   1400000285400000571BWT8993/005    15052018000000000015000000000000BWT8993/005              091000089151097834EDUARDO MARTINS DE OLIVEIRA                       000000000000000                           
1040001300244U 02000000000000000000000000000000000000000000000000000000000000000000000000000000000000000000000000000000000000000000000000300420180000000000003004201800000000000000000000000000000000000000000000000000000000000000000000       
1040001300245T 020000008821120000000   1400000002874042561BWU425/001     05052018000000000007240000000000BWU425/001               091000030231125844FABIO ROGERIO MACHADO                             000000000000000                           
1040001300246U 02000000000000000000000000000000000000000000000000000000000000000000000000000000000000000000000000000000000000000000000000300420180000000000003004201800000000000000000000000000000000000000000000000000000000000000000000       
1040001300247T 020000008821120000000   1400000287400000501BWU6120/005    15052018000000000015000000000000BWU6120/005              091000030231125844FABIO ROGERIO MACHADO                             000000000000000                           
1040001300248U 02000000000000000000000000000000000000000000000000000000000000000000000000000000000000000000000000000000000000000000000000300420180000000000003004201800000000000000000000000000000000000000000000000000000000000000000000       
1040001300249T 020000008821120000000   1400000004397042571BXE 425/001    05052018000000000021720000000000BXE 425/001              092026456615000110J A  FORTCAMP TRANSPORTES EIRELI   EPP            000000000000000                           
1040001300250U 02000000000000000000000000000000000000000000000000000000000000000000000000000000000000000000000000000000000000000000000000300420180000000000003004201800000000000000000000000000000000000000000000000000000000000000000000       
1040001300251T 020000008821120000000   1400000408400000511BXE3785/005    15052018000000000033170000000000BXE3785/005              091000006723612485FABIANO RAMIM                                     000000000000000                           
1040001300252U 02000000000000000000000000000000000000000000000000000000000000000000000000000000000000000000000000000000000000000000000000300420180000000000003004201800000000000000000000000000000000000000000000000000000000000000000000       
1040001300253T 020000008821120000000   1400000439700000561BXE3874/005    15052018000000000042861000000000BXE3874/005              092026456615000110J A  FORTCAMP TRANSPORTES EIRELI   EPP            000000000000000                           
1040001300254U 02000000000000000000000000000000000000000000000000000000000000000000000000000000000000000000000000000000000000000000000000300420180000000000003004201800000000000000000000000000000000000000000000000000000000000000000000       
1040001300255T 020000008821120000000   1400000004084042511BXE425/001     05052018000000000014480000000000BXE425/001               091000006723612485FABIANO RAMIM                                     000000000000000                           
1040001300256U 02000000000000000000000000000000000000000000000000000000000000000000000000000000000000000000000000000000000000000000000000300420180000000000003004201800000000000000000000000000000000000000000000000000000000000000000000       
1040001300257T 020000008821120000000   1400000432300000521BXF1877/005    15052018000000000030766000000000BXF1877/005              092066562596000121ARTUR GRANA NETO   ME                             000000000000000                           
1040001300258U 02000000000000000000000000000000000000000000000000000000000000000000000000000000000000000000000000000000000000000000000000300420180000000000003004201800000000000000000000000000000000000000000000000000000000000000000000       
1040001300259T 020000008821120000000   1400000467800000501BXF2018/005    15052018000000000024678000000000BXF2018/005              091000032583626884ALEX SANTOS DOS ANJOS                             000000000000000A4                         
1040001300260U 02000000000000000000000000000000000000000000000000000000000000000000000000000000000000000000000000000000000000000000000000300420180000000000003004201800000000000000000000000000000000000000000000000000000000000000000000       
1040001300261T 020000008821120000000   1400000004323042531BXF425/001     05052018000000000014480000000000BXF425/001               092066562596000121ARTUR GRANA NETO   ME                             000000000000000                           
1040001300262U 02000000000000000000000000000000000000000000000000000000000000000000000000000000000000000000000000000000000000000000000000300420180000000000003004201800000000000000000000000000000000000000000000000000000000000000000000       
1040001300263T 020000008821120000000   1400000471800000571BXF5350/004    15052018000000000021500000000000BXF5350/004              092026651435000190TRANSPORTADORA ALMEIDA&FANTI LTDA ME              000000000000000                           
1040001300264U 02000000000000000000000000000000000000000000000000000000000000000000000000000000000000000000000000000000000000000000000000300420180000000000003004201800000000000000000000000000000000000000000000000000000000000000000000       
1040001300265T 020000008821120000000   1400000003020042501BXI 425/001    05052018000000000007240000000000BXI 425/001              091000017552643803RODRIGO ANTONIO TEIXEIRA DA MOTTA                 000000000000000A4                         
1040001300266U 02000000000000000000000000000000000000000000000000000000000000000000000000000000000000000000000000000000000000000000000000300420180000000000003004201800000000000000000000000000000000000000000000000000000000000000000000       
1040001300267T 020000008821120000000   1400000302000000521BXI2596/005    15052018000000000015000000000000BXI2596/005              091000017552643803RODRIGO ANTONIO TEIXEIRA DA MOTTA                 000000000000000A4                         
1040001300268U 02000000000000000000000000000000000000000000000000000000000000000000000000000000000000000000000000000000000000000000000000300420180000000000003004201800000000000000000000000000000000000000000000000000000000000000000000       
1040001300269T 020000008821120000000   1400000369600000501BXI3774/005    15052018000000000016136000000000BXI3774/005              091000043678190510FIDELSINO PEREIRA DOS SANTOS                      000000000000000A4                         
1040001300270U 02000000000000000000000000000000000000000000000000000000000000000000000000000000000000000000000000000000000000000000000000300420180000000000003004201800000000000000000000000000000000000000000000000000000000000000000000       
1040001300271T 020000008821120000000   1400000003696042591BXI425/001     05052018000000000014480000000000BXI425/001               091000043678190510FIDELSINO PEREIRA DOS SANTOS                      000000000000000A4                         
1040001300272U 02000000000000000000000000000000000000000000000000000000000000000000000000000000000000000000000000000000000000000000000000300420180000000000003004201800000000000000000000000000000000000000000000000000000000000000000000       
1040001300273T 020000008821120000000   1400000001834042501BXJ 425/001    05052018000000000014480000000000BXJ 425/001              091000092452590649SILAS MARTINS DA SILVA                            000000000000000                           
1040001300274U 02000000000000000000000000000000000000000000000000000000000000000000000000000000000000000000000000000000000000000000000000300420180000000000003004201800000000000000000000000000000000000000000000000000000000000000000000       
1040001300275T 020000008821120000000   1400000254700000591BXJ3134/005    15052018000000000013209000000000BXJ3134/005              091000004970994897JOSE APARECIDO FRANCISCO                          000000000000000                           
1040001300276U 02000000000000000000000000000000000000000000000000000000000000000000000000000000000000000000000000000000000000000000000000300420180000000000003004201800000000000000000000000000000000000000000000000000000000000000000000       
1040001300277T 020000008821120000000   1400000002547042501BXJ425/001     05052018000000000007240000000000BXJ425/001               091000004970994897JOSE APARECIDO FRANCISCO                          000000000000000                           
1040001300278U 02000000000000000000000000000000000000000000000000000000000000000000000000000000000000000000000000000000000000000000000000300420180000000000003004201800000000000000000000000000000000000000000000000000000000000000000000       
1040001300279T 020000008821120000000   1400000183400000561BXJ4570/005    15052018000000000017400000000000BXJ4570/005              091000092452590649SILAS MARTINS DA SILVA                            000000000000000                           
1040001300280U 02000000000000000000000000000000000000000000000000000000000000000000000000000000000000000000000000000000000000000000000000300420180000000000003004201800000000000000000000000000000000000000000000000000000000000000000000       
1040001300281T 020000008821120000000   1400000243500000531BXN3361/005    15052018000000000012768000000000BXN3361/005              091000088942147887JOSE CANDIDO                                      000000000000000                           
1040001300282U 02000000000000000000000000000000000000000000000000000000000000000000000000000000000000000000000000000000000000000000000000300420180000000000003004201800000000000000000000000000000000000000000000000000000000000000000000       
1040001300283T 020000008821120000000   1400000004415042511BYD425/001     05052018000000000014480000000000BYD425/001               091000003727366451MARCOS AMANCIO DA SILVA                           000000000000000                           
1040001300284U 02000000000000000000000000000000000000000000000000000000000000000000000000000000000000000000000000000000000000000000000000300420180000000000003004201800000000000000000000000000000000000000000000000000000000000000000000       
1040001300285T 020000008821120000000   1400000441500000541BYD5898/005    15052018000000000022198000000000BYD5898/005              091000003727366451MARCOS AMANCIO DA SILVA                           000000000000000                           
1040001300286U 02000000000000000000000000000000000000000000000000000000000000000000000000000000000000000000000000000000000000000000000000300420180000000000003004201800000000000000000000000000000000000000000000000000000000000000000000       
1040001300287T 020000008821120000000   1400000001232042541BYH 425/001    05052018000000000007240000000000BYH 425/001              091000065535340804CARLOS ROBERTO DA SILVA                           000000000000000                           
1040001300288U 02000000000000000000000000000000000000000000000000000000000000000000000000000000000000000000000000000000000000000000000000300420180000000000003004201800000000000000000000000000000000000000000000000000000000000000000000       
1040001300289T 020000008821120000000   1400000466500000501BYH2018/005    15052018000000000018014000000000BYH2018/005              092009318444000144ANDRADE E ABREU TRANSPORTES LTDA   ME             000000000000000A4                         
1040001300290U 02000000000000000000000000000000000000000000000000000000000000000000000000000000000000000000000000000000000000000000000000300420180000000000003004201800000000000000000000000000000000000000000000000000000000000000000000       
1040001300291T 020000008821120000000   1400000004665042551BYH425/001     05052018000000000007240000000000BYH425/001               092009318444000144ANDRADE E ABREU TRANSPORTES LTDA   ME             000000000000000A4                         
1040001300292U 02000000000000000000000000000000000000000000000000000000000000000000000000000000000000000000000000000000000000000000000000300420180000000000003004201800000000000000000000000000000000000000000000000000000000000000000000       
1040001300293T 020000008821120000000   1400000123200000511BYH9253/003    15052018000000000012000000000000BYH9253/003              091000065535340804CARLOS ROBERTO DA SILVA                           000000000000000                           
1040001300294U 02000000000000000000000000000000000000000000000000000000000000000000000000000000000000000000000000000000000000000000000000300420180000000000003004201800000000000000000000000000000000000000000000000000000000000000000000       
1040001300295T 020000008821120000000   1400000004343042501CDE425/001     05052018000000000014480000000000CDE425/001               091000023215691825LUIZ DIAMANTINO CERSOSIMO NETO                    000000000000000                           
1040001300296U 02000000000000000000000000000000000000000000000000000000000000000000000000000000000000000000000000000000000000000000000000300420180000000000003004201800000000000000000000000000000000000000000000000000000000000000000000       
1040001300297T 020000008821120000000   1400000434300000561CDE7929/005    15052018000000000030946000000000CDE7929/005              091000023215691825LUIZ DIAMANTINO CERSOSIMO NETO                    000000000000000                           
1040001300298U 02000000000000000000000000000000000000000000000000000000000000000000000000000000000000000000000000000000000000000000000000300420180000000000003004201800000000000000000000000000000000000000000000000000000000000000000000       
1040001300299T 020000008821120000000   1400000004217042551CGL425/001     05052018000000000021720000000000CGL425/001               091000034385921857MICHEL OLIVEIRA DE RESENDE                        000000000000000A4                         
1040001300300U 02000000000000000000000000000000000000000000000000000000000000000000000000000000000000000000000000000000000000000000000000300420180000000000003004201800000000000000000000000000000000000000000000000000000000000000000000       
1040001300301T 020000008821120000000   1400000421700000531CGL4826/005    15052018000000000024463000000000CGL4826/005              091000034385921857MICHEL OLIVEIRA DE RESENDE                        000000000000000A4                         
1040001300302U 02000000000000000000000000000000000000000000000000000000000000000000000000000000000000000000000000000000000000000000000000300420180000000000003004201800000000000000000000000000000000000000000000000000000000000000000000       
1040001300303T 020000008821120000000   1400000211600000581CGU1072/005    15052018000000000023996000000000CGU1072/005              091000001590311841LAIR ANTONIO BARBOSA ARAUJO                       000000000000000                           
1040001300304U 02000000000000000000000000000000000000000000000000000000000000000000000000000000000000000000000000000000000000000000000000300420180000000000003004201800000000000000000000000000000000000000000000000000000000000000000000       
1040001300305T 020000008821120000000   1400000002116042541CGU425/001     05052018000000000014480000000000CGU425/001               091000001590311841LAIR ANTONIO BARBOSA ARAUJO                       000000000000000                           
1040001300306U 02000000000000000000000000000000000000000000000000000000000000000000000000000000000000000000000000000000000000000000000000300420180000000000003004201800000000000000000000000000000000000000000000000000000000000000000000       
1040001300307T 020000008821120000000   1400000439900080101CIKACOR/001    10052018000000000017768000000000CIKACOR/001              091000030759318883FABIO ROSANTE                                     000000000000000                           
1040001300308U 02000000000000000000000000000000000000000000000000000000000000000000000000000000000000000000000000000000000000000000000000300420180000000000003004201800000000000000000000000000000000000000000000000000000000000000000000       
1040001300309T 020000008821120000000   1400000004399042561CIK425/001     05052018000000000007240000000000CIK425/001               091000030759318883FABIO ROSANTE                                     000000000000000                           
1040001300310U 02000000000000000000000000000000000000000000000000000000000000000000000000000000000000000000000000000000000000000000000000300420180000000000003004201800000000000000000000000000000000000000000000000000000000000000000000       
1040001300311T 020000008821120000000   1400000439900000511CIK5297/005    15052018000000000017768000000000CIK5297/005              091000030759318883FABIO ROSANTE                                     000000000000000                           
1040001300312U 02000000000000000000000000000000000000000000000000000000000000000000000000000000000000000000000000000000000000000000000000300420180000000000003004201800000000000000000000000000000000000000000000000000000000000000000000       
1040001300313T 020000008821120000000   1400000004071042541CIT425/001     05052018000000000007240000000000CIT425/001               092021144542000108LEONARDO BITTENCOURT DE ALMEIDA TRANSPOR          000000000000000                           
1040001300314U 02000000000000000000000000000000000000000000000000000000000000000000000000000000000000000000000000000000000000000000000000300420180000000000003004201800000000000000000000000000000000000000000000000000000000000000000000       
1040001300315T 020000008821120000000   1400000407100000511CIT5347/005    15052018000000000012123000000000CIT5347/005              092021144542000108LEONARDO BITTENCOURT DE ALMEIDA TRANSPOR          000000000000000                           
1040001300316U 02000000000000000000000000000000000000000000000000000000000000000000000000000000000000000000000000000000000000000000000000300420180000000000003004201800000000000000000000000000000000000000000000000000000000000000000000       
1040001300317T 020000008821120000000   1400000003765042561CIV425/001     05052018000000000014480000000000CIV425/001               091000054027470834MILTON CANDIDO DE SA                              000000000000000                           
1040001300318U 02000000000000000000000000000000000000000000000000000000000000000000000000000000000000000000000000000000000000000000000000300420180000000000003004201800000000000000000000000000000000000000000000000000000000000000000000       
1040001300319T 020000008821120000000   1400000376500000501CIV9073/005    15052018000000000020509000000000CIV9073/005              091000054027470834MILTON CANDIDO DE SA                              000000000000000                           
1040001300320U 02000000000000000000000000000000000000000000000000000000000000000000000000000000000000000000000000000000000000000000000000300420180000000000003004201800000000000000000000000000000000000000000000000000000000000000000000       
1040001300321T 020000008821120000000   1400000003814042561CJH 425/001    05052018000000000007240000000000CJH 425/001              091000052022048849WALTER VALE                                       000000000000000                           
1040001300322U 02000000000000000000000000000000000000000000000000000000000000000000000000000000000000000000000000000000000000000000000000300420180000000000003004201800000000000000000000000000000000000000000000000000000000000000000000       
1040001300323T 020000008821120000000   1400000381400000571CJH6346/005    15052018000000000019892000000000CJH6346/005              091000052022048849WALTER VALE                                       000000000000000                           
1040001300324U 02000000000000000000000000000000000000000000000000000000000000000000000000000000000000000000000000000000000000000000000000300420180000000000003004201800000000000000000000000000000000000000000000000000000000000000000000       
1040001300325T 020000008821120000000   1400000466100000591CJH6478/005    15052018000000000023685000000000CJH6478/005              091000036846210130JOAQUIM LOURENCO                                  000000000000000                           
1040001300326U 02000000000000000000000000000000000000000000000000000000000000000000000000000000000000000000000000000000000000000000000000300420180000000000003004201800000000000000000000000000000000000000000000000000000000000000000000       
1040001300327T 020000008821120000000   1400000004607042521CKF425/001     05052018000000000014480000000000CKF425/001               091000014714769871ITALO RODES PEREIRA                               000000000000000                           
1040001300328U 02000000000000000000000000000000000000000000000000000000000000000000000000000000000000000000000000000000000000000000000000300420180000000000003004201800000000000000000000000000000000000000000000000000000000000000000000       
1040001300329T 020000008821120000000   1400000460700000541CKF8635/005    15052018000000000016505000000000CKF8635/005              091000014714769871ITALO RODES PEREIRA                               000000000000000                           
1040001300330U 02000000000000000000000000000000000000000000000000000000000000000000000000000000000000000000000000000000000000000000000000300420180000000000003004201800000000000000000000000000000000000000000000000000000000000000000000       
1040001300331T 020000008821120000000   1400000002475042501CLH 425/001    05052018000000000014480000000000CLH 425/001              091000005796151894MILTON CAPRIOLI POLETINI                          000000000000000                           
1040001300332U 02000000000000000000000000000000000000000000000000000000000000000000000000000000000000000000000000000000000000000000000000300420180000000000003004201800000000000000000000000000000000000000000000000000000000000000000000       
1040001300333T 020000008821120000000   1400000433200000511CLH2785/005    15052018000000000034068000000000CLH2785/005              091000028220470810EDGAR MACHADO DA SILVA                            000000000000000                           
1040001300334U 02000000000000000000000000000000000000000000000000000000000000000000000000000000000000000000000000000000000000000000000000300420180000000000003004201800000000000000000000000000000000000000000000000000000000000000000000       
1040001300335T 020000008821120000000   1400000474300000591CLH3788/002    15052018000000000029462000000000CLH3788/002              091000005712305801LUIZ CATAPANI                                     000000000000000                           
1040001300336U 02000000000000000000000000000000000000000000000000000000000000000000000000000000000000000000000000000000000000000000000000300420180000000000003004201800000000000000000000000000000000000000000000000000000000000000000000       
1040001300337T 020000008821120000000   1400000004332042521CLH425/001     05052018000000000014480000000000CLH425/001               091000028220470810EDGAR MACHADO DA SILVA                            000000000000000                           
1040001300338U 02000000000000000000000000000000000000000000000000000000000000000000000000000000000000000000000000000000000000000000000000300420180000000000003004201800000000000000000000000000000000000000000000000000000000000000000000       
1040001300339T 020000008821120000000   1400000247500000501CLH9160/005    15052018000000000022087000000000CLH9160/005              091000005796151894MILTON CAPRIOLI POLETINI                          000000000000000                           
1040001300340U 02000000000000000000000000000000000000000000000000000000000000000000000000000000000000000000000000000000000000000000000000300420180000000000003004201800000000000000000000000000000000000000000000000000000000000000000000       
1040001300341T 020000008821120000000   1400000004083042571CLJ 425/001    05052018000000000021720000000000CLJ 425/001              091000006723612485FABIANO RAMIM                                     000000000000000                           
1040001300342U 02000000000000000000000000000000000000000000000000000000000000000000000000000000000000000000000000000000000000000000000000300420180000000000003004201800000000000000000000000000000000000000000000000000000000000000000000       
1040001300343T 020000008821120000000   1400000003001042571CLJ0425/001    05052018000000000014480000000000CLJ0425/001              091000000295096888JOSE LEITE DE MEDEIROS                            000000000000000                           
1040001300344U 02000000000000000000000000000000000000000000000000000000000000000000000000000000000000000000000000000000000000000000000000300420180000000000003004201800000000000000000000000000000000000000000000000000000000000000000000       
1040001300345T 020000008821120000000   1400000300100000511CLJ0694/004    15052018000000000025028000000000CLJ0694/004              091000000295096888JOSE LEITE DE MEDEIROS                            000000000000000                           
1040001300346U 02000000000000000000000000000000000000000000000000000000000000000000000000000000000000000000000000000000000000000000000000300420180000000000003004201800000000000000000000000000000000000000000000000000000000000000000000       
1040001300347T 020000008821120000000   1400000456400000591CLJ2018/005    15052018000000000020306000000000CLJ2018/005              092021263799000189CARLOS CESAR COELHO JUNIOR   ME                   000000000000000A4                         
1040001300348U 02000000000000000000000000000000000000000000000000000000000000000000000000000000000000000000000000000000000000000000000000300420180000000000003004201800000000000000000000000000000000000000000000000000000000000000000000       
1040001300349T 020000008821120000000   1400000004564042581CLJ425/001     05052018000000000007240000000000CLJ425/001               092021263799000189CARLOS CESAR COELHO JUNIOR   ME                   000000000000000A4                         
1040001300350U 02000000000000000000000000000000000000000000000000000000000000000000000000000000000000000000000000000000000000000000000000300420180000000000003004201800000000000000000000000000000000000000000000000000000000000000000000       
1040001300351T 020000008821120000000   1400000408300000591CLJ7979/005    15052018000000000034968000000000CLJ7979/005              091000006723612485FABIANO RAMIM                                     000000000000000                           
1040001300352U 02000000000000000000000000000000000000000000000000000000000000000000000000000000000000000000000000000000000000000000000000300420180000000000003004201800000000000000000000000000000000000000000000000000000000000000000000       
1040001300353T 020000008821120000000   1400000465600000501CLK3705/005    15052018000000000018500000000000CLK3705/005              091000024949639153CLOVIS ANTONIO PACHECO DE MORAES                  000000000000000                           
1040001300354U 02000000000000000000000000000000000000000000000000000000000000000000000000000000000000000000000000000000000000000000000000300420180000000000003004201800000000000000000000000000000000000000000000000000000000000000000000       
1040001300355T 020000008821120000000   1400000004656042561CLK425/001     05052018000000000007240000000000CLK425/001               091000024949639153CLOVIS ANTONIO PACHECO DE MORAES                  000000000000000                           
1040001300356U 02000000000000000000000000000000000000000000000000000000000000000000000000000000000000000000000000000000000000000000000000300420180000000000003004201800000000000000000000000000000000000000000000000000000000000000000000       
1040001300357T 020000008821120000000   1400000004145042541CLU 425/001    05052018000000000014480000000000CLU 425/001              092021144542000108LEONARDO BITTENCOURT DE ALMEIDA TRANSPOR          000000000000000                           
1040001300358U 02000000000000000000000000000000000000000000000000000000000000000000000000000000000000000000000000000000000000000000000000300420180000000000003004201800000000000000000000000000000000000000000000000000000000000000000000       
1040001300359T 020000008821120000000   1400000002525042541CLU0425/001    05052018000000000014480000000000CLU0425/001              092008695838000159WELLINGTON ROSA BATISTA TRANSPORTES ME            000000000000000                           
1040001300360U 02000000000000000000000000000000000000000000000000000000000000000000000000000000000000000000000000000000000000000000000000300420180000000000003004201800000000000000000000000000000000000000000000000000000000000000000000       
1040001300361T 020000008821120000000   1400000414500000551CLU1325/005    15052018000000000017846000000000CLU1325/005              092021144542000108LEONARDO BITTENCOURT DE ALMEIDA TRANSPOR          000000000000000                           
1040001300362U 02000000000000000000000000000000000000000000000000000000000000000000000000000000000000000000000000000000000000000000000000300420180000000000003004201800000000000000000000000000000000000000000000000000000000000000000000       
1040001300363T 020000008821120000000   1400000442000000521CLU2018/005    15052018000000000069435000000000CLU2018/005              091000021872467873CLEBER JACKSON TAVARES                            000000000000000                           
1040001300364U 02000000000000000000000000000000000000000000000000000000000000000000000000000000000000000000000000000000000000000000000000300420180000000000003004201800000000000000000000000000000000000000000000000000000000000000000000       
1040001300365T 020000008821120000000   1400000004420042521CLU425/001     05052018000000000036200000000000CLU425/001               091000021872467873CLEBER JACKSON TAVARES                            000000000000000                           
1040001300366U 02000000000000000000000000000000000000000000000000000000000000000000000000000000000000000000000000000000000000000000000000300420180000000000003004201800000000000000000000000000000000000000000000000000000000000000000000       
1040001300367T 020000008821120000000   1400000252500000501CLU5574/005    15052018000000000031857000000000CLU5574/005              092008695838000159WELLINGTON ROSA BATISTA TRANSPORTES ME            000000000000000                           
1040001300368U 02000000000000000000000000000000000000000000000000000000000000000000000000000000000000000000000000000000000000000000000000300420180000000000003004201800000000000000000000000000000000000000000000000000000000000000000000       
1040001300369T 020000008821120000000   1400000004117042521CMP 425/001    05052018000000000007200000000000CMP 425/001              092021144542000108LEONARDO BITTENCOURT DE ALMEIDA TRANSPOR          000000000000000                           
1040001300370U 02000000000000000000000000000000000000000000000000000000000000000000000000000000000000000000000000000000000000000000000000300420180000000000003004201800000000000000000000000000000000000000000000000000000000000000000000       
1040001300371T 020000008821120000000   1400000409100000551CMP0570/005    15052018000000000019063000000000CMP0570/005              091000004970994897JOSE APARECIDO FRANCISCO                          000000000000000                           
1040001300372U 02000000000000000000000000000000000000000000000000000000000000000000000000000000000000000000000000000000000000000000000000300420180000000000003004201800000000000000000000000000000000000000000000000000000000000000000000       
1040001300373T 020000008821120000000   1400000004091042511CMP425/001     05052018000000000007240000000000CMP425/001               091000004970994897JOSE APARECIDO FRANCISCO                          000000000000000                           
1040001300374U 02000000000000000000000000000000000000000000000000000000000000000000000000000000000000000000000000000000000000000000000000300420180000000000003004201800000000000000000000000000000000000000000000000000000000000000000000       
1040001300375T 020000008821120000000   1400000411700000551CMP8017/005    15052018000000000007861000000000CMP8017/005              092021144542000108LEONARDO BITTENCOURT DE ALMEIDA TRANSPOR          000000000000000                           
1040001300376U 02000000000000000000000000000000000000000000000000000000000000000000000000000000000000000000000000000000000000000000000000300420180000000000003004201800000000000000000000000000000000000000000000000000000000000000000000       
1040001300377T 020000008821120000000   1400000440200000541CMR7864/005    15052018000000000004500000000000CMR7864/005              091000008588618877OTEVALDO SILVA NEVES                              000000000000000                           
1040001300378U 02000000000000000000000000000000000000000000000000000000000000000000000000000000000000000000000000000000000000000000000000300420180000000000003004201800000000000000000000000000000000000000000000000000000000000000000000       
1040001300379T 020000008821120000000   1400000003163042501CNI425/001     05052018000000000007240000000000CNI425/001               091000031653580879DIEGO MONEZZI MAGALHAES                           000000000000000                           
1040001300380U 02000000000000000000000000000000000000000000000000000000000000000000000000000000000000000000000000000000000000000000000000300420180000000000003004201800000000000000000000000000000000000000000000000000000000000000000000       
1040001300381T 020000008821120000000   1400000316300000561CNI8603/005    15052018000000000013324000000000CNI8603/005              091000031653580879DIEGO MONEZZI MAGALHAES                           000000000000000                           
1040001300382U 02000000000000000000000000000000000000000000000000000000000000000000000000000000000000000000000000000000000000000000000000300420180000000000003004201800000000000000000000000000000000000000000000000000000000000000000000       
1040001300383T 020000008821120000000   1400000047250000561CNR9734/003    15052018000000000026224000000000CNR9734/003              091000007281019807LUIZ FERNANDO DA SILVA                            000000000000000                           
1040001300384U 02000000000000000000000000000000000000000000000000000000000000000000000000000000000000000000000000000000000000000000000000300420180000000000003004201800000000000000000000000000000000000000000000000000000000000000000000       
1040001300385T 020000008821120000000   1400000003641042581CPG 425/001    05052018000000000007240000000000CPG 425/001              091000006506650826ORIVALDO CASTANHA FILHO                           000000000000000                           
1040001300386U 02000000000000000000000000000000000000000000000000000000000000000000000000000000000000000000000000000000000000000000000000300420180000000000003004201800000000000000000000000000000000000000000000000000000000000000000000       
1040001300387T 020000008821120000000   1400000337900000501CPG2018/005    15052018000000000025330000000000CPG2018/005              091000024934277854ALEXANDRE MANUEL                                  000000000000000                           
1040001300388U 02000000000000000000000000000000000000000000000000000000000000000000000000000000000000000000000000000000000000000000000000300420180000000000003004201800000000000000000000000000000000000000000000000000000000000000000000       
1040001300389T 020000008821120000000   1400000364100000581CPG4241/005    15052018000000000015000000000000CPG4241/005              091000006506650826ORIVALDO CASTANHA FILHO                           000000000000000                           
1040001300390U 02000000000000000000000000000000000000000000000000000000000000000000000000000000000000000000000000000000000000000000000000300420180000000000003004201800000000000000000000000000000000000000000000000000000000000000000000       
1040001300391T 020000008821120000000   1400000003379042571CPG425/001     05052018000000000014480000000000CPG425/001               091000024934277854ALEXANDRE MANUEL                                  000000000000000                           
1040001300392U 02000000000000000000000000000000000000000000000000000000000000000000000000000000000000000000000000000000000000000000000000300420180000000000003004201800000000000000000000000000000000000000000000000000000000000000000000       
1040001300393T 020000008821120000000   1400000157400000591CPJ3433/005    15052018000000000025813000000000CPJ3433/005              091000004109130816ELEUTERIO PINTO DE CAMARGO NETO                   000000000000000                           
1040001300394U 02000000000000000000000000000000000000000000000000000000000000000000000000000000000000000000000000000000000000000000000000300420180000000000003004201800000000000000000000000000000000000000000000000000000000000000000000       
1040001300395T 020000008821120000000   1400000001574042561CPJ425/001     05052018000000000014480000000000CPJ425/001               091000004109130816ELEUTERIO PINTO DE CAMARGO NETO                   000000000000000                           
1040001300396U 02000000000000000000000000000000000000000000000000000000000000000000000000000000000000000000000000000000000000000000000000300420180000000000003004201800000000000000000000000000000000000000000000000000000000000000000000       
1040001300397T 020000008821120000000   1400000004018042541CPN425/001     05052018000000000014480000000000CPN425/001               092009411473000156JOSE CLAUDIO TAZINAFO   ME                        000000000000000A4                         
1040001300398U 02000000000000000000000000000000000000000000000000000000000000000000000000000000000000000000000000000000000000000000000000300420180000000000003004201800000000000000000000000000000000000000000000000000000000000000000000       
1040001300399T 020000008821120000000   1400000401800000501CPN4708/005    15052018000000000023000000000000CPN4708/005              092009411473000156JOSE CLAUDIO TAZINAFO   ME                        000000000000000A4                         
1040001300400U 02000000000000000000000000000000000000000000000000000000000000000000000000000000000000000000000000000000000000000000000000300420180000000000003004201800000000000000000000000000000000000000000000000000000000000000000000       
1040001300401T 020000008821120000000   1400000004376042551CPO425/001     05052018000000000007240000000000CPO425/001               092010525486000135J C DOS SANTOS SALTO   ME                         000000000000000                           
1040001300402U 02000000000000000000000000000000000000000000000000000000000000000000000000000000000000000000000000000000000000000000000000300420180000000000003004201800000000000000000000000000000000000000000000000000000000000000000000       
1040001300403T 020000008821120000000   1400000437600000501CPO6852/005    15052018000000000015538000000000CPO6852/005              092010525486000135J C DOS SANTOS SALTO   ME                         000000000000000                           
1040001300404U 02000000000000000000000000000000000000000000000000000000000000000000000000000000000000000000000000000000000000000000000000300420180000000000003004201800000000000000000000000000000000000000000000000000000000000000000000       
1040001300405T 020000008821120000000   1400000248800000501CPR1912/005    15052018000000000008289000000000CPR1912/005              091000007330355828PEDRO TADEU INACIO                                000000000000000                           
1040001300406U 02000000000000000000000000000000000000000000000000000000000000000000000000000000000000000000000000000000000000000000000000300420180000000000003004201800000000000000000000000000000000000000000000000000000000000000000000       
1040001300407T 020000008821120000000   1400000002488042571CPR425/001     05052018000000000007240000000000CPR425/001               091000007330355828PEDRO TADEU INACIO                                000000000000000                           
1040001300408U 02000000000000000000000000000000000000000000000000000000000000000000000000000000000000000000000000000000000000000000000000300420180000000000003004201800000000000000000000000000000000000000000000000000000000000000000000       
1040001300409T 020000008821120000000   1400000413400000501CQH2021/005    15052018000000000022939000000000CQH2021/005              092005850997000192BBR TRANSPORTES LTDA   ME                         000000000000000                           
1040001300410U 02000000000000000000000000000000000000000000000000000000000000000000000000000000000000000000000000000000000000000000000000300420180000000000003004201800000000000000000000000000000000000000000000000000000000000000000000       
1040001300411T 020000008821120000000   1400000004134042561CQH425/001     05052018000000000014480000000000CQH425/001               092005850997000192BBR TRANSPORTES LTDA   ME                         000000000000000                           
1040001300412U 02000000000000000000000000000000000000000000000000000000000000000000000000000000000000000000000000000000000000000000000000300420180000000000003004201800000000000000000000000000000000000000000000000000000000000000000000       
