03300000        2023566251000133011710130046627     007651732           RASTREADORES PROTEGE LTDA ME  BANCO SANTANDER (BRASIL) S/A            209022018      000497040                                                                         T
03344731T01  040 2023566251000133007651732           011710130046627     RASTREADORES PROTEGE LTDA ME                                                                                  0000049709022018                                         
0334473300001T 17011710130046627        00000001778901               0902201800000000001519534177610                         002000000000000000                                        01300466270000000000006600400000000                      
0334473300002U 170000000000000000000000000000000000000000000000000000000000000000000000151950000000000151950000000000000000000000000000000902201814022018000000000000000000000000000                              000                           
0334473300003T 17011710130046627        00000001969081               0902201800000000001188534184250                         002000000000000000                                        01300466270000000000006600400000000                      
0334473300004U 170000000000000000000000000000000000000000000000000000000000000000000000118850000000000118850000000000000000000000000000000902201814022018000000000000000000000000000                              000                           
0334473300005T 06011710130046627        00000002102502ALT9987011     3001201800000000000650003306785                         001000028890028882ALVARO HENRIQUES DE SIQUEIRA            01300466270000000000000000300000000                      
0334473300006U 060000000000001300000000000000000000000000000000000000000000000000000000066300000000000066300000000000000000000000000000000902201814022018000000000000000000000000000                              000                           
0334473300007T 06011710130046627        00000002109782GXH8106001     3001201800000000001300023725610                         001000033345514826ANDERSON APARECIDO DE SOUZA             01300466270000000000000000400000000                      
0334473300008U 060000000000002600000000000000000000000000000000000000000000000000000000132600000000000132600000000000000000000000000000000902201814022018000000000000000000000000000                              000                           
0334473300009T 17011710130046627        00000002394881               0902201800000000001300034192620                         002000000000000000                                        01300466270000000000006600400000000                      
0334473300010U 170000000000000000000000000000000000000000000000000000000000000000000000130000000000000130000000000000000000000000000000000902201814022018000000000000000000000000000                              000                           
0334473300011T 17011710130046627        00000002409071               0902201800000000000650034196590                         002000000000000000                                        01300466270000000000006600400000000                      
0334473300012U 170000000000000000000000000000000000000000000000000000000000000000000000065000000000000065000000000000000000000000000000000902201814022018000000000000000000000000000                              000                           
0334473300013T 17011710130046627        00000002413851               0902201800000000000590034100140                         002000000000000000                                        01300466270000000000006600400000000                      
0334473300014U 170000000000000000000000000000000000000000000000000000000000000000000000059000000000000059000000000000000000000000000000000902201814022018000000000000000000000000000                              000                           
0334473300015T 06011710130046627        00000002418732ANJ9998004     1001201800000000000490010403720                         002016835827000155DA HORA COMERCIO                        01300466270000000000000000400000000                      
0334473300016U 060000000000010910000000000000000000000000000000000000000000000000000000059910000000000059910000000000000000000000000000000902201814022018000000000000000000000000000                              000                           
0334473300017T 17011710130046627        00000002430861               0902201800000000000490010433710                         002000000000000000                                        01300466270000000000006600400000000                      
0334473300018U 170000000000000000000000000000000000000000000000000000000000000000000000049000000000000049000000000000000000000000000000000902201814022018000000000000000000000000000                              000                           
0334473300019T 17011710130046627        00000002433291               0902201800000000000650023755480                         002000000000000000                                        01300466270000000000006600400000000                      
0334473300020U 170000000000000000000000000000000000000000000000000000000000000000000000065000000000000065000000000000000000000000000000000902201814022018000000000000000000000000000                              000                           
0334473300021T 17011710130046627        00000002435661               0902201800000000000590038903490                         002000000000000000                                        01300466270000000000006600400000000                      
0334473300022U 170000000000000000000000000000000000000000000000000000000000000000000000059000000000000059000000000000000000000000000000000902201814022018000000000000000000000000000                              000                           
0334473300023T 17011710130046627        00000002442791               0902201800000000000650010406370                         002000000000000000                                        01300466270000000000006600400000000                      
0334473300024U 170000000000000000000000000000000000000000000000000000000000000000000000065000000000000065000000000000000000000000000000000902201814022018000000000000000000000000000                              000                           
0334473300025T 06011710130046627        00000002461822EJV4407        3001201800000000000844423723660                         001000013565915153ANTONIO GILDASIO MENDES                 01300466270000000000000000400000000                      
0334473300026U 060000000000001700000000000000000000000000000000000000000000000000000000086140000000000086140000000000000000000000000000000902201814022018000000000000000000000000000                              000                           
0334473300027T 06011710130046627        00000002605762KOM5988001     3001201800000000001139010441540                         001000022395299898ANDERSON VIEIRA DE QUEIROZ              01300466270000000000000000400000000                      
0334473300028U 060000000000002190000000000000000000000000000000000000000000000000000000116090000000000116090000000000000000000000000000000902201814022018000000000000000000000000000                              000                           
0334473300029T 17011710130046627        00000002828121               0902201800000000001139023712200                         002000000000000000                                        01300466270000000000006600400000000                      
0334473300030U 170000000000000000000000000000000000000000000000000000000000000000000000113900000000000113900000000000000000000000000000000902201814022018000000000000000000000000000                              000                           
0334473300031T 06011710130046627        00000002834012DDP3933011     3001201800000000001139010431280                         001000091403235872JURANDIR MATILDE DE SOUZA               01300466270000000000000000400000000                      
0334473300032U 060000000000002190000000000000000000000000000000000000000000000000000000116090000000000116090000000000000000000000000000000902201814022018000000000000000000000000000                              000                           
0334473300033T 06011710130046627        00000002883492BWE9943011     3001201800000000001149010408990                         001000015148747846ROBINSON RICHARD MASSOLI                01300466270000000000000000400000000                      
0334473300034U 060000000000002300000000000000000000000000000000000000000000000000000000117200000000000117200000000000000000000000000000000902201814022018000000000000000000000000000                              000                           
0334473300035T 06011710130046627        00000002894262BWS9522011     3001201800000000001149075644230                         001000004886539912ROGERIO DO NASCIMENTO AMARAL            01300466270000000000000000400000000                      
0334473300036U 060000000000002300000000000000000000000000000000000000000000000000000000117200000000000117200000000000000000000000000000000902201814022018000000000000000000000000000                              000                           
0334473300037T 17011710130046627        00000003095161               0902201800000000001200010405810                         002000000000000000                                        01300466270000000000006600400000000                      
0334473300038U 170000000000000000000000000000000000000000000000000000000000000000000000120000000000000120000000000000000000000000000000000902201814022018000000000000000000000000000                              000                           
0334473300039T 17011710130046627        00000003132701               0902201800000000001272910441540                         002000000000000000                                        01300466270000000000006600400000000                      
0334473300040U 170000000000000000000000000000000000000000000000000000000000000000000000127290000000000127290000000000000000000000000000000902201814022018000000000000000000000000000                              000                           
03344735         0000400001620000000000195661700000000000000000000000000000000000000000000000000000000000000000000000000493                                                                                                                     
03344739         000001000044                                                                                                                                                                                                                   
