03300000        2023566251000133011710130046627     007651732           RASTREADORES PROTEGE LTDA ME  BANCO SANTANDER (BRASIL) S/A            202022018      000492040                                                                         T
03392181T01  040 2023566251000133007651732           011710130046627     RASTREADORES PROTEGE LTDA ME                                                                                  0000049202022018                                         
0339218300001T 06011710130046627        00000002082052EVK1387001     3001201800000000000650034154170                         001000068145454891ADEMIR PORTELLA DE BIASO                01300466270000000000000000400000000                      
0339218300002U 060000000000000390000000000000000000000000000000000000000000000000000000065390000000000065390000000000000000000000000000000202201805022018000000000000000000000000000                              000                           
0339218300003T 06011710130046627        00000002115752CUD7270001     3001201800000000000650034154170                         001000027110252841ANDERSON PORTELLA DE BIASO              01300466270000000000000000400000000                      
0339218300004U 060000000000000390000000000000000000000000000000000000000000000000000000065390000000000065390000000000000000000000000000000202201805022018000000000000000000000000000                              000                           
0339218300005T 06011710130046627        00000002149812BYH9253001     3001201800000000000650023716270                         001000065535340804CARLOS ROBERTO DA SILVA                 01300466270000000000000000400000000                      
0339218300006U 060000000000000390000000000000000000000000000000000000000000000000000000065390000000000065390000000000000000000000000000000202201805022018000000000000000000000000000                              000                           
0339218300007T 06011710130046627        00000002322702EPU6311001     3001201800000000000650023725750                         001000025552107845MARCIO BALESTRIN DE CAMARGO             01300466270000000000000000400000000                      
0339218300008U 060000000000000390000000000000000000000000000000000000000000000000000000065390000000000065390000000000000000000000000000000202201805022018000000000000000000000000000                              000                           
0339218300009T 17011710130046627        00000002407881               0202201800000000000490000118630                         002000000000000000                                        01300466270000000000006600400000000                      
0339218300010U 170000000000000000000000000000000000000000000000000000000000000000000000049000000000000049000000000000000000000000000000000202201805022018000000000000000000000000000                              000                           
0339218300011T 06011710130046627        00000002427132LPM4055003     1201201800000000001300023717670                         001000008214667801JOSE NILSON FERREIRA DANTAS             01300466270000000000000000400000000                      
0339218300012U 060000000000005460000000000000000000000000000000000000000000000000000000135460000000000135460000000000000000000000000000000202201805022018000000000000000000000000000                              000                           
0339218300013T 06011710130046627        00000002598532EQK8136001     3001201800000000001139003302380                         001000012570436844ANA PAULA DE OLIVEIRA                   01300466270000000000000000300000000                      
0339218300014U 060000000000000650000000000000000000000000000000000000000000000000000000114550000000000114550000000000000000000000000000000202201805022018000000000000000000000000000                              000                           
0339218300015T 06011710130046627        00000002615302OMB7473001     3001201800000000001139000128160                         001000003511097576ANTONIO GABRIEL SALOMAO                 01300466270000000000000000400000000                      
0339218300016U 060000000000000650000000000000000000000000000000000000000000000000000000114550000000000114550000000000000000000000000000000202201805022018000000000000000000000000000                              000                           
0339218300017T 06011710130046627        00000002674062CZB2823011     3001201800000000001149010416530                         001000099792478868DANIEL AMADO                            01300466270000000000000000400000000                      
0339218300018U 060000000000000690000000000000000000000000000000000000000000000000000000115590000000000115590000000000000000000000000000000202201805022018000000000000000000000000000                              000                           
0339218300019T 06011710130046627        00000002763162EZI2399001     3001201800000000001489010403810                         001000005455008935HELTON FERNANDO MAGALHAES               01300466270000000000000000400000000                      
0339218300020U 060000000000000860000000000000000000000000000000000000000000000000000000149760000000000149760000000000000000000000000000000202201805022018000000000000000000000000000                              000                           
0339218300021T 06011710130046627        00000002765532FGS1443001     3001201800000000001139003307765                         001000033299714520HERMES JESUS DO NASCIMENTO              01300466270000000000000000300000000                      
0339218300022U 060000000000000650000000000000000000000000000000000000000000000000000000114550000000000114550000000000000000000000000000000202201805022018000000000000000000000000000                              000                           
0339218300023T 06011710130046627        00000002807552MZX2858011     3001201800000000001365003337362                         001000026015505893IVANILDO SANTOS                         01300466270000000000000000300000000                      
0339218300024U 060000000000000800000000000000000000000000000000000000000000000000000000137300000000000137300000000000000000000000000000000202201805022018000000000000000000000000000                              000                           
0339218300025T 06011710130046627        00000002810002AWS4917001     3001201800000000001139010409980                         001000049117246415JOSE LEVI GOMES DO EGITO                01300466270000000000000000400000000                      
0339218300026U 060000000000000650000000000000000000000000000000000000000000000000000000114550000000000114550000000000000000000000000000000202201805022018000000000000000000000000000                              000                           
0339218300027T 06011710130046627        00000002879972FOZ3378001     3001201800000000001139003309962                         001000038934307846ROBERTO VARELLA PEREIRA DE LIMA         01300466270000000000000000300000000                      
0339218300028U 060000000000000650000000000000000000000000000000000000000000000000000000114550000000000114550000000000000000000000000000000202201805022018000000000000000000000000000                              000                           
0339218300029T 06011710130046627        00000002953022DRF8077011     3001201800000000001139010440110                         001000022870055870MARCOS VINICIUS PEREIRA DE AGUIAR       01300466270000000000000000400000000                      
0339218300030U 060000000000000650000000000000000000000000000000000000000000000000000000114550000000000114550000000000000000000000000000000202201805022018000000000000000000000000000                              000                           
0339218300031T 06011710130046627        00000002962602AFR5122001     3001201800000000001139010433870                         001000010098235907MATHEUS HENRIQUE DOS REIS               01300466270000000000000000400000000                      
0339218300032U 060000000000000650000000000000000000000000000000000000000000000000000000114550000000000114550000000000000000000000000000000202201805022018000000000000000000000000000                              000                           
0339218300033T 17011710130046627        00000002977041               0202201800000000001496200114320                         002000000000000000                                        01300466270000000000006600400000000                      
0339218300034U 170000000000000000000000000000000000000000000000000000000000000000000000149620000000000149620000000000000000000000000000000202201805022018000000000000000000000000000                              000                           
0339218300035T 17011710130046627        00000003055021               0202201800000000001246234169240                         002000000000000000                                        01300466270000000000006600400000000                      
0339218300036U 170000000000000000000000000000000000000000000000000000000000000000000000124620000000000124620000000000000000000000000000000202201805022018000000000000000000000000000                              000                           
0339218300037T 17011710130046627        00000003068001               0202201800000000004550010403470                         002000000000000000                                        01300466270000000000006600400000000                      
0339218300038U 170000000000000000000000000000000000000000000000000000000000000000000000455000000000000455000000000000000000000000000000000202201805022018000000000000000000000000000                              000                           
0339218300039T 17011710130046627        00000003068191               0202201800000000000654810403470                         002000000000000000                                        01300466270000000000006600400000000                      
0339218300040U 170000000000000000000000000000000000000000000000000000000000000000000000065480000000000065480000000000000000000000000000000202201805022018000000000000000000000000000                              000                           
0339218300041T 17011710130046627        00000003107781               0202201800000000000729034162880                         002000000000000000                                        01300466270000000000006600400000000                      
0339218300042U 170000000000000000000000000000000000000000000000000000000000000000000000072900000000000072900000000000000000000000000000000202201805022018000000000000000000000000000                              000                           
0339218300043T 17011710130046627        00000003108081               0202201800000000001332110409980                         002000000000000000                                        01300466270000000000006600400000000                      
0339218300044U 170000000000000000000000000000000000000000000000000000000000000000000000133210000000000133210000000000000000000000000000000202201805022018000000000000000000000000000                              000                           
03392185         0000440002230000000000262998600000000000000000000000000000000000000000000000000000000000000000000000000488                                                                                                                     
03392189         000001000048                                                                                                                                                                                                                   
