03300000        2023566251000133011710130046627     007651732           RASTREADORES PROTEGE LTDA ME  BANCO SANTANDER (BRASIL) S/A            208022018      000496040                                                                         T
03319881T01  040 2023566251000133007651732           011710130046627     RASTREADORES PROTEGE LTDA ME                                                                                  0000049608022018                                         
0331988300001T 17011710130046627        00000002029241ERU9835        3012201700000000001139023708150                         001000042440801801ANANDA ARAUJO TERZI DE SOUZA            01300466270000000000006600400000000                      
0331988300002U 170000000000013550000000000000000000000000000000000000000000000000000000127450000000000127450000000000000000000000000000000802201809022018000000000000000000000000000                              000                           
0331988300003T 06011710130046627        00000002029912DRT8951ACORD0030102201800000000002543310448430                         001000012310630683DENILDO FAUSTINO DA SILVA               01300466270000000000000000400000000                      
0331988300004U 060000000000003950000000000000000000000000000000000000000000000000000000258280000000000258280000000000000000000000000000000802201809022018000000000000000000000000000                              000                           
0331988300005T 17011710130046627        00000002145151               0802201800000000000650023765360                         002000000000000000                                        01300466270000000000006600400000000                      
0331988300006U 170000000000000000000000000000000000000000000000000000000000000000000000065000000000000065000000000000000000000000000000000802201809022018000000000000000000000000000                              000                           
0331988300007T 06011710130046627        00000002193392AUQ2814001     3001201800000000001300010447140                         001000032553721862EDUARDO CANANEA DE OLIVEIRA             01300466270000000000000000400000000                      
0331988300008U 060000000000002340000000000000000000000000000000000000000000000000000000132340000000000132340000000000000000000000000000000802201809022018000000000000000000000000000                              000                           
0331988300009T 06011710130046627        00000002200512EPW1272001     3001201800000000000650034180780                         001000028730169810ELENILTON DE NOVAES VIEIRA              01300466270000000000000000400000000                      
0331988300010U 060000000000001170000000000000000000000000000000000000000000000000000000066170000000000066170000000000000000000000000000000802201809022018000000000000000000000000000                              000                           
0331988300011T 17011710130046627        00000002383501               0802201800000000000590023701180                         002000000000000000                                        01300466270000000000006600400000000                      
0331988300012U 170000000000000000000000000000000000000000000000000000000000000000000000059000000000000059000000000000000000000000000000000802201809022018000000000000000000000000000                              000                           
0331988300013T 17011710130046627        00000002424891               0802201800000000000590034166440                         002000000000000000                                        01300466270000000000006600400000000                      
0331988300014U 170000000000000000000000000000000000000000000000000000000000000000000000059000000000000059000000000000000000000000000000000802201809022018000000000000000000000000000                              000                           
0331988300015T 17011710130046627        00000002428451               0802201800000000001300034105540                         002000000000000000                                        01300466270000000000006600400000000                      
0331988300016U 170000000000000000000000000000000000000000000000000000000000000000000000130000000000000130000000000000000000000000000000000802201809022018000000000000000000000000000                              000                           
0331988300017T 17011710130046627        00000002429691               0802201800000000000650010412820                         002000000000000000                                        01300466270000000000006600400000000                      
0331988300018U 170000000000000000000000000000000000000000000000000000000000000000000000065000000000000065000000000000000000000000000000000802201809022018000000000000000000000000000                              000                           
0331988300019T 06011710130046627        00000002524922CLK6423001     3001201800000000000650003301902                         001000094808597691UILIAM ROSA COUTINHO                    01300466270000000000000000300000000                      
0331988300020U 060000000000001170000000000000000000000000000000000000000000000000000000066170000000000066170000000000000000000000000000000802201809022018000000000000000000000000000                              000                           
0331988300021T 17011710130046627        00000002561101               0802201800000000000650023715560                         002000000000000000                                        01300466270000000000006600400000000                      
0331988300022U 170000000000000000000000000000000000000000000000000000000000000000000000065000000000000065000000000000000000000000000000000802201809022018000000000000000000000000000                              000                           
0331988300023T 06011710130046627        00000002686232DRT8951001     3001201800000000001139010448430                         001000012310630683DENILDO FAUSTINO DA SILVA               01300466270000000000000000400000000                      
0331988300024U 060000000000001970000000000000000000000000000000000000000000000000000000115870000000000115870000000000000000000000000000000802201809022018000000000000000000000000000                              000                           
0331988300025T 06011710130046627        00000002735542FAS2522001     3001201800000000001489010430500                         001000044526165859FELIPE EXPEDITO SOUZA                   01300466270000000000000000400000000                      
0331988300026U 060000000000002600000000000000000000000000000000000000000000000000000000151500000000000151500000000000000000000000000000000802201809022018000000000000000000000000000                              000                           
0331988300027T 17011710130046627        00000002781901               0802201800000000001139023714150                         002000000000000000                                        01300466270000000000006600400000000                      
0331988300028U 170000000000000000000000000000000000000000000000000000000000000000000000113900000000000113900000000000000000000000000000000802201809022018000000000000000000000000000                              000                           
0331988300029T 06011710130046627        00000002896632EIN7970001     3001201800000000001139010406050                         001000031972208896ROBERTO RODRIGUES VIANA                 01300466270000000000000000400000000                      
0331988300030U 060000000000001970000000000000000000000000000000000000000000000000000000115870000000000115870000000000000000000000000000000802201809022018000000000000000000000000000                              000                           
0331988300031T 06011710130046627        00000003003492ETF7638001     3001201800000000001139034145300                         001000010784292191SEBASTIAO MARTINS BARBOSA FILHO         01300466270000000000000000400000000                      
0331988300032U 060000000000001970000000000000000000000000000000000000000000000000000000115870000000000115870000000000000000000000000000000802201809022018000000000000000000000000000                              000                           
0331988300033T 17011710130046627        00000003113081               0802201800000000001279734104450                         002000000000000000                                        01300466270000000000006600400000000                      
0331988300034U 170000000000000000000000000000000000000000000000000000000000000000000000127970000000000127970000000000000000000000000000000802201809022018000000000000000000000000000                              000                           
0331988300035T 17011710130046627        00000003118121               0802201800000000000490010412820                         002000000000000000                                        01300466270000000000006600400000000                      
0331988300036U 170000000000000000000000000000000000000000000000000000000000000000000000049000000000000049000000000000000000000000000000000802201809022018000000000000000000000000000                              000                           
0331988300037T 17011710130046627        00000003118201               0802201800000000000490010412820                         002000000000000000                                        01300466270000000000006600400000000                      
0331988300038U 170000000000000000000000000000000000000000000000000000000000000000000000049000000000000049000000000000000000000000000000000802201809022018000000000000000000000000000                              000                           
0331988300039T 17011710130046627        00000003120531               0802201800000000000465510429010                         002000000000000000                                        01300466270000000000006600400000000                      
0331988300040U 170000000000000000000000000000000000000000000000000000000000000000000000046550000000000046550000000000000000000000000000000802201809022018000000000000000000000000000                              000                           
03319885         0000400001690000000000203032100000000000000000000000000000000000000000000000000000000000000000000000000492                                                                                                                     
03319889         000001000044                                                                                                                                                                                                                   
