03300000        2023566251000133011710130046627     007651732           RASTREADORES PROTEGE LTDA ME  BANCO SANTANDER (BRASIL) S/A            216022018      000500040                                                                         T
03386021T01  040 2023566251000133007651732           011710130046627     RASTREADORES PROTEGE LTDA ME                                                                                  0000050016022018                                         
0338602300001T 06011710130046627        00000002026572FEB6021        3012201700000000001429923719620                         001000014135722865VALTER ALVES DE LIMA                    01300466270000000000000000400000000                      
0338602300002U 060000000000015470000000000000000000000000000000000000000000000000000000158460000000000158460000000000000000000000000000001602201819022018000000000000000000000000000                              000                           
0338602300003T 06011710130046627        00000002075002EUZ1901        3012201700000000001638010412340                         001000046595274841GEOVANE PRESTES BOAVA                   01300466270000000000000000400000000                      
0338602300004U 060000000000014750000000000000000000000000000000000000000000000000000000178550000000000178550000000000000000000000000000001602201819022018000000000000000000000000000                              000                           
0338602300005T 06011710130046627        00000002379062EJW8110        3012201700000000000410434100240                         001000026673701803EDSON MESSIAS MARCELINO                 01300466270000000000000000400000000                      
0338602300006U 060000000000014750000000000000000000000000000000000000000000000000000000055790000000000055790000000000000000000000000000001602201819022018000000000000000000000000000                              000                           
0338602300007T 17011710130046627        00000002417681               1602201800000000000650010443770                         002000000000000000                                        01300466270000000000006600400000000                      
0338602300008U 170000000000000000000000000000000000000000000000000000000000000000000000065000000000000065000000000000000000000000000000001602201819022018000000000000000000000000000                              000                           
0338602300009T 06011710130046627        00000002425942EZB8874003     2001201800000000000790010433240                         001000011700031848JOSE CARLOS DAMASCENO RIBEIRO           01300466270000000000000000400000000                      
0338602300010U 060000000000000000000000000000000000000000000000000000000000000000000000079000000000000079000000000000000000000000000000001602201819022018000000000000000000000000000                              000                           
0338602300011T 06011710130046627        00000002557342EJW8110001     3001201800000000000650034100240                         001000026673701803EDSON MESSIAS MARCELINO                 01300466270000000000000000400000000                      
0338602300012U 060000000000002210000000000000000000000000000000000000000000000000000000067210000000000067210000000000000000000000000000001602201819022018000000000000000000000000000                              000                           
0338602300013T 06011710130046627        00000002582882OQB4090001     3001201800000000001139034174510                         001000026755328863ALEXANDRE PEREIRA FALCAO                01300466270000000000000000400000000                      
0338602300014U 060000000000003730000000000000000000000000000000000000000000000000000000117630000000000117630000000000000000000000000000001602201819022018000000000000000000000000000                              000                           
0338602300015T 17011710130046627        00000002880041               1602201800000000001139034177520                         002000000000000000                                        01300466270000000000006600400000000                      
0338602300016U 170000000000000000000000000000000000000000000000000000000000000000000000113900000000000113900000000000000000000000000000001602201819022018000000000000000000000000000                              000                           
0338602300017T 17011710130046627        00000003059521               1602201800000000001139034116620                         002000000000000000                                        01300466270000000000006600400000000                      
0338602300018U 170000000000000000000000000000000000000000000000000000000000000000000000113900000000000113900000000000000000000000000000001602201819022018000000000000000000000000000                              000                           
0338602300019T 17011710130046627        00000003145791               1602201800000000000650034185380                         002000000000000000                                        01300466270000000000006600400000000                      
0338602300020U 170000000000000000000000000000000000000000000000000000000000000000000000065000000000000065000000000000000000000000000000001602201819022018000000000000000000000000000                              000                           
0338602300021T 17011710130046627        00000003145871               1602201800000000000650034185380                         002000000000000000                                        01300466270000000000006600400000000                      
0338602300022U 170000000000000000000000000000000000000000000000000000000000000000000000065000000000000065000000000000000000000000000000001602201819022018000000000000000000000000000                              000                           
0338602300023T 17011710130046627        00000003145951               1602201800000000000650034185380                         002000000000000000                                        01300466270000000000006600400000000                      
0338602300024U 170000000000000000000000000000000000000000000000000000000000000000000000065000000000000065000000000000000000000000000000001602201819022018000000000000000000000000000                              000                           
0338602300025T 17011710130046627        00000003146091               1602201800000000000650034185380                         002000000000000000                                        01300466270000000000006600400000000                      
0338602300026U 170000000000000000000000000000000000000000000000000000000000000000000000065000000000000065000000000000000000000000000000001602201819022018000000000000000000000000000                              000                           
0338602300027T 17011710130046627        00000003148381               1602201800000000000650034185380                         002000000000000000                                        01300466270000000000006600400000000                      
0338602300028U 170000000000000000000000000000000000000000000000000000000000000000000000065000000000000065000000000000000000000000000000001602201819022018000000000000000000000000000                              000                           
03386025         0000280001520000000000184632700000000000000000000000000000000000000000000000000000000000000000000000000496                                                                                                                     
03386029         000001000032                                                                                                                                                                                                                   
