03300000        2023566251000133011710130046627     007651732           RASTREADORES PROTEGE LTDA ME  BANCO SANTANDER (BRASIL) S/A            201022018      000491040                                                                         T
03301121T01  040 2023566251000133007651732           011710130046627     RASTREADORES PROTEGE LTDA ME                                                                                  0000049101022018                                         
0330112300001T 06011710130046627        000000021306322 PLACAS025    3001201800000000002600010407980                         002000638481000165AUGUSTINO DE FATIMA DOS SANTOS M.E      01300466270000000000000000400000000                      
0330112300002U 060000000000001010000000000000000000000000000000000000000000000000000000261010000000000261010000000000000000000000000000000102201802022018000000000000000000000000000                              000                           
0330112300003T 06011710130046627        00000002162162CLU3180001     3001201800000000001950023708880                         001000021872467873CLEBER JACKSON TAVARES                  01300466270000000000000000400000000                      
0330112300004U 060000000000000760000000000000000000000000000000000000000000000000000000195760000000000195760000000000000000000000000000000102201802022018000000000000000000000000000                              000                           
0330112300005T 06011710130046627        00000002164532CLK / BWI001   3001201800000000001300010442110                         001000024949639153CLOVIS ANTONIO PACHECO DE MORAES        01300466270000000000000000400000000                      
0330112300006U 060000000000000520000000000000000000000000000000000000000000000000000000130520000000000130520000000000000000000000000000000102201802022018000000000000000000000000000                              000                           
0330112300007T 06011710130046627        00000002166902HIL7447011     3001201800000000001300034107270                         002019036708000120COMERCIAL BOA SAFRA ITABERA LTDA - ME   01300466270000000000000000400000000                      
0330112300008U 060000000000000520000000000000000000000000000000000000000000000000000000130520000000000130520000000000000000000000000000000102201802022018000000000000000000000000000                              000                           
0330112300009T 06011710130046627        00000002219702ABI8280001     3001201800000000000650010417780                         001000028440808801FERNANDO CAPARROS                       01300466270000000000000000400000000                      
0330112300010U 060000000000000260000000000000000000000000000000000000000000000000000000065260000000000065260000000000000000000000000000000102201802022018000000000000000000000000000                              000                           
0330112300011T 06011710130046627        00000002236542AMV / AMR001   3001201800000000001300034112920                         002026518440000129GIZELE REGINA DA ROSA TRANSPORTES - ME  01300466270000000000000000400000000                      
0330112300012U 060000000000000520000000000000000000000000000000000000000000000000000000130520000000000130520000000000000000000000000000000102201802022018000000000000000000000000000                              000                           
0330112300013T 06011710130046627        00000002259322FCB3935001     3001201800000000000650003345624                         001000012707158879JOAO VICENTE VACCARI                    01300466270000000000000000300000000                      
0330112300014U 060000000000000260000000000000000000000000000000000000000000000000000000065260000000000065260000000000000000000000000000000102201802022018000000000000000000000000000                              000                           
0330112300015T 06011710130046627        00000002265302DVT3791001     3001201800000000001300003300876                         001000015645108833JORGE EDUARDO DA SILVA                  01300466270000000000000000300000000                      
0330112300016U 060000000000000520000000000000000000000000000000000000000000000000000000130520000000000130520000000000000000000000000000000102201802022018000000000000000000000000000                              000                           
0330112300017T 17011710130046627        00000002271371               0102201800000000000654810431080                         002000000000000000                                        01300466270000000000006600400000000                      
0330112300018U 170000000000000000000000000000000000000000000000000000000000000000000000065480000000000065480000000000000000000000000000000102201802022018000000000000000000000000000                              000                           
0330112300019T 17011710130046627        00000002386001               0102201800000000001798123727370                         002000000000000000                                        01300466270000000000006600400000000                      
0330112300020U 170000000000000000000000000000000000000000000000000000000000000000000000179810000000000179810000000000000000000000000000000102201802022018000000000000000000000000000                              000                           
0330112300021T 06011710130046627        00000002459412FQZ7450        3001201800000000001593810403750                         001000003683858923CLEBERSON MAURICIO VIEIRA               01300466270000000000000000400000000                      
0330112300022U 060000000000000620000000000000000000000000000000000000000000000000000000160000000000000160000000000000000000000000000000000102201802022018000000000000000000000000000                              000                           
0330112300023T 06011710130046627        00000002470732MCE4071003     3001201800000000001139023712200                         001000021346655804ADRIANA APARECIDA CALIFF                01300466270000000000000000400000000                      
0330112300024U 060000000000000430000000000000000000000000000000000000000000000000000000114330000000000114330000000000000000000000000000000102201802022018000000000000000000000000000                              000                           
0330112300025T 06011710130046627        00000002484012DPB4546001     3001201800000000000650010432120                         001000029308375864RAFAEL GARBES FEITOSA                   01300466270000000000000000400000000                      
0330112300026U 060000000000000260000000000000000000000000000000000000000000000000000000065260000000000065260000000000000000000000000000000102201802022018000000000000000000000000000                              000                           
0330112300027T 06011710130046627        00000002512912GGM2124001     3001201800000000000650000116490                         001000078446678853TERCILIA COVRE FERREIRA                 01300466270000000000000000400000000                      
0330112300028U 060000000000000260000000000000000000000000000000000000000000000000000000065260000000000065260000000000000000000000000000000102201802022018000000000000000000000000000                              000                           
0330112300029T 06011710130046627        000000025189522PLACAS039     3001201800000000002600023733060                         002096170048000117TRANSPORTADORA LITA LTDA                01300466270000000000000000400000000                      
0330112300030U 060000000000001010000000000000000000000000000000000000000000000000000000261010000000000261010000000000000000000000000000000102201802022018000000000000000000000000000                              000                           
0330112300031T 06011710130046627        00000002636802EZD5186001     3001201800000000001139034162880                         001000039317415830BRUNO DE ALMEIDA                        01300466270000000000000000400000000                      
0330112300032U 060000000000000430000000000000000000000000000000000000000000000000000000114330000000000114330000000000000000000000000000000102201802022018000000000000000000000000000                              000                           
0330112300033T 06011710130046627        00000002644072EUD1155001     3001201800000000002129003322195                         001000029459679870CARLOS JOSE AIROLDE                     01300466270000000000000000300000000                      
0330112300034U 060000000000000840000000000000000000000000000000000000000000000000000000213740000000000213740000000000000000000000000000000102201802022018000000000000000000000000000                              000                           
0330112300035T 06011710130046627        00000002670402DQB9763011     3001201800000000001365003307285                         001000016911327806CRISTIANO ANDRADE  DE SENA              01300466270000000000000000300000000                      
0330112300036U 060000000000000530000000000000000000000000000000000000000000000000000000137030000000000137030000000000000000000000000000000102201802022018000000000000000000000000000                              000                           
0330112300037T 06011710130046627        00000002723532BIF3512011     3001201800000000001149010408990                         001000032346418897ELIZEU DA CRUZ LIRA                     01300466270000000000000000400000000                      
0330112300038U 060000000000000460000000000000000000000000000000000000000000000000000000115360000000000115360000000000000000000000000000000102201802022018000000000000000000000000000                              000                           
0330112300039T 06011710130046627        00000002741512KMJ6404011     3001201800000000001149023740300                         002022166343000163FIQUEIREDO E SOUZA MATERIAIS PARA CONSTR01300466270000000000006600400000000                      
0330112300040U 060000000000000000000000000000000000000000000000000000000000000000000000115130000000000115130000000000000000000000000000003101201801022018000000000000000000000000000                              000                           
0330112300041T 06011710130046627        00000002790212AQS-0417001    3001201800000000001139010438660                         001000053030575934JOSE APARECIDO DE JESUS FERNANDES       01300466270000000000000000400000000                      
0330112300042U 060000000000000430000000000000000000000000000000000000000000000000000000114330000000000114330000000000000000000000000000000102201802022018000000000000000000000000000                              000                           
0330112300043T 06011710130046627        00000002848402GCB2890001     3001201800000000001139023713280                         001000030853650870RAFAEL DE OLIVEIRA LEMOS                01300466270000000000000000400000000                      
0330112300044U 060000000000000430000000000000000000000000000000000000000000000000000000114330000000000114330000000000000000000000000000000102201802022018000000000000000000000000000                              000                           
0330112300045T 17011710130046627        00000002848581               0102201800000000001139023713280                         002000000000000000                                        01300466270000000000006600400000000                      
0330112300046U 170000000000000000000000000000000000000000000000000000000000000000000000113900000000000113900000000000000000000000000000000102201802022018000000000000000000000000000                              000                           
0330112300047T 17011710130046627        00000002905051               0102201800000000001849003339292                         002000000000000000                                        01300466270000000000006600300000000                      
0330112300048U 170000000000000450000000000000000000000000000000000000000000000000000000185350000000000185350000000000000000000000000000000102201802022018000000000000000000000000000                              000                           
0330112300049T 06011710130046627        00000002973482AXB9008001     3001201800000000003118010443410                         001000052523039915NELCIR INACIO NIENOV                    01300466270000000000000000400000000                      
0330112300050U 060000000000001220000000000000000000000000000000000000000000000000000000313020000000000313020000000000000000000000000000000102201802022018000000000000000000000000000                              000                           
0330112300051T 06011710130046627        00000002993832FMQ2375001     3001201800000000001139034181330                         001000041575581892PEDRO HENRIQUE VIANA GRIZZO             01300466270000000000000000400000000                      
0330112300052U 060000000000000430000000000000000000000000000000000000000000000000000000114330000000000114330000000000000000000000000000000102201802022018000000000000000000000000000                              000                           
0330112300053T 17011710130046627        00000003041821               0102201800000000001139003303905                         002000000000000000                                        01300466270000000000006600300000000                      
0330112300054U 170000000000000220000000000000000000000000000000000000000000000000000000114120000000000114120000000000000000000000000000000102201802022018000000000000000000000000000                              000                           
0330112300055T 17011710130046627        00000003069321               0102201800000000001239023701540                         002000000000000000                                        01300466270000000000006600400000000                      
0330112300056U 170000000000000000000000000000000000000000000000000000000000000000000000123900000000000123900000000000000000000000000000000102201802022018000000000000000000000000000                              000                           
0330112300057T 17011710130046627        00000003077501               0102201800000000001304823710410                         002000000000000000                                        01300466270000000000006600400000000                      
0330112300058U 170000000000000000000000000000000000000000000000000000000000000000000000130480000000000130480000000000000000000000000000000102201802022018000000000000000000000000000                              000                           
0330112300059T 17011710130046627        00000003081101               0102201800000000000343710415730                         002000000000000000                                        01300466270000000000006600400000000                      
0330112300060U 170000000000000000000000000000000000000000000000000000000000000000000000034370000000000034370000000000000000000000000000000102201802022018000000000000000000000000000                              000                           
0330112300061T 17011710130046627        00000003082341               0102201800000000000603034171310                         002000000000000000                                        01300466270000000000006600400000000                      
0330112300062U 170000000000000000000000000000000000000000000000000000000000000000000000060300000000000060300000000000000000000000000000000102201802022018000000000000000000000000000                              000                           
0330112300063T 17011710130046627        00000003105811               0102201800000000001640000169070                         002000000000000000                                        01300466270000000000006600400000000                      
0330112300064U 170000000000000000000000000000000000000000000000000000000000000000000000164000000000000164000000000000000000000000000000000102201802022018000000000000000000000000000                              000                           
0330112300065T 17011710130046627        00000003107351               0102201800000000000768700116490                         002000000000000000                                        01300466270000000000006600400000000                      
0330112300066U 170000000000000000000000000000000000000000000000000000000000000000000000076870000000000076870000000000000000000000000000000102201802022018000000000000000000000000000                              000                           
0330112300067T 17011710130046627        00000003107511               0102201800000000000837023722690                         002000000000000000                                        01300466270000000000006600400000000                      
0330112300068U 170000000000000000000000000000000000000000000000000000000000000000000000083700000000000083700000000000000000000000000000000102201802022018000000000000000000000000000                              000                           
0330112300069T 17011710130046627        00000003107601               0102201800000000000915123722690                         002000000000000000                                        01300466270000000000006600400000000                      
0330112300070U 170000000000000000000000000000000000000000000000000000000000000000000000091510000000000091510000000000000000000000000000000102201802022018000000000000000000000000000                              000                           
03301125         0000700002380000000000278874600000000000000000000000000000000000000000000000000000000000000000000000000487                                                                                                                     
03301129         000001000074                                                                                                                                                                                                                   
