03300000        2023566251000133011710130046627     007651732           RASTREADORES PROTEGE LTDA ME  BANCO SANTANDER (BRASIL) S/A            215022018      000499040                                                                         T
03341231T01  040 2023566251000133007651732           011710130046627     RASTREADORES PROTEGE LTDA ME                                                                                  0000049915022018                                         
0334123300001T 17011710130046627        00000001894641               1502201800000000001129503343559                         002000000000000000                                        01300466270000000000006600300000000                      
0334123300002U 170000000000000000000000000000000000000000000000000000000000000000000000112950000000000112950000000000000000000000000000001502201816022018000000000000000000000000000                              000                           
0334123300003T 17011710130046627        00000002085661               1502201800000000000650003335017                         002000000000000000                                        01300466270000000000006600300000000                      
0334123300004U 170000000000000000000000000000000000000000000000000000000000000000000000065000000000000065000000000000000000000000000000001502201816022018000000000000000000000000000                              000                           
0334123300005T 17011710130046627        00000002186261               1502201800000000000650000157080                         002000000000000000                                        01300466270000000000006600400000000                      
0334123300006U 170000000000000000000000000000000000000000000000000000000000000000000000065000000000000065000000000000000000000000000000001502201816022018000000000000000000000000000                              000                           
0334123300007T 17011710130046627        00000002195841               1502201800000000000650010444990                         002000000000000000                                        01300466270000000000006600400000000                      
0334123300008U 170000000000000000000000000000000000000000000000000000000000000000000000065000000000000065000000000000000000000000000000001502201816022018000000000000000000000000000                              000                           
0334123300009T 06011710130046627        00000002220972DTA1797020     3001201800000000001300023772950                         001000013535802881FERNANDO PAULO PINHEIRO CAMBRAIA        01300466270000000000000000400000000                      
0334123300010U 060000000000004160000000000000000000000000000000000000000000000000000000134160000000000134160000000000000000000000000000001502201816022018000000000000000000000000000                              000                           
0334123300011T 17011710130046627        00000002228281               1502201800000000001300034191070                         002000000000000000                                        01300466270000000000006600400000000                      
0334123300012U 170000000000000000000000000000000000000000000000000000000000000000000000130000000000000130000000000000000000000000000000001502201816022018000000000000000000000000000                              000                           
0334123300013T 06011710130046627        00000002234172BXE4804001     3001201800000000001300023703160                         001000027387176833GEWILSON SALES DA SILVA                 01300466270000000000000000400000000                      
0334123300014U 060000000000004160000000000000000000000000000000000000000000000000000000134160000000000134160000000000000000000000000000001502201816022018000000000000000000000000000                              000                           
0334123300015T 06011710130046627        00000002307152KRA2521001     3001201800000000000650003305665                         001000001841269832LUPERCIO BATISTA DA ROSA                01300466270000000000000000300000000                      
0334123300016U 060000000000002080000000000000000000000000000000000000000000000000000000067080000000000067080000000000000000000000000000001502201816022018000000000000000000000000000                              000                           
0334123300017T 17011710130046627        00000002312071               1502201800000000001300010422970                         002000000000000000                                        01300466270000000000006600400000000                      
0334123300018U 170000000000000000000000000000000000000000000000000000000000000000000000130000000000000130000000000000000000000000000000001502201816022018000000000000000000000000000                              000                           
0334123300019T 17011710130046627        00000002348341               1502201800000000000650010406000                         002000000000000000                                        01300466270000000000006600400000000                      
0334123300020U 170000000000000000000000000000000000000000000000000000000000000000000000065000000000000065000000000000000000000000000000001502201816022018000000000000000000000000000                              000                           
0334123300021T 17011710130046627        00000002379651               1502201800000000000650034185510                         002000000000000000                                        01300466270000000000006600400000000                      
0334123300022U 170000000000000000000000000000000000000000000000000000000000000000000000065000000000000065000000000000000000000000000000001502201816022018000000000000000000000000000                              000                           
0334123300023T 17011710130046627        00000002390031               1502201800000000001312003309199                         002000000000000000                                        01300466270000000000006600300000000                      
0334123300024U 170000000000000000000000000000000000000000000000000000000000000000000000131200000000000131200000000000000000000000000000001502201816022018000000000000000000000000000                              000                           
0334123300025T 06011710130046627        00000002482822EDR3422011     3001201800000000001300010427410                         001000034277133851RAFAEL DOMINGOS VITORIO                 01300466270000000000000000400000000                      
0334123300026U 060000000000004160000000000000000000000000000000000000000000000000000000134160000000000134160000000000000000000000000000001502201816022018000000000000000000000000000                              000                           
0334123300027T 17011710130046627        00000002499801               1502201800000000000650010403670                         002000000000000000                                        01300466270000000000006600400000000                      
0334123300028U 170000000000000000000000000000000000000000000000000000000000000000000000065000000000000065000000000000000000000000000000001502201816022018000000000000000000000000000                              000                           
0334123300029T 17011710130046627        00000002609401               1502201800000000001239034100180                         002000000000000000                                        01300466270000000000006600400000000                      
0334123300030U 170000000000000000000000000000000000000000000000000000000000000000000000123900000000000123900000000000000000000000000000001502201816022018000000000000000000000000000                              000                           
0334123300031T 17011710130046627        00000002610681               1502201800000000002038034100180                         002000000000000000                                        01300466270000000000006600400000000                      
0334123300032U 170000000000000000000000000000000000000000000000000000000000000000000000203800000000000203800000000000000000000000000000001502201816022018000000000000000000000000000                              000                           
0334123300033T 17011710130046627        00000002654971               1502201800000000001139010447010                         002000000000000000                                        01300466270000000000006600400000000                      
0334123300034U 170000000000000000000000000000000000000000000000000000000000000000000000113900000000000113900000000000000000000000000000001502201816022018000000000000000000000000000                              000                           
0334123300035T 17011710130046627        00000002789041               1502201800000000001139003321687                         002000000000000000                                        01300466270000000000006600300000000                      
0334123300036U 170000000000003300000000000000000000000000000000000000000000000000000000117200000000000117200000000000000000000000000000001502201816022018000000000000000000000000000                              000                           
0334123300037T 17011710130046627        00000003016631               1502201800000000001165503343559                         002000000000000000                                        01300466270000000000006600300000000                      
0334123300038U 170000000000000000000000000000000000000000000000000000000000000000000000116550000000000116550000000000000000000000000000001502201816022018000000000000000000000000000                              000                           
0334123300039T 17011710130046627        00000003140641               1502201800000000000568534131290                         002000000000000000                                        01300466270000000000006600400000000                      
0334123300040U 170000000000000000000000000000000000000000000000000000000000000000000000056850000000000056850000000000000000000000000000001502201816022018000000000000000000000000000                              000                           
03341235         0000400001550000000000187211700000000000000000000000000000000000000000000000000000000000000000000000000495                                                                                                                     
03341239         000001000044                                                                                                                                                                                                                   
