03300000        2023566251000133011710130046627     007651732           RASTREADORES PROTEGE LTDA ME  BANCO SANTANDER (BRASIL) S/A            221022018      000503040                                                                         T
03364551T01  040 2023566251000133007651732           011710130046627     RASTREADORES PROTEGE LTDA ME                                                                                  0000050321022018                                         
0336455300001T 17011710130046627        00000001827881               2102201800000000000493123723660                         002000000000000000                                        01300466270000000000006600400000000                      
0336455300002U 170000000000000000000000000000000000000000000000000000000000000000000000049310000000000049310000000000000000000000000000002102201822022018000000000000000000000000000                              000                           
0336455300003T 06011710130046627        00000002210232LRK5953012     2802201800000000000650034187520                         002021138324000160F FRANKLIN DOS SANTOS TRANSPORTADORA - M01300466270000000000000000400000000                      
0336455300004U 060000000000000000000000000000000000000000000000000000000000000000000000065000000000000065000000000000000000000000000000002102201822022018000000000000000000000000000                              000                           
0336455300005T 06011710130046627        00000002579312AOW1298012     2802201800000000001139010403710                         001000079717730997ALCIR  HUDACH                           01300466270000000000000000400000000                      
0336455300006U 060000000000000000000000000000000000000000000000000000000000000000000000113900000000000113900000000000000000000000000000002102201822022018000000000000000000000000000                              000                           
0336455300007T 06011710130046627        00000002738052EMT2804002     2802201800000000001139003342587                         001000034840360871FERNANDO DOS SANTOS BOMFIM              01300466270000000000000000300000000                      
0336455300008U 060000000000000000000000000000000000000000000000000000000000000000000000113900000000000113900000000000000000000000000000002102201822022018000000000000000000000000000                              000                           
0336455300009T 06011710130046627        00000002762002AKJ6469002     2802201800000000001139010402520                         001000045480480812GUSTAVO GOMES DE PAULA                  01300466270000000000000000400000000                      
0336455300010U 060000000000000000000000000000000000000000000000000000000000000000000000113900000000000113900000000000000000000000000000002102201822022018000000000000000000000000000                              000                           
0336455300011T 06011710130046627        00000002824562GBI4739012     2802201800000000001139010446320                         001000026486161876JAIR MARCOS PEREIRA                     01300466270000000000000000400000000                      
0336455300012U 060000000000000000000000000000000000000000000000000000000000000000000000113900000000000113900000000000000000000000000000002102201822022018000000000000000000000000000                              000                           
0336455300013T 06011710130046627        00000002909802MMD8280002     2802201800000000001139010404310                         001000005596034959NEUZA BORGES                            01300466270000000000000000400000000                      
0336455300014U 060000000000000000000000000000000000000000000000000000000000000000000000113900000000000113900000000000000000000000000000002102201822022018000000000000000000000000000                              000                           
0336455300015T 06011710130046627        00000002960312CVD2956012     2802201800000000001239003300442                         001000004761444851MARIO ARRIGHI FILHO                     01300466270000000000000000300000000                      
0336455300016U 060000000000000000000000000000000000000000000000000000000000000000000000123900000000000123900000000000000000000000000000002102201822022018000000000000000000000000000                              000                           
0336455300017T 17011710130046627        00000003155241               2102201800000000003701423704760                         002000000000000000                                        01300466270000000000006600400000000                      
0336455300018U 170000000000000000000000000000000000000000000000000000000000000000000000370140000000000370140000000000000000000000000000002102201822022018000000000000000000000000000                              000                           
0336455300019T 17011710130046627        00000003155321               2102201800000000001950023704760                         002000000000000000                                        01300466270000000000006600400000000                      
0336455300020U 170000000000000000000000000000000000000000000000000000000000000000000000195000000000000195000000000000000000000000000000002102201822022018000000000000000000000000000                              000                           
03364555         0000200007860000000000943408800000000000000000000000000000000000000000000000000000000000000000000000000499                                                                                                                     
03364559         000001000024                                                                                                                                                                                                                   
