03300000        2023566251000133011710130046627     007651732           RASTREADORES PROTEGE LTDA ME  BANCO SANTANDER (BRASIL) S/A            231012018      000490040                                                                         T
03377191T01  040 2023566251000133007651732           011710130046627     RASTREADORES PROTEGE LTDA ME                                                                                  0000049031012018                                         
0337719300001T 17011710130046627        00000001992731               3101201800000000000516023733220                         002000000000000000                                        01300466270000000000006600400000000                      
0337719300002U 170000000000000000000000000000000000000000000000000000000000000000000000051600000000000051600000000000000000000000000000003101201801022018000000000000000000000000000                              000                           
0337719300003T 06011710130046627        00000001993622AKE5194        3011201700000000000302423733220                         001000010338264809JOSE AMERICO DA SILVA                   01300466270000000000000000400000000                      
0337719300004U 060000000000014880000000000000000000000000000000000000000000000000000000045120000000000045120000000000000000000000000000003101201801022018000000000000000000000000000                              000                           
0337719300005T 06011710130046627        00000002103742EWJ0838001     3001201800000000001300034119510                         001000053681487804ALVINO DA SILVA                         01300466270000000000000000400000000                      
0337719300006U 060000000000000260000000000000000000000000000000000000000000000000000000130260000000000130260000000000000000000000000000003101201801022018000000000000000000000000000                              000                           
0337719300007T 06011710130046627        00000002135432GPC0602001     3001201800000000000650010441620                         001000083452583600BENEDITO FERREIRA LIMA JUNIOR           01300466270000000000000000400000000                      
0337719300008U 060000000000000130000000000000000000000000000000000000000000000000000000065130000000000065130000000000000000000000000000003101201801022018000000000000000000000000000                              000                           
0337719300009T 06011710130046627        00000002159702DUR6477001     3001201800000000000650000109640                         001000018229742839CLAUDINEI FRANCISCO DO NASCIMENTO       01300466270000000000000000400000000                      
0337719300010U 060000000000000130000000000000000000000000000000000000000000000000000000065130000000000065130000000000000000000000000000003101201801022018000000000000000000000000000                              000                           
0337719300011T 06011710130046627        00000002160972FWC1850001     3001201800000000001300034107360                         001000008648854822CLAUDIO DA FONSECA CASTILHO             01300466270000000000000000400000000                      
0337719300012U 060000000000000260000000000000000000000000000000000000000000000000000000130260000000000130260000000000000000000000000000003101201801022018000000000000000000000000000                              000                           
0337719300013T 06011710130046627        00000002171742KLY / KKP001   3001201800000000002600003340100                         001000001004931492DALVISSON GADELHA DA COSTA SOBRINHO     01300466270000000000000000300000000                      
0337719300014U 060000000000000500000000000000000000000000000000000000000000000000000000260500000000000260500000000000000000000000000000003101201801022018000000000000000000000000000                              000                           
0337719300015T 06011710130046627        00000002175302EGK6228001     3001201800000000001300023720040                         001000001833738802DANIEL MARTINS DE FREITAS               01300466270000000000000000400000000                      
0337719300016U 060000000000000260000000000000000000000000000000000000000000000000000000130260000000000130260000000000000000000000000000003101201801022018000000000000000000000000000                              000                           
0337719300017T 06011710130046627        00000002183752MJY2020001     3001201800000000000650000131840                         001000003692497989EDERSON HENRIQUE DE SOUZA               01300466270000000000000000400000000                      
0337719300018U 060000000000000130000000000000000000000000000000000000000000000000000000065130000000000065130000000000000000000000000000003101201801022018000000000000000000000000000                              000                           
0337719300019T 06011710130046627        00000002190962AQP4163001     3001201800000000001300003302259                         001000025865933833EDNILSON APARECIDO BENEDITO             01300466270000000000000000300000000                      
0337719300020U 060000000000000260000000000000000000000000000000000000000000000000000000130260000000000130260000000000000000000000000000003101201801022018000000000000000000000000000                              000                           
0337719300021T 06011710130046627        00000002196902BHO / DJC001   3001201800000000001300010408990                         002004352154000101EDVALDO SOTHERO DE GODOY ME             01300466270000000000000000400000000                      
0337719300022U 060000000000000260000000000000000000000000000000000000000000000000000000130260000000000130260000000000000000000000000000003101201801022018000000000000000000000000000                              000                           
0337719300023T 06011710130046627        00000002235302NBC6745001     3001201800000000000650010429290                         001000013167281880GILSON BARADEL DA ROCHA                 01300466270000000000000000400000000                      
0337719300024U 060000000000000130000000000000000000000000000000000000000000000000000000065130000000000065130000000000000000000000000000003101201801022018000000000000000000000000000                              000                           
0337719300025T 06011710130046627        00000002268902AKE5194001     3001201800000000000650023733220                         001000010338264809JOSE AMERICO DA SILVA                   01300466270000000000000000400000000                      
0337719300026U 060000000000000130000000000000000000000000000000000000000000000000000000065130000000000065130000000000000000000000000000003101201801022018000000000000000000000000000                              000                           
0337719300027T 06011710130046627        00000002288772CYI5364011     3001201800000000000650003300400                         001000002407315308JOSE RIBAMAR MONTELIS DA SILVA          01300466270000000000000000300000000                      
0337719300028U 060000000000000130000000000000000000000000000000000000000000000000000000065130000000000065130000000000000000000000000000003101201801022018000000000000000000000000000                              000                           
0337719300029T 06011710130046627        00000002316732ADL1839001     3001201800000000000650003303549                         001000025141726835MARCELO FURGERI BELENT                  01300466270000000000000000300000000                      
0337719300030U 060000000000000130000000000000000000000000000000000000000000000000000000065130000000000065130000000000000000000000000000003101201801022018000000000000000000000000000                              000                           
0337719300031T 06011710130046627        00000002321572AGT8539011     3001201800000000000650003308109                         001000081928700900MARCIA RIBEIRO TERLUK                   01300466270000000000000000300000000                      
0337719300032U 060000000000000130000000000000000000000000000000000000000000000000000000065130000000000065130000000000000000000000000000003101201801022018000000000000000000000000000                              000                           
0337719300033T 06011710130046627        000000023323422 PLACAS073    3001201800000000001300003303824                         001000022604564807MARCO ANTONIO DA SILVA VALE             01300466270000000000000000300000000                      
0337719300034U 060000000000000260000000000000000000000000000000000000000000000000000000130260000000000130260000000000000000000000000000003101201801022018000000000000000000000000000                              000                           
0337719300035T 06011710130046627        00000002345832KDL5652013     3001201800000000000650034100240                         001000063361647053MAURO LUIS NASCIMENTO RODRIGUES         01300466270000000000000000400000000                      
0337719300036U 060000000000000130000000000000000000000000000000000000000000000000000000065130000000000065130000000000000000000000000000003101201801022018000000000000000000000000000                              000                           
0337719300037T 17011710130046627        00000002400601               3101201800000000000500003345608                         002000000000000000                                        01300466270000000000006600300000000                      
0337719300038U 170000000000000000000000000000000000000000000000000000000000000000000000050000000000000050000000000000000000000000000000003101201801022018000000000000000000000000000                              000                           
0337719300039T 17011710130046627        00000002411481               3101201800000000000650010443530                         002000000000000000                                        01300466270000000000006600400000000                      
0337719300040U 170000000000000000000000000000000000000000000000000000000000000000000000065000000000000065000000000000000000000000000000003101201801022018000000000000000000000000000                              000                           
0337719300041T 17011710130046627        00000002412611               3101201800000000000650010443530                         002000000000000000                                        01300466270000000000006600400000000                      
0337719300042U 170000000000000000000000000000000000000000000000000000000000000000000000065000000000000065000000000000000000000000000000003101201801022018000000000000000000000000000                              000                           
0337719300043T 06011710130046627        00000002445622DAK2243001     3001201800000000001388003333715                         001000066291828804DIRCEU FERREIRA BUENO                   01300466270000000000000000300000000                      
0337719300044U 060000000000000270000000000000000000000000000000000000000000000000000000139070000000000139070000000000000000000000000000003101201801022018000000000000000000000000000                              000                           
0337719300045T 17011710130046627        00000002511861               3101201800000000001300034187860                         002000000000000000                                        01300466270000000000006600400000000                      
0337719300046U 170000000000000000000000000000000000000000000000000000000000000000000000130000000000000130000000000000000000000000000000003101201801022018000000000000000000000000000                              000                           
0337719300047T 06011710130046627        00000002545332CRH4123001     3001201800000000000650003303824                         001000052022048849WALTER VALE                             01300466270000000000000000300000000                      
0337719300048U 060000000000000130000000000000000000000000000000000000000000000000000000065130000000000065130000000000000000000000000000003101201801022018000000000000000000000000000                              000                           
0337719300049T 06011710130046627        00000002580402DDQ2892011     3001201800000000001149000122000                         001000025123284818ALEXANDRE DONIZETE DE MIRANDA           01300466270000000000000000400000000                      
0337719300050U 060000000000000230000000000000000000000000000000000000000000000000000000115130000000000115130000000000000000000000000000003101201801022018000000000000000000000000000                              000                           
0337719300051T 17011710130046627        00000002594971               3101201800000000001241034192740                         002000000000000000                                        01300466270000000000006600400000000                      
0337719300052U 170000000000000000000000000000000000000000000000000000000000000000000000124100000000000124100000000000000000000000000000003101201801022018000000000000000000000000000                              000                           
0337719300053T 06011710130046627        00000002628462DIH8564001     3001201800000000001139034164220                         001000035478605808AUGUSTO LOIOLA JUNIOR                   01300466270000000000000000400000000                      
0337719300054U 060000000000000210000000000000000000000000000000000000000000000000000000114110000000000114110000000000000000000000000000003101201801022018000000000000000000000000000                              000                           
0337719300055T 06011710130046627        00000002630872DUG4253011     3001201800000000001139000140930                         001000041853716839BARBARA ALVARENGA GRIZZO                01300466270000000000000000400000000                      
0337719300056U 060000000000000210000000000000000000000000000000000000000000000000000000114110000000000114110000000000000000000000000000003101201801022018000000000000000000000000000                              000                           
0337719300057T 06011710130046627        00000002640402JYU1106011     3001201800000000001480023720290                         001000027184636864CARLA ROCCI ARAUJO                      01300466270000000000000000400000000                      
0337719300058U 060000000000000290000000000000000000000000000000000000000000000000000000148290000000000148290000000000000000000000000000003101201801022018000000000000000000000000000                              000                           
0337719300059T 06011710130046627        00000002672872TT6252001      3001201800000000001239023729200                         001000099005247800CUSTODIO DE CARVALHO                    01300466270000000000000000400000000                      
0337719300060U 060000000000000230000000000000000000000000000000000000000000000000000000124130000000000124130000000000000000000000000000003101201801022018000000000000000000000000000                              000                           
0337719300061T 06011710130046627        00000002676432LQG9422001     3001201800000000002038023720040                         001000001833738802DANIEL MARTINS DE FREITAS               01300466270000000000000000400000000                      
0337719300062U 060000000000000400000000000000000000000000000000000000000000000000000000204200000000000204200000000000000000000000000000003101201801022018000000000000000000000000000                              000                           
0337719300063T 06011710130046627        00000002698322AJA0082011     3001201800000000001139034174540                         001000001039417973EBERTON RENATO RUTHES                   01300466270000000000000000400000000                      
0337719300064U 060000000000000210000000000000000000000000000000000000000000000000000000114110000000000114110000000000000000000000000000003101201801022018000000000000000000000000000                              000                           
0337719300065T 06011710130046627        00000002703182HMG2908001     3001201800000000001239034181510                         001000035706577870EDMAR CARLOS DOMINGOS                   01300466270000000000000000400000000                      
0337719300066U 060000000000000230000000000000000000000000000000000000000000000000000000124130000000000124130000000000000000000000000000003101201801022018000000000000000000000000000                              000                           
0337719300067T 06011710130046627        00000002739102BTF7593001     3001201800000000001139034184250                         001000001034388908FERNANDO TOMAZ KORMANN                  01300466270000000000000000400000000                      
0337719300068U 060000000000000210000000000000000000000000000000000000000000000000000000114110000000000114110000000000000000000000000000003101201801022018000000000000000000000000000                              000                           
0337719300069T 06011710130046627        00000002801432CRL3211011     3001201800000000001139003306661                         001000000656516500IGOR MARCIO DE JESUS                    01300466270000000000000000300000000                      
0337719300070U 060000000000000210000000000000000000000000000000000000000000000000000000114110000000000114110000000000000000000000000000003101201801022018000000000000000000000000000                              000                           
0337719300071T 06011710130046627        00000002841222EIP9148001     3001201800000000001139034138070                         001000034512082883JESSICA DE MOURA                        01300466270000000000000000400000000                      
0337719300072U 060000000000000210000000000000000000000000000000000000000000000000000000114110000000000114110000000000000000000000000000003101201801022018000000000000000000000000000                              000                           
0337719300073T 06011710130046627        00000002863972FLQ5266001     3001201800000000001139023702970                         001000031580187803RENAN FERREIRA DOS SANTOS               01300466270000000000000000400000000                      
0337719300074U 060000000000000210000000000000000000000000000000000000000000000000000000114110000000000114110000000000000000000000000000003101201801022018000000000000000000000000000                              000                           
0337719300075T 06011710130046627        00000002877502EJF9829001     3001201800000000001239010412260                         001000007463906884ROBERTO CARLOS DE OLIVEIRA              01300466270000000000000000400000000                      
0337719300076U 060000000000000230000000000000000000000000000000000000000000000000000000124130000000000124130000000000000000000000000000003101201801022018000000000000000000000000000                              000                           
0337719300077T 06011710130046627        00000002972242DZU9294001     3001201800000000002038034137240                         002006146911000108NATIVA ATACADO DE PLANTAS LTDA ME       01300466270000000000000000400000000                      
0337719300078U 060000000000000400000000000000000000000000000000000000000000000000000000204200000000000204200000000000000000000000000000003101201801022018000000000000000000000000000                              000                           
0337719300079T 06011710130046627        00000002974612IJF8961001     3001201800000000001239034141210                         001000076470652891NELSON BASSO JUNIOR                     01300466270000000000000000400000000                      
0337719300080U 060000000000000230000000000000000000000000000000000000000000000000000000124130000000000124130000000000000000000000000000003101201801022018000000000000000000000000000                              000                           
0337719300081T 17011710130046627        00000003017871               3101201800000000001149003307951                         002000000000000000                                        01300466270000000000006600300000000                      
0337719300082U 170000000000000000000000000000000000000000000000000000000000000000000000114900000000000114900000000000000000000000000000003101201801022018000000000000000000000000000                              000                           
0337719300083T 17011710130046627        00000003049051               3101201800000000001139003303824                         002000000000000000                                        01300466270000000000006600300000000                      
0337719300084U 170000000000000220000000000000000000000000000000000000000000000000000000114120000000000114120000000000000000000000000000003101201801022018000000000000000000000000000                              000                           
0337719300085T 17011710130046627        00000003073941               3101201800000000001512034138070                         002000000000000000                                        01300466270000000000006600400000000                      
0337719300086U 170000000000000000000000000000000000000000000000000000000000000000000000151200000000000151200000000000000000000000000000003101201801022018000000000000000000000000000                              000                           
0337719300087T 17011710130046627        00000003076961               3101201800000000001779010419260                         002000000000000000                                        01300466270000000000006600400000000                      
0337719300088U 170000000000000000000000000000000000000000000000000000000000000000000000177900000000000177900000000000000000000000000000003101201801022018000000000000000000000000000                              000                           
0337719300089T 17011710130046627        00000003103281               3101201800000000001239023700540                         002000000000000000                                        01300466270000000000006600400000000                      
0337719300090U 170000000000000000000000000000000000000000000000000000000000000000000000123900000000000123900000000000000000000000000000003101201801022018000000000000000000000000000                              000                           
0337719300091T 17011710130046627        00000003104411               3101201800000000001278534192740                         002000000000000000                                        01300466270000000000006600400000000                      
0337719300092U 170000000000000000000000000000000000000000000000000000000000000000000000127850000000000127850000000000000000000000000000003101201801022018000000000000000000000000000                              000                           
0337719300093T 17011710130046627        00000003104681               3101201800000000001139023726670                         002000000000000000                                        01300466270000000000006600400000000                      
0337719300094U 170000000000000000000000000000000000000000000000000000000000000000000000113900000000000113900000000000000000000000000000003101201801022018000000000000000000000000000                              000                           
0337719300095T 17011710130046627        00000003107001               3101201800000000000652410402450                         002000000000000000                                        01300466270000000000006600400000000                      
0337719300096U 170000000000000000000000000000000000000000000000000000000000000000000000065240000000000065240000000000000000000000000000003101201801022018000000000000000000000000000                              000                           
0337719300097T 17011710130046627        00000003107271               3101201800000000001039534185770                         002000000000000000                                        01300466270000000000006600400000000                      
0337719300098U 170000000000000000000000000000000000000000000000000000000000000000000000103950000000000103950000000000000000000000000000003101201801022018000000000000000000000000000                              000                           
03377195         0000980002600000000000310023400000000000000000000000000000000000000000000000000000000000000000000000000486                                                                                                                     
03377199         000001000102                                                                                                                                                                                                                   
