03300000        2023566251000133011710130046627     007651732           RASTREADORES PROTEGE LTDA ME  BANCO SANTANDER (BRASIL) S/A            220022018      000502040                                                                         T
03318321T01  040 2023566251000133007651732           011710130046627     RASTREADORES PROTEGE LTDA ME                                                                                  0000050220022018                                         
0331832300001T 02011710130046627        00000001717272VARIAS007      2302201800000000008970003301171                         002010931869000103UHECS CLEI RIBEIRO - ME                 01300466270000000000004310000000000                      
0331832300002U 020000000000000000000000000000000000000000000000000000000000000000000000000000000000000000000000000000000000000000000000002002201820022018000000000000000000000000000                              000                           
0331832300003T 02011710130046627        00000001908102FLA1033004     2802201800000000001789003301171                         002007642208000153TIBIS EIRELI EPP                        01300466270000000000004310000000000                      
0331832300004U 020000000000000000000000000000000000000000000000000000000000000000000000000000000000000000000000000000000000000000000000002002201820022018000000000000000000000000000                              000                           
0331832300005T 17011710130046627        00000001944091               2002201800000000001375334137020                         002000000000000000                                        01300466270000000000006600400000000                      
0331832300006U 170000000000000000000000000000000000000000000000000000000000000000000000137530000000000137530000000000000000000000000000002002201821022018000000000000000000000000000                              000                           
0331832300007T 06011710130046627        00000002059822BDZ2223        3012201700000000001738034102730                         001000002370079916PATRICIA TOMAZ                          01300466270000000000000000400000000                      
0331832300008U 060000000000016430000000000000000000000000000000000000000000000000000000190230000000000190230000000000000000000000000000002002201821022018000000000000000000000000000                              000                           
0331832300009T 03011710130046627        000000020797722 PLACAS002    2802201800000000001300003301171                         001000000000000000ADAO VALDECIR MUNIZ                     01300466270000000000000004646000000                      
0331832300010U 030000000000000000000000000000000000000000000000000000000000000000000000000000000000000000000000000000000000000000000000002002201820022018000000000000000000000000000                              000                           
0331832300011T 02011710130046627        00000002080942EVJ7634002     2802201800000000000650003301171                         001000009893056861ADEMILSON PEREIRA DE SOUZA              01300466270000000000004310000000000                      
0331832300012U 020000000000000000000000000000000000000000000000000000000000000000000000000000000000000000000000000000000000000000000000002002201820022018000000000000000000000000000                              000                           
0331832300013T 02011710130046627        00000002082132EVK1387002     2802201800000000000650003301171                         001000068145454891ADEMIR PORTELLA DE BIASO                01300466270000000000004310000000000                      
0331832300014U 020000000000000000000000000000000000000000000000000000000000000000000000000000000000000000000000000000000000000000000000002002201820022018000000000000000000000000000                              000                           
0331832300015T 02011710130046627        00000002083292CZB4703        2802201800000000000446303301171                         001000021452902810ADILSON MEIRELLES FERREIRA              01300466270000000000004310000000000                      
0331832300016U 020000000000000000000000000000000000000000000000000000000000000000000000000000000000000000000000000000000000000000000000002002201820022018000000000000000000000000000                              000                           
0331832300017T 02011710130046627        00000002084422AZL7292002     2802201800000000000500003301171                         001000025266320800ADRIANO DA SILVA SANTANA                01300466270000000000004310000000000                      
0331832300018U 020000000000000000000000000000000000000000000000000000000000000000000000000000000000000000000000000000000000000000000000002002201820022018000000000000000000000000000                              000                           
0331832300019T 02011710130046627        000000020870122PLACAS004     2802201800000000001300003301171                         001000006272909810AGNALDO DE LIMA                         01300466270000000000004310000000000                      
0331832300020U 020000000000000000000000000000000000000000000000000000000000000000000000000000000000000000000000000000000000000000000000002002201820022018000000000000000000000000000                              000                           
0331832300021T 02011710130046627        00000002088252DTD6104002     2802201800000000001300003301171                         001000063439867315AGUINALDO CAIRES DOS SANTOS             01300466270000000000004310000000000                      
0331832300022U 020000000000000000000000000000000000000000000000000000000000000000000000000000000000000000000000000000000000000000000000002002201820022018000000000000000000000000000                              000                           
0331832300023T 02011710130046627        00000002090662BWP2130002     2802201800000000000650003301171                         001000034586269804ALAN DAVID GARCIA                       01300466270000000000004310000000000                      
0331832300024U 020000000000000000000000000000000000000000000000000000000000000000000000000000000000000000000000000000000000000000000000002002201820022018000000000000000000000000000                              000                           
0331832300025T 02011710130046627        00000002091802HQG5341022     2802201800000000000650003301171                         001000018222807889ALESSANDRO ANTUNES GRANDE               01300466270000000000004310000000000                      
0331832300026U 020000000000000000000000000000000000000000000000000000000000000000000000000000000000000000000000000000000000000000000000002002201820022018000000000000000000000000000                              000                           
0331832300027T 02011710130046627        00000002093092DJC2123002     2802201800000000000650003301171                         001000027475075800ALESSANDRO DA SILVA MATOS               01300466270000000000004310000000000                      
0331832300028U 020000000000000000000000000000000000000000000000000000000000000000000000000000000000000000000000000000000000000000000000002002201820022018000000000000000000000000000                              000                           
0331832300029T 02011710130046627        00000002094222EEV9755012     2802201800000000000650003301171                         001000026715286809ALESSANDRO LAMBERTI BANZATO             01300466270000000000004310000000000                      
0331832300030U 020000000000000000000000000000000000000000000000000000000000000000000000000000000000000000000000000000000000000000000000002002201820022018000000000000000000000000000                              000                           
0331832300031T 02011710130046627        00000002096602EWT2877002     2802201800000000000650003301171                         001000022408383889ALEX SANDRO NUNES GOMES                 01300466270000000000004310000000000                      
0331832300032U 020000000000000000000000000000000000000000000000000000000000000000000000000000000000000000000000000000000000000000000000002002201820022018000000000000000000000000000                              000                           
0331832300033T 02011710130046627        00000002097832BXF1294002     2802201800000000000650003301171                         001000032583626884ALEX SANTOS DOS ANJOS                   01300466270000000000004310000000000                      
0331832300034U 020000000000000000000000000000000000000000000000000000000000000000000000000000000000000000000000000000000000000000000000002002201820022018000000000000000000000000000                              000                           
0331832300035T 02011710130046627        00000002100212CPG1655002     2802201800000000000650003301171                         001000024934277854ALEXANDRE MANOEL                        01300466270000000000004310000000000                      
0331832300036U 020000000000000000000000000000000000000000000000000000000000000000000000000000000000000000000000000000000000000000000000002002201820022018000000000000000000000000000                              000                           
0331832300037T 02011710130046627        00000002101452BUD7976004     2802201800000000001300003301171                         001000077786661891ALVARO GOULART DE SOUZA                 01300466270000000000004310000000000                      
0331832300038U 020000000000000000000000000000000000000000000000000000000000000000000000000000000000000000000000000000000000000000000000002002201820022018000000000000000000000000000                              000                           
0331832300039T 02011710130046627        00000002102692ALT9987012     2802201800000000000650003301171                         001000028890028882ALVARO HENRIQUES DE SIQUEIRA            01300466270000000000004310000000000                      
0331832300040U 020000000000000000000000000000000000000000000000000000000000000000000000000000000000000000000000000000000000000000000000002002201820022018000000000000000000000000000                              000                           
0331832300041T 02011710130046627        00000002103822EWJ0838002     2802201800000000001300003301171                         001000053681487804ALVINO DA SILVA                         01300466270000000000004310000000000                      
0331832300042U 020000000000000000000000000000000000000000000000000000000000000000000000000000000000000000000000000000000000000000000000002002201820022018000000000000000000000000000                              000                           
0331832300043T 02011710130046627        000000021050124PLACAS002     2802201800000000004550003301171                         002017830632000185AMERICA MARITIMES SERVICES LTDA - EPP   01300466270000000000004310000000000                      
0331832300044U 020000000000000000000000000000000000000000000000000000000000000000000000000000000000000000000000000000000000000000000000002002201820022018000000000000000000000000000                              000                           
0331832300045T 02011710130046627        00000002106252MDQ1913002     2802201800000000000650003301171                         001000026323158833AMILCAR DE JESUS AZEVEDO JUNIOR         01300466270000000000004310000000000                      
0331832300046U 020000000000000000000000000000000000000000000000000000000000000000000000000000000000000000000000000000000000000000000000002002201820022018000000000000000000000000000                              000                           
0331832300047T 02011710130046627        00000002107492FEH8981002     2802201800000000001300003301171                         002017194056000127AMORIM E RODRIGUES FERRAMENTARIA LTDA - 01300466270000000000004310000000000                      
0331832300048U 020000000000000000000000000000000000000000000000000000000000000000000000000000000000000000000000000000000000000000000000002002201820022018000000000000000000000000000                              000                           
0331832300049T 02011710130046627        00000002108622MBH9650002     2802201800000000001300003301171                         002006267473000136ANCER FABRICACAO DE PRODUTOS            01300466270000000000004310000000000                      
0331832300050U 020000000000000000000000000000000000000000000000000000000000000000000000000000000000000000000000000000000000000000000000002002201820022018000000000000000000000000000                              000                           
0331832300051T 02011710130046627        00000002109862GXH8106002     2802201800000000001300003301171                         001000033345514826ANDERSON APARECIDO DE SOUZA             01300466270000000000004310000000000                      
0331832300052U 020000000000000000000000000000000000000000000000000000000000000000000000000000000000000000000000000000000000000000000000002002201820022018000000000000000000000000000                              000                           
0331832300053T 02011710130046627        00000002111092FJF4466002     2802201800000000000650003301171                         001000036789112855ANDERSON BARBOSA PAREJA                 01300466270000000000004310000000000                      
0331832300054U 020000000000000000000000000000000000000000000000000000000000000000000000000000000000000000000000000000000000000000000000002002201820022018000000000000000000000000000                              000                           
0331832300055T 02011710130046627        00000002113462JSN1998002     2802201800000000000650003301171                         001000034566703894ANDERSON DE OLIVEIRA PRESTES            01300466270000000000004310000000000                      
0331832300056U 020000000000000000000000000000000000000000000000000000000000000000000000000000000000000000000000000000000000000000000000002002201820022018000000000000000000000000000                              000                           
0331832300057T 06011710130046627        00000002113462JSN1998002     2802201800000000000650023727990                         001000034566703894ANDERSON DE OLIVEIRA PRESTES            01300466270000000000000000400000000                      
0331832300058U 060000000000000000000000000000000000000000000000000000000000000000000000065000000000000065000000000000000000000000000000002002201821022018000000000000000000000000000                              000                           
0331832300059T 02011710130046627        00000002115832CUD7270002     2802201800000000000650003301171                         001000024684500861LOURDES LIMEIRA DE BIASO                01300466270000000000004310000000000                      
0331832300060U 020000000000000000000000000000000000000000000000000000000000000000000000000000000000000000000000000000000000000000000000002002201820022018000000000000000000000000000                              000                           
0331832300061T 02011710130046627        000000021194025 PLACAS002    2802201800000000003000003301171                         002002969607000100ANDRE & MACEDO AUTO SOCORRO LTDA-ME     01300466270000000000004310000000000                      
0331832300062U 020000000000000000000000000000000000000000000000000000000000000000000000000000000000000000000000000000000000000000000000002002201820022018000000000000000000000000000                              000                           
0331832300063T 02011710130046627        00000002121132BUT8669012     2802201800000000000650003301171                         001000008805071870ANTONIO APARECIDO MORAES                01300466270000000000004310000000000                      
0331832300064U 020000000000000000000000000000000000000000000000000000000000000000000000000000000000000000000000000000000000000000000000002002201820022018000000000000000000000000000                              000                           
0331832300065T 02011710130046627        00000002122372DPC8774002     2802201800000000000650003301171                         001000011143855817ANTONIO CARLOS BATISTA                  01300466270000000000004310000000000                      
0331832300066U 020000000000000000000000000000000000000000000000000000000000000000000000000000000000000000000000000000000000000000000000002002201820022018000000000000000000000000000                              000                           
0331832300067T 02011710130046627        00000002123502FQG3386012     2802201800000000000650003301171                         001000027286816861ANTONIO SERGIO DE OLIVEIRA DE PAULA     01300466270000000000004310000000000                      
0331832300068U 020000000000000000000000000000000000000000000000000000000000000000000000000000000000000000000000000000000000000000000000002002201820022018000000000000000000000000000                              000                           
0331832300069T 02011710130046627        00000002125982DPB6881002     2802201800000000000650003301171                         001000031296307832ANTONIO WIDSNEY PEREIRA DA SILVA        01300466270000000000004310000000000                      
0331832300070U 020000000000000000000000000000000000000000000000000000000000000000000000000000000000000000000000000000000000000000000000002002201820022018000000000000000000000000000                              000                           
0331832300071T 02011710130046627        00000002127172CXG3841002     2802201800000000000650003301171                         001000004076549848ARLINDO APARECIDO MONTINI               01300466270000000000004310000000000                      
0331832300072U 020000000000000000000000000000000000000000000000000000000000000000000000000000000000000000000000000000000000000000000000002002201820022018000000000000000000000000000                              000                           
0331832300073T 02011710130046627        00000002128302DBB1395002     2802201800000000000650003301171                         001000022297594852ARMANDO TOMBA NETO                      01300466270000000000004310000000000                      
0331832300074U 020000000000000000000000000000000000000000000000000000000000000000000000000000000000000000000000000000000000000000000000002002201820022018000000000000000000000000000                              000                           
0331832300075T 02011710130046627        00000002129542BXF1877002     2802201800000000000650003301171                         002066562596000121ARTUR GRANA NETO - ME                   01300466270000000000004310000000000                      
0331832300076U 020000000000000000000000000000000000000000000000000000000000000000000000000000000000000000000000000000000000000000000000002002201820022018000000000000000000000000000                              000                           
0331832300077T 02011710130046627        000000021307122 PLACAS026    2802201800000000002600003301171                         002000638481000165AUGUSTINO DE FATIMA DOS SANTOS M.E      01300466270000000000004310000000000                      
0331832300078U 020000000000000000000000000000000000000000000000000000000000000000000000000000000000000000000000000000000000000000000000002002201820022018000000000000000000000000000                              000                           
0331832300079T 02011710130046627        00000002131952ABP4103002     2802201800000000000650003301171                         001000002067152858AUGUSTO LOIOLA                          01300466270000000000004310000000000                      
0331832300080U 020000000000000000000000000000000000000000000000000000000000000000000000000000000000000000000000000000000000000000000000002002201820022018000000000000000000000000000                              000                           
0331832300081T 02011710130046627        00000002133142EJY4700012     2802201800000000001300003301171                         001000009198376705BARBARA APARECIDA MARQIES SUMMA         01300466270000000000004310000000000                      
0331832300082U 020000000000000000000000000000000000000000000000000000000000000000000000000000000000000000000000000000000000000000000000002002201820022018000000000000000000000000000                              000                           
0331832300083T 02011710130046627        00000002134382CQH2021003     2802201800000000000650003301171                         002005850997000192BBR TRANSPORTES LTDA - ME               01300466270000000000004310000000000                      
0331832300084U 020000000000000000000000000000000000000000000000000000000000000000000000000000000000000000000000000000000000000000000000002002201820022018000000000000000000000000000                              000                           
0331832300085T 02011710130046627        00000002135512GPC0602002     2802201800000000000650003301171                         001000083452583600BENEDITO FERREIRA LIMA JUNIOR           01300466270000000000004310000000000                      
0331832300086U 020000000000000000000000000000000000000000000000000000000000000000000000000000000000000000000000000000000000000000000000002002201820022018000000000000000000000000000                              000                           
0331832300087T 02011710130046627        000000021367523 PLACAS024    2802201800000000001950003301171                         001000069082774887BENEDITO FRANCISCO FILHO                01300466270000000000004310000000000                      
0331832300088U 020000000000000000000000000000000000000000000000000000000000000000000000000000000000000000000000000000000000000000000000002002201820022018000000000000000000000000000                              000                           
0331832300089T 02011710130046627        00000002137992EFV3938002     2802201800000000001300003301171                         002024940698000193BGM LOGISTICA E TRANSPORTE LTDA - ME    01300466270000000000004310000000000                      
0331832300090U 020000000000000000000000000000000000000000000000000000000000000000000000000000000000000000000000000000000000000000000000002002201820022018000000000000000000000000000                              000                           
0331832300091T 02011710130046627        00000002139182HJZ4418002     2802201800000000001950003301171                         002011027527000126BORGES IND E COM DE MATERIAIS PARA CONST01300466270000000000004310000000000                      
0331832300092U 020000000000000000000000000000000000000000000000000000000000000000000000000000000000000000000000000000000000000000000000002002201820022018000000000000000000000000000                              000                           
0331832300093T 02011710130046627        00000002140352BWM6200002     2802201800000000000650003301171                         001000036797104882BRUNO ARAGAO CAMARGO                    01300466270000000000004310000000000                      
0331832300094U 020000000000000000000000000000000000000000000000000000000000000000000000000000000000000000000000000000000000000000000000002002201820022018000000000000000000000000000                              000                           
0331832300095T 02011710130046627        00000002141592BWQ0562002     2802201800000000000650003301171                         001000032466507803BRUNO GUSTAVO DONZELLA                  01300466270000000000004310000000000                      
0331832300096U 020000000000000000000000000000000000000000000000000000000000000000000000000000000000000000000000000000000000000000000000002002201820022018000000000000000000000000000                              000                           
0331832300097T 02011710130046627        00000002143962EKK0284002     2802201800000000000650003301171                         001000035524861867CAMILA SILVA SANTOS FERREIRA            01300466270000000000004310000000000                      
0331832300098U 020000000000000000000000000000000000000000000000000000000000000000000000000000000000000000000000000000000000000000000000002002201820022018000000000000000000000000000                              000                           
0331832300099T 02011710130046627        000000021487624 PLACAS014    2802201800000000004550003301171                         002021263799000189CARLOS CESAR COELHO JUNIOR - ME         01300466270000000000004310000000000                      
0331832300100U 020000000000000000000000000000000000000000000000000000000000000000000000000000000000000000000000000000000000000000000000002002201820022018000000000000000000000000000                              000                           
0331832300101T 02011710130046627        00000002149902BYH9253002     2802201800000000000650003301171                         001000065535340804CARLOS ROBERTO DA SILVA                 01300466270000000000004310000000000                      
0331832300102U 020000000000000000000000000000000000000000000000000000000000000000000000000000000000000000000000000000000000000000000000002002201820022018000000000000000000000000000                              000                           
0331832300103T 02011710130046627        00000002152362DVS2638002     2802201800000000001300003301171                         001000012924012813CELSO FERREIRA ALVES                    01300466270000000000004310000000000                      
0331832300104U 020000000000000000000000000000000000000000000000000000000000000000000000000000000000000000000000000000000000000000000000002002201820022018000000000000000000000000000                              000                           
0331832300105T 02011710130046627        00000002154902MMB5500013     2802201800000000001300003301171                         002009318444000144ANDRADE E ABREU TRANSPORTES LTDA - ME   01300466270000000000004310000000000                      
0331832300106U 020000000000000000000000000000000000000000000000000000000000000000000000000000000000000000000000000000000000000000000000002002201820022018000000000000000000000000000                              000                           
0331832300107T 02011710130046627        00000002156272BYH9885003     2802201800000000000650003301171                         002009318444000144ANDRADE E ABREU TRANSPORTES LTDA - ME   01300466270000000000004310000000000                      
0331832300108U 020000000000000000000000000000000000000000000000000000000000000000000000000000000000000000000000000000000000000000000000002002201820022018000000000000000000000000000                              000                           
0331832300109T 02011710130046627        00000002157402BWQ6008012     2802201800000000001300003301171                         001000005729037821CLAUDEMIR CREPALDI                      01300466270000000000004310000000000                      
0331832300110U 020000000000000000000000000000000000000000000000000000000000000000000000000000000000000000000000000000000000000000000000002002201820022018000000000000000000000000000                              000                           
0331832300111T 02011710130046627        00000002158642ETQ6942002     2802201800000000001300003301171                         001000014188476826CLAUDEMIR SOARES DE ALMEIDA             01300466270000000000004310000000000                      
0331832300112U 020000000000000000000000000000000000000000000000000000000000000000000000000000000000000000000000000000000000000000000000002002201820022018000000000000000000000000000                              000                           
0331832300113T 02011710130046627        00000002159882DUR6477002     2802201800000000000650003301171                         001000018229742839CLAUDINEI FRANCISCO DO NASCIMENTO       01300466270000000000004310000000000                      
0331832300114U 020000000000000000000000000000000000000000000000000000000000000000000000000000000000000000000000000000000000000000000000002002201820022018000000000000000000000000000                              000                           
0331832300115T 02011710130046627        00000002161002FWC1850002     2802201800000000001300003301171                         001000008648854822CLAUDIO DA FONSECA CASTILHO             01300466270000000000004310000000000                      
0331832300116U 020000000000000000000000000000000000000000000000000000000000000000000000000000000000000000000000000000000000000000000000002002201820022018000000000000000000000000000                              000                           
0331832300117T 02011710130046627        00000002162242CLU3180002     2802201800000000001950003301171                         001000021872467873CLEBER JACKSON TAVARES                  01300466270000000000004310000000000                      
0331832300118U 020000000000000000000000000000000000000000000000000000000000000000000000000000000000000000000000000000000000000000000000002002201820022018000000000000000000000000000                              000                           
0331832300119T 02011710130046627        00000002163482DJB0903012     2802201800000000000650003301171                         001000036843350453CLEDINALDO  BORGES LIMEIRA              01300466270000000000004310000000000                      
0331832300120U 020000000000000000000000000000000000000000000000000000000000000000000000000000000000000000000000000000000000000000000000002002201820022018000000000000000000000000000                              000                           
0331832300121T 02011710130046627        000000021646122 PLACAS       2802201800000000001300003301171                         001000024949639153CLOVIS ANTONIO PACHECO DE MORAES        01300466270000000000004310000000000                      
0331832300122U 020000000000000000000000000000000000000000000000000000000000000000000000000000000000000000000000000000000000000000000000002002201820022018000000000000000000000000000                              000                           
0331832300123T 02011710130046627        00000002165852FMU / CPI002   2802201800000000001300003301171                         002022576068000156COMERCIAL 3 IRMAOS                      01300466270000000000004310000000000                      
0331832300124U 020000000000000000000000000000000000000000000000000000000000000000000000000000000000000000000000000000000000000000000000002002201820022018000000000000000000000000000                              000                           
0331832300125T 02011710130046627        00000002167042HIL7447012     2802201800000000001300003301171                         002019036708000120COMERCIAL BOA SAFRA ITABERA LTDA - ME   01300466270000000000004310000000000                      
0331832300126U 020000000000000000000000000000000000000000000000000000000000000000000000000000000000000000000000000000000000000000000000002002201820022018000000000000000000000000000                              000                           
0331832300127T 02011710130046627        00000002168282EMU0937002     2802201800000000001300003301171                         002020083702000193CT DE SOUSA SANTOS - ME                 01300466270000000000004310000000000                      
0331832300128U 020000000000000000000000000000000000000000000000000000000000000000000000000000000000000000000000000000000000000000000000002002201820022018000000000000000000000000000                              000                           
0331832300129T 02011710130046627        00000002169412AHG / KFI002   2802201800000000001300003301171                         002024858015000153D&A TRANSPORTES RODOVIARIOS             01300466270000000000004310000000000                      
0331832300130U 020000000000000000000000000000000000000000000000000000000000000000000000000000000000000000000000000000000000000000000000002002201820022018000000000000000000000000000                              000                           
0331832300131T 02011710130046627        00000002171822KLY / KKP002   2802201800000000002600003301171                         001000001004931492DALVISSON GADELHA DA COSTA SOBRINHO     01300466270000000000004310000000000                      
0331832300132U 020000000000000000000000000000000000000000000000000000000000000000000000000000000000000000000000000000000000000000000000002002201820022018000000000000000000000000000                              000                           
0331832300133T 02011710130046627        00000002173012JMV5031002     2802201800000000000650003301171                         001000025667317800DANIEL IZAR KOHLE                       01300466270000000000004310000000000                      
0331832300134U 020000000000000000000000000000000000000000000000000000000000000000000000000000000000000000000000000000000000000000000000002002201820022018000000000000000000000000000                              000                           
0331832300135T 02011710130046627        00000002174252CXU5297012     2802201800000000000650003301171                         001000033973775877DANIEL LUCAS NAVAS                      01300466270000000000004310000000000                      
0331832300136U 020000000000000000000000000000000000000000000000000000000000000000000000000000000000000000000000000000000000000000000000002002201820022018000000000000000000000000000                              000                           
0331832300137T 02011710130046627        00000002175492EGK6228002     2802201800000000001300003301171                         001000001833738802DANIEL MARTINS DE FREITAS               01300466270000000000004310000000000                      
0331832300138U 020000000000000000000000000000000000000000000000000000000000000000000000000000000000000000000000000000000000000000000000002002201820022018000000000000000000000000000                              000                           
0331832300139T 02011710130046627        00000002176622FIH9130002     2802201800000000000650003301171                         001000008773869864DANIEL REBELLO FIGUEIREDO               01300466270000000000004310000000000                      
0331832300140U 020000000000000000000000000000000000000000000000000000000000000000000000000000000000000000000000000000000000000000000000002002201820022018000000000000000000000000000                              000                           
0331832300141T 02011710130046627        00000002177862GVI6003002     2802201800000000001300003301171                         001000030813975883DAVID PEREIRA VIEIRA CARDOSO FILHO      01300466270000000000004310000000000                      
0331832300142U 020000000000000000000000000000000000000000000000000000000000000000000000000000000000000000000000000000000000000000000000002002201820022018000000000000000000000000000                              000                           
0331832300143T 02011710130046627        00000002180222CWJ5835002     2802201800000000000650003301171                         001000010284546860DOUGLAS ROGERIO SANTANA                 01300466270000000000004310000000000                      
0331832300144U 020000000000000000000000000000000000000000000000000000000000000000000000000000000000000000000000000000000000000000000000002002201820022018000000000000000000000000000                              000                           
0331832300145T 02011710130046627        00000002181462BTR7331002     2802201800000000000650003301171                         001000012879399882EBERSON LAZARO DA SILVEIRA              01300466270000000000004310000000000                      
0331832300146U 020000000000000000000000000000000000000000000000000000000000000000000000000000000000000000000000000000000000000000000000002002201820022018000000000000000000000000000                              000                           
0331832300147T 02011710130046627        00000002182602FLB9524002     2802201800000000000650003301171                         001000012402798840ED CARLOS NERGER                        01300466270000000000004310000000000                      
0331832300148U 020000000000000000000000000000000000000000000000000000000000000000000000000000000000000000000000000000000000000000000000002002201820022018000000000000000000000000000                              000                           
0331832300149T 02011710130046627        00000002183832MJY2020002     2802201800000000000650003301171                         001000003692497989EDERSON HENRIQUE DE SOUZA               01300466270000000000004310000000000                      
0331832300150U 020000000000000000000000000000000000000000000000000000000000000000000000000000000000000000000000000000000000000000000000002002201820022018000000000000000000000000000                              000                           
0331832300151T 02011710130046627        00000002185022CLH2785016     2802201800000000000650003301171                         001000028220470810EDGAR MACHADO DA SILVA                  01300466270000000000004310000000000                      
0331832300152U 020000000000000000000000000000000000000000000000000000000000000000000000000000000000000000000000000000000000000000000000002002201820022018000000000000000000000000000                              000                           
0331832300153T 02011710130046627        00000002187402DDS0937002     2802201800000000000650003301171                         001000041378333896EDISON ROBERTO VENANCIO JUNIOR          01300466270000000000004310000000000                      
0331832300154U 020000000000000000000000000000000000000000000000000000000000000000000000000000000000000000000000000000000000000000000000002002201820022018000000000000000000000000000                              000                           
0331832300155T 02011710130046627        00000002188632MGU5262002     2802201800000000000650003301171                         001000070921083904EDMILSON FRANCISCO DO NASCIMENTO        01300466270000000000004310000000000                      
0331832300156U 020000000000000000000000000000000000000000000000000000000000000000000000000000000000000000000000000000000000000000000000002002201820022018000000000000000000000000000                              000                           
0331832300157T 02011710130046627        00000002189872JSV8589002     2802201800000000000650003301171                         001000027409523840EDNEI DE CAMPOS CAMARGO                 01300466270000000000004310000000000                      
0331832300158U 020000000000000000000000000000000000000000000000000000000000000000000000000000000000000000000000000000000000000000000000002002201820022018000000000000000000000000000                              000                           
0331832300159T 02011710130046627        00000002191002AQP4163002     2802201800000000001300003301171                         001000025865933833EDNILSON APARECIDO BENEDITO             01300466270000000000004310000000000                      
0331832300160U 020000000000000000000000000000000000000000000000000000000000000000000000000000000000000000000000000000000000000000000000002002201820022018000000000000000000000000000                              000                           
0331832300161T 02011710130046627        00000002193472AUQ2814002     2802201800000000001300003301171                         001000032553721862EDUARDO CANANEA DE OLIVEIRA             01300466270000000000004310000000000                      
0331832300162U 020000000000000000000000000000000000000000000000000000000000000000000000000000000000000000000000000000000000000000000000002002201820022018000000000000000000000000000                              000                           
0331832300163T 02011710130046627        00000002194602DPF6675002     2802201800000000001300003301171                         001000014985695874REGINALDO DA VEIGA                      01300466270000000000004310000000000                      
0331832300164U 020000000000000000000000000000000000000000000000000000000000000000000000000000000000000000000000000000000000000000000000002002201820022018000000000000000000000000000                              000                           
0331832300165T 02011710130046627        00000002197032BHO / DJC002   2802201800000000001300003301171                         002004352154000101EDVALDO SOTHERO DE GODOY ME             01300466270000000000004310000000000                      
0331832300166U 020000000000000000000000000000000000000000000000000000000000000000000000000000000000000000000000000000000000000000000000002002201820022018000000000000000000000000000                              000                           
0331832300167T 02011710130046627        00000002198272AQC / AFS002   2802201800000000002600003301171                         001000031615950842ELAINE DE ALMEIDA SOUZA                 01300466270000000000004310000000000                      
0331832300168U 020000000000000000000000000000000000000000000000000000000000000000000000000000000000000000000000000000000000000000000000002002201820022018000000000000000000000000000                              000                           
0331832300169T 02011710130046627        00000002199402AQB6451002     2802201800000000001300003301171                         001000002103160398ELENILDO JOSE DA SILVA                  01300466270000000000004310000000000                      
0331832300170U 020000000000000000000000000000000000000000000000000000000000000000000000000000000000000000000000000000000000000000000000002002201820022018000000000000000000000000000                              000                           
0331832300171T 02011710130046627        00000002200602EPW1272002     2802201800000000000650003301171                         001000028730169810ELENILTON DE NOVAES VIEIRA              01300466270000000000004310000000000                      
0331832300172U 020000000000000000000000000000000000000000000000000000000000000000000000000000000000000000000000000000000000000000000000002002201820022018000000000000000000000000000                              000                           
0331832300173T 02011710130046627        00000002203022BTR5809012     2802201800000000000650003301171                         001000037749650806ELIO CARVALHO DOS SANTOS                01300466270000000000004310000000000                      
0331832300174U 020000000000000000000000000000000000000000000000000000000000000000000000000000000000000000000000000000000000000000000000002002201820022018000000000000000000000000000                              000                           
0331832300175T 02011710130046627        00000002205402NTM2707002     2802201800000000000650003301171                         001000080953441849EPIFANIO MEDEIROS CAVALCANTE            01300466270000000000004310000000000                      
0331832300176U 020000000000000000000000000000000000000000000000000000000000000000000000000000000000000000000000000000000000000000000000002002201820022018000000000000000000000000000                              000                           
0331832300177T 02011710130046627        00000002206632DPF0047002     2802201800000000000650003301171                         002025328087000151ERIESTER DOMINGOS                       01300466270000000000004310000000000                      
0331832300178U 020000000000000000000000000000000000000000000000000000000000000000000000000000000000000000000000000000000000000000000000002002201820022018000000000000000000000000000                              000                           
0331832300179T 02011710130046627        00000002207872BSF7926002     2802201800000000000650003301171                         001000035076891890ERNESTO CARLOS ESTEVES FILHO            01300466270000000000004310000000000                      
0331832300180U 020000000000000000000000000000000000000000000000000000000000000000000000000000000000000000000000000000000000000000000000002002201820022018000000000000000000000000000                              000                           
0331832300181T 02011710130046627        00000002209062LXI7229002     2802201800000000000650003301171                         001000035488804870EVANDRO MARCHESINI                      01300466270000000000004310000000000                      
0331832300182U 020000000000000000000000000000000000000000000000000000000000000000000000000000000000000000000000000000000000000000000000002002201820022018000000000000000000000000000                              000                           
0331832300183T 02011710130046627        00000002210232LRK5953012     2802201800000000000650003301171                         002021138324000160F FRANKLIN DOS SANTOS TRANSPORTADORA - M01300466270000000000004310000000000                      
0331832300184U 020000000000000000000000000000000000000000000000000000000000000000000000000000000000000000000000000000000000000000000000002002201820022018000000000000000000000000000                              000                           
0331832300185T 03011710130046627        000000022114724 PLACAS026    2802201800000000003250003301171                         001000000000000000FABIANO RAMIM                           01300466270000000000000004646000000                      
0331832300186U 030000000000000000000000000000000000000000000000000000000000000000000000000000000000000000000000000000000000000000000000002002201820022018000000000000000000000000000                              000                           
0331832300187T 03011710130046627        00000002212602HIW1599002     2802201800000000000650003301171                         001000000000000000FABIO CALIMAN LIPOLIS                   01300466270000000000000004646000000                      
0331832300188U 030000000000000000000000000000000000000000000000000000000000000000000000000000000000000000000000000000000000000000000000002002201820022018000000000000000000000000000                              000                           
0331832300189T 02011710130046627        00000002213842FLB0501002     2802201800000000000600003301171                         001000030849832837FABIO NOGUEIRA SILVEIRA                 01300466270000000000004310000000000                      
0331832300190U 020000000000000000000000000000000000000000000000000000000000000000000000000000000000000000000000000000000000000000000000002002201820022018000000000000000000000000000                              000                           
0331832300191T 02011710130046627        00000002216272CIK5297002     2802201800000000000650003301171                         001000030759318883FABIO ROSANTE                           01300466270000000000004310000000000                      
0331832300192U 020000000000000000000000000000000000000000000000000000000000000000000000000000000000000000000000000000000000000000000000002002201820022018000000000000000000000000000                              000                           
0331832300193T 02011710130046627        00000002219882ABI8280002     2802201800000000000650003301171                         001000028440808801FERNANDO CAPARROS                       01300466270000000000004310000000000                      
0331832300194U 020000000000000000000000000000000000000000000000000000000000000000000000000000000000000000000000000000000000000000000000002002201820022018000000000000000000000000000                              000                           
0331832300195T 02011710130046627        00000002221002DTA1797021     2802201800000000001300003301171                         001000013535802881FERNANDO PAULO PINHEIRO CAMBRAIA        01300466270000000000004310000000000                      
0331832300196U 020000000000000000000000000000000000000000000000000000000000000000000000000000000000000000000000000000000000000000000000002002201820022018000000000000000000000000000                              000                           
0331832300197T 02011710130046627        00000002222242CSQ5845002     2802201800000000000650003301171                         001000028448839900FERNANDO ZUMBA DA COSTA                 01300466270000000000004310000000000                      
0331832300198U 020000000000000000000000000000000000000000000000000000000000000000000000000000000000000000000000000000000000000000000000002002201820022018000000000000000000000000000                              000                           
0331832300199T 02011710130046627        00000002223482BXI3774002     2802201800000000000650003301171                         001000043678190510FIDELSINO PEREIRA DO SANTOS             01300466270000000000004310000000000                      
0331832300200U 020000000000000000000000000000000000000000000000000000000000000000000000000000000000000000000000000000000000000000000000002002201820022018000000000000000000000000000                              000                           
0331832300201T 02011710130046627        00000002224612AFY1450002     2802201800000000000650003301171                         001000003445285969FLAVIO DA SILVA MENDONCA                01300466270000000000004310000000000                      
0331832300202U 020000000000000000000000000000000000000000000000000000000000000000000000000000000000000000000000000000000000000000000000002002201820022018000000000000000000000000000                              000                           
0331832300203T 02011710130046627        000000022258524 PLACAS038    2802201800000000002550003301171                         002003683344000130FORT TRANS TRANSPORTADORA               01300466270000000000004310000000000                      
0331832300204U 020000000000000000000000000000000000000000000000000000000000000000000000000000000000000000000000000000000000000000000000002002201820022018000000000000000000000000000                              000                           
0331832300205T 02011710130046627        00000002227042CYA8744012     2802201800000000000650003301171                         001000007193627848FRANCISCA  MARIA DA CONCEICAO           01300466270000000000004310000000000                      
0331832300206U 020000000000000000000000000000000000000000000000000000000000000000000000000000000000000000000000000000000000000000000000002002201820022018000000000000000000000000000                              000                           
0331832300207T 02011710130046627        00000002230692BII9896002     2802201800000000000650003301171                         001000031674017880GEORGE LUIZ CASTRO                      01300466270000000000004310000000000                      
0331832300208U 020000000000000000000000000000000000000000000000000000000000000000000000000000000000000000000000000000000000000000000000002002201820022018000000000000000000000000000                              000                           
0331832300209T 02011710130046627        00000002231822DQL0010002     2802201800000000000650003301171                         001000021501916874GERALDO FERNANDES FILHO                 01300466270000000000004310000000000                      
0331832300210U 020000000000000000000000000000000000000000000000000000000000000000000000000000000000000000000000000000000000000000000000002002201820022018000000000000000000000000000                              000                           
0331832300211T 02011710130046627        00000002233012NLT2430002     2802201800000000000650003301171                         001000021501916874GERALDO FERNANDES FILHO                 01300466270000000000004310000000000                      
0331832300212U 020000000000000000000000000000000000000000000000000000000000000000000000000000000000000000000000000000000000000000000000002002201820022018000000000000000000000000000                              000                           
0331832300213T 02011710130046627        00000002234252BXE4804002     2802201800000000001300003301171                         001000027387176833GEWILSON SALES DA SILVA                 01300466270000000000004310000000000                      
0331832300214U 020000000000000000000000000000000000000000000000000000000000000000000000000000000000000000000000000000000000000000000000002002201820022018000000000000000000000000000                              000                           
0331832300215T 02011710130046627        00000002236622AMV / AMR002   2802201800000000001300003301171                         002026518440000129GIZELE REGINA DA ROSA TRANSPORTES - ME  01300466270000000000004310000000000                      
0331832300216U 020000000000000000000000000000000000000000000000000000000000000000000000000000000000000000000000000000000000000000000000002002201820022018000000000000000000000000000                              000                           
0331832300217T 02011710130046627        00000002237862CUC7737002     2802201800000000001000003301171                         001000032569823872GONCALO ANTONIO GRANDE                  01300466270000000000004310000000000                      
0331832300218U 020000000000000000000000000000000000000000000000000000000000000000000000000000000000000000000000000000000000000000000000002002201820022018000000000000000000000000000                              000                           
0331832300219T 02011710130046627        00000002239052CXA7210002     2802201800000000000650003301171                         001000030362827850GUSTAVO HENRIQUE PECEGO                 01300466270000000000004310000000000                      
0331832300220U 020000000000000000000000000000000000000000000000000000000000000000000000000000000000000000000000000000000000000000000000002002201820022018000000000000000000000000000                              000                           
0331832300221T 02011710130046627        000000022402222 PLACAS038    2802201800000000001300003301171                         001000003031173970HEBER CARLOS NASCIMENTO                 01300466270000000000004310000000000                      
0331832300222U 020000000000000000000000000000000000000000000000000000000000000000000000000000000000000000000000000000000000000000000000002002201820022018000000000000000000000000000                              000                           
0331832300223T 02011710130046627        00000002241462EFU3951012     2802201800000000001300003301171                         002022477295000124HEITOR RODRIGUES PRATA LTDA             01300466270000000000004310000000000                      
0331832300224U 020000000000000000000000000000000000000000000000000000000000000000000000000000000000000000000000000000000000000000000000002002201820022018000000000000000000000000000                              000                           
0331832300225T 02011710130046627        00000002242602BWZ2205012     2802201800000000000650003301171                         001000009468418880HELIO LEITE DAS CHAGAS                  01300466270000000000004310000000000                      
0331832300226U 020000000000000000000000000000000000000000000000000000000000000000000000000000000000000000000000000000000000000000000000002002201820022018000000000000000000000000000                              000                           
0331832300227T 02011710130046627        00000002243832CUC4211002     2802201800000000001300003301171                         001000012105410847HENRIQUE SPINOSA MOSSINI                01300466270000000000004310000000000                      
0331832300228U 020000000000000000000000000000000000000000000000000000000000000000000000000000000000000000000000000000000000000000000000002002201820022018000000000000000000000000000                              000                           
0331832300229T 02011710130046627        00000002245022AJM9427002     2802201800000000000650003301171                         001000006730681888ILSON ANTONIO BASSETE                   01300466270000000000004310000000000                      
0331832300230U 020000000000000000000000000000000000000000000000000000000000000000000000000000000000000000000000000000000000000000000000002002201820022018000000000000000000000000000                              000                           
0331832300231T 02011710130046627        00000002246262EZH2434002     2802201800000000000650003301171                         001000013296179836IRENILDO SOARES DA SILVA                01300466270000000000004310000000000                      
0331832300232U 020000000000000000000000000000000000000000000000000000000000000000000000000000000000000000000000000000000000000000000000002002201820022018000000000000000000000000000                              000                           
0331832300233T 02011710130046627        00000002247402BTO1656012     2802201800000000001300003301171                         001000000939516802IRINEU DE GOIS MORAES                   01300466270000000000004310000000000                      
0331832300234U 020000000000000000000000000000000000000000000000000000000000000000000000000000000000000000000000000000000000000000000000002002201820022018000000000000000000000000000                              000                           
0331832300235T 02011710130046627        00000002248632CKF8635002     2802201800000000000650003301171                         001000014714769871ITALO RODES PEREIRA                     01300466270000000000004310000000000                      
0331832300236U 020000000000000000000000000000000000000000000000000000000000000000000000000000000000000000000000000000000000000000000000002002201820022018000000000000000000000000000                              000                           
0331832300237T 02011710130046627        000000022510026 PLACAS002    2802201800000000004550003301171                         002010525486000135JC DOS SANTOS SALTO ME                  01300466270000000000004310000000000                      
0331832300238U 020000000000000000000000000000000000000000000000000000000000000000000000000000000000000000000000000000000000000000000000002002201820022018000000000000000000000000000                              000                           
0331832300239T 02011710130046627        00000002252232NLI3238002     2802201800000000001300003301171                         001000015681196828JEFERSON APARECIDO RAMOS                01300466270000000000004310000000000                      
0331832300240U 020000000000000000000000000000000000000000000000000000000000000000000000000000000000000000000000000000000000000000000000002002201820022018000000000000000000000000000                              000                           
0331832300241T 02011710130046627        00000002253472DJB6485002     2802201800000000000650003301171                         001000029518535809JESER BATISTA FERNANDES                 01300466270000000000004310000000000                      
0331832300242U 020000000000000000000000000000000000000000000000000000000000000000000000000000000000000000000000000000000000000000000000002002201820022018000000000000000000000000000                              000                           
0331832300243T 02011710130046627        00000002254602BWC0008012     2802201800000000000650003301171                         001000071274375800JOAO BIANCHI                            01300466270000000000004310000000000                      
0331832300244U 020000000000000000000000000000000000000000000000000000000000000000000000000000000000000000000000000000000000000000000000002002201820022018000000000000000000000000000                              000                           
0331832300245T 02011710130046627        00000002257032MCV4762002     2802201800000000000650003301171                         001000026180250839JOAO FRANCISCO RAMOS                    01300466270000000000004310000000000                      
0331832300246U 020000000000000000000000000000000000000000000000000000000000000000000000000000000000000000000000000000000000000000000000002002201820022018000000000000000000000000000                              000                           
0331832300247T 02011710130046627        00000002258272KGB7013012     2802201800000000000650003301171                         001000082597090400JOAO LORENCO DE LIRA                    01300466270000000000004310000000000                      
0331832300248U 020000000000000000000000000000000000000000000000000000000000000000000000000000000000000000000000000000000000000000000000002002201820022018000000000000000000000000000                              000                           
0331832300249T 02011710130046627        00000002259402FCB3935002     2802201800000000000650003301171                         001000012707158879JOAO VICENTE VACCARI                    01300466270000000000004310000000000                      
0331832300250U 020000000000000000000000000000000000000000000000000000000000000000000000000000000000000000000000000000000000000000000000002002201820022018000000000000000000000000000                              000                           
0331832300251T 02011710130046627        00000002260682CJH6478002     2802201800000000000650003301171                         001000036846210130JOAQUIM LOURENCO                        01300466270000000000004310000000000                      
0331832300252U 020000000000000000000000000000000000000000000000000000000000000000000000000000000000000000000000000000000000000000000000002002201820022018000000000000000000000000000                              000                           
0331832300253T 02011710130046627        00000002261812HEH7404002     2802201800000000001300003301171                         001000000372055958JOCELI FERNANDES                        01300466270000000000004310000000000                      
0331832300254U 020000000000000000000000000000000000000000000000000000000000000000000000000000000000000000000000000000000000000000000000002002201820022018000000000000000000000000000                              000                           
0331832300255T 02011710130046627        00000002263002KZN2808002     2802201800000000000650003301171                         001000030284873810JOEL DE FREITAS ROSA                    01300466270000000000004310000000000                      
0331832300256U 020000000000000000000000000000000000000000000000000000000000000000000000000000000000000000000000000000000000000000000000002002201820022018000000000000000000000000000                              000                           
0331832300257T 02011710130046627        00000002264242AMH3972002     2802201800000000000650003301171                         001000030589660837JOEL FRENHAN SANTANA                    01300466270000000000004310000000000                      
0331832300258U 020000000000000000000000000000000000000000000000000000000000000000000000000000000000000000000000000000000000000000000000002002201820022018000000000000000000000000000                              000                           
0331832300259T 02011710130046627        00000002265482DVT3791002     2802201800000000001300003301171                         001000015645108833JORGE EDUARDO DA SILVA                  01300466270000000000004310000000000                      
0331832300260U 020000000000000000000000000000000000000000000000000000000000000000000000000000000000000000000000000000000000000000000000002002201820022018000000000000000000000000000                              000                           
0331832300261T 02011710130046627        00000002266612JUO1436002     2802201800000000001300003301171                         002019919248000189JORGE LEITE GONCALVES FILHO - ME        01300466270000000000004310000000000                      
0331832300262U 020000000000000000000000000000000000000000000000000000000000000000000000000000000000000000000000000000000000000000000000002002201820022018000000000000000000000000000                              000                           
0331832300263T 02011710130046627        00000002267852FJR6762002     2802201800000000000650003301171                         001000010338264809JOSE AMERICO DA SILVA                   01300466270000000000004310000000000                      
0331832300264U 020000000000000000000000000000000000000000000000000000000000000000000000000000000000000000000000000000000000000000000000002002201820022018000000000000000000000000000                              000                           
0331832300265T 02011710130046627        00000002269042AKE5194002     2802201800000000000650003301171                         001000010338264809JOSE AMERICO DA SILVA                   01300466270000000000004310000000000                      
0331832300266U 020000000000000000000000000000000000000000000000000000000000000000000000000000000000000000000000000000000000000000000000002002201820022018000000000000000000000000000                              000                           
0331832300267T 02011710130046627        00000002270212CYN8670002     2802201800000000000650003301171                         001000015530654843JOSE ANDRADE DE SOUZA JUNIOR            01300466270000000000004310000000000                      
0331832300268U 020000000000000000000000000000000000000000000000000000000000000000000000000000000000000000000000000000000000000000000000002002201820022018000000000000000000000000000                              000                           
0331832300269T 02011710130046627        00000002271452MSK3754002     2802201800000000000650003301171                         001000008951094847JOSE AUGUSTO MARTINS DE ALENCAR         01300466270000000000004310000000000                      
0331832300270U 020000000000000000000000000000000000000000000000000000000000000000000000000000000000000000000000000000000000000000000000002002201820022018000000000000000000000000000                              000                           
0331832300271T 02011710130046627        00000002272692BXN3361012     2802201800000000000650003301171                         001000088942147887JOSE CANDIDO                            01300466270000000000004310000000000                      
0331832300272U 020000000000000000000000000000000000000000000000000000000000000000000000000000000000000000000000000000000000000000000000002002201820022018000000000000000000000000000                              000                           
0331832300273T 02011710130046627        00000002273822NTG7316002     2802201800000000001300003301171                         001000009034151867JOSE CARLOS DE FARIAS                   01300466270000000000004310000000000                      
0331832300274U 020000000000000000000000000000000000000000000000000000000000000000000000000000000000000000000000000000000000000000000000002002201820022018000000000000000000000000000                              000                           
0331832300275T 02011710130046627        00000002275012KVV4027002     2802201800000000001300003301171                         001000009034151867JOSE CARLOS DE FARIAS                   01300466270000000000004310000000000                      
0331832300276U 020000000000000000000000000000000000000000000000000000000000000000000000000000000000000000000000000000000000000000000000002002201820022018000000000000000000000000000                              000                           
0331832300277T 02011710130046627        000000022762523 PLACAS048    2802201800000000001950003301171                         002009411473000156JOSE CLAUDIO TAZINAFO - ME              01300466270000000000004310000000000                      
0331832300278U 020000000000000000000000000000000000000000000000000000000000000000000000000000000000000000000000000000000000000000000000002002201820022018000000000000000000000000000                              000                           
0331832300279T 02011710130046627        00000002277492EQV1147002     2802201800000000000650003301171                         001000032164207874JOSE EDUARDO LAGO SUBERO                01300466270000000000004310000000000                      
0331832300280U 020000000000000000000000000000000000000000000000000000000000000000000000000000000000000000000000000000000000000000000000002002201820022018000000000000000000000000000                              000                           
0331832300281T 02011710130046627        00000002279862DPE9213002     2802201800000000001300003301171                         001000013762328803JOSE GALDINO DA COSTA                   01300466270000000000004310000000000                      
0331832300282U 020000000000000000000000000000000000000000000000000000000000000000000000000000000000000000000000000000000000000000000000002002201820022018000000000000000000000000000                              000                           
0331832300283T 02011710130046627        00000002281092EZL7270002     2802201800000000000650003301171                         001000027273883816JOSE IVAN GOMES                         01300466270000000000004310000000000                      
0331832300284U 020000000000000000000000000000000000000000000000000000000000000000000000000000000000000000000000000000000000000000000000002002201820022018000000000000000000000000000                              000                           
0331832300285T 02011710130046627        00000002282222KOR1369002     2802201800000000000650003301171                         001000009545738898JOSE JACINTO LOPES                      01300466270000000000004310000000000                      
0331832300286U 020000000000000000000000000000000000000000000000000000000000000000000000000000000000000000000000000000000000000000000000002002201820022018000000000000000000000000000                              000                           
0331832300287T 02011710130046627        00000002283462GFK0099002     2802201800000000000650003301171                         001000059205938815JOSE LUIZ VITORELLO                     01300466270000000000004310000000000                      
0331832300288U 020000000000000000000000000000000000000000000000000000000000000000000000000000000000000000000000000000000000000000000000002002201820022018000000000000000000000000000                              000                           
0331832300289T 02011710130046627        00000002284602MER3048002     2802201800000000001300003301171                         001000051117975568JOSE MAGNO DOS SANTOS SIMOES            01300466270000000000004310000000000                      
0331832300290U 020000000000000000000000000000000000000000000000000000000000000000000000000000000000000000000000000000000000000000000000002002201820022018000000000000000000000000000                              000                           
0331832300291T 02011710130046627        00000002285832CZC1853002     2802201800000000000650003301171                         001000073987735953JOSE MARIA ALVES COSTA                  01300466270000000000004310000000000                      
0331832300292U 020000000000000000000000000000000000000000000000000000000000000000000000000000000000000000000000000000000000000000000000002002201820022018000000000000000000000000000                              000                           
0331832300293T 02011710130046627        00000002288852CYI5364012     2802201800000000000650003301171                         001000002407315308JOSE RIBAMAR MONTELIS DA SILVA          01300466270000000000004310000000000                      
0331832300294U 020000000000000000000000000000000000000000000000000000000000000000000000000000000000000000000000000000000000000000000000002002201820022018000000000000000000000000000                              000                           
0331832300295T 02011710130046627        00000002290082LOI / LBB002   2802201800000000001300003301171                         001000010229539742JOSE RODRIGO HARO RAMILO                01300466270000000000004310000000000                      
0331832300296U 020000000000000000000000000000000000000000000000000000000000000000000000000000000000000000000000000000000000000000000000002002201820022018000000000000000000000000000                              000                           
0331832300297T 02011710130046627        00000002291212KKM9093002     2802201800000000000650003301171                         001000004127133490JOSE SILVA MARTINS                      01300466270000000000004310000000000                      
0331832300298U 020000000000000000000000000000000000000000000000000000000000000000000000000000000000000000000000000000000000000000000000002002201820022018000000000000000000000000000                              000                           
0331832300299T 02011710130046627        00000002292452DTC2393002     2802201800000000000650003301171                         001000095789235549JOSEMAR EULALIO BARBOSA                 01300466270000000000004310000000000                      
0331832300300U 020000000000000000000000000000000000000000000000000000000000000000000000000000000000000000000000000000000000000000000000002002201820022018000000000000000000000000000                              000                           
0331832300301T 02011710130046627        00000002293692LNK7406002     2802201800000000000650003301171                         001000013003621890JULIO CESAR DA SILVA SOUZA              01300466270000000000004310000000000                      
0331832300302U 020000000000000000000000000000000000000000000000000000000000000000000000000000000000000000000000000000000000000000000000002002201820022018000000000000000000000000000                              000                           
0331832300303T 02011710130046627        00000002294822DTA0231012     2802201800000000001300003301171                         001000039031020249JURANDIR MIRANDA DA SILVA               01300466270000000000004310000000000                      
0331832300304U 020000000000000000000000000000000000000000000000000000000000000000000000000000000000000000000000000000000000000000000000002002201820022018000000000000000000000000000                              000                           
0331832300305T 02011710130046627        00000002296012GDT2998002     2802201800000000001300003301171                         002008114153000171JUVENAL M. DE JESUS - ME                01300466270000000000004310000000000                      
0331832300306U 020000000000000000000000000000000000000000000000000000000000000000000000000000000000000000000000000000000000000000000000002002201820022018000000000000000000000000000                              000                           
0331832300307T 02011710130046627        00000002297252OVA3374002     2802201800000000001300003301171                         001000037645052813KARINE APARECIDA PAMPOLIM               01300466270000000000004310000000000                      
0331832300308U 020000000000000000000000000000000000000000000000000000000000000000000000000000000000000000000000000000000000000000000000002002201820022018000000000000000000000000000                              000                           
0331832300309T 02011710130046627        00000002298492CGU1072002     2802201800000000000650003301171                         001000001590311841LAIR ANTONIO BARBOSA ARAUJO             01300466270000000000004310000000000                      
0331832300310U 020000000000000000000000000000000000000000000000000000000000000000000000000000000000000000000000000000000000000000000000002002201820022018000000000000000000000000000                              000                           
0331832300311T 03011710130046627        00000002299622DAX6015002     2802201800000000000650003301171                         001000000000000000LEANDRO DE MELLO                        01300466270000000000000004646000000                      
0331832300312U 030000000000000000000000000000000000000000000000000000000000000000000000000000000000000000000000000000000000000000000000002002201820022018000000000000000000000000000                              000                           
0331832300313T 03011710130046627        0000000230367210 PLACAS002   2802201800000000007800003301171                         001000000000000000LEONARDO BITTENCOURT DE ALMEIDA TRANSPOR01300466270000000000000004646000000                      
0331832300314U 030000000000000000000000000000000000000000000000000000000000000000000000000000000000000000000000000000000000000000000000002002201820022018000000000000000000000000000                              000                           
0331832300315T 02011710130046627        00000002304802BWG3848002     2802201800000000000650003301171                         001000032933386828LUIS FERNANDO BATONI GERBI JUNIOR       01300466270000000000004310000000000                      
0331832300316U 020000000000000000000000000000000000000000000000000000000000000000000000000000000000000000000000000000000000000000000000002002201820022018000000000000000000000000000                              000                           
0331832300317T 02011710130046627        00000002306002CDE7929002     2802201800000000000650003301171                         001000023215691825LUIZ DIAMANTINO CERSOSIMO NETO          01300466270000000000004310000000000                      
0331832300318U 020000000000000000000000000000000000000000000000000000000000000000000000000000000000000000000000000000000000000000000000002002201820022018000000000000000000000000000                              000                           
0331832300319T 02011710130046627        00000002307232KRA2521002     2802201800000000000650003301171                         001000001841269832LUPERCIO BATISTA DA ROSA                01300466270000000000004310000000000                      
0331832300320U 020000000000000000000000000000000000000000000000000000000000000000000000000000000000000000000000000000000000000000000000002002201820022018000000000000000000000000000                              000                           
0331832300321T 02011710130046627        000000023084724 PLACAS050    2802201800000000002600003301171                         002025080858000134LURIAN KAREN LEME DA SILVA - ME         01300466270000000000004310000000000                      
0331832300322U 020000000000000000000000000000000000000000000000000000000000000000000000000000000000000000000000000000000000000000000000002002201820022018000000000000000000000000000                              000                           
0331832300323T 02011710130046627        000000023108825 PLACAS014    2802201800000000006500003301171                         002021977215000137M BRAGA TRANSPORTES LTDA ME             01300466270000000000004310000000000                      
0331832300324U 020000000000000000000000000000000000000000000000000000000000000000000000000000000000000000000000000000000000000000000000002002201820022018000000000000000000000000000                              000                           
0331832300325T 02011710130046627        00000002313202DJB4779002     2802201800000000000650003301171                         001000002061193480MANOEL JOSE DA SILVA                    01300466270000000000004310000000000                      
0331832300326U 020000000000000000000000000000000000000000000000000000000000000000000000000000000000000000000000000000000000000000000000002002201820022018000000000000000000000000000                              000                           
0331832300327T 02011710130046627        00000002315682MFQ6302002     2802201800000000000650003301171                         001000012056909804MARCELO FERREIRA RAMOS                  01300466270000000000004310000000000                      
0331832300328U 020000000000000000000000000000000000000000000000000000000000000000000000000000000000000000000000000000000000000000000000002002201820022018000000000000000000000000000                              000                           
0331832300329T 02011710130046627        00000002316812ADL1839002     2802201800000000000650003301171                         001000025141726835MARCELO FURGERI BELENT                  01300466270000000000004310000000000                      
0331832300330U 020000000000000000000000000000000000000000000000000000000000000000000000000000000000000000000000000000000000000000000000002002201820022018000000000000000000000000000                              000                           
0331832300331T 02011710130046627        00000002319242AQP6180002     2802201800000000000650003301171                         001000031240671857MARCELO PINHEIRO DELLAMURA              01300466270000000000004310000000000                      
0331832300332U 020000000000000000000000000000000000000000000000000000000000000000000000000000000000000000000000000000000000000000000000002002201820022018000000000000000000000000000                              000                           
0331832300333T 02011710130046627        00000002321652AGT8539012     2802201800000000000650003301171                         001000081928700900MARCIA RIBEIRO TERLUK                   01300466270000000000004310000000000                      
0331832300334U 020000000000000000000000000000000000000000000000000000000000000000000000000000000000000000000000000000000000000000000000002002201820022018000000000000000000000000000                              000                           
0331832300335T 02011710130046627        00000002322892EPU6311002     2802201800000000000650003301171                         001000025552107845MARCIO BALESTRIN DE CAMARGO             01300466270000000000004310000000000                      
0331832300336U 020000000000000000000000000000000000000000000000000000000000000000000000000000000000000000000000000000000000000000000000002002201820022018000000000000000000000000000                              000                           
0331832300337T 02011710130046627        00000002325212CBR7578002     2802201800000000000650003301171                         001000027589744875MARCIO DE MORAIS SILVA                  01300466270000000000004310000000000                      
0331832300338U 020000000000000000000000000000000000000000000000000000000000000000000000000000000000000000000000000000000000000000000000002002201820022018000000000000000000000000000                              000                           
0331832300339T 02011710130046627        00000002326452DQK4284002     2802201800000000000650003301171                         001000000171860560MARCIO GLEDSON LIMA                     01300466270000000000004310000000000                      
0331832300340U 020000000000000000000000000000000000000000000000000000000000000000000000000000000000000000000000000000000000000000000000002002201820022018000000000000000000000000000                              000                           
0331832300341T 02011710130046627        000000023276922 PLACAS062    2802201800000000001300003301171                         001000014819419846MARCIO MENDES DA SILVA                  01300466270000000000004310000000000                      
0331832300342U 020000000000000000000000000000000000000000000000000000000000000000000000000000000000000000000000000000000000000000000000002002201820022018000000000000000000000000000                              000                           
0331832300343T 02011710130046627        00000002328822EDX4264        2802201800000000000500003301171                         001000027518210819MARCIO RAMOS PEREIRA                    01300466270000000000004310000000000                      
0331832300344U 020000000000000000000000000000000000000000000000000000000000000000000000000000000000000000000000000000000000000000000000002002201820022018000000000000000000000000000                              000                           
0331832300345T 02011710130046627        00000002330052GWD6821002     2802201800000000000650003301171                         001000030915526832MARCIO RICARDO DE OLIVEIRA              01300466270000000000004310000000000                      
0331832300346U 020000000000000000000000000000000000000000000000000000000000000000000000000000000000000000000000000000000000000000000000002002201820022018000000000000000000000000000                              000                           
0331832300347T 02011710130046627        00000002331292HER5161002     2802201800000000001300003301171                         001000030918902878MARCIO ROBERTO TAVARES SERRA JUNIOR     01300466270000000000004310000000000                      
0331832300348U 020000000000000000000000000000000000000000000000000000000000000000000000000000000000000000000000000000000000000000000000002002201820022018000000000000000000000000000                              000                           
0331832300349T 02011710130046627        000000023324222 PLACAS074    2802201800000000001300003301171                         001000022604564807MARCO ANTONIO DA SILVA VALE             01300466270000000000004310000000000                      
0331832300350U 020000000000000000000000000000000000000000000000000000000000000000000000000000000000000000000000000000000000000000000000002002201820022018000000000000000000000000000                              000                           
0331832300351T 02011710130046627        00000002335102LRJ7275002     2802201800000000000650003301171                         001000048234513842MARCO TOMAZ MOREIRA DIAS                01300466270000000000004310000000000                      
0331832300352U 020000000000000000000000000000000000000000000000000000000000000000000000000000000000000000000000000000000000000000000000002002201820022018000000000000000000000000000                              000                           
0331832300353T 02011710130046627        00000002336332BYD5898002     2802201800000000000650003301171                         001000003727366451MARCOS AMANCIO DA SILVA                 01300466270000000000004310000000000                      
0331832300354U 020000000000000000000000000000000000000000000000000000000000000000000000000000000000000000000000000000000000000000000000002002201820022018000000000000000000000000000                              000                           
0331832300355T 02011710130046627        00000002337572EBD9178002     2802201800000000000650003301171                         001000022825439800MARCOS RENATO FARRAPO BONADIO           01300466270000000000004310000000000                      
0331832300356U 020000000000000000000000000000000000000000000000000000000000000000000000000000000000000000000000000000000000000000000000002002201820022018000000000000000000000000000                              000                           
0331832300357T 02011710130046627        00000002338702BFE9024002     2802201800000000000650003301171                         001000003334906817MARINA EMILIA PEREIRA                   01300466270000000000004310000000000                      
0331832300358U 020000000000000000000000000000000000000000000000000000000000000000000000000000000000000000000000000000000000000000000000002002201820022018000000000000000000000000000                              000                           
0331832300359T 02011710130046627        00000002339942DTW4794002     2802201800000000000650003301171                         001000037383581881MARINA MARQUES VIANA SOUZA              01300466270000000000004310000000000                      
0331832300360U 020000000000000000000000000000000000000000000000000000000000000000000000000000000000000000000000000000000000000000000000002002201820022018000000000000000000000000000                              000                           
0331832300361T 02011710130046627        00000002341172INB8490002     2802201800000000001300003301171                         001000081964188091MARIO SERGIO JAVARES DA SILVA           01300466270000000000004310000000000                      
0331832300362U 020000000000000000000000000000000000000000000000000000000000000000000000000000000000000000000000000000000000000000000000002002201820022018000000000000000000000000000                              000                           
0331832300363T 02011710130046627        00000002342302KDF6264002     2802201800000000001300003301171                         001000005758898961MARK DIEISON LOPES CHAVES               01300466270000000000004310000000000                      
0331832300364U 020000000000000000000000000000000000000000000000000000000000000000000000000000000000000000000000000000000000000000000000002002201820022018000000000000000000000000000                              000                           
0331832300365T 02011710130046627        00000002343542EFU8978002     2802201800000000000650003301171                         001000027223289848MARLON OLIVEIRA CORREIA                 01300466270000000000004310000000000                      
0331832300366U 020000000000000000000000000000000000000000000000000000000000000000000000000000000000000000000000000000000000000000000000002002201820022018000000000000000000000000000                              000                           
0331832300367T 02011710130046627        00000002344782BTU7625012     2802201800000000000650003301171                         001000009420062830MAURO DACARO                            01300466270000000000004310000000000                      
0331832300368U 020000000000000000000000000000000000000000000000000000000000000000000000000000000000000000000000000000000000000000000000002002201820022018000000000000000000000000000                              000                           
0331832300369T 02011710130046627        00000002345912KDL5652014     2802201800000000000650003301171                         001000063361647053MAURO LUIS NASCIMENTO RODRIGUES         01300466270000000000004310000000000                      
0331832300370U 020000000000000000000000000000000000000000000000000000000000000000000000000000000000000000000000000000000000000000000000002002201820022018000000000000000000000000000                              000                           
0331832300371T 02011710130046627        00000002347102DJB7259002     2802201800000000001300003301171                         002022635906000115MAX A. S. BOMFIM TRANSPORTES            01300466270000000000004310000000000                      
0331832300372U 020000000000000000000000000000000000000000000000000000000000000000000000000000000000000000000000000000000000000000000000002002201820022018000000000000000000000000000                              000                           
0331832300373T 02011710130046627        00000002349582CGL4826002     2802201800000000000650003301171                         001000034385921857MICHEL OLIVEIRA DE RESENDE              01300466270000000000004310000000000                      
0331832300374U 020000000000000000000000000000000000000000000000000000000000000000000000000000000000000000000000000000000000000000000000002002201820022018000000000000000000000000000                              000                           
0331832300375T 02011710130046627        00000002350752LPV1436002     2802201800000000000650003301171                         001000036646098832MICHEL WESLEY BEZERRA DA SILVA          01300466270000000000004310000000000                      
0331832300376U 020000000000000000000000000000000000000000000000000000000000000000000000000000000000000000000000000000000000000000000000002002201820022018000000000000000000000000000                              000                           
0331832300377T 02011710130046627        00000002352022CVN9560003     2802201800000000001950003301171                         001000006762532454MIGUEL ANDERSON VASCONCELOS             01300466270000000000004310000000000                      
0331832300378U 020000000000000000000000000000000000000000000000000000000000000000000000000000000000000000000000000000000000000000000000002002201820022018000000000000000000000000000                              000                           
0331832300379T 06011710130046627        00000002352022CVN9560003     2802201800000000001950034137950                         001000006762532454MIGUEL ANDERSON VASCONCELOS             01300466270000000000000000400000000                      
0331832300380U 060000000000000000000000000000000000000000000000000000000000000000000000195000000000000195000000000000000000000000000000002002201821022018000000000000000000000000000                              000                           
0331832300381T 02011710130046627        00000002354402CLH9160004     2802201800000000001300003301171                         001000005796151894MILTON CAPRIOLI POLETINI                01300466270000000000004310000000000                      
0331832300382U 020000000000000000000000000000000000000000000000000000000000000000000000000000000000000000000000000000000000000000000000002002201820022018000000000000000000000000000                              000                           
0331832300383T 02011710130046627        00000002355632DXE6610011     2802201800000000000650003301171                         001000033922880800MISAEL ZUCO FERREIRA                    01300466270000000000004310000000000                      
0331832300384U 020000000000000000000000000000000000000000000000000000000000000000000000000000000000000000000000000000000000000000000000002002201820022018000000000000000000000000000                              000                           
0331832300385T 02011710130046627        00000002356872MWO2993002     2802201800000000001300003301171                         001000007668587748MONICA SOARES DO NASCIMENTO COUTO       01300466270000000000004310000000000                      
0331832300386U 020000000000000000000000000000000000000000000000000000000000000000000000000000000000000000000000000000000000000000000000002002201820022018000000000000000000000000000                              000                           
0331832300387T 02011710130046627        00000002358902EFO1717002     2802201800000000001300003301171                         001000040170031845NEIDE APARECIDA DIAS                    01300466270000000000004310000000000                      
0331832300388U 020000000000000000000000000000000000000000000000000000000000000000000000000000000000000000000000000000000000000000000000002002201820022018000000000000000000000000000                              000                           
0331832300389T 02011710130046627        000000023601222 PLACAS086    2802201800000000002600003301171                         001000006603594803NEIL SOARES ARRUDA                      01300466270000000000004310000000000                      
0331832300390U 020000000000000000000000000000000000000000000000000000000000000000000000000000000000000000000000000000000000000000000000002002201820022018000000000000000000000000000                              000                           
0331832300391T 02011710130046627        00000002361362KXP5167002     2802201800000000000650003301171                         001000017599241809NIELSEN RIBEIRO                         01300466270000000000004310000000000                      
0331832300392U 020000000000000000000000000000000000000000000000000000000000000000000000000000000000000000000000000000000000000000000000002002201820022018000000000000000000000000000                              000                           
0331832300393T 02011710130046627        00000002362502BZI8568002     2802201800000000000650003301171                         001000028319644828NIVALDO APARECIDO KETE                  01300466270000000000004310000000000                      
0331832300394U 020000000000000000000000000000000000000000000000000000000000000000000000000000000000000000000000000000000000000000000000002002201820022018000000000000000000000000000                              000                           
0331832300395T 02011710130046627        00000002363732HLX2280002     2802201800000000001950003301171                         002011417306000164NUNES ASSESSORIA                        01300466270000000000004310000000000                      
0331832300396U 020000000000000000000000000000000000000000000000000000000000000000000000000000000000000000000000000000000000000000000000002002201820022018000000000000000000000000000                              000                           
0331832300397T 02011710130046627        00000002364972GVP7647002     2802201800000000001300003301171                         002002864732000155OASIS AUTO PECAS FUNILARIA              01300466270000000000004310000000000                      
0331832300398U 020000000000000000000000000000000000000000000000000000000000000000000000000000000000000000000000000000000000000000000000002002201820022018000000000000000000000000000                              000                           
0331832300399T 02011710130046627        00000002366162DSD3759002     2802201800000000000650003301171                         002013247224000144OLIVEIRA GUINCHO E SERVICOS DE TRANSPORT01300466270000000000004310000000000                      
0331832300400U 020000000000000000000000000000000000000000000000000000000000000000000000000000000000000000000000000000000000000000000000002002201820022018000000000000000000000000000                              000                           
0331832300401T 02011710130046627        00000002367302GVK2754002     2802201800000000000650003301171                         001000010561264856ORLANDO JOSE DE SANT ANNA               01300466270000000000004310000000000                      
0331832300402U 020000000000000000000000000000000000000000000000000000000000000000000000000000000000000000000000000000000000000000000000002002201820022018000000000000000000000000000                              000                           
0331832300403T 02011710130046627        00000002368532HRN1556012     2802201800000000001300003301171                         001000006110729809OSMAR CANDIDO DA SILVA                  01300466270000000000004310000000000                      
0331832300404U 020000000000000000000000000000000000000000000000000000000000000000000000000000000000000000000000000000000000000000000000002002201820022018000000000000000000000000000                              000                           
0331832300405T 02011710130046627        00000002369772CMR7864002     2802201800000000000650003301171                         001000008588618877OTEVALDO SILVA NEVES                    01300466270000000000004310000000000                      
0331832300406U 020000000000000000000000000000000000000000000000000000000000000000000000000000000000000000000000000000000000000000000000002002201820022018000000000000000000000000000                              000                           
0331832300407T 03011710130046627        00000002370942DTR2532002     2802201800000000000650003301171                         001000000000000000PATRICIA DE JESUS                       01300466270000000000000004646000000                      
0331832300408U 030000000000000000000000000000000000000000000000000000000000000000000000000000000000000000000000000000000000000000000000002002201820022018000000000000000000000000000                              000                           
0331832300409T 02011710130046627        00000002372132DCZ4036002     2802201800000000000650003301171                         001000023714506934PAULO DE FREITAS SOBRINHO               01300466270000000000004310000000000                      
0331832300410U 020000000000000000000000000000000000000000000000000000000000000000000000000000000000000000000000000000000000000000000000002002201820022018000000000000000000000000000                              000                           
0331832300411T 02011710130046627        00000002373372DXV5208002     2802201800000000001300003301171                         001000036572371867PAULO HENRIQUE GARCIA SERRA             01300466270000000000004310000000000                      
0331832300412U 020000000000000000000000000000000000000000000000000000000000000000000000000000000000000000000000000000000000000000000000002002201820022018000000000000000000000000000                              000                           
