03300000        2023566251000133011710130046627     007651732           RASTREADORES PROTEGE LTDA ME  BANCO SANTANDER (BRASIL) S/A            219022018      000501040                                                                         T
03323481T01  040 2023566251000133007651732           011710130046627     RASTREADORES PROTEGE LTDA ME                                                                                  0000050119022018                                         
0332348300001T 06011710130046627        00000001857792FQW4742002     1012201700000000000650010429360                         001000005175874837LUIZ ANTONIO GUAZZELLI                  01300466270000000000000000400000000                      
0332348300002U 060000000000011150000000000000000000000000000000000000000000000000000000076150000000000076150000000000000000000000000000001902201820022018000000000000000000000000000                              000                           
0332348300003T 17011710130046627        00000002192231               1902201800000000000650034116220                         002000000000000000                                        01300466270000000000006600400000000                      
0332348300004U 170000000000000000000000000000000000000000000000000000000000000000000000065000000000000065000000000000000000000000000000001902201820022018000000000000000000000000000                              000                           
0332348300005T 17011710130046627        00000002215031               1902201800000000000650023703280                         002000000000000000                                        01300466270000000000006600400000000                      
0332348300006U 170000000000000000000000000000000000000000000000000000000000000000000000065000000000000065000000000000000000000000000000001902201820022018000000000000000000000000000                              000                           
0332348300007T 17011710130046627        00000002217401               1902201800000000000650003321679                         002000000000000000                                        01300466270000000000006600300000000                      
0332348300008U 170000000000000000000000000000000000000000000000000000000000000000000000065000000000000065000000000000000000000000000000001902201820022018000000000000000000000000000                              000                           
0332348300009T 06011710130046627        00000002252152NLI3238001     3001201800000000001300023724970                         001000015681196828JEFERSON APARECIDO RAMOS                01300466270000000000000000400000000                      
0332348300010U 060000000000005200000000000000000000000000000000000000000000000000000000135200000000000135200000000000000000000000000000001902201820022018000000000000000000000000000                              000                           
0332348300011T 17011710130046627        00000002302431               1902201800000000001950023729510                         002000000000000000                                        01300466270000000000006600400000000                      
0332348300012U 170000000000000000000000000000000000000000000000000000000000000000000000195000000000000195000000000000000000000000000000001902201820022018000000000000000000000000000                              000                           
0332348300013T 17011710130046627        00000002464501               1902201800000000002600010434960                         002000000000000000                                        01300466270000000000006600400000000                      
0332348300014U 170000000000000000000000000000000000000000000000000000000000000000000000260000000000000260000000000000000000000000000000001902201820022018000000000000000000000000000                              000                           
0332348300015T 17011710130046627        00000002544281               1902201800000000000650010416010                         002000000000000000                                        01300466270000000000006600400000000                      
0332348300016U 170000000000000000000000000000000000000000000000000000000000000000000000065000000000000065000000000000000000000000000000001902201820022018000000000000000000000000000                              000                           
0332348300017T 17011710130046627        00000002699641               1902201800000000001489010433710                         002000000000000000                                        01300466270000000000006600400000000                      
0332348300018U 170000000000000000000000000000000000000000000000000000000000000000000000148900000000000148900000000000000000000000000000001902201820022018000000000000000000000000000                              000                           
0332348300019T 06011710130046627        00000002706792FJJ4589001     3001201800000000001388000168320                         001000011345318855EDSON RIBEIRO DA SILVA                  01300466270000000000000000400000000                      
0332348300020U 060000000000005400000000000000000000000000000000000000000000000000000000144200000000000144200000000000000000000000000000001902201820022018000000000000000000000000000                              000                           
0332348300021T 17011710130046627        00000002794121               1902201800000000001139003310650                         002000000000000000                                        01300466270000000000006600300000000                      
0332348300022U 170000000000000000000000000000000000000000000000000000000000000000000000113900000000000113900000000000000000000000000000001902201820022018000000000000000000000000000                              000                           
0332348300023T 17011710130046627        00000002881281               1902201800000000001139010412820                         002000000000000000                                        01300466270000000000006600400000000                      
0332348300024U 170000000000000000000000000000000000000000000000000000000000000000000000113900000000000113900000000000000000000000000000001902201820022018000000000000000000000000000                              000                           
0332348300025T 17011710130046627        00000003032321               1902201800000000001139034101490                         002000000000000000                                        01300466270000000000006600400000000                      
0332348300026U 170000000000000000000000000000000000000000000000000000000000000000000000113900000000000113900000000000000000000000000000001902201820022018000000000000000000000000000                              000                           
0332348300027T 17011710130046627        00000003064361               1902201800000000000650034105590                         002000000000000000                                        01300466270000000000006600400000000                      
0332348300028U 170000000000000000000000000000000000000000000000000000000000000000000000065000000000000065000000000000000000000000000000001902201820022018000000000000000000000000000                              000                           
0332348300029T 17011710130046627        00000003080051               1902201800000000000650023715450                         002000000000000000                                        01300466270000000000006600400000000                      
0332348300030U 170000000000000000000000000000000000000000000000000000000000000000000000065000000000000065000000000000000000000000000000001902201820022018000000000000000000000000000                              000                           
0332348300031T 17011710130046627        00000003097451               1902201800000000001290610405860                         002000000000000000                                        01300466270000000000006600400000000                      
0332348300032U 170000000000000000000000000000000000000000000000000000000000000000000000129060000000000129060000000000000000000000000000001902201820022018000000000000000000000000000                              000                           
0332348300033T 17011710130046627        00000003111701               1902201800000000001155810402620                         002000000000000000                                        01300466270000000000006600400000000                      
0332348300034U 170000000000000000000000000000000000000000000000000000000000000000000000115580000000000115580000000000000000000000000000001902201820022018000000000000000000000000000                              000                           
0332348300035T 17011710130046627        00000003139391               1902201800000000001339510445380                         002000000000000000                                        01300466270000000000006600400000000                      
0332348300036U 170000000000000000000000000000000000000000000000000000000000000000000000133950000000000133950000000000000000000000000000001902201820022018000000000000000000000000000                              000                           
03323485         0000360001500000000000181944700000000000000000000000000000000000000000000000000000000000000000000000000497                                                                                                                     
03323489         000001000040                                                                                                                                                                                                                   
