03300000        2023566251000133011710130046627     007651732           RASTREADORES PROTEGE LTDA ME  BANCO SANTANDER (BRASIL) S/A            207022018      000495040                                                                         T
03317081T01  040 2023566251000133007651732           011710130046627     RASTREADORES PROTEGE LTDA ME                                                                                  0000049507022018                                         
0331708300001T 17011710130046627        00000001977001               0702201800000000001178523766320                         002000000000000000                                        01300466270000000000006600400000000                      
0331708300002U 170000000000000000000000000000000000000000000000000000000000000000000000117850000000000117850000000000000000000000000000000702201808022018000000000000000000000000000                              000                           
0331708300003T 09011710130046627        00000002072092ADESAO         0801201800000000002800003301171                         001000028253478844MICHELLE AMORIM TORRES                  01300466270000000000000591000000000                      
0331708300004U 090000000000000000000000000000000000000000000000000000000000000000000000000000000000000000000000000000000000000000000000000702201807022018000000000000000000000000000                              000                           
0331708300005T 06011710130046627        00000002101372BUD7976003     3001201800000000001300000115130                         001000077786661891ALVARO GOULART DE SOUZA                 01300466270000000000000000400000000                      
0331708300006U 060000000000002080000000000000000000000000000000000000000000000000000000132080000000000132080000000000000000000000000000000702201808022018000000000000000000000000000                              000                           
0331708300007T 17011710130046627        00000002124741               0702201800000000000650034196760                         002000000000000000                                        01300466270000000000006600400000000                      
0331708300008U 170000000000000000000000000000000000000000000000000000000000000000000000065000000000000065000000000000000000000000000000000702201808022018000000000000000000000000000                              000                           
0331708300009T 06011710130046627        00000002206552DPF0047001     3001201800000000000650003301783                         002025328087000151ERIESTER DOMINGOS                       01300466270000000000000000300000000                      
0331708300010U 060000000000001040000000000000000000000000000000000000000000000000000000066040000000000066040000000000000000000000000000000702201808022018000000000000000000000000000                              000                           
0331708300011T 06011710130046627        000000022401422 PLACAS037    3001201800000000001300000118210                         001000003031173970HEBER CARLOS NASCIMENTO                 01300466270000000000000000400000000                      
0331708300012U 060000000000002080000000000000000000000000000000000000000000000000000000132080000000000132080000000000000000000000000000000702201808022018000000000000000000000000000                              000                           
0331708300013T 09011710130046627        00000002300812MHO0300MES11   1001201800000000001489003301171                         001000027490513987IVONETE RIBEIRO DIAS                    01300466270000000000000591000000000                      
0331708300014U 090000000000000000000000000000000000000000000000000000000000000000000000000000000000000000000000000000000000000000000000000702201807022018000000000000000000000000000                              000                           
0331708300015T 09011710130046627        00000002382282CHW7095005     1001201800000000000650003301171                         001000028919729883ADRIANO ALEXANDRE DE ANDRADE            01300466270000000000000591000000000                      
0331708300016U 090000000000000000000000000000000000000000000000000000000000000000000000000000000000000000000000000000000000000000000000000702201807022018000000000000000000000000000                              000                           
0331708300017T 17011710130046627        00000002385111               0702201800000000001161003322403                         002000000000000000                                        01300466270000000000006600300000000                      
0331708300018U 170000000000000000000000000000000000000000000000000000000000000000000000116100000000000116100000000000000000000000000000000702201808022018000000000000000000000000000                              000                           
0331708300019T 09011710130046627        00000002387402DHK7088005     1001201800000000000650003301171                         001000039317415830BRUNO DE ALMEIDA                        01300466270000000000000591000000000                      
0331708300020U 090000000000000000000000000000000000000000000000000000000000000000000000000000000000000000000000000000000000000000000000000702201807022018000000000000000000000000000                              000                           
0331708300021T 09011710130046627        00000002391192ASO2277001     1001201800000000000550003301171                         001000003963566990FERNANDO JOSE FERREIRA ALBERTI          01300466270000000000000591000000000                      
0331708300022U 090000000000000000000000000000000000000000000000000000000000000000000000000000000000000000000000000000000000000000000000000702201807022018000000000000000000000000000                              000                           
0331708300023T 09011710130046627        00000002416362FQW4742003     1501201800000000000650003301171                         001000005175874837LUIZ ANTONIO GUAZZELLI                  01300466270000000000000591000000000                      
0331708300024U 090000000000000000000000000000000000000000000000000000000000000000000000000000000000000000000000000000000000000000000000000702201807022018000000000000000000000000000                              000                           
0331708300025T 09011710130046627        00000002418732ANJ9998004     1001201800000000000490003301171                         002016835827000155DA HORA COMERCIO                        01300466270000000000000591000000000                      
0331708300026U 090000000000000000000000000000000000000000000000000000000000000000000000000000000000000000000000000000000000000000000000000702201807022018000000000000000000000000000                              000                           
0331708300027T 09011710130046627        000000024199723 PLACAS071    1001201800000000001950003301171                         002009666100000126SAPG CONVITES E CARTOES LTDA            01300466270000000000000591000000000                      
0331708300028U 090000000000000000000000000000000000000000000000000000000000000000000000000000000000000000000000000000000000000000000000000702201807022018000000000000000000000000000                              000                           
0331708300029T 09011710130046627        00000002421102JPP3505003     0601201800000000000490003301171                         001000041416842870CAMILA LOPES DA SILVA                   01300466270000000000000591000000000                      
0331708300030U 090000000000000000000000000000000000000000000000000000000000000000000000000000000000000000000000000000000000000000000000000702201807022018000000000000000000000000000                              000                           
0331708300031T 09011710130046627        00000002434342EWG7720001     1001201800000000000650003301171                         001000028651417802JAIME ALMEIDA DOS SANTOS                01300466270000000000000591000000000                      
0331708300032U 090000000000000000000000000000000000000000000000000000000000000000000000000000000000000000000000000000000000000000000000000702201807022018000000000000000000000000000                              000                           
0331708300033T 06011710130046627        00000002517712ESU9604001     3001201800000000000650000115130                         001000077786661891ALVARO GOULART DE SOUZA                 01300466270000000000000000400000000                      
0331708300034U 060000000000001040000000000000000000000000000000000000000000000000000000066040000000000066040000000000000000000000000000000702201808022018000000000000000000000000000                              000                           
0331708300035T 06011710130046627        00000002551302BVX1753001     3001201800000000000650010444990                         001000004290060803WILSON ARRUDA                           01300466270000000000000000400000000                      
0331708300036U 060000000000001040000000000000000000000000000000000000000000000000000000066040000000000066040000000000000000000000000000000702201808022018000000000000000000000000000                              000                           
0331708300037T 06011710130046627        00000002559712DBC9341001     3001201800000000000650034187930                         001000040910900876DIEGO HENRIQUE QUINTAO CANTERO          01300466270000000000000000400000000                      
0331708300038U 060000000000001040000000000000000000000000000000000000000000000000000000066040000000000066040000000000000000000000000000000702201808022018000000000000000000000000000                              000                           
0331708300039T 17011710130046627        00000002573201               0702201800000000001155804101560                         002000000000000000                                        01300466270000000000006600400000000                      
0331708300040U 170000000000000000000000000000000000000000000000000000000000000000000000115580000000000115580000000000000000000000000000000702201808022018000000000000000000000000000                              000                           
0331708300041T 17011710130046627        00000002657301               0702201800000000001139000105830                         002000000000000000                                        01300466270000000000006600400000000                      
0331708300042U 170000000000000000000000000000000000000000000000000000000000000000000000113900000000000113900000000000000000000000000000000702201808022018000000000000000000000000000                              000                           
0331708300043T 06011710130046627        00000002761972AKJ6469001     3001201800000000001139010415310                         001000045480480812GUSTAVO GOMES DE PAULA                  01300466270000000000000000400000000                      
0331708300044U 060000000000001750000000000000000000000000000000000000000000000000000000115650000000000115650000000000000000000000000000000702201808022018000000000000000000000000000                              000                           
0331708300045T 17011710130046627        00000003039501               0702201800000000001139010410010                         002000000000000000                                        01300466270000000000006600400000000                      
0331708300046U 170000000000000000000000000000000000000000000000000000000000000000000000113900000000000113900000000000000000000000000000000702201808022018000000000000000000000000000                              000                           
0331708300047T 17011710130046627        00000003046621               0702201800000000001156200140540                         002000000000000000                                        01300466270000000000006600400000000                      
0331708300048U 170000000000000000000000000000000000000000000000000000000000000000000000115620000000000115620000000000000000000000000000000702201808022018000000000000000000000000000                              000                           
0331708300049T 17011710130046627        00000003066731               0702201800000000000650010432180                         002000000000000000                                        01300466270000000000006600400000000                      
0331708300050U 170000000000000000000000000000000000000000000000000000000000000000000000065000000000000065000000000000000000000000000000000702201808022018000000000000000000000000000                              000                           
0331708300051T 17011710130046627        00000003117821               0702201800000000000550710444990                         002000000000000000                                        01300466270000000000006600400000000                      
0331708300052U 170000000000000000000000000000000000000000000000000000000000000000000000055070000000000055070000000000000000000000000000000702201808022018000000000000000000000000000                              000                           
0331708300053T 17011710130046627        00000003117901               0702201800000000000783110444990                         002000000000000000                                        01300466270000000000006600400000000                      
0331708300054U 170000000000000000000000000000000000000000000000000000000000000000000000078310000000000078310000000000000000000000000000000702201808022018000000000000000000000000000                              000                           
0331708300055T 17011710130046627        00000003119361               0702201800000000000666800115130                         002000000000000000                                        01300466270000000000006600400000000                      
0331708300056U 170000000000000000000000000000000000000000000000000000000000000000000000066680000000000066680000000000000000000000000000000702201808022018000000000000000000000000000                              000                           
03317085         0000560001770000000000213081400000000000000000000000000000000000000000000000000000000000000000000000000491                                                                                                                     
03317089         000001000060                                                                                                                                                                                                                   
