03300000        2023566251000133011710130046627     007651732           RASTREADORES PROTEGE LTDA ME  BANCO SANTANDER (BRASIL) S/A            206022018      000494040                                                                         T
03313801T01  040 2023566251000133007651732           011710130046627     RASTREADORES PROTEGE LTDA ME                                                                                  0000049406022018                                         
0331380300001T 06011710130046627        00000002124662MZM6473001     3001201800000000000650034196760                         001000065282841568AIRON VITOR VILELA SILVA                01300466270000000000000000400000000                      
0331380300002U 060000000000000910000000000000000000000000000000000000000000000000000000065910000000000065910000000000000000000000000000000602201807022018000000000000000000000000000                              000                           
0331380300003T 06011710130046627        00000002184992CLH2785015     3001201800000000000650003313196                         001000028220470810EDGAR MACHADO DA SILVA                  01300466270000000000000000300000000                      
0331380300004U 060000000000000910000000000000000000000000000000000000000000000000000000065910000000000065910000000000000000000000000000000602201807022018000000000000000000000000000                              000                           
0331380300005T 17011710130046627        00000002204261               0602201800000000000650003339616                         002000000000000000                                        01300466270000000000006600300000000                      
0331380300006U 170000000000000000000000000000000000000000000000000000000000000000000000065000000000000065000000000000000000000000000000000602201807022018000000000000000000000000000                              000                           
0331380300007T 17011710130046627        00000002333901               0602201800000000000650034105510                         002000000000000000                                        01300466270000000000006600400000000                      
0331380300008U 170000000000000000000000000000000000000000000000000000000000000000000000065000000000000065000000000000000000000000000000000602201807022018000000000000000000000000000                              000                           
0331380300009T 06011710130046627        00000002339862DTW4794001     3001201800000000000650023701220                         001000037383581881MARINA MARQUES VIANA SOUZA              01300466270000000000000000400000000                      
0331380300010U 060000000000000910000000000000000000000000000000000000000000000000000000065910000000000065910000000000000000000000000000000602201807022018000000000000000000000000000                              000                           
0331380300011T 06011710130046627        00000002354312CLH9160003     3001201800000000001300010403420                         001000005796151894MILTON CAPRIOLI POLETINI                01300466270000000000000000400000000                      
0331380300012U 060000000000001820000000000000000000000000000000000000000000000000000000131820000000000131820000000000000000000000000000000602201807022018000000000000000000000000000                              000                           
0331380300013T 17011710130046627        00000002421281               0602201800000000000490034162320                         002000000000000000                                        01300466270000000000006600400000000                      
0331380300014U 170000000000000000000000000000000000000000000000000000000000000000000000049000000000000049000000000000000000000000000000000602201807022018000000000000000000000000000                              000                           
0331380300015T 06011710130046627        00000002473162OOF4501        3001201800000000001859103339560                         001000002965594906FABIO DA SILVA PEREIRA                  01300466270000000000000000300000000                      
0331380300016U 060000000000002580000000000000000000000000000000000000000000000000000000188490000000000188490000000000000000000000000000000602201807022018000000000000000000000000000                              000                           
0331380300017T 06011710130046627        00000002663292AXS1585001     3001201800000000001139010429970                         001000001021890995CLEBERSON LUIZ DA ROCHA                 01300466270000000000000000400000000                      
0331380300018U 060000000000001530000000000000000000000000000000000000000000000000000000115430000000000115430000000000000000000000000000000602201807022018000000000000000000000000000                              000                           
0331380300019T 06011710130046627        00000002677672DSW0912001     3001201800000000001139010431240                         001000040293174806DANIEL RODRIGUES DA SILVA               01300466270000000000000000400000000                      
0331380300020U 060000000000001530000000000000000000000000000000000000000000000000000000115430000000000115430000000000000000000000000000000602201807022018000000000000000000000000000                              000                           
0331380300021T 06011710130046627        00000002692202HMJ3930001     3001201800000000001139023778500                         001000038882703835DIEGO RODRIGUES PORTO                   01300466270000000000000000400000000                      
0331380300022U 060000000000001530000000000000000000000000000000000000000000000000000000115430000000000115430000000000000000000000000000000602201807022018000000000000000000000000000                              000                           
0331380300023T 06011710130046627        00000002693442EUY9916001     3001201800000000001139010432180                         001000002439291617DORICELIO ALVES DE SOUZA                01300466270000000000000000400000000                      
0331380300024U 060000000000001530000000000000000000000000000000000000000000000000000000115430000000000115430000000000000000000000000000000602201807022018000000000000000000000000000                              000                           
0331380300025T 17011710130046627        00000002751231               0602201800000000001139010430880                         002000000000000000                                        01300466270000000000006600400000000                      
0331380300026U 170000000000000000000000000000000000000000000000000000000000000000000000113900000000000113900000000000000000000000000000000602201807022018000000000000000000000000000                              000                           
0331380300027T 06011710130046627        00000002906102QDT6742001     3001201800000000001139004101520                         001000052604004020ROGERIO LOPES BRAUN                     01300466270000000000000000400000000                      
0331380300028U 060000000000001530000000000000000000000000000000000000000000000000000000115430000000000115430000000000000000000000000000000602201807022018000000000000000000000000000                              000                           
0331380300029T 17011710130046627        00000002907341               0602201800000000001155804101520                         002000000000000000                                        01300466270000000000006600400000000                      
0331380300030U 170000000000000000000000000000000000000000000000000000000000000000000000115580000000000115580000000000000000000000000000000602201807022018000000000000000000000000000                              000                           
0331380300031T 06011710130046627        00000002932612MWR2624001     3001201800000000001489003337222                         001000007228670930MAIKE FERNANDO MORAIS BERTOLETTI        01300466270000000000000000300000000                      
0331380300032U 060000000000002020000000000000000000000000000000000000000000000000000000150920000000000150920000000000000000000000000000000602201807022018000000000000000000000000000                              000                           
0331380300033T 17011710130046627        00000002955581               0602201800000000001139034181050                         002000000000000000                                        01300466270000000000006600400000000                      
0331380300034U 170000000000000000000000000000000000000000000000000000000000000000000000113900000000000113900000000000000000000000000000000602201807022018000000000000000000000000000                              000                           
0331380300035T 06011710130046627        00000003005862CFM9304001     3001201800000000001139034137530                         001000013779975882SERGIO DIAS BUENO                       01300466270000000000000000400000000                      
0331380300036U 060000000000001530000000000000000000000000000000000000000000000000000000115430000000000115430000000000000000000000000000000602201807022018000000000000000000000000000                              000                           
0331380300037T 17011710130046627        00000003112941               0602201800000000001577103336803                         002000000000000000                                        01300466270000000000006600300000000                      
0331380300038U 170000000000000000000000000000000000000000000000000000000000000000000000157710000000000157710000000000000000000000000000000602201807022018000000000000000000000000000                              000                           
0331380300039T 17011710130046627        00000003116421               0602201800000000001155800118690                         002000000000000000                                        01300466270000000000006600400000000                      
0331380300040U 170000000000000000000000000000000000000000000000000000000000000000000000115580000000000115580000000000000000000000000000000602201807022018000000000000000000000000000                              000                           
0331380300041T 17011710130046627        00000003116501               0602201800000000000659534172100                         002000000000000000                                        01300466270000000000006600400000000                      
0331380300042U 170000000000000000000000000000000000000000000000000000000000000000000000065950000000000065950000000000000000000000000000000602201807022018000000000000000000000000000                              000                           
03313805         0000420001940000000000229789400000000000000000000000000000000000000000000000000000000000000000000000000490                                                                                                                     
03313809         000001000046                                                                                                                                                                                                                   
