03300000        2023566251000133011710130046627     007651732           RASTREADORES PROTEGE LTDA ME  BANCO SANTANDER (BRASIL) S/A            214022018      000498040                                                                         T
03399551T01  040 2023566251000133007651732           011710130046627     RASTREADORES PROTEGE LTDA ME                                                                                  0000049814022018                                         
0339955300001T 17011710130046627        00000002073811               1402201800000000001239034140790                         002000000000000000                                        01300466270000000000006600400000000                      
0339955300002U 170000000000000000000000000000000000000000000000000000000000000000000000123900000000000123900000000000000000000000000000001402201815022018000000000000000000000000000                              000                           
0339955300003T 17011710130046627        00000002170691               1402201800000000001300023703300                         002000000000000000                                        01300466270000000000006600400000000                      
0339955300004U 170000000000000000000000000000000000000000000000000000000000000000000000130000000000000130000000000000000000000000000000001402201815022018000000000000000000000000000                              000                           
0339955300005T 17011710130046627        00000002218641               1402201800000000000650023705310                         002000000000000000                                        01300466270000000000006600400000000                      
0339955300006U 170000000000000000000000000000000000000000000000000000000000000000000000065000000000000065000000000000000000000000000000001402201815022018000000000000000000000000000                              000                           
0339955300007T 06011710130046627        00000002223302BXI3774001     3001201800000000000650000109290                         001000043678190510FIDELSINO PEREIRA DO SANTOS             01300466270000000000000000400000000                      
0339955300008U 060000000000001950000000000000000000000000000000000000000000000000000000066950000000000066950000000000000000000000000000001402201815022018000000000000000000000000000                              000                           
0339955300009T 06011710130046627        00000002248552CKF8635001     3001201800000000000650003301570                         001000014714769871ITALO RODES PEREIRA                     01300466270000000000000000300000000                      
0339955300010U 060000000000001950000000000000000000000000000000000000000000000000000000066950000000000066950000000000000000000000000000001402201815022018000000000000000000000000000                              000                           
0339955300011T 17011710130046627        00000002353261               1402201800000000000650010429000                         002000000000000000                                        01300466270000000000006600400000000                      
0339955300012U 170000000000000000000000000000000000000000000000000000000000000000000000065000000000000065000000000000000000000000000000001402201815022018000000000000000000000000000                              000                           
0339955300013T 17011710130046627        00000002386351               1402201800000000000650074852600                         002000000000000000                                        01300466270000000000006600400000000                      
0339955300014U 170000000000000000000000000000000000000000000000000000000000000000000000065000000000000065000000000000000000000000000000001402201815022018000000000000000000000000000                              000                           
0339955300015T 17011710130046627        00000002397201               1402201800000000000590023719690                         002000000000000000                                        01300466270000000000006600400000000                      
0339955300016U 170000000000000000000000000000000000000000000000000000000000000000000000059000000000000059000000000000000000000000000000001402201815022018000000000000000000000000000                              000                           
0339955300017T 17011710130046627        00000002398441               1402201800000000000990023719690                         002000000000000000                                        01300466270000000000006600400000000                      
0339955300018U 170000000000000000000000000000000000000000000000000000000000000000000000099000000000000099000000000000000000000000000000001402201815022018000000000000000000000000000                              000                           
0339955300019T 17011710130046627        00000002399411               1402201800000000002887134163300                         002000000000000000                                        01300466270000000000006600400000000                      
0339955300020U 170000000000000000000000000000000000000000000000000000000000000000000000288710000000000288710000000000000000000000000000001402201815022018000000000000000000000000000                              000                           
0339955300021T 17011710130046627        00000002403031               1402201800000000000490000132730                         002000000000000000                                        01300466270000000000006600400000000                      
0339955300022U 170000000000000000000000000000000000000000000000000000000000000000000000049000000000000049000000000000000000000000000000001402201815022018000000000000000000000000000                              000                           
0339955300023T 17011710130046627        00000002404271               1402201800000000000650034131460                         002000000000000000                                        01300466270000000000006600400000000                      
0339955300024U 170000000000000000000000000000000000000000000000000000000000000000000000065000000000000065000000000000000000000000000000001402201815022018000000000000000000000000000                              000                           
0339955300025T 17011710130046627        00000002418811               1402201800000000000490010403720                         002000000000000000                                        01300466270000000000006600400000000                      
0339955300026U 170000000000000000000000000000000000000000000000000000000000000000000000049000000000000049000000000000000000000000000000001402201815022018000000000000000000000000000                              000                           
0339955300027T 17011710130046627        00000002420041               1402201800000000001950003315385                         002000000000000000                                        01300466270000000000006600300000000                      
0339955300028U 170000000000000000000000000000000000000000000000000000000000000000000000195000000000000195000000000000000000000000000000001402201815022018000000000000000000000000000                              000                           
0339955300029T 17011710130046627        00000002420041               1402201800000000001950003315385                         002000000000000000                                        01300466270000000000006600300000000                      
0339955300030U 170000000000000000000000000000000000000000000000000000000000000000000000195000000000000195000000000000000000000000000000001402201815022018000000000000000000000000000                              000                           
0339955300031T 17011710130046627        00000002423651               1402201800000000000650010412060                         002000000000000000                                        01300466270000000000006600400000000                      
0339955300032U 170000000000000000000000000000000000000000000000000000000000000000000000065000000000000065000000000000000000000000000000001402201815022018000000000000000000000000000                              000                           
0339955300033T 17011710130046627        00000002427211               1402201800000000001300023717670                         002000000000000000                                        01300466270000000000006600400000000                      
0339955300034U 170000000000000000000000000000000000000000000000000000000000000000000000130000000000000130000000000000000000000000000000001402201815022018000000000000000000000000000                              000                           
0339955300035T 17011710130046627        00000002453561               1402201800000000000650000102980                         002000000000000000                                        01300466270000000000006600400000000                      
0339955300036U 170000000000000000000000000000000000000000000000000000000000000000000000065000000000000065000000000000000000000000000000001402201815022018000000000000000000000000000                              000                           
0339955300037T 17011710130046627        00000002484101               1402201800000000000650003337346                         002000000000000000                                        01300466270000000000006600300000000                      
0339955300038U 170000000000000000000000000000000000000000000000000000000000000000000000065000000000000065000000000000000000000000000000001402201815022018000000000000000000000000000                              000                           
0339955300039T 06011710130046627        000000025057022PLACAS015     3001201800000000002600000100180                         001000089474511853SEBASTIAO PESSOA SILVA                  01300466270000000000000000400000000                      
0339955300040U 060000000000007640000000000000000000000000000000000000000000000000000000267640000000000267640000000000000000000000000000001402201815022018000000000000000000000000000                              000                           
0339955300041T 17011710130046627        00000002695901               1402201800000000001139010440480                         002000000000000000                                        01300466270000000000006600400000000                      
0339955300042U 170000000000000000000000000000000000000000000000000000000000000000000000113900000000000113900000000000000000000000000000001402201815022018000000000000000000000000000                              000                           
0339955300043T 17011710130046627        00000002791531               1402201800000000001139010415710                         002000000000000000                                        01300466270000000000006600400000000                      
0339955300044U 170000000000000000000000000000000000000000000000000000000000000000000000113900000000000113900000000000000000000000000000001402201815022018000000000000000000000000000                              000                           
0339955300045T 17011710130046627        00000002842541               1402201800000000001239034101410                         002000000000000000                                        01300466270000000000006600400000000                      
0339955300046U 170000000000000000000000000000000000000000000000000000000000000000000000123900000000000123900000000000000000000000000000001402201815022018000000000000000000000000000                              000                           
0339955300047T 17011710130046627        00000002884701               1402201800000000001789034169330                         002000000000000000                                        01300466270000000000006600400000000                      
0339955300048U 170000000000000000000000000000000000000000000000000000000000000000000000178900000000000178900000000000000000000000000000001402201815022018000000000000000000000000000                              000                           
0339955300049T 17011710130046627        00000003063121               1402201800000000001139010435790                         002000000000000000                                        01300466270000000000006600400000000                      
0339955300050U 170000000000000000000000000000000000000000000000000000000000000000000000113900000000000113900000000000000000000000000000001402201815022018000000000000000000000000000                              000                           
0339955300051T 17011710130046627        00000003116691               1402201800000000001495003320729                         002000000000000000                                        01300466270000000000006600300000000                      
0339955300052U 170000000000000000000000000000000000000000000000000000000000000000000000149500000000000149500000000000000000000000000000001402201815022018000000000000000000000000000                              000                           
0339955300053T 17011710130046627        00000003139471               1402201800000000001172634137030                         002000000000000000                                        01300466270000000000006600400000000                      
0339955300054U 170000000000000000000000000000000000000000000000000000000000000000000000117260000000000117260000000000000000000000000000001402201815022018000000000000000000000000000                              000                           
03399555         0000540001590000000000191761700000000000000000000000000000000000000000000000000000000000000000000000000494                                                                                                                     
03399559         000001000058                                                                                                                                                                                                                   
