03300000        2023566251000133011710130046627     007651732           RASTREADORES PROTEGE LTDA ME  BANCO SANTANDER (BRASIL) S/A            222022018      000504040                                                                         T
03363601T01  040 2023566251000133007651732           011710130046627     RASTREADORES PROTEGE LTDA ME                                                                                  0000050422022018                                         
0336360300001T 06011710130046627        00000002272692BXN3361012     2802201800000000000650010432690                         001000088942147887JOSE CANDIDO                            01300466270000000000000000400000000                      
0336360300002U 060000000000000000000000000000000000000000000000000000000000000000000000065000000000000065000000000000000000000000000000002202201823022018000000000000000000000000000                              000                           
0336360300003T 17011710130046627        00000002561291               2202201800000000000650023715560                         002000000000000000                                        01300466270000000000006600400000000                      
0336360300004U 170000000000000000000000000000000000000000000000000000000000000000000000065000000000000065000000000000000000000000000000002202201823022018000000000000000000000000000                              000                           
0336360300005T 06011710130046627        00000002567302AXZ1282002     2802201800000000001139034137920                         001000008930518966NELSON WEIGERT JUNIOR                   01300466270000000000000000400000000                      
0336360300006U 060000000000000000000000000000000000000000000000000000000000000000000000113900000000000113900000000000000000000000000000002202201823022018000000000000000000000000000                              000                           
0336360300007T 06011710130046627        00000002716402GXU8537012     2802201800000000001239010402780                         001000039322335572EDVALDO DOS SANTOS NUNES                01300466270000000000000000400000000                      
0336360300008U 060000000000000000000000000000000000000000000000000000000000000000000000123900000000000123900000000000000000000000000000002202201823022018000000000000000000000000000                              000                           
0336360300009T 17011710130046627        00000002727281               2202201800000000001149010408990                         002000000000000000                                        01300466270000000000006600400000000                      
0336360300010U 170000000000000000000000000000000000000000000000000000000000000000000000114900000000000114900000000000000000000000000000002202201823022018000000000000000000000000000                              000                           
0336360300011T 06011710130046627        00000002765612FGS1443002     2802201800000000001139000112270                         001000033299714520HERMES JESUS DO NASCIMENTO              01300466270000000000000000400000000                      
0336360300012U 060000000000000000000000000000000000000000000000000000000000000000000000113900000000000113900000000000000000000000000000002202201823022018000000000000000000000000000                              000                           
0336360300013T 06011710130046627        00000002773392EIA8141004     2802201800000000001139003307269                         001000022260680828JOABE DE MORAES                         01300466270000000000000000300000000                      
0336360300014U 060000000000000000000000000000000000000000000000000000000000000000000000113900000000000113900000000000000000000000000000002202201823022018000000000000000000000000000                              000                           
0336360300015T 06011710130046627        00000002830532EZK1885012     2802201800000000001070010403470                         001000034173376820JULIANA WAITMANN                        01300466270000000000000000400000000                      
0336360300016U 060000000000000000000000000000000000000000000000000000000000000000000000107000000000000107000000000000000000000000000000002202201823022018000000000000000000000000000                              000                           
0336360300017T 06011710130046627        00000002835252EBN2336002     2802201800000000001489003301082                         001000037601249840JEFFERSON LUIZ ANDRADE DA SILVEIRA      01300466270000000000000000300000000                      
0336360300018U 060000000000000000000000000000000000000000000000000000000000000000000000148900000000000148900000000000000000000000000000002202201823022018000000000000000000000000000                              000                           
0336360300019T 06011710130046627        00000002846102EBH6845002     2802201800000000001139023701380                         001000031132334888RAFAEL DE MIRANDA DA SILVA              01300466270000000000000000400000000                      
0336360300020U 060000000000000000000000000000000000000000000000000000000000000000000000113900000000000113900000000000000000000000000000002202201823022018000000000000000000000000000                              000                           
0336360300021T 17011710130046627        00000002890601               2202201800000000001187023714150                         002000000000000000                                        01300466270000000000006600400000000                      
0336360300022U 170000000000000000000000000000000000000000000000000000000000000000000000118700000000000118700000000000000000000000000000002202201823022018000000000000000000000000000                              000                           
0336360300023T 06011710130046627        00000003015582EIO1762012     2802201800000000001139000168320                         001000035375200856TATIANE PASSOS DE SOUZA                 01300466270000000000000000400000000                      
0336360300024U 060000000000000000000000000000000000000000000000000000000000000000000000113900000000000113900000000000000000000000000000002202201823022018000000000000000000000000000                              000                           
0336360300025T 17011710130046627        00000003152061               2202201800000000001278534174540                         002000000000000000                                        01300466270000000000006600400000000                      
0336360300026U 170000000000000000000000000000000000000000000000000000000000000000000000127850000000000127850000000000000000000000000000002202201823022018000000000000000000000000000                              000                           
0336360300027T 17011710130046627        00000003163771               2202201800000000004156623728390                         002000000000000000                                        01300466270000000000006600400000000                      
0336360300028U 170000000000000000000000000000000000000000000000000000000000000000000000415660000000000415660000000000000000000000000000002202201823022018000000000000000000000000000                              000                           
03363605         0000280007770000000000933265800000000000000000000000000000000000000000000000000000000000000000000000000500                                                                                                                     
03363609         000001000032                                                                                                                                                                                                                   
