03300000        2023566251000133011710130046627     007651732           RASTREADORES PROTEGE LTDA ME  BANCO SANTANDER (BRASIL) S/A            205022018      000493040                                                                         T
03378811T01  040 2023566251000133007651732           011710130046627     RASTREADORES PROTEGE LTDA ME                                                                                  0000049305022018                                         
0337881300001T 06011710130046627        00000002091712HQG5341021     3001201800000000000650003308192                         001000018222807889ALESSANDRO ANTUNES GRANDE               01300466270000000000000000300000000                      
0337881300002U 060000000000000780000000000000000000000000000000000000000000000000000000065780000000000065780000000000000000000000000000000502201806022018000000000000000000000000000                              000                           
0337881300003T 06011710130046627        00000002123422FQG3386011     3001201800000000000650010415310                         001000027286816861ANTONIO SERGIO DE OLIVEIRA DE PAULA     01300466270000000000000000400000000                      
0337881300004U 060000000000000780000000000000000000000000000000000000000000000000000000065780000000000065780000000000000000000000000000000502201806022018000000000000000000000000000                              000                           
0337881300005T 06011710130046627        00000002128222DBB1395001     3001201800000000000650003316322                         001000022297594852ARMANDO TOMBA NETO                      01300466270000000000000000300000000                      
0337881300006U 060000000000000780000000000000000000000000000000000000000000000000000000065780000000000065780000000000000000000000000000000502201806022018000000000000000000000000000                              000                           
0337881300007T 17011710130046627        00000002179131               0502201800000000000650010408990                         002000000000000000                                        01300466270000000000006600400000000                      
0337881300008U 170000000000000000000000000000000000000000000000000000000000000000000000065000000000000065000000000000000000000000000000000502201806022018000000000000000000000000000                              000                           
0337881300009T 06011710130046627        00000002289902LOI / LBB001   3001201800000000001300023766320                         001000010229539742JOSE RODRIGO HARO RAMILO                01300466270000000000000000400000000                      
0337881300010U 060000000000001560000000000000000000000000000000000000000000000000000000131560000000000131560000000000000000000000000000000502201806022018000000000000000000000000000                              000                           
0337881300011T 06011710130046627        00000002335012LRJ7275001     3001201800000000000650023759920                         001000048234513842MARCO TOMAZ MOREIRA DIAS                01300466270000000000000000400000000                      
0337881300012U 060000000000000780000000000000000000000000000000000000000000000000000000065780000000000065780000000000000000000000000000000502201806022018000000000000000000000000000                              000                           
0337881300013T 17011710130046627        00000002381121               0502201800000000000650034101800                         002000000000000000                                        01300466270000000000006600400000000                      
0337881300014U 170000000000000000000000000000000000000000000000000000000000000000000000065000000000000065000000000000000000000000000000000502201806022018000000000000000000000000000                              000                           
0337881300015T 17011710130046627        00000002406641               0502201800000000000590003302682                         002000000000000000                                        01300466270000000000006600300000000                      
0337881300016U 170000000000000000000000000000000000000000000000000000000000000000000000059000000000000059000000000000000000000000000000000502201806022018000000000000000000000000000                              000                           
0337881300017T 06011710130046627        00000002436982FNA2746        3001201800000000002588203346647                         001000033715698888MONICA FONTALVA MORAES                  01300466270000000000000000300000000                      
0337881300018U 060000000000003050000000000000000000000000000000000000000000000000000000261870000000000261870000000000000000000000000000000502201806022018000000000000000000000000000                              000                           
0337881300019T 06011710130046627        00000002455852EOE5144        3001201800000000001429903305703                         001000072811552804TARICK NEHME                            01300466270000000000000000300000000                      
0337881300020U 060000000000001670000000000000000000000000000000000000000000000000000000144660000000000144660000000000000000000000000000000502201806022018000000000000000000000000000                              000                           
0337881300021T 17011710130046627        00000002455931               0502201800000000001300003305703                         002000000000000000                                        01300466270000000000006600300000000                      
0337881300022U 170000000000000000000000000000000000000000000000000000000000000000000000130000000000000130000000000000000000000000000000000502201806022018000000000000000000000000000                              000                           
0337881300023T 17011710130046627        00000002469301               0502201800000000001432323723030                         002000000000000000                                        01300466270000000000006600400000000                      
0337881300024U 170000000000000000000000000000000000000000000000000000000000000000000000143230000000000143230000000000000000000000000000000502201806022018000000000000000000000000000                              000                           
0337881300025T 06011710130046627        00000002502102DKR1210001     3001201800000000000650023723250                         001000015058015838JOSE EURIPEDES PEREIRA DOS SANTOS       01300466270000000000000000400000000                      
0337881300026U 060000000000000780000000000000000000000000000000000000000000000000000000065780000000000065780000000000000000000000000000000502201806022018000000000000000000000000000                              000                           
0337881300027T 17011710130046627        00000002508211               0502201800000000001300023705180                         002000000000000000                                        01300466270000000000006600400000000                      
0337881300028U 170000000000000000000000000000000000000000000000000000000000000000000000130000000000000130000000000000000000000000000000000502201806022018000000000000000000000000000                              000                           
0337881300029T 06011710130046627        00000002624802EVT8475001     3001201800000000001139003308192                         001000048060355805ARTHUR GRANDE                           01300466270000000000000000300000000                      
0337881300030U 060000000000001310000000000000000000000000000000000000000000000000000000115210000000000115210000000000000000000000000000000502201806022018000000000000000000000000000                              000                           
0337881300031T 06011710130046627        00000002701992FAJ3852001     3001201800000000001738003302445                         001000071477624449EDINALDO ERASMO                         01300466270000000000000000300000000                      
0337881300032U 060000000000002040000000000000000000000000000000000000000000000000000000175840000000000175840000000000000000000000000000000502201806022018000000000000000000000000000                              000                           
0337881300033T 06011710130046627        00000002749922EFP0148011     3001201800000000001239010443530                         001000025071162857FRANCISCO TALARICO                      01300466270000000000000000400000000                      
0337881300034U 060000000000001430000000000000000000000000000000000000000000000000000000125330000000000125330000000000000000000000000000000502201806022018000000000000000000000000000                              000                           
0337881300035T 06011710130046627        00000002783002EMW5679011     3001201800000000001139010416530                         001000000264992580JOARI FARIAS DOS SANTOS                 01300466270000000000000000400000000                      
0337881300036U 060000000000001310000000000000000000000000000000000000000000000000000000115210000000000115210000000000000000000000000000000502201806022018000000000000000000000000000                              000                           
0337881300037T 06011710130046627        00000002797732EZL5598033     3001201800000000001139003305649                         001000080670628891HILARIO BENVENUTO DE SOUZA              01300466270000000000000000300000000                      
0337881300038U 060000000000001310000000000000000000000000000000000000000000000000000000115210000000000115210000000000000000000000000000000502201806022018000000000000000000000000000                              000                           
0337881300039T 17011710130046627        00000002805181               0502201800000000001239034187730                         002000000000000000                                        01300466270000000000006600400000000                      
0337881300040U 170000000000000000000000000000000000000000000000000000000000000000000000123900000000000123900000000000000000000000000000000502201806022018000000000000000000000000000                              000                           
0337881300041T 06011710130046627        00000002826852CRN0543001     3001201800000000001139003315741                         001000034361969833JEAN MORENA DE CARVALHO                 01300466270000000000000000300000000                      
0337881300042U 060000000000001310000000000000000000000000000000000000000000000000000000115210000000000115210000000000000000000000000000000502201806022018000000000000000000000000000                              000                           
0337881300043T 17011710130046627        00000002850991               0502201800000000001239034184880                         002000000000000000                                        01300466270000000000006600400000000                      
0337881300044U 170000000000000000000000000000000000000000000000000000000000000000000000123900000000000123900000000000000000000000000000000502201806022018000000000000000000000000000                              000                           
0337881300045T 06011710130046627        00000002854042LSX1766001     3001201800000000001288003306629                         001000004738331825REGINA CELI GOMES VIEIRA                01300466270000000000000000300000000                      
0337881300046U 060000000000001490000000000000000000000000000000000000000000000000000000130290000000000130290000000000000000000000000000000502201806022018000000000000000000000000000                              000                           
0337881300047T 17011710130046627        00000002932701               0502201800000000001489010412860                         002000000000000000                                        01300466270000000000006600400000000                      
0337881300048U 170000000000000000000000000000000000000000000000000000000000000000000000148900000000000148900000000000000000000000000000000502201806022018000000000000000000000000000                              000                           
0337881300049T 06011710130046627        00000002935042NMF7757001     3001201800000000001139003305770                         001000038858327802MARCELO DE MELO DOS SANTOS              01300466270000000000000000300000000                      
0337881300050U 060000000000001310000000000000000000000000000000000000000000000000000000115210000000000115210000000000000000000000000000000502201806022018000000000000000000000000000                              000                           
0337881300051T 17011710130046627        00000002950781               0502201800000000001070003322268                         002000000000000000                                        01300466270000000000006600300000000                      
0337881300052U 170000000000000000000000000000000000000000000000000000000000000000000000107000000000000107000000000000000000000000000000000502201806022018000000000000000000000000000                              000                           
0337881300053T 17011710130046627        00000002974701               0502201800000000001239034174540                         002000000000000000                                        01300466270000000000006600400000000                      
0337881300054U 170000000000000000000000000000000000000000000000000000000000000000000000123900000000000123900000000000000000000000000000000502201806022018000000000000000000000000000                              000                           
0337881300055T 06011710130046627        00000003025032FJO8082001     3001201800000000001249003306785                         001000039535650874VAGNER VIEIRA RIBEIRO                   01300466270000000000000000300000000                      
0337881300056U 060000000000001490000000000000000000000000000000000000000000000000000000126390000000000126390000000000000000000000000000000502201806022018000000000000000000000000000                              000                           
0337881300057T 17011710130046627        00000003045491               0502201800000000001192923776420                         002000000000000000                                        01300466270000000000006600400000000                      
0337881300058U 170000000000000000000000000000000000000000000000000000000000000000000000119290000000000119290000000000000000000000000000000502201806022018000000000000000000000000000                              000                           
0337881300059T 17011710130046627        00000003059441               0502201800000000001141034116620                         002000000000000000                                        01300466270000000000006600400000000                      
0337881300060U 170000000000000000000000000000000000000000000000000000000000000000000000114100000000000114100000000000000000000000000000000502201806022018000000000000000000000000000                              000                           
0337881300061T 17011710130046627        00000003104501               0502201800000000000718934116620                         002000000000000000                                        01300466270000000000006600400000000                      
0337881300062U 170000000000000000000000000000000000000000000000000000000000000000000000071890000000000071890000000000000000000000000000000502201806022018000000000000000000000000000                              000                           
0337881300063T 17011710130046627        00000003109301               0502201800000000001278510415310                         002000000000000000                                        01300466270000000000006600400000000                      
0337881300064U 170000000000000000000000000000000000000000000000000000000000000000000000127850000000000127850000000000000000000000000000000502201806022018000000000000000000000000000                              000                           
0337881300065T 17011710130046627        00000003109481               0502201800000000001302010435570                         002000000000000000                                        01300466270000000000006600400000000                      
0337881300066U 170000000000000000000000000000000000000000000000000000000000000000000000130200000000000130200000000000000000000000000000000502201806022018000000000000000000000000000                              000                           
03378815         0000660002060000000000243221500000000000000000000000000000000000000000000000000000000000000000000000000489                                                                                                                     
03378819         000001000070                                                                                                                                                                                                                   
