10400000         2235662510001330000000000000000000001655188211200000000RASTREADORES PROTEGE LTDA   MEC ECON FEDERAL                          21604201805170600008204000000                    RETORNO-PRODUCAO                  000            
10400011T0100030 20235662510001330000000000000000000001655188211200000000RASTREADORES PROTEGE LTDA   ME                                                                                00000082160420180000000000                          00   
1040001300001T 060000008821120000000   1400000437900000401ABI8280/004    15042018000000000025690104017780ABI8280/004              090000000000000000FERNANDO CAPARROS                                 000000000000590020102                     
1040001300002U 06000000000000000000000000000000000000000000000000000000000000000000000025690000000000025690000000000000000000000000000000160420181804201800001804201800000000000000000000000000000000000000000000000000000000000000000000       
1040001300003T 060000008821120000000   1400000452300000401ADL1839/004    15042018000000000020903033003540ADL1839/004              090000000000000000MARCELO FURGERI BELENTI                           000000000000590040102                     
1040001300004U 06000000000000000000000000000000000000000000000000000000000000000000000020903000000000020903000000000000000000000000000000160420181804201800001804201800000000000000000000000000000000000000000000000000000000000000000000       
1040001300005T 060000008821120000000   1400000421500000401AFS9033/004    15042018000000000040279033044150AFS9033/004              090000000000000000ELAINE DE ALMEIDA SOUZA                           000000000000590040102                     
1040001300006U 06000000000000000000000000000000000000000000000000000000000000000000000040279000000000040279000000000000000000000000000000160420181804201800001804201800000000000000000000000000000000000000000000000000000000000000000000       
1040001300007T 060000008821120000000   1400000462800000421AHG2619/004    15042018000000000032673033000030AHG2619/004              090000000000000000D&A TRANSPORTES RODOVIARIOS CATANDUVA LT          000000000000590040102                     
1040001300008U 06000000000000000000000000000000000000000000000000000000000000000000000032673000000000032673000000000000000000000000000000160420181804201800001804201800000000000000000000000000000000000000000000000000000000000000000000       
1040001300009T 060000008821120000000   1400000473100000431AHM3608/002    15042018000000000034400341015680AHM3608/002              090000000000000000EDSON KENGI OKUMA DE SOUZA                        000000000000590040102                     
1040001300010U 06000000000000000000000000000000000000000000000000000000000000000000000034400000000000034400000000000000000000000000000000160420181804201800001804201800000000000000000000000000000000000000000000000000000000000000000000       
1040001300011T 060000008821120000000   1400000436600000401AJW1121/004    15042018000000000011655237065730AJW1121/004              090000000000000000JOSELITO MAURICIO DE ALMEIDA                      000000000000590040102                     
1040001300012U 06000000000000000000000000000000000000000000000000000000000000000000000011655000000000011655000000000000000000000000000000160420181804201800001804201800000000000000000000000000000000000000000000000000000000000000000000       
1040001300013T 060000008821120000000   1400000455500000411AJY1876/004    15042018000000000054190033033350AJY1876/004              090000000000000000MARK DIEISON LOPES CHAVES                         000000000000590040102                     
1040001300014U 06000000000000000000000000000000000000000000000000000000000000000000000054190000000000054190000000000000000000000000000000160420181804201800001804201800000000000000000000000000000000000000000000000000000000000000000000       
1040001300015T 060000008821120000000   1400000443200000411AMR8461/002    15042018000000000023436341012920AMR8461/002              090000000000000000GIZELE REGINA DA ROSA TRANSPORTES   ME            000000000000590040102                     
1040001300016U 06000000000000000000000000000000000000000000000000000000000000000000000023436000000000023436000000000000000000000000000000160420181804201800001804201800000000000000000000000000000000000000000000000000000000000000000000       
1040001300017T 060000008821120000000   1400000443100000491AMV3425/002    15042018000000000023436341012920AMV3425/002              090000000000000000GIZELE REGINA DA ROSA TRANSPORTES   ME            000000000000590040102                     
1040001300018U 06000000000000000000000000000000000000000000000000000000000000000000000023436000000000023436000000000000000000000000000000160420181804201800001804201800000000000000000000000000000000000000000000000000000000000000000000       
1040001300019T 060000008821120000000   1400000454500000401AOA1645/002    15042018000000000024560237015270AOA1645/002              090000000000000000WANDERSON BARBOSA DE SOUZA                        000000000000590040102                     
1040001300020U 06000000000000000000000000000000000000000000000000000000000000000000000024560000000000024560000000000000000000000000000000160420181804201800001804201800000000000000000000000000000000000000000000000000000000000000000000       
1040001300021T 060000008821120000000   1400000460200000421AQB6451/002    15042018000000000046056237011960AQB6451/002              090000000000000000ELENILDO JOSE DA SILVA                            000000000000590040102                     
1040001300022U 06000000000000000000000000000000000000000000000000000000000000000000000046056000000000046056000000000000000000000000000000160420181804201800001804201800000000000000000000000000000000000000000000000000000000000000000000       
1040001300023T 060000008821120000000   1400000457700000401AQP6180/004    15042018000000000019352104046350AQP6180/004              090000000000000000MARCELO PINHEIRO DELLAMURA                        000000000000590020102                     
1040001300024U 06000000000000000000000000000000000000000000000000000000000000000000000019352000000000019352000000000000000000000000000000160420181804201800001804201800000000000000000000000000000000000000000000000000000000000000000000       
1040001300025T 060000008821120000000   1400000045310000421ASB1147/004    15042018000000000069880104009620ASB1147/004              090000000000000000M BRAGA TRANSPORTES LTDA ME                       000000000000590060102                     
1040001300026U 06000000000000000000000000000000000000000000000000000000000000000000000069880000000000069880000000000000000000000000000000160420181804201800001804201800000000000000000000000000000000000000000000000000000000000000000000       
1040001300027T 060000008821120000000   1400000454600000421AUQ2814/004    15042018000000000040480104047140AUQ2814/004              090000000000000000EDUARDO CANANEA DE OLIVEIRA                       000000000000590020102                     
1040001300028U 06000000000000000000000000000000000000000000000000000000000000000000000040480000000000040480000000000000000000000000000000160420181804201800001804201800000000000000000000000000000000000000000000000000000000000000000000       
1040001300029T 060000008821120000000   1400000453200000401AXD3890/004    15042018000000000080339104009620AXD3890/004              090000000000000000M BRAGA TRANSPORTES LTDA ME                       000000000000590060102                     
1040001300030U 06000000000000000000000000000000000000000000000000000000000000000000000080339000000000080339000000000000000000000000000000160420181804201800001804201800000000000000000000000000000000000000000000000000000000000000000000       
1040001300031T 060000008821120000000   1400000470000000451BAC5397/003    15042018000000000022117237001360BAC5397/003              090000000000000000RODRIGO YODES                                     000000000000590040102                     
1040001300032U 06000000000000000000000000000000000000000000000000000000000000000000000022117000000000022117000000000000000000000000000000160420181804201800001804201800000000000000000000000000000000000000000000000000000000000000000000       
1040001300033T 060000008821120000000   1400000375500000401BFW4160/004    15042018000000000017882237004320BFW4160/004              090000000000000000REGINALDO CARDENAS MORETTO                        000000000000590040102                     
1040001300034U 06000000000000000000000000000000000000000000000000000000000000000000000017882000000000017882000000000000000000000000000000160420181804201800001804201800000000000000000000000000000000000000000000000000000000000000000000       
1040001300035T 060000008821120000000   1400000334300000401BHA6253/002    15042018000000000011115104003120BHA6253/002              090000000000000000RAUL CARLOS DA SILVEIRA INDAIATUBA EPP            000000000000590060102                     
1040001300036U 06000000000000000000000000000000000000000000000000000000000000000000000011115000000000011115000000000000000000000000000000160420181804201800001804201800000000000000000000000000000000000000000000000000000000000000000000       
1040001300037T 060000008821120000000   1400000076400000481BHO2282/004    15042018000000000020521104008990BHO2282/004              090000000000000000EDVALDO SOTHERO DE GODOY ME                       000000000000590020102                     
1040001300038U 06000000000000000000000000000000000000000000000000000000000000000000000020521000000000020521000000000000000000000000000000160420181804201800001804201800000000000000000000000000000000000000000000000000000000000000000000       
1040001300039T 060000008821120000000   1400000418700000401BKD9095/004    15042018000000000022656756032060BKD9095/004              090000000000000000JOSE CLAUDIO TAZINAFO   ME                        000000000000590040102                     
1040001300040U 06000000000000000000000000000000000000000000000000000000000000000000000022656000000000022656000000000000000000000000000000160420181804201800001804201800000000000000000000000000000000000000000000000000000000000000000000       
1040001300041T 060000008821120000000   1400000080100000471BPG8747/004    15042018000000000021156237020650BPG8747/004              090000000000000000ISRAEL SANTOS LUCA                                000000000000590040102                     
1040001300042U 06000000000000000000000000000000000000000000000000000000000000000000000021156000000000021156000000000000000000000000000000160420181804201800001804201800000000000000000000000000000000000000000000000000000000000000000000       
1040001300043T 060000008821120000000   1400000209500000431BQP2379/004    15042018000000000009000341002390BQP2379/004              090000000000000000IVO MARCHESINE DA SILVA                           000000000000590040102                     
1040001300044U 06000000000000000000000000000000000000000000000000000000000000000000000009000000000000009000000000000000000000000000000000160420181804201800001804201800000000000000000000000000000000000000000000000000000000000000000000       
1040001300045T 060000008821120000000   1400000469500000471BSF7926/004    15042018000000000018500104008990BSF7926/004              090000000000000000ERNESTO CARLOS ESTEVES FILHO                      000000000000590060102                     
1040001300046U 06000000000000000000000000000000000000000000000000000000000000000000000018500000000000018500000000000000000000000000000000160420181804201800001804201800000000000000000000000000000000000000000000000000000000000000000000       
1040001300047T 060000008821120000000   1400000418400000411BTB2018/004    15042018000000000029090033035830BTB2018/004              090000000000000000ADAO VALDECIR MUNIZ                               000000000000590040102                     
1040001300048U 06000000000000000000000000000000000000000000000000000000000000000000000029090000000000029090000000000000000000000000000000160420181804201800001804201800000000000000000000000000000000000000000000000000000000000000000000       
1040001300049T 060000008821120000000   1400000137000000431BTR5809/004    15042018000000000012000237017950BTR5809/004              090000000000000000ELIO CARVALHO DOS SANTOS                          000000000000590040102                     
1040001300050U 06000000000000000000000000000000000000000000000000000000000000000000000012000000000000012000000000000000000000000000000000160420181804201800001804201800000000000000000000000000000000000000000000000000000000000000000000       
1040001300051T 060000008821120000000   1400000310300000471BTR7331/004    15042018000000000024500237028390BTR7331/004              090000000000000000EBERSON LAZARO DA SILVEIRA                        000000000000590040102                     
1040001300052U 06000000000000000000000000000000000000000000000000000000000000000000000024500000000000024500000000000000000000000000000000160420181804201800001804201800000000000000000000000000000000000000000000000000000000000000000000       
1040001300053T 060000008821120000000   1400000454000000461BTS6926/004    15042018000000000022690341066810BTS6926/004              090000000000000000PAULO HENRIQUE MANGUE LOUREIRO                    000000000000590040102                     
1040001300054U 06000000000000000000000000000000000000000000000000000000000000000000000022690000000000022690000000000000000000000000000000160420181804201800001804201800000000000000000000000000000000000000000000000000000000000000000000       
1040001300055T 060000008821120000000   1400000475700000431BTS9836/001    15042018000000000039289001001820BTS9836/001              090000000000000000ARMANDO MARCOS PEREIRA                            000000000000590040102                     
1040001300056U 06000000000000000000000000000000000000000000000000000000000000000000000039289000000000039289000000000000000000000000000000160420181804201800001804201800000000000000000000000000000000000000000000000000000000000000000000       
1040001300057T 060000008821120000000   1400000463700000411BUP9717/004    15042018000000000020023341031460BUP9717/004              090000000000000000LUIZ TOSHIAKI IKEOKA                              000000000000590040102                     
1040001300058U 06000000000000000000000000000000000000000000000000000000000000000000000020023000000000020023000000000000000000000000000000160420181804201800001804201800000000000000000000000000000000000000000000000000000000000000000000       
1040001300059T 060000008821120000000   1400000176000000441BUS2018/004    15042018000000000015312237003280BUS2018/004              090000000000000000AGNALDO DE LIMA                                   000000000000590040102                     
1040001300060U 06000000000000000000000000000000000000000000000000000000000000000000000015312000000000015312000000000000000000000000000000160420181804201800001804201800000000000000000000000000000000000000000000000000000000000000000000       
1040001300061T 060000008821120000000   1400000344600000471BUT8669/002    15042018000000000020521104005760BUT8669/002              090000000000000000ANTONIO APARECIDO MORAES                          000000000000590020102                     
1040001300062U 06000000000000000000000000000000000000000000000000000000000000000000000020521000000000020521000000000000000000000000000000160420181804201800001804201800000000000000000000000000000000000000000000000000000000000000000000       
1040001300063T 060000008821120000000   1400000316400000401BWC2018/004    15042018000000000018859033035830BWC2018/004              090000000000000000ADAO VALDECIR MUNIZ                               000000000000590040102                     
1040001300064U 06000000000000000000000000000000000000000000000000000000000000000000000018859000000000018859000000000000000000000000000000160420181804201800001804201800000000000000000000000000000000000000000000000000000000000000000000       
1040001300065T 060000008821120000000   1400000470800000471BWE1182/003    15042018000000000021427033001610BWE1182/003              090000000000000000ALEX FERNANDO DOS SANTOS MANO                     000000000000590040102                     
1040001300066U 06000000000000000000000000000000000000000000000000000000000000000000000021427000000000021427000000000000000000000000000000160420181804201800001804201800000000000000000000000000000000000000000000000000000000000000000000       
1040001300067T 060000008821120000000   1400000458900000481BWG3848/004    15042018000000000021500341000140BWG3848/004              090000000000000000LUIS FERNANDO BATONI GERBI JUNIOR                 000000000000590040102                     
1040001300068U 06000000000000000000000000000000000000000000000000000000000000000000000021500000000000021500000000000000000000000000000000160420181804201800001804201800000000000000000000000000000000000000000000000000000000000000000000       
1040001300069T 060000008821120000000   1400000175900000471BWI2018/004    15042018000000000015000237003280BWI2018/004              090000000000000000AGNALDO DE LIMA                                   000000000000590040102                     
1040001300070U 06000000000000000000000000000000000000000000000000000000000000000000000015000000000000015000000000000000000000000000000000160420181804201800001804201800000000000000000000000000000000000000000000000000000000000000000000       
1040001300071T 060000008821120000000   1400000420400000451BWL9788/004    15042018000000000018412341081620BWL9788/004              090000000000000000J C DOS SANTOS SALTO   ME                         000000000000590040102                     
1040001300072U 06000000000000000000000000000000000000000000000000000000000000000000000018412000000000018412000000000000000000000000000000160420181804201800001804201800000000000000000000000000000000000000000000000000000000000000000000       
1040001300073T 060000008821120000000   1400000474400000431BWO8171/001    15042018000000000034432033000030BWO8171/001              090000000000000000D&A TRANSPORTES RODOVIARIOS CATANDUVA LT          000000000000590040102                     
1040001300074U 06000000000000000000000000000000000000000000000000000000000000000000000034432000000000034432000000000000000000000000000000160420181804201800001804201800000000000000000000000000000000000000000000000000000000000000000000       
1040001300075T 060000008821120000000   1400000278700000441BWQ6008/003    15042018000000000048845104028840BWQ6008/003              090000000000000000CLAUDEMIR CREPALDI                                000000000000590020102                     
1040001300076U 06000000000000000000000000000000000000000000000000000000000000000000000048845000000000048845000000000000000000000000000000160420181804201800001804201800000000000000000000000000000000000000000000000000000000000000000000       
1040001300077T 060000008821120000000   1400000474900000471BWS0824/001    15042018000000000018500341081620BWS0824/001              090000000000000000J C DOS SANTOS SALTO   ME                         000000000000590040102                     
1040001300078U 06000000000000000000000000000000000000000000000000000000000000000000000018500000000000018500000000000000000000000000000000160420181804201800001804201800000000000000000000000000000000000000000000000000000000000000000000       
1040001300079T 060000008821120000000   1400000408400000431BXE3785/004    15042018000000000033170033004480BXE3785/004              090000000000000000FABIANO RAMIM                                     000000000000590040102                     
1040001300080U 06000000000000000000000000000000000000000000000000000000000000000000000033170000000000033170000000000000000000000000000000160420181804201800001804201800000000000000000000000000000000000000000000000000000000000000000000       
1040001300081T 060000008821120000000   1400000467800000411BXF2018/004    15042018000000000024678237006010BXF2018/004              090000000000000000ALEX SANTOS DOS ANJOS                             000000000000590040102                     
1040001300082U 06000000000000000000000000000000000000000000000000000000000000000000000024678000000000024678000000000000000000000000000000160420181804201800001804201800000000000000000000000000000000000000000000000000000000000000000000       
1040001300083T 060000008821120000000   1400000000030200321BXI259603      09042018000000000015000104029460BXI259603                090000000000000000RODRIGO ANTONIO TEIXEIRA DA MOTTA                 000000000000590020102                     
1040001300084U 06000000000000335000000000000000000000000000000000000000000000000000000015335000000000015335000000000000000000000000000000160420181804201800001804201800000000000000000000000000000000000000000000000000000000000000000000       
1040001300085T 060000008821120000000   1400000369600000421BXI3774/004    15042018000000000016136104043640BXI3774/004              090000000000000000FIDELSINO PEREIRA DOS SANTOS                      000000000000590020102                     
1040001300086U 06000000000000000000000000000000000000000000000000000000000000000000000016136000000000016136000000000000000000000000000000160420181804201800001804201800000000000000000000000000000000000000000000000000000000000000000000       
1040001300087T 060000008821120000000   1400000407200000461BYC2007/004    15042018000000000016098001032660BYC2007/004              090000000000000000LEONARDO BITTENCOURT DE ALMEIDA TRANSPOR          000000000000590040102                     
1040001300088U 06000000000000000000000000000000000000000000000000000000000000000000000016098000000000016098000000000000000000000000000000160420181804201800001804201800000000000000000000000000000000000000000000000000000000000000000000       
1040001300089T 060000008821120000000   1400000466500000411BYH2018/004    15042018000000000018014001047700BYH2018/004              090000000000000000ANDRADE E ABREU TRANSPORTES LTDA   ME             000000000000590040102                     
1040001300090U 06000000000000000000000000000000000000000000000000000000000000000000000018014000000000018014000000000000000000000000000000160420181804201800001804201800000000000000000000000000000000000000000000000000000000000000000000       
1040001300091T 060000008821120000000   1400000434300000481CDE7929/004    15042018000000000030946341005590CDE7929/004              090000000000000000LUIZ DIAMANTINO CERSOSIMO NETO                    000000000000590040102                     
1040001300092U 06000000000000000000000000000000000000000000000000000000000000000000000030946000000000030946000000000000000000000000000000160420181804201800001804201800000000000000000000000000000000000000000000000000000000000000000000       
1040001300093T 060000008821120000000   1400000407100000431CIT5347/004    15042018000000000012123001032660CIT5347/004              090000000000000000LEONARDO BITTENCOURT DE ALMEIDA TRANSPOR          000000000000590040102                     
1040001300094U 06000000000000000000000000000000000000000000000000000000000000000000000012123000000000012123000000000000000000000000000000160420181804201800001804201800000000000000000000000000000000000000000000000000000000000000000000       
1040001300095T 060000008821120000000   1400000466100000401CJH6478/004    15042018000000000023685341014190CJH6478/004              090000000000000000JOAQUIM LOURENCO                                  000000000000590040102                     
1040001300096U 06000000000000000000000000000000000000000000000000000000000000000000000023685000000000023685000000000000000000000000000000160420181804201800001804201800000000000000000000000000000000000000000000000000000000000000000000       
1040001300097T 060000008821120000000   1400000460700000461CKF8635/004    15042018000000000016505033001570CKF8635/004              090000000000000000ITALO RODES PEREIRA                               000000000000590040102                     
1040001300098U 06000000000000000000000000000000000000000000000000000000000000000000000016505000000000016505000000000000000000000000000000160420181804201800001804201800000000000000000000000000000000000000000000000000000000000000000000       
1040001300099T 060000008821120000000   1400000247500000421CLH9160/004    15042018000000000022087001074010CLH9160/004              090000000000000000MILTON CAPRIOLI POLETINI                          000000000000590040102                     
1040001300100U 06000000000000000000000000000000000000000000000000000000000000000000000022087000000000022087000000000000000000000000000000160420181804201800001804201800000000000000000000000000000000000000000000000000000000000000000000       
1040001300101T 060000008821120000000   1400000300100000431CLJ0694/003    15042018000000000025028104048410CLJ0694/003              090000000000000000JOSE LEITE DE MEDEIROS                            000000000000590020102                     
1040001300102U 06000000000000000000000000000000000000000000000000000000000000000000000025028000000000025028000000000000000000000000000000160420181804201800001804201800000000000000000000000000000000000000000000000000000000000000000000       
1040001300103T 060000008821120000000   1400000456400000401CLJ2018/004    15042018000000000020306237023910CLJ2018/004              090000000000000000CARLOS CESAR COELHO JUNIOR   ME                   000000000000590040102                     
1040001300104U 06000000000000000000000000000000000000000000000000000000000000000000000020306000000000020306000000000000000000000000000000160420181804201800001804201800000000000000000000000000000000000000000000000000000000000000000000       
1040001300105T 060000008821120000000   1400000408300000401CLJ7979/004    15042018000000000034968033004480CLJ7979/004              090000000000000000FABIANO RAMIM                                     000000000000590040102                     
1040001300106U 06000000000000000000000000000000000000000000000000000000000000000000000034968000000000034968000000000000000000000000000000160420181804201800001804201800000000000000000000000000000000000000000000000000000000000000000000       
1040001300107T 060000008821120000000   1400000414500000471CLU1325/004    15042018000000000017846001032660CLU1325/004              090000000000000000LEONARDO BITTENCOURT DE ALMEIDA TRANSPOR          000000000000590040102                     
1040001300108U 06000000000000000000000000000000000000000000000000000000000000000000000017846000000000017846000000000000000000000000000000160420181804201800001804201800000000000000000000000000000000000000000000000000000000000000000000       
1040001300109T 060000008821120000000   1400000252500000411CLU5574/004    15042018000000000031857237006580CLU5574/004              090000000000000000WELLINGTON ROSA BATISTA TRANSPORTES ME            000000000000590040102                     
1040001300110U 06000000000000000000000000000000000000000000000000000000000000000000000031857000000000031857000000000000000000000000000000160420181804201800001804201800000000000000000000000000000000000000000000000000000000000000000000       
1040001300111T 060000008821120000000   1400000411700000471CMP8017/004    15042018000000000007861001032660CMP8017/004              090000000000000000LEONARDO BITTENCOURT DE ALMEIDA TRANSPOR          000000000000590040102                     
1040001300112U 06000000000000000000000000000000000000000000000000000000000000000000000007861000000000007861000000000000000000000000000000160420181804201800001804201800000000000000000000000000000000000000000000000000000000000000000000       
1040001300113T 060000008821120000000   1400000337900000421CPG2018/004    15042018000000000025330237007120CPG2018/004              090000000000000000ALEXANDRE MANUEL                                  000000000000590040102                     
1040001300114U 06000000000000000000000000000000000000000000000000000000000000000000000025330000000000025330000000000000000000000000000000160420181804201800001804201800000000000000000000000000000000000000000000000000000000000000000000       
1040001300115T 060000008821120000000   1400000401800000411CPN4708/004    15042018000000000023000756032060CPN4708/004              090000000000000000JOSE CLAUDIO TAZINAFO   ME                        000000000000590040102                     
1040001300116U 06000000000000000000000000000000000000000000000000000000000000000000000023000000000000023000000000000000000000000000000000160420181804201800001804201800000000000000000000000000000000000000000000000000000000000000000000       
1040001300117T 060000008821120000000   1400000437600000411CPO6852/004    15042018000000000015538341081620CPO6852/004              090000000000000000J C DOS SANTOS SALTO   ME                         000000000000590040102                     
1040001300118U 06000000000000000000000000000000000000000000000000000000000000000000000015538000000000015538000000000000000000000000000000160420181804201800001804201800000000000000000000000000000000000000000000000000000000000000000000       
1040001300119T 060000008821120000000   1400000248800000421CPR1912/004    15042018000000000008289341003500CPR1912/004              090000000000000000PEDRO TADEU INACIO                                000000000000590040102                     
1040001300120U 06000000000000000000000000000000000000000000000000000000000000000000000008289000000000008289000000000000000000000000000000160420181804201800001804201800000000000000000000000000000000000000000000000000000000000000000000       
1040001300121T 060000008821120000000   1400000475900000491CPR8694/001    15042018000000000021500341074820CPR8694/001              090000000000000000DAVID SILVA ALMEIDA                               000000000000590040102                     
1040001300122U 06000000000007733000000000000000000000000000000000000000000000000000000029233000000000029233000000000000000000000000000000160420181804201800001804201800000000000000000000000000000000000000000000000000000000000000000000       
1040001300123T 060000008821120000000   1400000264600000461CSQ5845/004    15042018000000000013500001006630CSQ5845/004              090000000000000000FERNANDO ZUMBA DA COSTA                           000000000000590040102                     
1040001300124U 06000000000000000000000000000000000000000000000000000000000000000000000013500000000000013500000000000000000000000000000000160420181804201800001804201800000000000000000000000000000000000000000000000000000000000000000000       
1040001300125T 060000008821120000000   1400000180700000401CUC7737/004    15042018000000000046051104005760CUC7737/004              090000000000000000GONCALO ANTONIO GRANDE                            000000000000590020102                     
1040001300126U 06000000000000000000000000000000000000000000000000000000000000000000000046051000000000046051000000000000000000000000000000160420181804201800001804201800000000000000000000000000000000000000000000000000000000000000000000       
1040001300127T 060000008821120000000   1400000449100000401CWJ5835/004    15042018000000000022616033015700CWJ5835/004              090000000000000000DOUGLAS ROGERIO SANTANA                           000000000000590040102                     
1040001300128U 06000000000000000000000000000000000000000000000000000000000000000000000022616000000000022616000000000000000000000000000000160420181804201800001804201800000000000000000000000000000000000000000000000000000000000000000000       
1040001300129T 060000008821120000000   1400000389300000401CXA3035/004    15042018000000000029400237003160CXA3035/004              090000000000000000RAIMUNDO TEIXEIRA OLIVEIRA                        000000000000590040102                     
1040001300130U 06000000000000000000000000000000000000000000000000000000000000000000000029400000000000029400000000000000000000000000000000160420181804201800001804201800000000000000000000000000000000000000000000000000000000000000000000       
1040001300131T 060000008821120000000   1400000207800000481CYA8744/004    15042018000000000025829104013510CYA8744/004              090000000000000000FRANCISCA MARIA DA CONCEICAO                      000000000000590020102                     
1040001300132U 06000000000000000000000000000000000000000000000000000000000000000000000025829000000000025829000000000000000000000000000000160420181804201800001804201800000000000000000000000000000000000000000000000000000000000000000000       
1040001300133T 060000008821120000000   1400000406800000401CYB2931/004    15042018000000000023274001032660CYB2931/004              090000000000000000LEONARDO BITTENCOURT DE ALMEIDA TRANSPOR          000000000000590040102                     
1040001300134U 06000000000000000000000000000000000000000000000000000000000000000000000023274000000000023274000000000000000000000000000000160420181804201800001804201800000000000000000000000000000000000000000000000000000000000000000000       
1040001300135T 060000008821120000000   1400000395000000431CYI5364/004    15042018000000000022313237001500CYI5364/004              090000000000000000JOSE RIBAMAR MONTELIS DA SILVA                    000000000000590040102                     
1040001300136U 06000000000000000000000000000000000000000000000000000000000000000000000022313000000000022313000000000000000000000000000000160420181804201800001804201800000000000000000000000000000000000000000000000000000000000000000000       
1040001300137T 060000008821120000000   1400000316700000491CYN4232/004    15042018000000000039500001005730CYN4232/004              090000000000000000MARCOS DAVI CORREIA                               000000000000590040102                     
1040001300138U 06000000000000000000000000000000000000000000000000000000000000000000000039500000000000039500000000000000000000000000000000160420181804201800001804201800000000000000000000000000000000000000000000000000000000000000000000       
1040001300139T 060000008821120000000   1400000360500000431CZB2018/004    15042018000000000028307237039000CZB2018/004              090000000000000000ADILSON MEIRELLES FERREIRA                        000000000000590040102                     
1040001300140U 06000000000000000000000000000000000000000000000000000000000000000000000028307000000000028307000000000000000000000000000000160420181804201800001804201800000000000000000000000000000000000000000000000000000000000000000000       
1040001300141T 060000008821120000000   1400000474100000451CZC6815/002    15042018000000000015000033046380CZC6815/002              090000000000000000EDIVAN LIMA FREIRE                                000000000000590040102                     
1040001300142U 06000000000000000000000000000000000000000000000000000000000000000000000015000000000000015000000000000000000000000000000000160420181804201800001804201800000000000000000000000000000000000000000000000000000000000000000000       
1040001300143T 060000008821120000000   1400000450100000411CZK2129/004    15042018000000000034912341027310CZK2129/004              090000000000000000RISTHEA LOGISTICA E TRANSPORTE LTDA   EP          000000000000590040102                     
1040001300144U 06000000000000000000000000000000000000000000000000000000000000000000000034912000000000034912000000000000000000000000000000160420181804201800001804201800000000000000000000000000000000000000000000000000000000000000000000       
1040001300145T 060000008821120000000   1400000468100000441DAJ8332/002    15042018000000000034267237029510DAJ8332/002              090000000000000000ALESSANDRO MARCHESINI                             000000000000590040102                     
1040001300146U 06000000000000000000000000000000000000000000000000000000000000000000000034267000000000034267000000000000000000000000000000160420181804201800001804201800000000000000000000000000000000000000000000000000000000000000000000       
1040001300147T 060000008821120000000   1400000460600000431DAO2707/004    15042018000000000027888104003670DAO2707/004              090000000000000000ROGERIO LUIS SOUTO                                000000000000590020102                     
1040001300148U 06000000000000000000000000000000000000000000000000000000000000000000000027888000000000027888000000000000000000000000000000160420181804201800001804201800000000000000000000000000000000000000000000000000000000000000000000       
1040001300149T 060000008821120000000   1400000366600000471DAS2018/001    15042018000000000023117104008990DAS2018/001              090000000000000000ROBINSON RICHARD MASSOLI                          000000000000590020102                     
1040001300150U 06000000000000000000000000000000000000000000000000000000000000000000000023117000000000023117000000000000000000000000000000160420181804201800001804201800000000000000000000000000000000000000000000000000000000000000000000       
1040001300151T 060000008821120000000   1400000000000444961DAX6015/004    15042018000000000025169237065340DAX6015/004              090000000000000000LEANDRO DE MELLO                                  000000000000590040102                     
1040001300152U 06000000000000000000000000000000000000000000000000000000000000000000000025169000000000025169000000000000000000000000000000160420181804201800001804201800000000000000000000000000000000000000000000000000000000000000000000       
1040001300153T 060000008821120000000   1400000467900000441DBB1395/003    15042018000000000027601033016320DBB1395/003              090000000000000000ARMANDO TOMBA NETO                                000000000000590040102                     
1040001300154U 06000000000000000000000000000000000000000000000000000000000000000000000027601000000000027601000000000000000000000000000000160420181804201800001804201800000000000000000000000000000000000000000000000000000000000000000000       
1040001300155T 060000008821120000000   1400000476000000461DBB9053/001    15042018000000000021296341055860DBB9053/001              090000000000000000VAGNER PESSOA DOS SANTOS BATISTA                  000000000000590040102                     
1040001300156U 06000000000000000000000000000000000000000000000000000000000000000000000021296000000000021296000000000000000000000000000000160420181804201800001804201800000000000000000000000000000000000000000000000000000000000000000000       
1040001300157T 060000008821120000000   1400000372800000431DBC2018/004    15042018000000000009000237023660DBC2018/004              090000000000000000ANTONIO GILDASIO MENDES                           000000000000590040102                     
1040001300158U 06000000000000000000000000000000000000000000000000000000000000000000000009000000000000009000000000000000000000000000000000160420181804201800001804201800000000000000000000000000000000000000000000000000000000000000000000       
1040001300159T 060000008821120000000   1400000449400000481DBL0148/004    15042018000000000021238237025750DBL0148/004              090000000000000000VALDIVINO NETO DA SILVA                           000000000000590040102                     
1040001300160U 06000000000000000000000000000000000000000000000000000000000000000000000021238000000000021238000000000000000000000000000000160420181804201800001804201800000000000000000000000000000000000000000000000000000000000000000000       
1040001300161T 060000008821120000000   1400000382500000431DBL9056/004    15042018000000000038556237019770DBL9056/004              090000000000000000EZEQUIAS BARBOSA                                  000000000000590040102                     
1040001300162U 06000000000000000000000000000000000000000000000000000000000000000000000038556000000000038556000000000000000000000000000000160420181804201800001804201800000000000000000000000000000000000000000000000000000000000000000000       
1040001300163T 060000008821120000000   1400000456200000451DDS0937/004    15042018000000000027973341016530DDS0937/004              090000000000000000EDISON ROBERTO VENANCIO JUNIOR                    000000000000590040102                     
1040001300164U 06000000000000000000000000000000000000000000000000000000000000000000000027973000000000027973000000000000000000000000000000160420181804201800001804201800000000000000000000000000000000000000000000000000000000000000000000       
1040001300165T 060000008821120000000   1400000475200000401DFJ3913        15042018000000000046024237003160DFJ3913                  090000000000000000JOAO GALVAO NETO -ME                              000000000000590040102                     
1040001300166U 06000000000000000000000000000000000000000000000000000000000000000000000046024000000000046024000000000000000000000000000000160420181804201800001804201800000000000000000000000000000000000000000000000000000000000000000000       
1040001300167T 060000008821120000000   1400000420700000431DHS3158/004    15042018000000000021924341081620DHS3158/004              090000000000000000J C DOS SANTOS SALTO   ME                         000000000000590040102                     
1040001300168U 06000000000000000000000000000000000000000000000000000000000000000000000021924000000000021924000000000000000000000000000000160420181804201800001804201800000000000000000000000000000000000000000000000000000000000000000000       
1040001300169T 060000008821120000000   1400000388300000491DJB6259/004    15042018000000000039647033039870DJB6259/004              090000000000000000MAX A  S  BOMFIM TRANSPORTES                      000000000000590040102                     
1040001300170U 06000000000000000000000000000000000000000000000000000000000000000000000039647000000000039647000000000000000000000000000000160420181804201800001804201800000000000000000000000000000000000000000000000000000000000000000000       
1040001300171T 060000008821120000000   1400000433800000401DJB6485/004    15042018000000000033889237001550DJB6485/004              090000000000000000JESER BATISTA FERNANDES                           000000000000590040102                     
1040001300172U 06000000000000000000000000000000000000000000000000000000000000000000000033889000000000033889000000000000000000000000000000160420181804201800001804201800000000000000000000000000000000000000000000000000000000000000000000       
1040001300173T 060000008821120000000   1400000311200000461DJC2328/004    15042018000000000015000104008990DJC2328/004              090000000000000000EDVALDO SOTHERO DE GODOY ME                       000000000000590020102                     
1040001300174U 06000000000000000000000000000000000000000000000000000000000000000000000015000000000000015000000000000000000000000000000000160420181804201800001804201800000000000000000000000000000000000000000000000000000000000000000000       
1040001300175T 060000008821120000000   1400000470300000431DJC7453/002    15042018000000000021800104040320DJC7453/002              090000000000000000VALDIR DONIZETTI BRASCA                           000000000000590020102                     
1040001300176U 06000000000000000000000000000000000000000000000000000000000000000000000021800000000000021800000000000000000000000000000000160420181804201800001804201800000000000000000000000000000000000000000000000000000000000000000000       
1040001300177T 060000008821120000000   1400000235000000471DJE3958/004    15042018000000000033000341091070DJE3958/004              090000000000000000FRANCISCO OVIDIO NETO                             000000000000590040102                     
1040001300178U 06000000000000000000000000000000000000000000000000000000000000000000000033000000000000033000000000000000000000000000000000160420181804201800001804201800000000000000000000000000000000000000000000000000000000000000000000       
1040001300179T 060000008821120000000   1400000458400000441DPB18/004      15042018000000000028234341015860DPB18/004                090000000000000000ANTONIO WIDSNEY PEREIRA DA SILVA                  000000000000590040102                     
1040001300180U 06000000000000000000000000000000000000000000000000000000000000000000000028234000000000028234000000000000000000000000000000160420181804201800001804201800000000000000000000000000000000000000000000000000000000000000000000       
1040001300181T 060000008821120000000   1400000338400000401DPB4546/004    15042018000000000022897033037340DPB4546/004              090000000000000000RAFAEL GARBES FEITOSA                             000000000000590040102                     
1040001300182U 06000000000000000000000000000000000000000000000000000000000000000000000022897000000000022897000000000000000000000000000000160420181804201800001804201800000000000000000000000000000000000000000000000000000000000000000000       
1040001300183T 060000008821120000000   1400000380700000451DPB6327/004    15042018000000000020073001057080DPB6327/004              090000000000000000EDILSON FAGUNDES PINTO                            000000000000590040102                     
1040001300184U 06000000000000000000000000000000000000000000000000000000000000000000000020073000000000020073000000000000000000000000000000160420181804201800001804201800000000000000000000000000000000000000000000000000000000000000000000       
1040001300185T 060000008821120000000   1400000428300000471DPF6675/004    15042018000000000046299341048370DPF6675/004              090000000000000000REGINALDO DA VEIGA                                000000000000590040102                     
1040001300186U 06000000000000000000000000000000000000000000000000000000000000000000000046299000000000046299000000000000000000000000000000160420181804201800001804201800000000000000000000000000000000000000000000000000000000000000000000       
1040001300187T 060000008821120000000   1400000456300000481DPF8957/004    15042018000000000052524237023910DPF8957/004              090000000000000000CARLOS CESAR COELHO JUNIOR   ME                   000000000000590040102                     
1040001300188U 06000000000000000000000000000000000000000000000000000000000000000000000052524000000000052524000000000000000000000000000000160420181804201800001804201800000000000000000000000000000000000000000000000000000000000000000000       
1040001300189T 060000008821120000000   1400000431800000461DPF9722/002    15042018000000000044272237029510DPF9722/002              090000000000000000ALESSANDRO MARCHESINI                             000000000000590040102                     
1040001300190U 06000000000000000000000000000000000000000000000000000000000000000000000044272000000000044272000000000000000000000000000000160420181804201800001804201800000000000000000000000000000000000000000000000000000000000000000000       
1040001300191T 060000008821120000000   1400000420500000481DQO4391/004    15042018000000000034434341081620DQO4391/004              090000000000000000J C DOS SANTOS SALTO   ME                         000000000000590040102                     
1040001300192U 06000000000000000000000000000000000000000000000000000000000000000000000034434000000000034434000000000000000000000000000000160420181804201800001804201800000000000000000000000000000000000000000000000000000000000000000000       
1040001300193T 060000008821120000000   1400000447900000481DSD3759/003    15042018000000000024176001027520DSD3759/003              090000000000000000OLIVEIRA GUINCHO E SERVICOS DE TRANSPORT          000000000000590040102                     
1040001300194U 06000000000000000000000000000000000000000000000000000000000000000000000024176000000000024176000000000000000000000000000000160420181804201800001804201800000000000000000000000000000000000000000000000000000000000000000000       
1040001300195T 060000008821120000000   1400000386400000481DTA0231/002    15042018000000000027421341040520DTA0231/002              090000000000000000JURANDIR MIRANDA DA SILVA                         000000000000590040102                     
1040001300196U 06000000000000000000000000000000000000000000000000000000000000000000000027421000000000027421000000000000000000000000000000160420181804201800001804201800000000000000000000000000000000000000000000000000000000000000000000       
1040001300197T 060000008821120000000   1400000415500000491DTC1592/004    15042018000000000041199237028600DTC1592/004              090000000000000000ELOI RIBEIRO DA SILVA JUNIOR                      000000000000590040102                     
1040001300198U 06000000000000000000000000000000000000000000000000000000000000000000000041199000000000041199000000000000000000000000000000160420181804201800001804201800000000000000000000000000000000000000000000000000000000000000000000       
1040001300199T 060000008821120000000   1400000472000000491DTE2661/003    15042018000000000022406341081210DTE2661/003              090000000000000000EDILAINE DUVOISEM SOARES FERNANDES                000000000000590040102                     
1040001300200U 06000000000000000000000000000000000000000000000000000000000000000000000022406000000000022406000000000000000000000000000000160420181804201800001804201800000000000000000000000000000000000000000000000000000000000000000000       
1040001300201T 060000008821120000000   1400000443900000401DUR2018/004    15042018000000000023716341064210DUR2018/004              090000000000000000CLAUDINEI FRANCISCO DO NASCIMENTO                 000000000000590040102                     
1040001300202U 06000000000000000000000000000000000000000000000000000000000000000000000023716000000000023716000000000000000000000000000000160420181804201800001804201800000000000000000000000000000000000000000000000000000000000000000000       
1040001300203T 060000008821120000000   1400000430100000451DVT3791/004    15042018000000000043663033000870DVT3791/004              090000000000000000JORGE EDUARDO DA SILVA                            000000000000590040102                     
1040001300204U 06000000000000000000000000000000000000000000000000000000000000000000000043663000000000043663000000000000000000000000000000160420181804201800001804201800000000000000000000000000000000000000000000000000000000000000000000       
1040001300205T 060000008821120000000   1400000000045920301DXV5208-       16042018000000000046468341005590DXV5208-                 090000000000000000PAULO HENRIQUE GARCIA SERRA                       000000000000590040102                     
1040001300206U 06000000000000000000000000000000000000000000000000000000000000000000000046468000000000046468000000000000000000000000000000160420181804201800001804201800000000000000000000000000000000000000000000000000000000000000000000       
1040001300207T 060000008821120000000   1400000448100000481EBM9040/004    15042018000000000015170001032660EBM9040/004              090000000000000000LEONARDO BITTENCOURT DE ALMEIDA TRANSPOR          000000000000590040102                     
1040001300208U 06000000000000000000000000000000000000000000000000000000000000000000000015170000000000015170000000000000000000000000000000160420181804201800001804201800000000000000000000000000000000000000000000000000000000000000000000       
1040001300209T 060000008821120000000   1400000040700000401EDP3817/004    15042018000000000037587001032660EDP3817/004              090000000000000000LEONARDO BITTENCOURT DE ALMEIDA TRANSPOR          000000000000590040102                     
1040001300210U 06000000000000000000000000000000000000000000000000000000000000000000000037587000000000037587000000000000000000000000000000160420181804201800001804201800000000000000000000000000000000000000000000000000000000000000000000       
1040001300211T 060000008821120000000   1400000454800000481EEV2018/004    15042018000000000016690237060220EEV2018/004              090000000000000000ALESSANDRO LAMBERTI BANZATO                       000000000000590040102                     
1040001300212U 06000000000000000000000000000000000000000000000000000000000000000000000016690000000000016690000000000000000000000000000000160420181804201800001804201800000000000000000000000000000000000000000000000000000000000000000000       
1040001300213T 060000008821120000000   1400000362800000451EFU2855/004    15042018000000000073220237033060EFU2855/004              090000000000000000TRANSPORTADORA LITA LTDA                          000000000000590040102                     
1040001300214U 06000000000000000000000000000000000000000000000000000000000000000000000073220000000000073220000000000000000000000000000000160420181804201800001804201800000000000000000000000000000000000000000000000000000000000000000000       
1040001300215T 060000008821120000000   1400000406700000481EFV2250/004    15042018000000000022235001029960EFV2250/004              090000000000000000ROBERTO CARLOS RODRIGUES                          000000000000590040102                     
1040001300216U 06000000000000000000000000000000000000000000000000000000000000000000000022235000000000022235000000000000000000000000000000160420181804201800001804201800000000000000000000000000000000000000000000000000000000000000000000       
1040001300217T 060000008821120000000   1400000454300000441EFV3938/004    15042018000000000042264341080040EFV3938/004              090000000000000000BGM LOGISTICA E TRANSPORTE LTDA   ME              000000000000590040102                     
1040001300218U 06000000000000000000000000000000000000000000000000000000000000000000000042264000000000042264000000000000000000000000000000160420181804201800001804201800000000000000000000000000000000000000000000000000000000000000000000       
1040001300219T 060000008821120000000   1400000427500000401EGK2167/002    15042018000000000044243033037990EGK2167/002              090000000000000000WILSON FERNANDES GONCALVES                        000000000000590040102                     
1040001300220U 06000000000000000000000000000000000000000000000000000000000000000000000044243000000000044243000000000000000000000000000000160420181804201800001804201800000000000000000000000000000000000000000000000000000000000000000000       
1040001300221T 060000008821120000000   1400000284800000481EJV 18/004     15042018000000000026354237023660EJV 18/004               090000000000000000ANTONIO GILDASIO MENDES                           000000000000590040102                     
1040001300222U 06000000000000000000000000000000000000000000000000000000000000000000000026354000000000026354000000000000000000000000000000160420181804201800001804201800000000000000000000000000000000000000000000000000000000000000000000       
1040001300223T 060000008821120000000   1400000463800000441EJV2018/004    15042018000000000024325104006370EJV2018/004              090000000000000000ADEMILSON PEREIRA DE SOUZA                        000000000000590020102                     
1040001300224U 06000000000000000000000000000000000000000000000000000000000000000000000024325000000000024325000000000000000000000000000000160420181804201800001804201800000000000000000000000000000000000000000000000000000000000000000000       
1040001300225T 060000008821120000000   1400000471100000401EJV6623/002    15042018000000000080513341007270EJV6623/002              090000000000000000LEANDRO MENDES DUARTE                             000000000000590040102                     
1040001300226U 06000000000000000000000000000000000000000000000000000000000000000000000080513000000000080513000000000000000000000000000000160420181804201800001804201800000000000000000000000000000000000000000000000000000000000000000000       
1040001300227T 060000008821120000000   1400000476100000491EJV7962        15042018000000000045028341068300EJV7962                  090000000000000000CLEITON VIEIRA DA SILVA                           000000000000590040102                     
1040001300228U 06000000000000000000000000000000000000000000000000000000000000000000000045028000000000045028000000000000000000000000000000160420181804201800001804201800000000000000000000000000000000000000000000000000000000000000000000       
1040001300229T 060000008821120000000   1400000444400000491EJV9586/004    15042018000000000040866341079920EJV9586/004              090000000000000000SOUZA   ORNELLAS TRANSPORTES LTDA ME              000000000000590040102                     
1040001300230U 06000000000000000000000000000000000000000000000000000000000000000000000040866000000000040866000000000000000000000000000000160420181804201800001804201800000000000000000000000000000000000000000000000000000000000000000000       
1040001300231T 060000008821120000000   1400000471500000321EJW4320/003    15042018000000000022416033005770EJW4320/003              090000000000000000THIAGO GIROTTO DE ARAUJO                          000000000000590040102                     
1040001300232U 06000000000000000000000000000000000000000000000000000000000000000000000022416000000000022416000000000000000000000000000000160420181804201800001804201800000000000000000000000000000000000000000000000000000000000000000000       
1040001300233T 060000008821120000000   1400000296500000411EJW8432/004    15042018000000000044815237023250EJW8432/004              090000000000000000VALDENIR CORDEIRO DA SILVA                        000000000000590040102                     
1040001300234U 06000000000000000000000000000000000000000000000000000000000000000000000044815000000000044815000000000000000000000000000000160420181804201800001804201800000000000000000000000000000000000000000000000000000000000000000000       
1040001300235T 060000008821120000000   1400000413300000401EJY4700/004    15042018000000000046365237001540EJY4700/004              090000000000000000BARBARA APARECIDA MARQUES SUMMA                   000000000000590040102                     
1040001300236U 06000000000000000000000000000000000000000000000000000000000000000000000046365000000000046365000000000000000000000000000000160420181804201800001804201800000000000000000000000000000000000000000000000000000000000000000000       
1040001300237T 060000008821120000000   1400000431000000441ELW9115/004    15042018000000000026300237031140ELW9115/004              090000000000000000PAULO SERGIO TAKETSUMA                            000000000000590040102                     
1040001300238U 06000000000000000000000000000000000000000000000000000000000000000000000026300000000000026300000000000000000000000000000000160420181804201800001804201800000000000000000000000000000000000000000000000000000000000000000000       
1040001300239T 060000008821120000000   1400000381000000481EMU3116/004    15042018000000000042592237033060EMU3116/004              090000000000000000TRANSPORTADORA LITA LTDA                          000000000000590040102                     
1040001300240U 06000000000000000000000000000000000000000000000000000000000000000000000042592000000000042592000000000000000000000000000000160420181804201800001804201800000000000000000000000000000000000000000000000000000000000000000000       
1040001300241T 060000008821120000000   1400000462400000411ENM7050/004    15042018000000000028179237002770ENM7050/004              090000000000000000HEBER CARLOS NASCIMENTO                           000000000000590040102                     
1040001300242U 06000000000000000000000000000000000000000000000000000000000000000000000028179000000000028179000000000000000000000000000000160420181804201800001804201800000000000000000000000000000000000000000000000000000000000000000000       
1040001300243T 060000008821120000000   1400000472300000471EOE4964/002    15042018000000000056000237016230EOE4964/002              090000000000000000JZP TRANSPORTES DE CARGAS LTDA - EPP              000000000000590040102                     
1040001300244U 06000000000000000000000000000000000000000000000000000000000000000000000056000000000000056000000000000000000000000000000000160420181804201800001804201800000000000000000000000000000000000000000000000000000000000000000000       
1040001300245T 060000008821120000000   1400000470500000491EOE5144/004    15042018000000000043426104041400EOE5144/004              090000000000000000TARICK NEHME                                      000000000000590060102                     
1040001300246U 06000000000000000000000000000000000000000000000000000000000000000000000043426000000000043426000000000000000000000000000000160420181804201800001804201800000000000000000000000000000000000000000000000000000000000000000000       
1040001300247T 060000008821120000000   1400000469000000431EQV1147/004    15042018000000000027500341007180EQV1147/004              090000000000000000JOSE EDUARDO LAGO SUBERO                          000000000000590040102                     
1040001300248U 06000000000000000000000000000000000000000000000000000000000000000000000027500000000000027500000000000000000000000000000000160420181804201800001804201800000000000000000000000000000000000000000000000000000000000000000000       
1040001300249T 060000008821120000000   1400000427100000401ESU7179/004    15042018000000000043570341018000ESU7179/004              090000000000000000UILTON RUDNEI ARIOZA                              000000000000590040102                     
1040001300250U 06000000000000000000000000000000000000000000000000000000000000000000000043570000000000043570000000000000000000000000000000160420181804201800001804201800000000000000000000000000000000000000000000000000000000000000000000       
1040001300251T 060000008821120000000   1400000473500000441ESU8810/002    15042018000000000049635237023910ESU8810/002              090000000000000000CARLOS CESAR COELHO JUNIOR   ME                   000000000000590040102                     
1040001300252U 06000000000000000000000000000000000000000000000000000000000000000000000049635000000000049635000000000000000000000000000000160420181804201800001804201800000000000000000000000000000000000000000000000000000000000000000000       
1040001300253T 060000008821120000000   1400000405000000551ETC9016/002    15042018000000000020246341083170ETC9016/002              090000000000000000ROBENILSON PAULO DA SILVA                         000000000000590040102                     
1040001300254U 06000000000000000000000000000000000000000000000000000000000000000000000020246000000000020246000000000000000000000000000000160420181804201800001804201800000000000000000000000000000000000000000000000000000000000000000000       
1040001300255T 060000008821120000000   1400000453900000491EVK2018/004    15042018000000000023825341010170EVK2018/004              090000000000000000ADEMIR PORTELLA DE BIASO                          000000000000590040102                     
1040001300256U 06000000000000000000000000000000000000000000000000000000000000000000000023825000000000023825000000000000000000000000000000160420181804201800001804201800000000000000000000000000000000000000000000000000000000000000000000       
1040001300257T 060000008821120000000   1400000420800000461EZA3455/004    15042018000000000017668341081620EZA3455/004              090000000000000000J C DOS SANTOS SALTO   ME                         000000000000590040102                     
1040001300258U 06000000000000000000000000000000000000000000000000000000000000000000000017668000000000017668000000000000000000000000000000160420181804201800001804201800000000000000000000000000000000000000000000000000000000000000000000       
1040001300259T 060000008821120000000   1400000472900000431EZH2421/002    15042018000000000026600341083410EZH2421/002              090000000000000000DANIEL ACACIO PEREIRA                             000000000000590040102                     
1040001300260U 06000000000000000000000000000000000000000000000000000000000000000000000026600000000000026600000000000000000000000000000000160420181804201800001804201800000000000000000000000000000000000000000000000000000000000000000000       
1040001300261T 060000008821120000000   1400000428500000421EZK0019/004    15042018000000000018482237004500EZK0019/004              090000000000000000EVANDRO PEREIRA DE MELO                           000000000000590040102                     
1040001300262U 06000000000000000000000000000000000000000000000000000000000000000000000018482000000000018482000000000000000000000000000000160420181804201800001804201800000000000000000000000000000000000000000000000000000000000000000000       
1040001300263T 060000008821120000000   1400000402700000401EZL8062/004    15042018000000000046297341088460EZL8062/004              090000000000000000WAGNER DE BASTOS SILVA                            000000000000590040102                     
1040001300264U 06000000000000000000000000000000000000000000000000000000000000000000000046297000000000046297000000000000000000000000000000160420181804201800001804201800000000000000000000000000000000000000000000000000000000000000000000       
1040001300265T 060000008821120000000   1400000464500000481EZU5313/004    15042018000000000049351237023910EZU5313/004              090000000000000000CARLOS CESAR COELHO JUNIOR   ME                   000000000000590040102                     
1040001300266U 06000000000000000000000000000000000000000000000000000000000000000000000049351000000000049351000000000000000000000000000000160420181804201800001804201800000000000000000000000000000000000000000000000000000000000000000000       
1040001300267T 060000008821120000000   1400004667000000401FCB3935/004    15042018000000000027814104003500FCB3935/004              090000000000000000JOAO VICENTE VACCARI                              000000000000590020102                     
1040001300268U 06000000000000000000000000000000000000000000000000000000000000000000000027814000000000027814000000000000000000000000000000160420181804201800001804201800000000000000000000000000000000000000000000000000000000000000000000       
1040001300269T 060000008821120000000   1400000453500000481FEI4462/003    15042018000000000046522237022330FEI4462/003              090000000000000000AMERICA MARITIMES SERVICES LTDA   EPP             000000000000590040102                     
1040001300270U 06000000000000000000000000000000000000000000000000000000000000000000000046522000000000046522000000000000000000000000000000160420181804201800001804201800000000000000000000000000000000000000000000000000000000000000000000       
1040001300271T 060000008821120000000   1400000466800000401FEJ8861/004    15042018000000000031132104031280FEJ8861/004              090000000000000000VELOZTER TRANPORTES LTDA   ME                     000000000000590060102                     
1040001300272U 06000000000000000000000000000000000000000000000000000000000000000000000031132000000000031132000000000000000000000000000000160420181804201800001804201800000000000000000000000000000000000000000000000000000000000000000000       
1040001300273T 060000008821120000000   1400000044040000431FEW6760/004    15042018000000000084140237023240FEW6760/004              090000000000000000NW MONTAGENS IND  E LOCACOES LTDA   ME            000000000000590040102                     
1040001300274U 06000000000000000000000000000000000000000000000000000000000000000000000084140000000000084140000000000000000000000000000000160420181804201800001804201800000000000000000000000000000000000000000000000000000000000000000000       
1040001300275T 060000008821120000000   1400000441100000451FFI2151/004    15042018000000000092111237023240FFI2151/004              090000000000000000NW MONTAGENS IND  E LOCACOES LTDA   ME            000000000000590040102                     
1040001300276U 06000000000000000000000000000000000000000000000000000000000000000000000092111000000000092111000000000000000000000000000000160420181804201800001804201800000000000000000000000000000000000000000000000000000000000000000000       
1040001300277T 060000008821120000000   1400000465300000441FIH9130/004    15042018000000000030818033037170FIH9130/004              090000000000000000DANIEL REBELLO FIGUEIREDO                         000000000000590040102                     
1040001300278U 06000000000000000000000000000000000000000000000000000000000000000000000030818000000000030818000000000000000000000000000000160420181804201800001804201800000000000000000000000000000000000000000000000000000000000000000000       
1040001300279T 060000008821120000000   1400000459300000431FTD2018/004    15042018000000000058981237023910FTD2018/004              090000000000000000CARLOS CESAR COELHO JUNIOR   ME                   000000000000590040102                     
1040001300280U 06000000000000000000000000000000000000000000000000000000000000000000000058981000000000058981000000000000000000000000000000160420181804201800001804201800000000000000000000000000000000000000000000000000000000000000000000       
1040001300281T 060000008821120000000   1400000303900000401FWC2018/004    15042018000000000037443341007360FWC2018/004              090000000000000000CLAUDIO DA FONSECA CASTILHO                       000000000000590040102                     
1040001300282U 06000000000000000000000000000000000000000000000000000000000000000000000037443000000000037443000000000000000000000000000000160420181804201800001804201800000000000000000000000000000000000000000000000000000000000000000000       
1040001300283T 060000008821120000000   1400000427400000481GDT2998/004    15042018000000000047111341065110GDT2998/004              090000000000000000JUVENAL M DE JESUS ME                             000000000000590040102                     
1040001300284U 06000000000000000000000000000000000000000000000000000000000000000000000047111000000000047111000000000000000000000000000000160420181804201800001804201800000000000000000000000000000000000000000000000000000000000000000000       
1040001300285T 060000008821120000000   1400000454900000401GFK0099/004    15042018000000000032458237019970GFK0099/004              090000000000000000JOSE LUIZ VITORELLO                               000000000000590040102                     
1040001300286U 06000000000000000000000000000000000000000000000000000000000000000000000032458000000000032458000000000000000000000000000000160420181804201800001804201800000000000000000000000000000000000000000000000000000000000000000000       
1040001300287T 060000008821120000000   1400000441200000481GGF6862/004    15042018000000000096500237023240GGF6862/004              090000000000000000NW MONTAGENS IND  E LOCACOES LTDA   ME            000000000000590040102                     
1040001300288U 06000000000000000000000000000000000000000000000000000000000000000000000096500000000000096500000000000000000000000000000000160420181804201800001804201800000000000000000000000000000000000000000000000000000000000000000000       
1040001300289T 060000008821120000000   1400000474800000441GIZ2381/001    15042018000000000098600104009620GIZ2381/001              090000000000000000M BRAGA TRANSPORTES LTDA ME                       000000000000590060102                     
1040001300290U 06000000000000000000000000000000000000000000000000000000000000000000000098600000000000098600000000000000000000000000000000160420181804201800001804201800000000000000000000000000000000000000000000000000000000000000000000       
1040001300291T 060000008821120000000   1400000371400000401GVJ0004/004    15042018000000000038461033004480GVJ0004/004              090000000000000000FABIANO RAMIM                                     000000000000590040102                     
1040001300292U 06000000000000000000000000000000000000000000000000000000000000000000000038461000000000038461000000000000000000000000000000160420181804201800001804201800000000000000000000000000000000000000000000000000000000000000000000       
1040001300293T 060000008821120000000   1400000450400000401GVK7867/004    15042018000000000020509237066320GVK7867/004              090000000000000000RENATO HARO RAMILO                                000000000000590040102                     
1040001300294U 06000000000000000000000000000000000000000000000000000000000000000000000020509000000000020509000000000000000000000000000000160420181804201800001804201800000000000000000000000000000000000000000000000000000000000000000000       
1040001300295T 060000008821120000000   1400000255100000461GVP7647/004    15042018000000000041235237032980GVP7647/004              090000000000000000OASIS AUTO PECAS FUNILARIA E PINTURA LTD          000000000000590040102                     
1040001300296U 06000000000000000000000000000000000000000000000000000000000000000000000041235000000000041235000000000000000000000000000000160420181804201800001804201800000000000000000000000000000000000000000000000000000000000000000000       
1040001300297T 060000008821120000000   1400000464200000401GVQ8348/004    15042018000000000026389237003790GVQ8348/004              090000000000000000TRANSPORTADORA 3R BEBEDOURO LTDA   ME             000000000000590040102                     
1040001300298U 06000000000000000000000000000000000000000000000000000000000000000000000026389000000000026389000000000000000000000000000000160420181804201800001804201800000000000000000000000000000000000000000000000000000000000000000000       
1040001300299T 060000008821120000000   1400000433100000401GWD6821/004    15042018000000000028878341090520GWD6821/004              090000000000000000MARCIO RICARDO DE OLIVEIRA                        000000000000590040102                     
1040001300300U 06000000000000000000000000000000000000000000000000000000000000000000000028878000000000028878000000000000000000000000000000160420181804201800001804201800000000000000000000000000000000000000000000000000000000000000000000       
1040001300301T 060000008821120000000   1400000461900000431GXH2018/004    15042018000000000083808237025610GXH2018/004              090000000000000000ANDERSON APARECIDO DE SOUZA                       000000000000590040102                     
1040001300302U 06000000000000000000000000000000000000000000000000000000000000000000000083808000000000083808000000000000000000000000000000160420181804201800001804201800000000000000000000000000000000000000000000000000000000000000000000       
1040001300303T 060000008821120000000   1400000425600000401HEH2018/002    15042018000000000042649033035820HEH2018/002              090000000000000000JOCELI FERNANDES                                  000000000000590040102                     
1040001300304U 06000000000000000000000000000000000000000000000000000000000000000000000042649000000000042649000000000000000000000000000000160420181804201800001804201800000000000000000000000000000000000000000000000000000000000000000000       
1040001300305T 060000008821120000000   1400000453000000441HHK0245/004    15042018000000000074000104009620HHK0245/004              090000000000000000M BRAGA TRANSPORTES LTDA ME                       000000000000590060102                     
1040001300306U 06000000000000000000000000000000000000000000000000000000000000000000000074000000000000074000000000000000000000000000000000160420181804201800001804201800000000000000000000000000000000000000000000000000000000000000000000       
1040001300307T 060000008821120000000   1400000445600000461HJI3530/004    15042018000000000069197237003790HJI3530/004              090000000000000000TRANSPORTADORA 3R BEBEDOURO LTDA   ME             000000000000590040102                     
1040001300308U 06000000000000000000000000000000000000000000000000000000000000000000000069197000000000069197000000000000000000000000000000160420181804201800001804201800000000000000000000000000000000000000000000000000000000000000000000       
1040001300309T 060000008821120000000   1400000370700000471HOM4354/004    15042018000000000014462104008990HOM4354/004              090000000000000000ROGERIO DO NASCIMENTO AMARAL                      000000000000590020102                     
1040001300310U 06000000000000000000000000000000000000000000000000000000000000000000000014462000000000014462000000000000000000000000000000160420181804201800001804201800000000000000000000000000000000000000000000000000000000000000000000       
1040001300311T 060000008821120000000   1400000420600000401HQG7807/004    15042018000000000022504341081620HQG7807/004              090000000000000000J C DOS SANTOS SALTO   ME                         000000000000590040102                     
1040001300312U 06000000000000000000000000000000000000000000000000000000000000000000000022504000000000022504000000000000000000000000000000160420181804201800001804201800000000000000000000000000000000000000000000000000000000000000000000       
1040001300313T 060000008821120000000   1400000359400000491HRN1556/004    15042018000000000031296237027320HRN1556/004              090000000000000000OSMAR CANDIDO DA SILVA                            000000000000590040102                     
1040001300314U 06000000000000000000000000000000000000000000000000000000000000000000000031296000000000031296000000000000000000000000000000160420181804201800001804201800000000000000000000000000000000000000000000000000000000000000000000       
1040001300315T 060000008821120000000   1400000474000000421HUQ1280/002    15042018000000000022050104034990HUQ1280/002              090000000000000000VANDERLEI OLIVEIRA DA SILVA                       000000000000590020102                     
1040001300316U 06000000000000000000000000000000000000000000000000000000000000000000000022050000000000022050000000000000000000000000000000160420181804201800001804201800000000000000000000000000000000000000000000000000000000000000000000       
1040001300317T 060000008821120000000   1400000254600000481HUS3249/004    15042018000000000019034104008970HUS3249/004              090000000000000000JURACI LADEIRA                                    000000000000590020102                     
1040001300318U 06000000000000000000000000000000000000000000000000000000000000000000000019034000000000019034000000000000000000000000000000160420181804201800001804201800000000000000000000000000000000000000000000000000000000000000000000       
1040001300319T 060000008821120000000   1400000418300000491HVU3759/004    15042018000000000017579237002140HVU3759/004              090000000000000000VANDERLEI MARQUES DE OLIVEIRA                     000000000000590040102                     
1040001300320U 06000000000000000000000000000000000000000000000000000000000000000000000017579000000000017579000000000000000000000000000000160420181804201800001804201800000000000000000000000000000000000000000000000000000000000000000000       
1040001300321T 060000008821120000000   1400000457300000401JFP2018/004    15042018000000000010536033035010JFP2018/004              090000000000000000ADRIANO FERRAZ MARQUES                            000000000000590040102                     
1040001300322U 06000000000000000000000000000000000000000000000000000000000000000000000010536000000000010536000000000000000000000000000000160420181804201800001804201800000000000000000000000000000000000000000000000000000000000000000000       
1040001300323T 060000008821120000000   1400000473900000451JJO6735/002    15042018000000000013802341010160JJO6735/002              090000000000000000ROGER CARNEIRO SANCHES                            000000000000590040102                     
1040001300324U 06000000000000000000000000000000000000000000000000000000000000000000000013802000000000013802000000000000000000000000000000160420181804201800001804201800000000000000000000000000000000000000000000000000000000000000000000       
1040001300325T 060000008821120000000   1400000465400000471JNW9780/003    15042018000000000019796341085510JNW9780/003              090000000000000000ADRIANO KELVIN MOREIRA GOMES                      000000000000590040102                     
1040001300326U 06000000000000000000000000000000000000000000000000000000000000000000000019796000000000019796000000000000000000000000000000160420181804201800001804201800000000000000000000000000000000000000000000000000000000000000000000       
1040001300327T 060000008821120000000   1400000453300000421JRW9876/004    15042018000000000069403104009620JRW9876/004              090000000000000000M BRAGA TRANSPORTES LTDA ME                       000000000000590060102                     
1040001300328U 06000000000000000000000000000000000000000000000000000000000000000000000069403000000000069403000000000000000000000000000000160420181804201800001804201800000000000000000000000000000000000000000000000000000000000000000000       
1040001300329T 060000008821120000000   1400000453400000451JSC4959/004    15042018000000000078403104009620JSC4959/004              090000000000000000M BRAGA TRANSPORTES LTDA ME                       000000000000590060102                     
1040001300330U 06000000000000000000000000000000000000000000000000000000000000000000000078403000000000078403000000000000000000000000000000160420181804201800001804201800000000000000000000000000000000000000000000000000000000000000000000       
1040001300331T 060000008821120000000   1400000456100000421JSV8589/004    15042018000000000031384237020190JSV8589/004              090000000000000000EDNEI DE CAMPOS CAMARGO                           000000000000590040102                     
1040001300332U 06000000000000000000000000000000000000000000000000000000000000000000000031384000000000031384000000000000000000000000000000160420181804201800001804201800000000000000000000000000000000000000000000000000000000000000000000       
1040001300333T 060000008821120000000   1400000473000000401JZV2475/002    15042018000000000021000104009620JZV2475/002              090000000000000000M BRAGA TRANSPORTES LTDA ME                       000000000000590060102                     
1040001300334U 06000000000000000000000000000000000000000000000000000000000000000000000021000000000000021000000000000000000000000000000000160420181804201800001804201800000000000000000000000000000000000000000000000000000000000000000000       
1040001300335T 060000008821120000000   1400000402600000481KDL5652/004    15042018000000000027500237029480KDL5652/004              090000000000000000MAURO LUIS DO NASCIMENTO RODRIGUES                000000000000590040102                     
1040001300336U 06000000000000000000000000000000000000000000000000000000000000000000000027500000000000027500000000000000000000000000000000160420181804201800001804201800000000000000000000000000000000000000000000000000000000000000000000       
1040001300337T 060000008821120000000   1400000229900000401KEI8824/002    15042018000000000037644237003160KEI8824/002              090000000000000000JOAO GALVAO NETO -ME                              000000000000590040102                     
1040001300338U 06000000000000000000000000000000000000000000000000000000000000000000000037644000000000037644000000000000000000000000000000160420181804201800001804201800000000000000000000000000000000000000000000000000000000000000000000       
1040001300339T 060000008821120000000   1400000463500000461KFI2583/004    15042018000000000029486033000030KFI2583/004              090000000000000000D&A TRANSPORTES RODOVIARIOS CATANDUVA LT          000000000000590040102                     
1040001300340U 06000000000000000000000000000000000000000000000000000000000000000000000029486000000000029486000000000000000000000000000000160420181804201800001804201800000000000000000000000000000000000000000000000000000000000000000000       
1040001300341T 060000008821120000000   1400000399300000491KGB7013/004    15042018000000000017211341082600KGB7013/004              090000000000000000JOAO LORENCO DE LIRA                              000000000000590040102                     
1040001300342U 06000000000000000000000000000000000000000000000000000000000000000000000017211000000000017211000000000000000000000000000000160420181804201800001804201800000000000000000000000000000000000000000000000000000000000000000000       
1040001300343T 060000008821120000000   1400000463600080071KKPACOR/001    15042018000000000023211033040100KKPACOR/001              090000000000000000DALVISSON GADELHA DA COSTA SOBRINHO               000000000000590040102                     
1040001300344U 06000000000000000000000000000000000000000000000000000000000000000000000023211000000000023211000000000000000000000000000000160420181804201800001804201800000000000000000000000000000000000000000000000000000000000000000000       
1040001300345T 060000008821120000000   1400000463600000491KKP2018/002    15042018000000000046421033040100KKP2018/002              090000000000000000DALVISSON GADELHA DA COSTA SOBRINHO               000000000000590040102                     
1040001300346U 06000000000000000000000000000000000000000000000000000000000000000000000046421000000000046421000000000000000000000000000000160420181804201800001804201800000000000000000000000000000000000000000000000000000000000000000000       
1040001300347T 060000008821120000000   1400000439300000471KLY1930/004    15042018000000000043609033040100KLY1930/004              090000000000000000DALVISSON GADELHA DA COSTA SOBRINHO               000000000000590040102                     
1040001300348U 06000000000000000000000000000000000000000000000000000000000000000000000043609000000000043609000000000000000000000000000000160420181804201800001804201800000000000000000000000000000000000000000000000000000000000000000000       
1040001300349T 060000008821120000000   1400000450500000421KOE6747/004    15042018000000000018307237066320KOE6747/004              090000000000000000RENATO HARO RAMILO                                000000000000590040102                     
1040001300350U 06000000000000000000000000000000000000000000000000000000000000000000000018307000000000018307000000000000000000000000000000160420181804201800001804201800000000000000000000000000000000000000000000000000000000000000000000       
1040001300351T 060000008821120000000   1400000457500000451KOX1314/004    15042018000000000029434001032660KOX1314/004              090000000000000000LEONARDO BITTENCOURT DE ALMEIDA TRANSPOR          000000000000590040102                     
1040001300352U 06000000000000000000000000000000000000000000000000000000000000000000000029434000000000029434000000000000000000000000000000160420181804201800001804201800000000000000000000000000000000000000000000000000000000000000000000       
1040001300353T 060000008821120000000   1400000451500000441KRA2521/004    15042018000000000033500033005660KRA2521/004              090000000000000000LUPERCIO BATISTA DA ROSA                          000000000000590040102                     
1040001300354U 06000000000000000000000000000000000000000000000000000000000000000000000033500000000000033500000000000000000000000000000000160420181804201800001804201800000000000000000000000000000000000000000000000000000000000000000000       
1040001300355T 060000008821120000000   1400000087500000401KSW0862/004    15042018000000000025877341018000KSW0862/004              090000000000000000UILTON RUDNEI ARIOZA                              000000000000590040102                     
1040001300356U 06000000000000000000000000000000000000000000000000000000000000000000000025877000000000025877000000000000000000000000000000160420181804201800001804201800000000000000000000000000000000000000000000000000000000000000000000       
1040001300357T 060000008821120000000   1400000462200000461LBB9080/004    15042018000000000028972237066320LBB9080/004              090000000000000000JOSE RODRIGO HARO RAMILO                          000000000000590040102                     
1040001300358U 06000000000000000000000000000000000000000000000000000000000000000000000028972000000000028972000000000000000000000000000000160420181804201800001804201800000000000000000000000000000000000000000000000000000000000000000000       
1040001300359T 060000008821120000000   1400000466300000461LNK7406/002    15042018000000000021934237001310LNK7406/002              090000000000000000JULIO CESAR DA SILVA SOUZA                        000000000000590040102                     
1040001300360U 06000000000000000000000000000000000000000000000000000000000000000000000021934000000000021934000000000000000000000000000000160420181804201800001804201800000000000000000000000000000000000000000000000000000000000000000000       
1040001300361T 060000008821120000000   1400000462100000431LOI0045/004    15042018000000000021861237066320LOI0045/004              090000000000000000JOSE RODRIGO HARO RAMILO                          000000000000590040102                     
1040001300362U 06000000000000000000000000000000000000000000000000000000000000000000000021861000000000021861000000000000000000000000000000160420181804201800001804201800000000000000000000000000000000000000000000000000000000000000000000       
1040001300363T 060000008821120000000   1400000442600000401LPM4055/004    15042018000000000035417237031910LPM4055/004              090000000000000000JOSE NILSON FERREIRA DANTAS                       000000000000590040102                     
1040001300364U 06000000000000000000000000000000000000000000000000000000000000000000000035417000000000035417000000000000000000000000000000160420181804201800001804201800000000000000000000000000000000000000000000000000000000000000000000       
1040001300365T 060000008821120000000   1400000462700000401LPV1436/004    15042018000000000030199341074320LPV1436/004              090000000000000000MICHEL WESLEY BEZERRA DA SILVA                    000000000000590040102                     
1040001300366U 06000000000000000000000000000000000000000000000000000000000000000000000030199000000000030199000000000000000000000000000000160420181804201800001804201800000000000000000000000000000000000000000000000000000000000000000000       
1040001300367T 060000008821120000000   1400000341000000451MBH2018/004    15042018000000000042245341080460MBH2018/004              090000000000000000ANCER FABRICACAO DE PRODUTOS PARA CERAMI          000000000000590040102                     
1040001300368U 06000000000000000000000000000000000000000000000000000000000000000000000042245000000000042245000000000000000000000000000000160420181804201800001804201800000000000000000000000000000000000000000000000000000000000000000000       
1040001300369T 060000008821120000000   1400000406900000431MCK6186/004    15042018000000000027608001032660MCK6186/004              090000000000000000LEONARDO BITTENCOURT DE ALMEIDA TRANSPOR          000000000000590040102                     
1040001300370U 06000000000000000000000000000000000000000000000000000000000000000000000027608000000000027608000000000000000000000000000000160420181804201800001804201800000000000000000000000000000000000000000000000000000000000000000000       
1040001300371T 060000008821120000000   1400000404500000491MDH9076/004    15042018000000000030079341092620MDH9076/004              090000000000000000ELISEU DONIZETTE GRILLO                           000000000000590040102                     
1040001300372U 06000000000000000000000000000000000000000000000000000000000000000000000030079000000000030079000000000000000000000000000000160420181804201800001804201800000000000000000000000000000000000000000000000000000000000000000000       
1040001300373T 060000008821120000000   1400000431300000421MDQ2018/004    15042018000000000023256001032760MDQ2018/004              090000000000000000AMILCAR DE JESUS AZEVEDO JUNIOR                   000000000000590040102                     
1040001300374U 06000000000000000000000000000000000000000000000000000000000000000000000023256000000000023256000000000000000000000000000000160420181804201800001804201800000000000000000000000000000000000000000000000000000000000000000000       
1040001300375T 060000008821120000000   1400000455600000441MEE3812/004    15042018000000000027536237022690MEE3812/004              090000000000000000VAGNER GUEDES TIAGO                               000000000000590040102                     
1040001300376U 06000000000000000000000000000000000000000000000000000000000000000000000027536000000000027536000000000000000000000000000000160420181804201800001804201800000000000000000000000000000000000000000000000000000000000000000000       
1040001300377T 060000008821120000000   1400000456500000431MEM2018/004    15042018000000000021097237022330MEM2018/004              090000000000000000AMERICA MARITIMES SERVICES LTDA   EPP             000000000000590040102                     
1040001300378U 06000000000000000000000000000000000000000000000000000000000000000000000021097000000000021097000000000000000000000000000000160420181804201800001804201800000000000000000000000000000000000000000000000000000000000000000000       
1040001300379T 060000008821120000000   1400000445500000431MGU5262/004    15042018000000000037069341049850MGU5262/004              090000000000000000EDMILSON FRANCISCO DO NASCIMENTO                  000000000000590040102                     
1040001300380U 06000000000000000000000000000000000000000000000000000000000000000000000037069000000000037069000000000000000000000000000000160420181804201800001804201800000000000000000000000000000000000000000000000000000000000000000000       
1040001300381T 060000008821120000000   1400000273100000491MMB2018/004    15042018000000000027267001047700MMB2018/004              090000000000000000ANDRADE E ABREU TRANSPORTES LTDA   ME             000000000000590040102                     
1040001300382U 06000000000000000000000000000000000000000000000000000000000000000000000027267000000000027267000000000000000000000000000000160420181804201800001804201800000000000000000000000000000000000000000000000000000000000000000000       
1040001300383T 060000008821120000000   1400000472600000451MQV4018/002    15042018000000000048603237006050MQV4018/002              090000000000000000EVANDRO MARCHESINI                                000000000000590040102                     
1040001300384U 06000000000000000000000000000000000000000000000000000000000000000000000048603000000000048603000000000000000000000000000000160420181804201800001804201800000000000000000000000000000000000000000000000000000000000000000000       
1040001300385T 060000008821120000000   1400000389400000431MQW1053/004    15042018000000000027500237003160MQW1053/004              090000000000000000RAIMUNDO TEIXEIRA OLIVEIRA                        000000000000590040102                     
1040001300386U 06000000000000000000000000000000000000000000000000000000000000000000000027500000000000027500000000000000000000000000000000160420181804201800001804201800000000000000000000000000000000000000000000000000000000000000000000       
1040001300387T 060000008821120000000   1400000450300000471MUW6117/004    15042018000000000026731237066320MUW6117/004              090000000000000000RENATO HARO RAMILO                                000000000000590040102                     
1040001300388U 06000000000000000000000000000000000000000000000000000000000000000000000026731000000000026731000000000000000000000000000000160420181804201800001804201800000000000000000000000000000000000000000000000000000000000000000000       
1040001300389T 060000008821120000000   1400000472200000441MWB7919/002    15042018000000000092036341030050MWB7919/002              090000000000000000MIGUEL ANDERSON VASCONCELOS DE ASSIS              000000000000590040102                     
1040001300390U 06000000000000000000000000000000000000000000000000000000000000000000000092036000000000092036000000000000000000000000000000160420181804201800001804201800000000000000000000000000000000000000000000000000000000000000000000       
1040001300391T 060000008821120000000   1400000451100000431MWO2993/004    15042018000000000074636341005400MWO2993/004              090000000000000000MONICA SOARES DO NASCIMENTO COUTO                 000000000000590040102                     
1040001300392U 06000000000000000000000000000000000000000000000000000000000000000000000074636000000000074636000000000000000000000000000000160420181804201800001804201800000000000000000000000000000000000000000000000000000000000000000000       
1040001300393T 060000008821120000000   1400000407300000491MXT1077/004    15042018000000000014187001032660MXT1077/004              090000000000000000LEONARDO BITTENCOURT DE ALMEIDA TRANSPOR          000000000000590040102                     
1040001300394U 06000000000000000000000000000000000000000000000000000000000000000000000014187000000000014187000000000000000000000000000000160420181804201800001804201800000000000000000000000000000000000000000000000000000000000000000000       
1040001300395T 060000008821120000000   1400000446000000411MZM2018/004    15042018000000000028810341096760MZM2018/004              090000000000000000AIRON VITOR VILELA SILVA                          000000000000590040102                     
1040001300396U 06000000000000000000000000000000000000000000000000000000000000000000000028810000000000028810000000000000000000000000000000160420181804201800001804201800000000000000000000000000000000000000000000000000000000000000000000       
1040001300397T 060000008821120000000   1400000435900000461NCC7714/004    15042018000000000032336033004480NCC7714/004              090000000000000000FABIANO RAMIM                                     000000000000590040102                     
1040001300398U 06000000000000000000000000000000000000000000000000000000000000000000000032336000000000032336000000000000000000000000000000160420181804201800001804201800000000000000000000000000000000000000000000000000000000000000000000       
1040001300399T 060000008821120000000   1400000475100000471NDH4314/001    15042018000000000036878033000030NDH4314/001              090000000000000000D&A TRANSPORTES RODOVIARIOS CATANDUVA LT          000000000000590040102                     
1040001300400U 06000000000000000000000000000000000000000000000000000000000000000000000036878000000000036878000000000000000000000000000000160420181804201800001804201800000000000000000000000000000000000000000000000000000000000000000000       
1040001300401T 060000008821120000000   1400000420200000401NLI3238/004    15042018000000000030319237024970NLI3238/004              090000000000000000JEFERSON APARECIDO RAMOS                          000000000000590040102                     
1040001300402U 06000000000000000000000000000000000000000000000000000000000000000000000030319000000000030319000000000000000000000000000000160420181804201800001804201800000000000000000000000000000000000000000000000000000000000000000000       
1040001300403T 060000008821120000000   1400000473600000471NLK0560/002    15042018000000000038553104041040NLK0560/002              090000000000000000ROBERTO ALEXANDRE FERREIRA PEREIRA                000000000000590020102                     
1040001300404U 06000000000000000000000000000000000000000000000000000000000000000000000038553000000000038553000000000000000000000000000000160420181804201800001804201800000000000000000000000000000000000000000000000000000000000000000000       
1040001300405T 060000008821120000000   1400000457600000481NTM2707/004    15042018000000000028319341066900NTM2707/004              090000000000000000EPIFANIO MEDEIROS CAVALCANTE                      000000000000590040102                     
1040001300406U 06000000000000000000000000000000000000000000000000000000000000000000000028319000000000028319000000000000000000000000000000160420181804201800001804201800000000000000000000000000000000000000000000000000000000000000000000       
1040001300407T 060000008821120000000   1400000475600000401NTP3660/001    15042018000000000027657341048220NTP3660/001              090000000000000000DANIELA FIRMINA DA SILVA                          000000000000590040102                     
1040001300408U 06000000000000000000000000000000000000000000000000000000000000000000000027657000000000027657000000000000000000000000000000160420181804201800001804201800000000000000000000000000000000000000000000000000000000000000000000       
1040001300409T 060000008821120000000   1400000452600000491NWC5266/004    15042018000000000067284104032690NWC5266/004              090000000000000000PAULO ROBERTO PEREIRA                             000000000000590060102                     
1040001300410U 06000000000000000000000000000000000000000000000000000000000000000000000067284000000000067284000000000000000000000000000000160420181804201800001804201800000000000000000000000000000000000000000000000000000000000000000000       
1040001300411T 060000008821120000000   1400000463900000471NYP1253/004    15042018000000000051986237017090NYP1253/004              090000000000000000TRANSPORTADORA RPS   EIRELI                       000000000000590040102                     
1040001300412U 06000000000000000000000000000000000000000000000000000000000000000000000051986000000000051986000000000000000000000000000000160420181804201800001804201800000000000000000000000000000000000000000000000000000000000000000000       
